:10000000E0280020054F00003BC40000BD4E00006A
:10001000BD4E0000BD4E0000BD4E000000000000BF
:1000200000000000000000000000000099460000F1
:10003000BD4E00000000000041460000BD4E000023
:1000400079470000794700007947000079470000B0
:1000500079470000794700007947000079470000A0
:100060007947000079470000794700007947000090
:100070007947000079470000794700007947000080
:100080007947000079470000794700007947000070
:100090007947000079470000794700007947000060
:1000A0007947000079470000794700007947000050
:1000B0007947000079470000794700007947000040
:1000C0007947000079470000794700007947000030
:1000D0007947000079470000794700007947000020
:1000E0007947000079470000794700007947000010
:1000F0007947000079470000794700007947000000
:100100004FF0FF0C1CEAD0521EBF1CEAD15392EAFA
:100110000C0F93EA0C0F6FD01A4480EA010C4002D6
:1001200018BF5FEA41211ED04FF0006343EA501030
:1001300043EA5111A0FB01310CF00040B1F5000F72
:100140003EBF490041EAD3715B0040EA010062F121
:100150007F02FD2A1DD8B3F1004F40EBC25008BF0B
:1001600020F00100704790F0000F0CF0004C08BF29
:1001700049024CEA502040EA51207F3AC2BFD2F1F6
:10018000FF0340EAC250704740F400004FF0000304
:10019000013A5DDC12F1190FDCBF00F0004070473E
:1001A000C2F10002410021FA02F1C2F1200200FA7C
:1001B00002FC5FEA310040F1000053EA4C0308BF43
:1001C00020EADC70704792F0000F00F0004C02BF94
:1001D000400010F4000F013AF9D040EA0C0093F00F
:1001E000000F01F0004C02BF490011F4000F013B69
:1001F000F9D041EA0C018FE70CEAD15392EA0C0FD7
:1002000018BF93EA0C0F0AD030F0004C18BF31F041
:10021000004CD8D180EA010000F00040704790F017
:10022000000F17BF90F0004F084691F0000F91F0BB
:10023000004F14D092EA0C0F01D142020FD193EA81
:100240000C0F03D14B0218BF084608D180EA010009
:1002500000F0004040F0FE4040F40000704740F0E5
:10026000FE4040F44000704780F0004002E000BFD4
:1002700081F0004142001FBF5FEA410392EA030F91
:100280007FEA226C7FEA236C6AD04FEA1262D2EBDB
:100290001363C1BFD218414048404140B8BF5B42E0
:1002A000192B88BF704710F0004F40F4000020F079
:1002B0007F4018BF404211F0004F41F4000121F08F
:1002C0007F4118BF494292EA030F3FD0A2F10102D9
:1002D00041FA03FC10EB0C00C3F1200301FA03F117
:1002E00000F0004302D5494260EB4000B0F5000F3A
:1002F00013D3B0F1807F06D340084FEA310102F1F9
:100300000102FE2A51D2B1F1004F40EBC25008BFAA
:1003100020F0010040EA03007047490040EB000074
:10032000013A28BFB0F5000FEDD2B0FA80FCACF175
:10033000080CB2EB0C0200FA0CF0AABF00EBC250A2
:1003400052421843BCBFD0401843704792F0000F90
:1003500081F4000106BF80F400000132013BB5E7E3
:100360004FEA41037FEA226C18BF7FEA236C21D059
:1003700092EA030F04D092F0000F08BF08467047BE
:1003800090EA010F1CBF0020704712F07F4F04D18C
:10039000400028BF40F00040704712F100723CBF9F
:1003A00000F50000704700F0004343F0FE4040F4C9
:1003B000000070477FEA226216BF08467FEA236387
:1003C0000146420206BF5FEA412390EA010F40F472
:1003D000800070474FF0000304E000BF10F00043BE
:1003E00048BF40425FEA000C08BF704743F09643A5
:1003F00001464FF000001CE050EA010208BF7047C0
:100400004FF000030AE000BF50EA010208BF704746
:1004100011F0004302D5404261EB41015FEA010C5B
:1004200002BF84460146002043F0B64308BFA3F153
:100430008053A3F50003BCFA8CF2083AA3EBC25335
:1004400010DB01FA02FC634400FA02FCC2F1200254
:10045000BCF1004F20FA02F243EB020008BF20F08B
:100460000100704702F1200201FA02FCC2F12002F1
:1004700050EA4C0021FA02F243EB020008BF20EAE6
:10048000DC70704742000ED2B2F1FE4F0BD34FF03A
:100490009E03B3EB126209D44FEA002343F00043FA
:1004A00023FA02F070474FF00000704712F1610F1D
:1004B00001D1420202D14FF0FF3070474FF00000EF
:1004C000704700BF53B94AB9002908BF00281CBFB4
:1004D0004FF0FF314FF0FF3000F00CB8ADF1080CD9
:1004E0006DE904CE00F008F8DDF804E0DDE9022350
:1004F00004B07047704700BF2DE9F04F07468C46A7
:100500000846099E15463C461946002B40F0C68019
:100510008242B2FA82F746D94FB1C7F1200E24FACF
:100520000EFE00FA07F3BD404EEA030CBC404FEA52
:1005300015481FFA85FEBCFBF8F9220C08FB19C30D
:1005400009FB0EFA42EA03439A4528D9EB1809F150
:10055000FF3004D29A4502D9A9F102002B44A3EB43
:100560000A03A4B2B3FBF8F208FB123302FB0EFE3F
:1005700044EA0344A64514D92C1902F1FF3303D2EF
:10058000A64501D9931E2C44A4EB0E0443EA004077
:100590001EB1FC40002334607360BDE8F08F484614
:1005A000DDE71346F0E702B9FFDE87BB831A0121BE
:1005B0004FEA154EAAB2B3FBFEFC200C0EFB1C3317
:1005C0000CFB02F840EA0343984563D9EB180CF1A1
:1005D000FF3004D2984502D9ACF102002B44A3EBC2
:1005E0000803A4B2B3FBFEFC0EFB1C330CFB02F2AF
:1005F00044EA0344A2424FD92C190CF1FF3304D230
:10060000A24202D9ACF102032C44A41ABEE7C7F1FE
:10061000200C20FA0CF800FA07F324FA0CFCBD4079
:100620004CEA03024FEA154EABB2B8FBFEFC110CCC
:100630000EFB1C800CFB03F941EA0040814504FAE3
:1006400007F423D928180CF1FF3104D2814502D9CF
:10065000ACF102012844A0EB090092B2B0FBFEFC11
:100660000EFB1C000CFB03F842EA004398450FD92F
:10067000EB180CF1FF3204D2984502D9ACF102021A
:100680002B44A3EB080342EA014191E76146E2E70C
:100690006246F6E76046A2E76346B6E7834205D9BD
:1006A0000EB1C6E900700021084676E7B3FA83F17F
:1006B00081B9834201D3BA420AD8BC1A60EB030362
:1006C00001209C46002E68D0C6E9004C002164E75A
:1006D0000846F7E7C1F1200C8B4022FA0CF41C43CA
:1006E00002FA01F500FA01F327FA0CF220FA0CFBEA
:1006F0004FEA14491343BBFBF9F81FFA84FE09FBC8
:1007000018BB1A0C08FB0EFA42EA0B42924507FA94
:1007100001F73ED9A21808F1FF3004D2924502D960
:10072000A8F102002244A2EB0A029BB2B2FBF9F844
:1007300009FB182208FB0EFE43EA024296452AD91D
:10074000A21808F1FF3304D2964502D9A8F102039A
:10075000224443EA0040A0FB0593A2EB0E029A421A
:10076000CE46984602D306D14F4504D2B9EB050ECA
:1007700063EB0408013886B1B7EB0E0362EB0807A0
:1007800007FA0CFCCB404CEA0303CF40C6E9003724
:100790009CE74046C7E74346DBE73146FDE60000FD
:1007A00008B5024809F096F808BD00BFBC06002055
:1007B00010B586B00023019302930393049305932D
:1007C000022302930E4A039204930A238DF81430F5
:1007D0000C4B186840B183685B6801A998470446D0
:1007E00040B9204606B010BD07480BF0C6FB4FF0DD
:1007F000FF34F6E7014605480BF0BFFBF1E700BF09
:10080000AC060020A806002058D5000088D50000BE
:100810002DE9F84F05460E461446D0F808A0D0F84A
:1008200004B0D0F8108012F0FC6F36D104F0300321
:10083000302B43D004F00213022B50D004F00603F7
:10084000042B5DD014F4402702D014F4003F65D08F
:10085000B7F5402F74D014F4801F05D027B114F0E1
:10086000010F01D084F4402424F48019DBF8003017
:100870000127B7403B4275D014F0010F00F084808F
:10088000D8F800303B43C8F80030DAF800304A4668
:10089000314628469847BDE8F88F3F4F40F2B523D0
:1008A0003A463E493E480BF0EDFC3E480BF0EAFC70
:1008B00040F2B52138460BF0DEFCB7E7364F4FF477
:1008C0002E733A46384936480BF0DCFC37480BF0BB
:1008D000D9FC4FF42E7138460BF0CDFCAAE72E4F11
:1008E0004FF42F733A4632492D480BF0CBFC314878
:1008F0000BF0C8FC4FF42F7138460BF0BCFC9DE7A1
:10090000254F4FF430733A462B4925480BF0BAFC7B
:100910004FF4307138460BF0AEFC93E7DFF8789077
:1009200040F2C3234A4625491D480BF0ABFC24483E
:100930000BF0A8FC40F2C32148460BF09CFC87E773
:10094000DFF8549040F2C7234A461E4914480BF082
:1009500099FC1D480BF096FC40F2C72148460BF06D
:100960008AFC78E7DFF830B04FF435735A46174900
:100970000B480BF087FC16480BF084FC4FF43571E4
:1009800058460BF078FC77E7D8F8003023EA0703E5
:10099000C8F8003079E700BFA8D50000DCD500001A
:1009A0003CD600005CD6000080D60000BCD600001B
:1009B000FCD6000034D7000088D70000BCD7000068
:1009C00004D8000040D8000084D80000B0D800004F
:1009D000F0D800002DE9F04385B065480BF0CDFA62
:1009E0000CF0CCFB4A0142EAD06243011B1A62EBD5
:1009F0000102920042EA93729B001E1842EB01032F
:100A0000DB0043EA5673C6F3103646EA4346DB0B77
:100A100016F57A7643F100074FF000085FE055487D
:100A20000BF0ABFA20E04FF47A7505FB04F0FFF70A
:100A3000D5FC5149FFF764FBFFF724FD82B2214644
:100A40004E480BF09AFA4E4B188805FB00F0FFF762
:100A5000C5FC4949FFF754FBFFF714FD81B2494B30
:100A6000198049480BF089FA484808F033FF0CF028
:100A700085FB02464B0143EAD0634001841A63EBD5
:100A800001039D0045EA9475A400A41845EB0105F7
:100A9000ED0045EA5475C4F3103444EA4544ED0BC7
:100AA000A146321B67EB0503029203930096019760
:100AB00022462B4636480BF060FAA11B65EB070374
:100AC00040F2E932914273F1000304DB41F28833D2
:100AD000F61847F10007B14575EB07032EDB08F167
:100AE00001080CF04BFB02464B0143EAD063400186
:100AF000801A63EB01039B0043EA90738000801827
:100B000043EB0103DB0043EA5073C0F3103040EACB
:100B10004342DB0B41461F480BF02FFAFFF748FE1C
:100B2000014600287FF47BAF154B1C88B4F5806F1D
:100B3000FFF479AF18480BF020FA95E7301B20EA54
:100B4000E070C117C90341EA5041C00340F2E734E5
:100B500000194FF47A724FF0000341F10001FFF7E2
:100B6000B1FC0AF0EFF916F57A7647F10007B6E71F
:100B700004D9000060D900000C30403BA8D9000027
:100B8000AC060020DE010020CCD90000DC060020ED
:100B900000DA000024D900008CD9000038B59E4846
:100BA0000BF0EBF952E19D4D40F292432A469C49ED
:100BB0009C480BF067FB9C480BF064FB40F29241B1
:100BC00028460BF058FB5CE1012460E1934D4FF4A3
:100BD0008D632A46924993480BF054FB92480BF0E0
:100BE00051FB4FF48D6128460BF045FB56E18F48D1
:100BF00083681B694FF40051984758E18C480BF00B
:100C0000BCF957E1854D40F292432A468449854814
:100C10000BF038FB84480BF035FB40F2924128463C
:100C20000BF029FB4EE1012452E17C4D4FF48D6322
:100C30002A467B497B480BF025FB7B480BF022FBC7
:100C40004FF48D6128460BF016FB48E17748836826
:100C50001B694FF4804198474AE175480BF08DF9C4
:100C600049E16E4D40F292432A466D496D480BF0C2
:100C700009FB6D480BF006FB40F2924128460BF051
:100C8000FAFA40E1012444E1644D4FF48D632A46B1
:100C9000634964480BF0F6FA63480BF0F3FA4FF43B
:100CA0008D6128460BF0E7FA3AE1604883681B69DA
:100CB0004FF4004198473CE15D480BF05EF93BE1A1
:100CC000564D40F292432A46554956480BF0DAFAFF
:100CD00055480BF0D7FA40F2924128460BF0CBFA78
:100CE00032E1012436E14D4D4FF48D632A464C49E3
:100CF0004C480BF0C7FA4C480BF0C4FA4FF48D6126
:100D000028460BF0B8FA2CE1484883681B694FF479
:100D1000803198472EE146480BF02FF92DE13F4CEA
:100D200040F2BC4322463E493E480BF0ABFA3E48F7
:100D30000BF0A8FA40F2BC4120460BF09CFA35E0DB
:100D4000364C40F2BC432246354936480BF09AFAFD
:100D500035480BF097FA40F2BC4120460BF08BFA75
:100D600030E02E4C40F2BC4322462D492D480BF07A
:100D700089FA2D480BF086FA40F2BC4120460BF070
:100D80007AFA2BE0294883685B694FF480319847F1
:100D90004FF4804000210AF0D5F80135092D49D8DB
:100DA000224B5B681B6813F4005FB8D01F4CA3682C
:100DB0005B694FF400512046984763681B6813F441
:100DC000804FBDD0194CA3685B694FF48041204629
:100DD000984763681B6813F4004FC2D0134CA36894
:100DE0005B694FF400412046984763681B6813F421
:100DF000803FC7D1094C40F2BC432246084909480C
:100E00000BF040FA08480BF03DFA40F2BC41204696
:100E10000BF031FAB6E700BF30DA0000A8D50000C9
:100E2000B0D800003CD60000F0D800008CD2000002
:100E300080DA0000544B186809F086FA534B1868A2
:100E400009F082FA524B186809F07EFA4FF0FF322F
:100E50004FF0FF334F4808F081FD4B4B186809F005
:100E6000D7FC4A4B186809F0D3FC494B186809F0C5
:100E7000CFFC494B5A681C69136813F4005F3FF4B8
:100E800092AE236813F4005F7FF49EAE0024424BC1
:100E90005B681B6813F4005F3FF498AE002C3FF4CE
:100EA000A6AE3D488368DB684FF4005198470028A0
:100EB000FFF6A4AE384B5A681C69136813F4804FD0
:100EC0003FF4A0AE236813F4804F7FF4ACAE00244F
:100ED000314B5B681B6813F4804F3FF4A6AE002CC7
:100EE0003FF4B4AE2C488368DB684FF480419847E8
:100EF0000028FFF6B2AE284B5A681C69136813F439
:100F0000004F3FF4AEAE236813F4004F7FF4BAAE47
:100F10000024214B5B681B6813F4004F3FF4B4AE10
:100F2000002C3FF4C2AE1C488368DB684FF40041DC
:100F300098470028FFF6C0AE174B5A681C69136823
:100F400013F4803F3FF4BCAE236813F4803F7FF47A
:100F5000C8AE0024104B5B681B6813F4803F3FF45D
:100F6000C2AE002C3FF4D0AE0B488368DB684FF470
:100F7000803198470028FFF6CEAE4FF48040002124
:100F800009F0E0FF002509E7F8060020F40600203C
:100F9000F0060020BC0600208CD2000070B55B4833
:100FA0000AF0EBFF0024C8E0594E40F2924332466B
:100FB000584959480BF066F958480BF063F940F26C
:100FC000924130460BF057F9EEE00025F2E0504E2A
:100FD0004FF48D6332464F494F480BF053F94F4859
:100FE0000BF050F94FF48D6130460BF044F9E8E016
:100FF0004B4883681B694FF400519847EAE0494821
:101000000AF0BBFFE9E0424E40F2924332464149CA
:1010100041480BF037F941480BF034F940F2924166
:1010200030460BF028F9E0E00025E4E0384E4FF4BC
:101030008D633246374938480BF024F937480BF0B6
:1010400021F94FF48D6130460BF015F9DAE03448A0
:1010500083681B694FF480419847DCE031480AF00F
:101060008CFFDBE02A4E40F29243324629492A485F
:101070000BF008F929480BF005F940F2924130468F
:101080000BF0F9F8D2E00025D6E0214E4FF48D6345
:101090003246204920480BF0F5F820480BF0F2F8D2
:1010A0004FF48D6130460BF0E6F8CCE01C488368C5
:1010B0001B694FF400419847CEE01A480AF05DFFE3
:1010C000CDE0134E40F292433246124912480BF0E3
:1010D000D9F812480BF0D6F840F2924130460BF0A6
:1010E000CAF8C4E00025C8E0094E4FF48D633246CB
:1010F000084909480BF0C6F808480BF0C3F84FF44C
:101100008D6130460BF0B7F8BEE000BF9CDA0000FE
:10111000A8D50000B0D800003CD60000F0D80000F0
:101120008CD2000080DA0000A74883681B694FF466
:10113000803198470028C0F2B1804FF0FF324FF065
:10114000FF33A24808F00AFC01340CF017F80246FD
:101150004B0143EAD0634001801A63EB01039B001B
:1011600043EA90738000801843EB0103DB0043EAFD
:101170005073C0F3103040EA4342DB0B21469448E1
:101180000AF0FBFE934D298893480AF0F6FE2B885F
:10119000B3F57A7F80F086808B4B5A681D6913689F
:1011A00013F4005F3FF400AF2B6813F4005F7FF48B
:1011B0000CAF0125844B5B681B6813F4005F3FF4A0
:1011C00006AF002D3FF414AF7F488368DB684FF40F
:1011D000005198470028FFF612AF7B4B5A681D69F3
:1011E000136813F4804F3FF40EAF2B6813F4804F55
:1011F0007FF41AAF0125744B5B681B6813F4804FB2
:101200003FF414AF002D3FF422AF6F488368DB68D2
:101210004FF4804198470028FFF620AF6A4B5A6888
:101220001D69136813F4004F3FF41CAF2B6813F4CF
:10123000004F7FF428AF0125634B5B681B6813F4F4
:10124000004F3FF422AF002D3FF430AF5E4883687B
:10125000DB684FF4004198470028FFF62EAF5A4B49
:101260005A681D69136813F4803F3FF42AAF2B6856
:1012700013F4803F7FF436AF0125534B5B681B6846
:1012800013F4803F3FF430AF002D3FF44DAF4E4894
:101290008368DB684FF4803198474BE74F480AF08A
:1012A0006CFE4AE7B3F5FA6FC0F09A8040F6B732A9
:1012B000934200F29982444B5A681D69136813F4F3
:1012C000005F00F0CC812B6813F4005F40F0D88100
:1012D00001253D4B5B681B6813F4005F00F0D28171
:1012E000002D00F0ED8138488368DB684FF4005131
:1012F00098470028C0F2EB81334B5A681D69136888
:1013000013F4804F00F0E7812B6813F4804F40F016
:10131000F38101252C4B5B681B6813F4804F00F0B0
:10132000ED81002D00F0FB8127488368DB684FF4D6
:10133000804198470028C0F2F981234B5A681D6903
:10134000136813F4004F00F0F5812B6813F4004F7D
:1013500040F0018200251C4B5B681B6813F4004FB2
:1013600000F0FB81002D00F0098217488368DB68DC
:101370004FF4004198470028C0F20782124B5A6888
:101380001D69136813F4803F00F003822B6813F487
:10139000803F40F00F8200250B4B5B681B6813F405
:1013A000803F00F00982002D00F017820648836814
:1013B000DB684FF4803198470028BFF6BEAE07487F
:1013C0000AF0DBFDB9E600BF8CD20000CC0600209D
:1013D000DCDA0000DC01002018DB000080DA00000D
:1013E000B14B5A681D69136813F4005F7FD02B68F6
:1013F00013F4005F40F08C800125AB4B5B681B68E9
:1014000013F4005F00F08680002D00F09480A64861
:101410008368DB684FF4005198470028C0F292803F
:10142000A14B5A681D69136813F4804F00F08E8039
:101430002B6813F4804F40F09A8001259A4B5B682B
:101440001B6813F4804F00F09480002D00F0A28000
:1014500095488368DB684FF4804198470028C0F2C4
:10146000A080914B5A681D69136813F4004F00F077
:101470009C802B6813F4004F40F0A88001258A4B14
:101480005B681B6813F4004F00F0A280002D00F091
:10149000B08085488368DB684FF400419847002896
:1014A000C0F2AE80804B5A681D69136813F4803F08
:1014B00000F0AA802B6813F4803F40F0B68000252E
:1014C000794B5B681B6813F4803F00F0B080002DFF
:1014D00000F0BE8074488368DB684FF48031984721
:1014E0000028BFF62AAE71480AF047FD25E6704E87
:1014F00040F2924332466F496F480AF0C3FE6F488C
:101500000AF0C0FE40F2924130460AF0B4FE6EE7A7
:10151000002572E7664E4FF48D6332466549664892
:101520000AF0B0FE65480AF0ADFE4FF48D6130461A
:101530000AF0A1FE68E75C4883681B694FF400511C
:1015400098476AE759480AF018FD69E7584E40F293
:1015500092433246574958480AF094FE57480AF0D9
:1015600091FE40F2924130460AF085FE60E7002588
:1015700064E74F4E4FF48D6332464E494E480AF0B1
:1015800081FE4E480AF07EFE4FF48D6130460AF02F
:1015900072FE5AE7444883681B694FF480419847BC
:1015A0005CE742480AF0E9FC5BE7414E40F29243B7
:1015B0003246404940480AF065FE40480AF062FE63
:1015C00040F2924130460AF056FE52E7002556E7B7
:1015D000374E4FF48D633246364937480AF052FE93
:1015E00036480AF04FFE4FF48D6130460AF043FE54
:1015F0004CE72D4883681B694FF4004198474EE73C
:101600002A480AF0BAFC4DE7294E40F2924332468E
:10161000284929480AF036FE28480AF033FE40F2ED
:10162000924130460AF027FE44E7012548E7204E64
:101630004FF48D6332461F491F480AF023FE1F48AE
:101640000AF020FE4FF48D6130460AF014FE3EE7AA
:10165000154883681B694FF48031984740E7144E62
:1016600040F292433246134913480AF00BFE1348E6
:101670000AF008FE40F2924130460AF0FCFD22E6F4
:10168000002526E60A4E4FF48D63324609490A4882
:101690000AF0F8FD09480AF0F5FD4FF48D61304677
:1016A0000AF0E9FD1CE600BF8CD2000080DA0000E1
:1016B000A8D50000B0D800003CD60000F0D800004B
:1016C000AE4883681B694FF40051984711E6AC4857
:1016D0000AF053FC10E6AB4E40F292433246AA4960
:1016E000AA480AF0CFFDAA480AF0CCFD40F2924188
:1016F00030460AF0C0FD07E600250BE6A14E4FF488
:101700008D633246A049A1480AF0BCFDA0480AF00A
:10171000B9FD4FF48D6130460AF0ADFD01E6974802
:1017200083681B694FF48041984703E694480AF0A8
:1017300024FC02E6934E40F292433246924993488B
:101740000AF0A0FD92480AF09DFD40F29241304619
:101750000AF091FDF9E50125FDE58A4E4FF48D6310
:101760003246894989480AF08DFD89480AF08AFD88
:101770004FF48D6130460AF07EFDF3E57F488368C3
:101780001B694FF400419847F5E57D480AF0F5FBE9
:10179000F4E57C4E40F2924332467B497B480AF0A6
:1017A00071FD7B480AF06EFD40F2924130460AF02E
:1017B00062FDEBE50125EFE5724E4FF48D63324695
:1017C000714972480AF05EFD71480AF05BFD4FF402
:1017D0008D6130460AF04FFDE5E5684883681B6976
:1017E0004FF480319847E7E5644B5A681D691368E8
:1017F00013F4005F7FD02B6813F4005F40F08C80FF
:1018000001255E4B5B681B6813F4005F00F0868067
:10181000002D00F0948059488368DB684FF4005134
:1018200098470028C0F29280544B5A681D6913688B
:1018300013F4804F00F08E802B6813F4804F40F03B
:101840009A8000254D4B5B681B6813F4804F00F0B5
:10185000A180002D00F0AF8048488368DB684FF41A
:10186000804198470028C0F2AD80444B5A681D69FA
:10187000136813F4004F00F0A9802B6813F4004F95
:1018800040F0B58000253D4B5B681B6813F4004FAA
:1018900000F0AF80002D00F0BD8038488368DB6821
:1018A0004FF4004198470028C0F2BB80334B5A6880
:1018B0001D69136813F4803F00F0B7802B6813F4A0
:1018C000803F40F0C38000252C4B5B681B6813F4FD
:1018D000803F00F0BD80002D00F0CB80274883685A
:1018E000DB684FF4803198470028BFF626AC2448C7
:1018F0000AF043FB21E4234E40F292433246224950
:1019000022480AF0BFFC22480AF0BCFC40F2924197
:1019100030460AF0B0FC6EE7002572E7194E4FF42E
:101920008D633246184919480AF0ACFC18480AF091
:10193000A9FC4FF48D6130460AF09DFC68E70F4822
:1019400083681B694FF4005198476AE70C480AF016
:1019500014FB69E70B4E40F2924332460A490B48AA
:101960000AF090FC0A480AF08DFC40F292413046A1
:101970000AF081FC60E7012564E700BF8CD200001B
:1019800080DA0000A8D50000B0D800003CD60000E6
:10199000F0D800003A4E4FF48D63324639493A4848
:1019A0000AF070FC39480AF06DFC4FF48D61304646
:1019B0000AF061FC4DE7364883681B694FF48041AB
:1019C00098474FE733480AF0D8FA4EE72C4E40F2DA
:1019D000924332462B492C480AF054FC2B480AF01B
:1019E00051FC40F2924130460AF045FC45E70125A2
:1019F00049E7234E4FF48D633246224922480AF0CC
:101A000041FC22480AF03EFC4FF48D6130460AF05A
:101A100032FC3FE71E4883681B694FF4004198473A
:101A200041E71C480AF0A9FA40E7154E40F29243FC
:101A30003246144914480AF025FC14480AF022FCE6
:101A400040F2924130460AF016FC37E701253BE7A9
:101A50000B4E4FF48D6332460A490B480AF012FCD4
:101A60000A480AF00FFC4FF48D6130460AF003FC7F
:101A700031E7074883681B694FF48031984733E7A3
:101A8000A8D50000B0D800003CD60000F0D8000077
:101A90008CD2000080DA0000F0B589B07E480BF0EF
:101AA00081FA18B17C480BF07DFA20B97B480AF026
:101AB00064FA09B0F0BD78480BF074FA0028F5D04C
:101AC00075480BF06FFA0028F0D073480BF06AFAF3
:101AD000002800F0B7804FF4B01171480AF0D7F930
:101AE0000028E6DB4FF4B0116E480AF0D0F9002868
:101AF000DFDB4FF4B0116C480AF0C9F90028D8DBDD
:101B00004FF4B01169480AF0C2F90028D1DB6849E6
:101B100068480AF0BCF9011EC0F29A805E4B9C68CE
:101B20005A681D69136813F4006F00F095802B68E4
:101B300013F4006F40F0A1804FF0B862A46902F086
:101B4000C06302F0A0720B215348A047011EC0F2EF
:101B50009780594B594A5A604FF400629A604E4B35
:101B60009B68DB691BB1012253494B489847544895
:101B700006F09AFF534B1860002800F08580514B07
:101B8000186883681B6850499847014600287FD130
:101B900001254E4BDD604E4803F0ACFB2A46002188
:101BA0004C480BF095FA2A4600214B480BF090FA6E
:101BB0002A46002149480BF08BFA00260027CDE980
:101BC0000667002404940395029401940094444B06
:101BD0004FF480624349444807F090FB434B186040
:101BE000CDE9066704940395029401940094404B58
:101BF0004FF480623F49404807F080FB3F4B18603C
:101C0000CDE90667049403950294019400943C4B3B
:101C10004FF480623B493C4807F070FB3B4B186037
:101C2000CDE906670494022303930294019400947F
:101C3000374B4FF480623749374807F05FFB374B2B
:101C4000186036E7144B196835480AF096F930E702
:101C500034480AF092F92CE7334E40F275233246AD
:101C6000324933480AF00EFB32480AF00BFB40F2CF
:101C7000752130460AF0FFFA59E74FF070725DE7C0
:101C80002D480AF07AF914E72C480AF076F976E73D
:101C90002B480AF072F97BE78CD2000048DB000089
:101CA000C0DD0000C8DD0000D0DD0000D8DD000090
:101CB00010000100B8DD0000B0060020A107000000
:101CC0000CDC0000A8060020E0DD000000700040F1
:101CD00068DC0000DC060020CC060020BC060020EA
:101CE000D50900006014002070040020F8060020D0
:101CF000451D000080180020C0030020F4060020CD
:101D00009D0F0000A01C002010030020F006002002
:101D10009D0B0000C020002060020020EC06002087
:101D200064DB00008CDB0000A8D50000B0D8000008
:101D30003CD60000F0D80000C8DB000014DC000036
:101D400038DC0000F0B58FB0002509950A950B9599
:101D50000C95ADF834503B480AF00FF92C463DE0A5
:101D60000922314609A80AF09DF887B2364B1F8038
:101D7000364807F0AFFDBDF82A30BDF82C20BDF87D
:101D80002E10BDF83000BDF832C0BDF834E0079722
:101D90000696CDF814E0CDF810C0039002910192A0
:101DA0000093BDF82830BDF82620BDF8241028483F
:101DB0000AF0E3F8274A82FB0432E317C3EB62031D
:101DC00003EBC303E31A0EAA02EB430323F8146CDC
:101DD00001341D4B198820480AF0CFF84FF0FF322C
:101DE0004FF0FF331D4807F0B9FD01350BF0C6F980
:101DF00002464B0143EAD0634001801A63EB0103C2
:101E00009B0043EA90738000801843EB0103DB00E2
:101E100043EA5073C0F3103040EA4342DB0B2946DB
:101E20000F480AF0AAF80F4E31880F480AF0A5F8BB
:101E30003688082C94DC0EAB03EB440323F8146CB7
:101E4000C6E700BF9CDC0000DC010020CC060020BF
:101E500054DD0000398EE33880DD0000DC06002010
:101E6000E0DC0000DE01002020DD00002DE9F04F65
:101E70008DB005920393134602F004020192C3F35E
:101E8000C20210F00303029340F0938207468A4691
:101E90000132041D002841D027B1E31B0433534510
:101EA00000F28A82039B5D1EDDF808B0CDF810B009
:101EB000CDF818B000264FF00408C1460FB1039BBF
:101EC0002360531E0793002A40F3B780059B13F04D
:101ED000020221D00120E11B8B081AB1B1F5007F6D
:101EE00080F0BF80BBF10F0F00F2CE80002F00F01A
:101EF000E280DBB20CAA5A4402F8103C002800F041
:101F0000D68063F07F030CAA5A4402F8103C049B6D
:101F1000013304930BF1010B0434F6E001F0070ADE
:101F20005444CAF1080AB7E7252B40F0ED8001269A
:101F30004FF00408C146E7E04FF00808C146E3E06F
:101F40004FF00408C146DFE04FF00408C146DBE073
:101F50002A786C2A26D0002604EB0802013AC8F140
:101F600000010A40144627B1D11B4944514500F2F3
:101F70002682732B59D0B9F1040F00F0A880B9F173
:101F8000080F40F0AC80169B073323F0070303F1E2
:101F900008011691D3E900010FB1C2E9000102F175
:101FA0000804B1E01CF8022C6C2A04D000264FF083
:101FB0000408C146D0E700264FF00808C146CBE729
:101FC0002B784C2B1CD0169B073323F0070303F10F
:101FD00008021692D3E90001E21D22F0070247B180
:101FE000D31B0833534515D82B784C2B15D0C2E999
:101FF000000102F1080400264FF00808C14683E002
:10200000169B073323F0070303F108021692D3E966
:102010000001E1E76FF01B00C8E1C2E90001E8E759
:1020200000264FF00408C14696E7169B1A1D16922B
:102030001B680393079A654640E7BB4B039A9A4295
:1020400004D3BA4B9A420AD3002300E00023002BAA
:102050007FF43CAF059B03F0020200203BE7012325
:10206000F5E7B34C4FF4F8732246B249B2480AF090
:1020700009F9B2480AF006F94FF4F87120460AF05F
:10208000FAF86FF0150091E1A94C40F2F5132246E1
:10209000A849A9480AF0F6F8A9480AF0F3F840F26E
:1020A000F51120460AF0E7F86FF015007EE1069B77
:1020B000013306932EE708B9019B13B10AF1010A17
:1020C00028E703980AF058FA831C9A4422E7169BE3
:1020D000191D16911B6807B11360141D14E0944C70
:1020E00040F231232246934993480AF0CBF84946FF
:1020F00094480AF0C7F840F2312120460AF0BBF8B4
:102100006FF0150052E10026654605F1010C6B7871
:10211000002B00F0C180002E3FF406AFA3F1200198
:102120005A29F0D801A252F821F000BF092100007D
:1021300007210000072100000921000007210000FD
:1021400007210000072100000721000007210000EF
:1021500007210000591F000009210000072100008D
:1021600009210000092100000721000009210000C9
:1021700009210000092100000921000009210000B7
:1021800009210000092100000921000009210000A7
:10219000092100000721000007210000072100009D
:1021A000072100000721000007210000072100008F
:1021B000C11F0000072100000721000007210000C7
:1021C000C11F0000C11F0000C11F00000721000047
:1021D000072100000721000007210000092100005D
:1021E000072100000721000007210000072100004F
:1021F000072100000721000007210000072100003F
:10220000072100000721000007210000511F0000E6
:10221000072100000721000007210000072100001E
:10222000072100000721000007210000072100000E
:10223000C11F000007210000511F0000511F0000B6
:10224000C11F0000C11F0000C11F000009210000C4
:10225000511F0000391F0000072100000921000064
:102260000721000021200000511F00002120000054
:10227000072100000721000021200000491F000065
:10228000511F00000721000007210000511F00001E
:1022900007210000411F0000E31BB3F5806F11D23E
:1022A0001FB300223A609B083B70019B0BB3069B57
:1022B000FB70049BBB70ABBB029DDDF81090DDF89A
:1022C0000C8058E01A4C40F23D23224619491A4826
:1022D00009F0D8FF1C4809F0D5FF40F23D21204607
:1022E00009F0C9FF6FF0150060E05344A3F1080046
:1022F0005CE0069B7B70DCE704F8011B01339B4527
:10230000DAD90CAA1A4412F8101C12F9102C002A5F
:10231000F4DA01F07F01E21B01325245ECD96FF093
:102320001B0043E0029BEAE7E4D10000F4FA00005E
:10233000E8DD000000D800003CD6000030DE0000E0
:1023400054DE000070DE000088DE0000019BF3B167
:10235000029EE31B33440133534533D80CAB2B446B
:1023600013F8103C04F8013B3246414620460AF07F
:1023700021F934440135AB4517D9B9F1000FE5D047
:102380000CAB2B4413F9103C002BDFDAF2E70CAB5B
:102390002B4413F8103C57F82380002247F82320E1
:1023A00040460AF0E9F8461CD3E7E01B0DB0BDE853
:1023B000F08F6FF00D00F9E76FF01B00F6E76FF09C
:1023C0001B00F3E76FF01B00F0E700BF38B50446D1
:1023D000436803F003038160022B03D9032B02D16E
:1023E00000680EE063B9084D45232A4607490848AE
:1023F00009F048FF4521284609F03DFF002000E094
:1024000000200023636038BDA0DE000000D800007B
:102410003CD60000014B1860704700BF98000020B8
:1024200038B504468C46838B002A14DB03F007037F
:102430005A1F012A1BD9042B50D02F4C40F21B13DA
:1024400022462E492E4809F01DFF40F21B1120465E
:1024500009F011FF38BDD0E900018CE8030000232A
:10246000236063600121204609F095FDF2E7D0E981
:1024700000018CE80300002222606260062B0FD06E
:10248000052B1DD10021204609F085FD204609F0CD
:10249000A9FD0028DED0A38B43F02003A383D9E756
:1024A000DCF800303BB1E28B0132E283002BF9D043
:1024B0001B68002BF6D10221204609F06CFDE5E7F0
:1024C0000D4D40F209132A460E490D4809F0DAFE77
:1024D00040F20911284609F0CEFED3E7002109F0A9
:1024E0005AFD204609F07EFD0028B3D0A38B43F0AF
:1024F0002003A383AEE700BFC4DE000000D80000C5
:102500003CD60000E8DE00002DE9F04F83B0044621
:102510001646838B03F0070703F008080D4631B118
:10252000B8F1000F12D1002300930193AAE0DFF865
:10253000E09240F233134A46B649B74809F0A2FE8A
:1025400040F23311484609F096FEE9E7012D13D019
:10255000022D16D1A38B43F02003A383143420460D
:1025600006F094FD002800F09C8186F31188BFF3EB
:102570006F8F03B0BDE8F08FA38B43F01003A383EC
:10258000ECE7A34D4FF49E732A46A449A24809F0F4
:1025900079FE4FF49E71284609F06DFEDAE7204679
:1025A00009F020FD05466FE0D4F818904A466946C8
:1025B0002046FFF735FF002511E0002F40F0818015
:1025C0002368002B00F08B8023691D68002D00F02C
:1025D00094800621204609F0DEFC4FF00009A38B11
:1025E00003F00708B84500F00B81A268002A00F04C
:1025F0000981012217461AB9009A002A00F00481C5
:1026000043F00803A38304F1140A504606F03EFD8C
:10261000002800F0158186F31188BFF36F8F002F1B
:1026200040F01F81009B2BB14B4642466946204635
:1026300009F01AFD15B17A492046A8474FF020034A
:10264000EFF3118683F31288BFF36F8F504606F0C5
:102650000DFD002800F00B81504606F027FDA38BEE
:1026600023F00803A383A38B13F0100F00F00F8156
:1026700023F01003A3830125A78B07F00707002D84
:102680003FF46CAF022D8AD0002D3FF467AF012DCF
:102690008AD0032D91D0042D3ED0052D40F0A0808E
:1026A000012F72D12368002B7DD023699D68002DF6
:1026B00000F087800521204609F06DFC4FF00009ED
:1026C0008DE7534D4FF4AB732A465649524809F0F3
:1026D000D9FD4FF4AB71284609F0CDFD70E74C4DA4
:1026E00040F257132A4650494B4809F0CBFD40F2BF
:1026F0005711284609F0BFFD66E7DFF814814FF453
:10270000AD7342464949444809F0BCFD4FF4AD71F0
:10271000404609F0B0FD5CE7022F0BD1E38BBBB95B
:1027200023695D6815B30421204609F034FC4FF09D
:10273000000954E7364D40F25D132A463C493648BD
:1027400009F0A0FD40F25D11284609F094FDE5E78F
:102750002F4D4FF4AF732A4636492F4809F092FDAA
:102760004FF4AF71284609F086FDD9E7DFF8A08065
:1027700040F2611342462D49274809F083FD40F29B
:102780006111404609F077FDCDE7214D4FF4B2735A
:102790002A462949204809F075FD4FF4B2712846B0
:1027A00009F069FD7EE71A4D40F265132A461E497D
:1027B000194809F067FD40F26511284609F05BFDF4
:1027C00073E7DFF84C804FF4B47342461749124860
:1027D00009F058FD4FF4B471404609F04CFD69E72B
:1027E0000B4D40F26B132A4614490B4809F04AFD81
:1027F00040F26B11284609F03EFD0025A946EEE6A1
:102800000022F7E60022F5E6002D7FF4F9AE2AE774
:10281000C4DE000010DF00003CD6000020DF000016
:10282000DD28000034DF000040DF000064DF00002E
:102830007CDF000094DF0000A4DF000000D800006F
:10284000DFF880B0B9235A461F49204809F01AFD25
:1028500051461F4809F016FDB921584609F00BFDF5
:10286000D9E64A464146204609F09DFBDAE6154D79
:102870008E232A461749154809F004FD514616488B
:1028800009F000FD8E21284609F0F5FCE4E613F07E
:10289000200F04D023F02003A3830225ECE60025BB
:1028A000EAE6084DB9232A460749084809F0EAFC38
:1028B0002146074809F0E6FCB921284609F0DBFC6F
:1028C00053E600BFBCDF0000ECDF00003CD6000098
:1028D00004E000001CE0000034E000002DE9F041BD
:1028E00004460D4600F114064FF02003EFF3118764
:1028F00083F31288BFF36F8F304606F0B7FB50B1F9
:10290000304606F0D3FBA5613A4601212046FFF789
:10291000FBFDBDE8F081DFF820808E2342460749A9
:10292000074809F0AFFC3146064809F0ABFC8E21A0
:10293000404609F0A0FCE3E7BCDF00001CE000001B
:102940003CD6000034E000002DE9F84F04468846EC
:1029500009F061FB061E58DB04F114074FF0200359
:10296000EFF3118983F31288BFF36F8F384606F0B7
:102970007DFBE8B1384606F099FBA58B05F007050D
:10298000E38B4FF6FF72934256D02E46022D1FD096
:102990002DB3042D23D0062D21D0052D53D0012D8C
:1029A00036D16FF004064FF0000A534652461CE041
:1029B0003C4D8E232A463C493C4809F063FC39468D
:1029C0003B4809F05FFC8E21284609F054FCD1E712
:1029D0000133E3834FF0010A00231A4605E0B5FAFC
:1029E00085F35B094FF0000A012242B10022C8F8CA
:1029F0000020626872B3C2F80080C4F8048073B328
:102A00004A4602212046FFF77FFD3046BDE8F88F99
:102A1000284E40F2C91332462749244809F032FCB7
:102A200040F2C911304609F026FC6FF004064FF061
:102A3000000A53465246D8E76FF00A064FF0000AE4
:102A400053465246D1E76FF085064FF0000A5346D1
:102A50005246CAE7C4F80480C4F80080CFE738467D
:102A600006F014FB68B189F31188BFF36F8FBAF1D8
:102A7000000FCAD000232A464146204609F0E1FA59
:102A8000C3E7DFF820B0B9235A460C49074809F0DC
:102A9000F9FB39460A4809F0F5FBB921584609F017
:102AA000EAFBE0E7BCDF00001CE000003CD60000D1
:102AB00034E00000C4DE0000A4DF0000ECDF000012
:102AC00004E000002DE9F04706460D461446B2F535
:102AD000802F22D2042C31D9221FEC1D24F00704B0
:102AE000154425F007052D1B4FEAD508172D36D9BB
:102AF0003460C4F808800023E360B8FA88F6C6F1B1
:102B00002007C6F12406B60007364FEAD60909F1B8
:102B10000103434534D8002349E0384F40F2E31322
:102B20003A463749374809F0ADFB374809F0AAFB68
:102B300040F2E311384609F09EFBCBE72F4F4FF4EC
:102B4000F5733A4631492F4809F09CFB304809F0AB
:102B500099FB4FF4F571384609F08DFBBCE7274F20
:102B600040F2F3133A462B49264809F08BFB2848DC
:102B700009F088FB40F2F311384609F07CFBB7E717
:102B8000DFF878A04FF40173524623491D4809F03D
:102B900079FB1F4809F076FB4FF40171504609F0AC
:102BA0006AFBB8E71A1D002144F822100133BB422A
:102BB000F8DB4FEA49039BB263800022228043F096
:102BC00001036380A8EB09084FEA480126F00706D5
:102BD000B31CE15224F8069025F00703A91C6252A9
:102BE000254424F803806B8843F001036B80494639
:102BF000204609F09EFABDE8F08700BF4CE00000D7
:102C000020E100003CD6000038E1000050E1000067
:102C100074E1000090E10000BCE1000070B582B0FA
:102C2000044600230360436083604B78252B02D069
:102C30004E1C01251FE0881CE37045E1237843F01A
:102C400004032370B5B1013614E0237843F0080380
:102C50002370F7E7237843F010032370F2E723781B
:102C600043F020032370EDE7237843F04003237003
:102C7000E8E7002545B33378203B102BF9D801A2B3
:102C800052F823F0552C0000732C0000732C000028
:102C90005F2C0000732C0000732C0000732C0000CC
:102CA000732C0000732C0000732C0000732C0000A8
:102CB0004B2C0000732C00003D2C0000732C0000F6
:102CC000732C0000692C0000237803F04403442B8C
:102CD0005FD00196237843F08003237033782A2B4A
:102CE0005CD001A809F031FA019B9E420FD02378F5
:102CF00043F0800323706060DBB2C3F3400300281D
:102D000054DB00221343227863F341022270019BBB
:102D100001931B782E2B14BF00230123627863F3E9
:102D200041026270002B43D0019B5A1C01925B78D8
:102D30002A2B3FD001A809F008FAA0602378C3F33A
:102D4000400300283EDB00221343227863F3410254
:102D50002270019803784C3B2E2B00F29D80DFE817
:102D600003F0909B9B9B9B9B9B9B9B9B9B9B9B9B01
:102D70009B9B9B9B9B9B9B9B9B9B9B9B9B9B339B0B
:102D8000579B459B9B9B9B9B9B9B899B9B9B9B9B3F
:102D9000820023786FF3861323709AE7637843F0F9
:102DA00001036370334601330193B1E70122A9E7C0
:102DB0000198CFE7637843F0040363701046013055
:102DC0000190C7E70122BFE7421C4378682B06D079
:102DD0006378022161F3C603637010461EE06378D6
:102DE000012262F3C6036370023017E0421C43788D
:102DF0006C2B06D06378032161F3C6036370104621
:102E00000CE06378042262F3C6036370023005E0CD
:102E10006378052262F3C6036370013010F8013B4A
:102E2000E370A3F14102372A7DD8DFE802F05E7C2F
:102E30007C7C5E5E5E7C7C7C7C7C7C7C7C7C7C7C2C
:102E40007C7C7C7C7C4F7C7C7C7C7C7C7C7C5E7C0D
:102E50004F3A5E5E5E7C3A7C7C7C7C654F717C7C0C
:102E6000717C4F7C7C4F6378062262F3C6036370EB
:102E70000130D3E76378072262F3C6036370013041
:102E8000CCE76378082262F3C603637001302378CD
:102E900043F002032370C1E763786FF3C6036370E6
:102EA000BCE7A278012161F30202A270627802F00D
:102EB0007802402A10D0632B13D02378C3F340024A
:102EC000154365F34103237002B070BDA27802215F
:102ED00061F30202A270E9E7217841F0010121705B
:102EE000E9E7151E18BF0125E7E7A378042262F37E
:102EF0000203A3700125E0E7A378032262F3020333
:102F0000A370637803F07803402BD6D10125D4E772
:102F1000A378032262F30203A370637813F0780F9F
:102F2000CBD00125C9E7237843F001032370C4E720
:102F30002DE9F04F91B006460D46914603930024CB
:102F400099F80000002800F0D582252808D009F162
:102F500001092946B0470028C0F2CD820134EFE7CD
:102F60000023049305930693079308930993494616
:102F700006A8FFF753FE02909DF8193013F0010FD9
:102F800000F09780039B1A1D03921F68002FC0F268
:102F900088809DF8193013F0040F00F09C80039B8B
:102FA0001A1D0392D3F800A0BAF1000FC0F28A8074
:102FB0000023079308939DF81A3003F007039DF848
:102FC0001910C1F3C301012B00F08E80022B00F019
:102FD000D380042B00F02481032B00F03B819DF86B
:102FE000188018F0030B40F03B819DF81B30253B07
:102FF000532B00F2E681DFE813F04001E401E40125
:10300000E401E401E401E401E401E401E401E40198
:10301000E401E401E401E401E401E401E401E40188
:10302000E401E401E401E401E401E401E401E40178
:10303000E401E401E401E401E401E401E401E40168
:10304000E401E401E401E401E401E401E401E40158
:10305000E401E401E401E401E401E401E401E40148
:103060008101E401E401E401E401E401E401E4019B
:10307000E401E401E4015E016701E401E401E4012B
:10308000E4016701E401E401E401E401BE0181011E
:10309000A201E401E4014D01E4018101E401E40144
:1030A00081019DF8183043F004038DF818307F42F9
:1030B0006FE79DF91830002B02DB4FF0FF3768E710
:1030C000079F66E79DF819306FF341038DF81930BB
:1030D0004FF0FF3A6CE713F0020F02D0DDF820A0AA
:1030E00066E74FF0FF3A63E7CB1E042B04D8DFE816
:1030F00003F00B1D29353500039B1A1D03921B6835
:10310000DA170493059206E0039B1A1D03921B68CD
:10311000DA1704930592012928D002297FF45FAFC2
:10312000BDF91030DA170493059258E7039B073373
:1031300023F0070303F108020392D3E90023CDE94A
:103140000423E8E7039B073323F0070303F1080296
:103150000392D3E90023CDE90423DCE7039B1A1D86
:1031600003921B68DA1704930592D4E79DF8103098
:1031700004930023059332E7CB1E042B04D8DFE829
:1031800003F00B1F35414100039B1A1D03921B687E
:103190000493002305931EE09DF81B30632B07D09A
:1031A000039B1A1D03921B6804930023059312E0EE
:1031B000039B1A1D03921B680493002305930AE0E6
:1031C000039B073323F0070303F108020392D3E9BB
:1031D0000023CDE9042301291CD002297FF4FFAE8E
:1031E000BDF81030049300230593F8E6039B0733E2
:1031F00023F0070303F108020392D3E90023CDE98A
:103200000423E8E7039B1A1D03921B680493002321
:103210000593E0E79DF81030049300230593DEE664
:1032200008290BD0039B073323F0070303F108029F
:103230000392D3E90023CDE90423D0E6039B0733AF
:1032400023F0070303F108020392D3E90023CDE939
:103250000423C4E6039B1A1D03921B680493BEE675
:10326000029F3B464A462946304608F0EAFF0028BE
:10327000C0F241810444B94662E629462520B047A0
:103280000028C0F238810134D8460DF13E0A4FF0D3
:1032900000099BE0DDF81090BAF1000F07DB514602
:1032A000484609F072F909EB000AD8468EE0484614
:1032B00009F062F9F7E7049B8DF82830D8460DF144
:1032C000290A0DF1280981E018F0080F05D118F03E
:1032D000100804D04FF0200801E04FF02B08049AAA
:1032E000059B002B02DB0492059308E0524263EB3E
:1032F0004303049205934FF02D0800E0D8460DF1EA
:103300003E0300930AAB06AADDE9040108F02FFF93
:103310008146BAF1000FC0F288800DF13E03A3EBA5
:1033200009039DF818206FF386128DF818209A452E
:103330007ED9AAEB030307930DF13E0A46E00498F9
:1033400028B9D846DFF8B4A1AAF105093EE00DF18D
:103350003E0300930AAB06AA002108F008FF81464D
:103360009DF81A3043F010038DF81A3078238DF849
:103370001B30D846CDE7049A9DF81930C3F3C30338
:10338000072B06D8DFE803F0040B0D0F1115191BEE
:103390001460D8460DF13E0A4FF0000916E0147093
:1033A000F7E71480F5E71460F3E7E3171460536060
:1033B000EFE7E31714605360EBE71460E9E714608C
:1033C000E7E7D8460DF13E0A4FF00009B9F1000FCA
:1033D00000F08D80AAEB0903B8F1000F00D0013393
:1033E0009DF81A2012F0100F25D0023307990B44D4
:1033F00012F0400F01D0089A1344002F31DDFF1A5C
:103400009DF8183013F0040F2BD113F0400F17D094
:10341000B8F1000F17D029464046B04700286ADBB4
:103420000134D8464FF0300B0FE00DF13E0ACDE7E6
:103430000DF13E0ACAE712F0080FD7D00133D5E7E5
:103440004FF0200B01E04FF0300B3B465F1E002B8E
:1034500007DD29465846B04700284CDB01343B467F
:10346000F4E7B8F1000F05D029464046B0470028E0
:1034700041DB01349DF81A30C3F30012C3F3C003DB
:10348000134305D029463020B047002833DB0134F0
:103490009DF81A3013F0100F06D029469DF81B0036
:1034A000B047002827DB0134079B03F1FF38002BCE
:1034B00007DD29463020B04700281CDB0134434695
:1034C000F3E753464A462946304608F0BAFE00283C
:1034D00011DB0444002F07DD29462020B0470028D7
:1034E00009DB0134013FF5E7DDF8089028E5DDF858
:1034F000089025E5204611B0BDE8F08FEDE1000011
:1035000008B54FF02002EFF3118382F31288BFF366
:103510006F8F01F027FF034808F02FFD00F0A0FF98
:10352000FCE700BFF0E10000002950D12DE9F8438D
:103530000746002422E0DFF898904FF499734A463A
:103540002449254808F09EFE4FF49971484608F03A
:1035500092FE1FE0DFF8789085234A461D491E48F9
:1035600008F090FE8521484608F085FE1EE058F8D8
:1035700005301B683946304698470134174B184AC6
:103580009B1AB4EB231F20DA4FEA0418144D15EBF5
:103590000416D0D073685B79002BEED039463046E4
:1035A00008F081FE0028E8D0002ED3D0002FDED115
:1035B000DFF81C9086234A460A49074808F062FE55
:1035C0008621484608F057FED1E7BDE8F8837047EA
:1035D0001CE2000054E200003CD60000DCD40000F5
:1035E000BCD400006CE20000014B53F8200070478F
:1035F000F0E20000F8B5204B204A9B1A1E11902BD8
:103600000ED81F4BBFF35B8F53E8002F511C43E8CC
:1036100000100028F8D1BFF35B8F5ABB002417E0DD
:10362000184C40F2732322461749184808F02AFE26
:1036300040F27321204608F01EFEE2E70F4B03EB39
:1036400007135B6804221968284600F0D3F8013498
:10365000B4420FDA2746094D05EB04152B7B002BEE
:10366000F5D02301054AD3589B69002BE6D02846A4
:103670009847E3E7F8BD00BFDCD40000BCD40000ED
:103680000407002080E20000C8E200003CD60000F1
:1036900038B108B5044A1060084600F0BFFA0020AF
:1036A00008BD6FF0150070479C00002008B500238E
:1036B000044A1370044A13604FF400410348FFF7B3
:1036C000E7FF08BD5514002000070020ABC2000032
:1036D000204B1B7803B170472DE9F041FFF78AFFBB
:1036E000002413E0DFF870804FF4997342461B49C1
:1036F0001B4808F0C7FD4FF49971404608F0BBFD28
:103700000FE07B595B69304698470134154B164AE8
:103710009B1AB4EB231F17DA2701134D15EB041680
:10372000E0D073685B79002BEFD0002EE9D1DFF891
:103730002880D72342460949094808F0A3FDD7212C
:10374000404608F098FDDCE7024B01221A70BDE804
:10375000F08100BF551400201CE2000054E200007C
:103760003CD60000DCD40000BCD40000014B012298
:103770001A707047541400200D4BBFF35B8F53E851
:10378000002F013243E800210029F8D1BFF35B8FFD
:1037900000B97047074BBFF35B8F53E8002F013A26
:1037A00043E800210029F8D1BFF35B8FF1E700BFA8
:1037B00000070020FC06002010B50446044B1B68DF
:1037C0009847A06000212046FFF7AEFE10BD00BF65
:1037D0009C000020054B064A9B1AB1EBD30F02D286
:1037E00052F8310070470020704700BFBCD4000081
:1037F0006CD40000F8B504460E461E4D451B2D1135
:10380000013503681B6863B1EDB2CCB163681D710B
:1038100014B363681E60636801225A71FFF7A6FF44
:10382000F8BD154FBB233A461449154808F02AFD48
:10383000144808F027FDBB21384608F01CFDE3E7DB
:10384000114FE6233A4611490D4808F01BFDE621C9
:10385000384608F010FDD9E70B4D40F217132A4601
:103860000A49074808F00EFD40F21711284608F0F3
:1038700002FDCEE7BCD40000FCE2000058E30000EB
:103880003CD6000070E300001CE2000054E200009F
:103890000EB400B582B0014603AB53F8042B01937C
:1038A0000348FFF745FB02B05DF804EB03B0704737
:1038B000DFC2000030B585B011F0440F05D01A4BBF
:1038C0001C6834B9002005B030BD1849FFF7E0FF8F
:1038D000F9E7174B1968B2FBF1F1B1FBF4FC154A9B
:1038E000A2FB0C32D20A4FF4616E0EFB12CE124BC9
:1038F000A3FB0E535B0904FB1C114FF47A7C0CFBF9
:1039000001F1B1FBF4F505FB14110CFB01F1B1FB66
:10391000F4F102910195C3EB0311AEEB810100912B
:103920000649FFF7B5FFCEE70807002094E3000043
:103930000C070020C5B3A29189888888A0E3000005
:1039400061B108B52AB1064A52F8232012B9054AD6
:1039500000E0044A0449FFF79BFF08BD704700BF21
:1039600060E40000BCE30000C4E3000011F0100FAD
:103970000BD108B511F0200F03D00449FFF788FFE1
:1039800008BD0349FFF784FFFAE770472CEC0000FD
:10399000D0FA00002DE9F04105460F46164698463C
:1039A0000699FFF7E3FF0024444505DA234928463A
:1039B000FFF76EFF0134F7E7002409E01F492846AE
:1039C000FFF766FF0BE01E492846FFF761FF013451
:1039D0000F2C0CDC002C02DD14F0070FEED0B442EB
:1039E000F1D23A5D17492846FFF752FFEFE7164933
:1039F0002846FFF74DFF002409E010492846FFF74D
:103A000047FF0BE011492846FFF742FF01340F2C16
:103A100012DC002C02DD14F0070FEED0B44206D207
:103A20003A5DA2F120035E2BECD92E22EAE703498E
:103A30002846FFF72DFFE9E7BDE8F081ECE3000041
:103A4000D0E30000C8E30000D4E30000D8E30000A6
:103A50002DE9F041804616461D46BDF9187059B94A
:103A60000024002F1CDB86B10123079A934013F03A
:103A7000100F18D10D4E09E00D4B079A53F8222074
:103A80000C49FFF705FF0446EBE7084E3946284688
:103A9000FFF7A0FE024631464046FFF7F9FE044418
:103AA0002046BDE8F081044EF0E700BFDCE30000F3
:103AB00074E40000E8E30000E4E300002DE9F04FC7
:103AC00085B005460C46164603939DF8388001F0F4
:103AD000020B01F0010AC1F3C00908F0FEFBE8B1D6
:103AE000024613492846FFF7D3FE0746BBF1000FF5
:103AF00016D142465146284608F01BFCCDF80480FA
:103B0000BDF9403000939DF83C3032464946284686
:103B1000FFF79EFF384405B0BDE8F08F0027E5E7CA
:103B2000039A21462846FFF7C5FE0744E1E700BF98
:103B3000F0E300002DE9F04784B006460C46174636
:103B40008B680A88C2F3821812F4E07F37D04A6883
:103B50000978C1F3C2017AB32948121A42F3CF029D
:103B600002920191CDF80080002239463046FFF7DD
:103B7000A5FF8146254655F8103BC3F3492353B1B1
:103B8000B8F1000F1ED11F482B4632461E4908F0DF
:103B9000A8F9002818DB6288C2F3CB022168C1F3C0
:103BA00049212944FAB9B8F1000F22D1304608F072
:103BB000F3FB04B0BDE8F0874FF0FF32D0E74FF0E1
:103BC0000009D7E71148DFE7DFF844A040F2B72348
:103BD00052461049104808F055FB40F2B7215046B4
:103BE00008F049FBD7E700974B46304608F0B9FB91
:103BF000D9E742463946304608F0A7FBD6E700BF72
:103C00006CD40000FDC20000312F0000DFC20000B4
:103C1000F4E3000034E400003CD60000074B01222E
:103C20001A6004E04008054A13685B001360044B07
:103C30009842F7D8034B1860704700BF0C0700206C
:103C400040420F00080700202DE9F04F87B002AF77
:103C50008246796091469846BE6BD7F840B0BBF17A
:103C6000000F16D07B6CFB6000935B46FA6B102153
:103C70000020FEF7FBF8051E0CDA264C67232246CF
:103C80002549264808F0FEFA6721204608F0F3FA95
:103C900000E000252946AB19173300246FF3000418
:103CA0006FF341046FF382046AF3C50469F3881467
:103CB00065F3522466F3DE446FF3DF7423F00703E9
:103CC000ADEB030D02AD6B4613F118000AD0BBF14A
:103CD000000F07D07B6C00935B46FA6BFEF7C6F8CB
:103CE000002809DB434622467968284608F061FB34
:103CF0001437BD46BDE8F08FDFF8189081234A469F
:103D00000549064808F0BEFA8121484608F0B3FA92
:103D1000E8E700BF88E40000C4E400003CD60000EF
:103D200070B506460D46002406E0054B1868315D67
:103D300083685B6898470134AC42F6D3284670BD6F
:103D400028070020014B1960002070471807002049
:103D500010B50948094B186009F024F900B110BDED
:103D6000074C792322460749074808F08BFA792146
:103D7000204608F080FAF2E7BCD2000028070020B5
:103D8000D0E4000008E500003CD6000008B5034B75
:103D900001221A70024808F0FFFA08BD56140020EC
:103DA00064E5000010B50C46044B1868FFF71CFCD6
:103DB00003460F2221460248984710BD18070020ED
:103DC00064E50000034B01221A70034B034A1A609A
:103DD000704700BF57140020540700203C07002004
:103DE000014B1960002070475807002008B518B92A
:103DF000044B00221A7008BD41F2883009F0C2F964
:103E0000F9E700BF5714002038B504460A4B0122D9
:103E10001A700A4B1B782BB938BD651E2046FFF778
:103E2000E5FF2C46002004F0FBFD0028F4D0024BF7
:103E30001B78002BF1D1EFE7571400205814002015
:103E4000F8B506460D46042706E03846FFF7DCFFC6
:103E50009CB90D4B1B7883B12A463146002004F0F3
:103E60007BFD04460028F0D1074B1B78002BEFD0D8
:103E7000013F3846FFF7BAFFEAE714B9024B1B7857
:103E800003B92C462046F8BD5714002008B5034B53
:103E900001221A70024808F07FFA08BD5814002069
:103EA000A4E5000010B50C46044B1868FFF79CFB16
:103EB00003460F2221460248984710BD58070020AC
:103EC000A4E5000070B5404B1D7D05F01F030122E5
:103ED0009A4069093D4B03EB8103D043BFF35B8FED
:103EE00053E8001F01EA000443E80046002EF7D122
:103EF000BFF35B8F0A4200D170BD354A05EB450325
:103F0000980002EB83033349A9B15978105C08F09B
:103F1000C1FB4FF02003EFF3118683F31288BFF348
:103F20006F8F2D4805F0A2F858B12B4805F0BEF868
:103F30002A4B1C6820E0002383F31188BFF36F8FA6
:103F4000E7E7274C8E2322462649274808F09AF9AE
:103F50002149264808F096F98E21204608F08BF971
:103F6000E3E7194B1B7D03EB4303194911F82300C9
:103F700090470CB1246824B11CB1A268002AF0D18A
:103F8000F7E7154805F082F870B186F31188BFF3A2
:103F90006F8F0F4A05EB4505A90002EB850500234D
:103FA00053506B60AB60A7E70D4CB9232246104914
:103FB0000D4808F067F908490E4808F063F9B9217F
:103FC000204608F058F9E0E7281200208407002076
:103FD0007407002095C60000680700206C070020C9
:103FE000BCDF00001CE000003CD6000034E0000014
:103FF000ECDF000004E0000070B504466D4B1D7D51
:104000006A09BFF35B8F6C4B53F82230BFF35B8FB1
:1040100005F01F02134113F0010F1DD005EB4503FE
:10402000664A12F8233033B3B4F1FF3F39D105F0BB
:1040300087FE4FF02003EFF3118683F31288BFF35E
:104040006F8F5F4805F012F8002840D05C4805F0FB
:104050002DF85C4B1C6855E00146284600F0D6F868
:104060000028DBD005EB4503544A02EB830307C865
:1040700083E80700D2E705F01F02012393406D0992
:104080004D4A02EB8505DB43BFF35B8F55E8002FFC
:104090001A4045E800210029F8D1BFF35B8F0020CA
:1040A00077E005EB4503454A02EB83039868410C32
:1040B000C003454BC018454A4FF0000341F10001D1
:1040C000FCF700FA0121201A07F022FAAFE7404C72
:1040D0008E2322463F49404808F0D4F838493F48EB
:1040E00008F0D0F88E21204608F0C5F8AEE7314B35
:1040F0001B7D03EB4303314911F8230090470CB1BA
:10410000246824B11CB16268002AF0D1F7E72C487A
:1041100004F0BCFF00283DD086F31188BFF36F8FF9
:1041200005F01F03012199406B092D4A02EB83031F
:10413000BFF35B8F53E8002F0A4343E800200028B9
:10414000F8D1BFF35B8F274B4BB11C4B05EB4502FE
:1041500003EB8201497813F8220008F08FFAFFF789
:10416000B1FE05F01F03012404FA03F36D09124A9E
:1041700002EB8505DB43BFF35B8F55E8002F1A4048
:1041800045E800210029F8D1BFF35B8F06F0BCFBA6
:10419000204670BD0E4CB923224613490E4808F044
:1041A00071F80749114808F06DF8B921204608F068
:1041B00062F8B1E728120020800700207407002071
:1041C000680700206C0700203F420F0040420F00AC
:1041D000BCDF00001CE000003CD6000034E0000022
:1041E000840700207DC60000ECDF000004E0000032
:1041F000BFF35B8F044B53F82000BFF35B8F003895
:1042000018BF0120704700BF880700202DE9F0414A
:1042100082B00E4601A900F043F8441E24B207E024
:10422000B6F1FF3F32D04044B0422FD9013C24B216
:10423000002C2ADB019B04EB440203EB820513F8FC
:104240002200FFF7D5FF0028F0D16868410CC003B9
:10425000104FC019104A4FF0000341F10001FCF764
:1042600031F98046AB68590CDB03D8190A4A4FF084
:10427000000341F10001FCF725F9084B1B68B3F17D
:10428000FF3FCDD08342CBD8D0E70025284602B0EF
:10429000BDE8F0813F420F0040420F00A000002027
:1042A00008B9024B0B600020704700BFB8E5000062
:1042B00008B5024807F05CFC08BD00BFB8E5000087
:1042C000D0B108B54268042A05D0D2B1006805F023
:1042D0002DFA002008BD03680022BFF35B8F53E86E
:1042E000001F012903D143E800200028F7D1BFF3C4
:1042F0005B8F04D11046EDE76FF4E0407047024851
:10430000E8E70248E6E700BFE98FFFFFEA8FFFFF1B
:1043100020B308B54268042A02D092B911480FE0D0
:1043200003680122BFF35B8F53E8001F002903D10C
:1043300043E800200028F7D1BFF35B8F0CD10020A9
:1043400008BD00684FF0FF324FF0FF3305F0CEF8A4
:104350000028F5D00448F3E70348F1E76FF4E040A4
:10436000704700BFEA8FFFFFE98FFFFF10B50446DB
:1043700088B16368042B0DD0082B0BD053B113F018
:10438000020F0DD02146094804F0FAFD00232360F6
:104390000023636010BD064B5B6806489847E8E75A
:1043A00014220021206808F034F9F1E7A407002066
:1043B0007C010020C0E5000010B5044678B16368B8
:1043C000042B0BD0082B09D00BB9236863B12068EC
:1043D00008F077FE636843F00103636010BD0F4B84
:1043E0005B680F489847EAE74FF0FF324FF0FF3322
:1043F00021460C4804F04EFD08B923681BB9074B51
:104400005B680948984714220021206808F001F9E8
:10441000636843F002036360D9E700BF7C010020BA
:10442000C0E50000A4070020E8E5000008B540232F
:1044300014220449044808F0F0FD0449044807F038
:10444000F7FB08BDC4070020A407002028E60000F1
:1044500018E60000014910220A60704710ED00E0E4
:1044600072B6404080F31188BFF36F8FBFF34F8F58
:1044700030BF62B6BFF36F8F704700BF72B649405E
:1044800081F3118820BF80F3118862B6704700BFA6
:1044900070B586B005461E4E836805934368049345
:1044A000036803931B4B029300240194009423465A
:1044B00001223146204607F099FF6B6905932B696D
:1044C0000493EB680393144B0293019400942346E6
:1044D00001223146204607F089FFEB6903930F4B19
:1044E000029301940094234601223146204607F0AE
:1044F0007DFFAB6903930A4B02930194009423461A
:1045000001223146204607F071FF06B070BD00BFA2
:104510009CD400003CE600006CE600009CE6000035
:10452000ACE6000040B2002807DB00F01F024009A3
:1045300001239340014A42F82030704700E100E037
:104540004209054B53F8222000F01F00012303FA13
:1045500000F01040704700BF00E100E0F8B50446ED
:104560004D1C072D0BD860B200281BDB6D01EDB28E
:1045700000F1604000F5614080F80053F8BD0E4640
:104580000C4F57233A460C490C4807F07BFE072393
:10459000224631460A4807F075FE5721384607F093
:1045A0006AFEE0E700F00F006D01EDB2054B1D540F
:1045B000E4E700BFDCE6000014E700003CD60000A2
:1045C00030E7000014ED00E030BFFFF7FDBF00BF93
:1045D00008B50B4B0B4A22F07F029A60BFF34F8F56
:1045E000BFF36F8FD3F8882022F47002C3F88820BD
:1045F00004F07CFB06F09AFD00F06AFC04F0D4FBAA
:1046000000ED00E0000000000A4A9368C3F8A8002B
:1046100009490968C3F8AC1008494B6843F0805356
:104620004B60002383F31188BFF36F8F9368D3F837
:10463000AC00704728120020D0F3000000ED00E02D
:1046400013498A684FF030001044EFF3098C80E87A
:10465000F01F202080F31288BFF36F8F0D4F4FF0B3
:104660000066CA698A603E60D2F8A8000023C2F8DA
:10467000A83080F3118804B5104600F0D3FCBDE8E3
:10468000044002F1300090E8F01F8CF30988704775
:104690002812002004ED00E01EF0040F0CBFEFF321
:1046A0000880EFF30980816911F8021C0229FFD00C
:1046B00001B507F0B6FE01BD10B4A2F120040E4909
:1046C00042F8081C21F0010142F8081C42F8203C85
:1046D000019B42F81C3C029B42F8183C039B42F8A9
:1046E000143C4FF0807342F8043C04650023C0F88A
:1046F000A83010BC704700BFCFC00000124B9A68B2
:1047000002B310F1160F11D0D2F89830A3F1200C9B
:10471000844505D8834205D98B4205D800210BE09A
:10472000002109E0002107E0012105E0D2F89830DE
:104730008B4294BF0021012109B900207047D2F8B3
:1047400098007047002070472812002008B50D46D9
:104750001446084B986000F065FC204685F30988F4
:10476000002163B681F31188BFF36F8F002200230D
:1047700007F0ADFC2812002001B572B60B4A906913
:1047800000281EBF0021916108F07FFC62B6EFF3A4
:104790000580A0F110004FEAC0000549014409C995
:1047A0009847BDE80140034908470000281200204F
:1047B000ECD20000B9470000044B9968D8698842E0
:1047C00003D003494FF080520A607047281200203E
:1047D00004ED00E070B584B005460E461446474B24
:1047E000029300200190009003460122444907F003
:1047F0002CFE444B9B6A13F4805F25D1414B9B6A8E
:1048000013F4006F2BD13F4B9B6A13F4007F31D11F
:104810003C4B9B6A13F4806F4FD13A4B9B6A13F465
:10482000807F55D1374B9B6A13F4005F5BD1354ACB
:10483000936A43F47F4393620121284607F003FE05
:104840002070002004B070BD2F4B02930020019017
:104850000090034601222A4907F0F7FDCEE72B4BD3
:10486000029300200190009003460122244907F0A2
:10487000ECFDC8E7264B0293002001900090034610
:1048800001221F4907F0E1FD1E4B9A6B9B6A13F44E
:10489000004FBDD003921F4B029300200190009067
:1048A00003460122164907F0D0FD002EB0D0154A6C
:1048B000936A23F400439362AAE7174B0293002004
:1048C00001900090034601220D4907F0BEFDA4E7C8
:1048D000124B0293002001900090034601220849E8
:1048E00007F0B3FDA3E70E4B029300200190009068
:1048F00003460122024907F0A8FD98E770E700008F
:104900009CD4000000ED00E088E700009CE7000078
:10491000B0E70000CCE70000E4E7000000E800009A
:1049200018E8000000B585B03A4B029300200190D2
:10493000009003460122384907F087FD374B9B6AF8
:1049400013F0007F23D1354B9B6A13F0807F29D170
:10495000324B9B6A13F4002F2FD1304B9B6A13F418
:10496000802F35D12D4B9B6A13F4003F3BD12B4B4D
:104970009B6A13F4803F41D1284A936A6FEA03434C
:104980006FEA13439362002005B05DF804FB244BEB
:104990000293002001900090034601221E4907F077
:1049A00054FDD0E71F4B0293002001900090034676
:1049B0000122194907F049FDCAE71B4B0293002069
:1049C0000190009003460122134907F03EFDC4E721
:1049D000164B0293002001900090034601220E49DD
:1049E00007F033FDBEE7124B0293002001900090C8
:1049F00003460122084907F028FDB8E70D4B029352
:104A000000200190009003460122034907F01DFD9C
:104A1000B2E700BF48E800009CD4000000ED00E0D1
:104A200060E8000074E8000090E80000B0E80000D2
:104A3000D8E80000F4E8000000B585B00020087058
:104A4000054B02930190009003460122034907F0B1
:104A5000FCFC05B05DF804FB20E900009CD40000DC
:104A600000B587B00F2910DC094B1039049103936E
:104A7000084B029300200190009003460122064952
:104A800007F0E3FC07B05DF804FB044BEDE700BF63
:104A900060E9000078E900009CD4000044E90000CF
:104AA000F0B585B005460C4616465F4B02930020D4
:104AB00001900090034601225C4907F0C6FC5C4B64
:104AC0009B6A13F0100F3BD1594B9B6A13F0080FF0
:104AD00041D1574B9B6A13F0020F47D16FF0150776
:104AE000534B9B6A13F0010F66D1514B9B6A13F035
:104AF000200F6CD14E4B9B6A13F0100F04D14C4B1E
:104B00009C6A14F0020404D0494B5C6814F40064FD
:104B100068D1474B9B6A13F0200F04D0444A536A74
:104B200023F400535362424A936A43F0FF039362B3
:104B30000121284607F087FC3070204605B0F0BD03
:104B40003C4B02930020019000900346012237491C
:104B500007F07BFCB8E7384B0293002001900090EF
:104B600003460122314907F070FCB2E7334B029350
:104B7000002001900090034601222C4907F065FCBB
:104B80002B4B5F6B9B6A13F0800F02D16FF0150700
:104B9000A6E703972A4B029300200190009003465A
:104BA0000122224907F051FC002C99D0204A936A37
:104BB00023F08003936293E7224B0293002001903D
:104BC000009003460122194907F03FFC8DE71E4B78
:104BD000029300200190009003460122134907F040
:104BE00034FC87E729463846FFF788FD0746B0B909
:104BF0000F4B9C6A14F010048BD0144C40F24913F4
:104C000022461349134807F03DFB134807F03AFBCF
:104C100040F24911204607F02EFB3C4679E780F32D
:104C20000988022475E700BF8CE900009CD40000CD
:104C300000ED00E0A4E900009CE70000D8E90000D6
:104C4000F0E9000008EA000018E8000028EA000087
:104C500064EA00003CD60000B0EA0000F0B585B080
:104C600007460E464B4B02930024019400942346C2
:104C700001224949204607F0E8FB3470474BDD6AC2
:104C800015F002052DD1454BDB6A002B36DB434B7B
:104C9000DC6A14F080446BD0414B029300200190F9
:104CA0000090034601223C4907F0CFFBBB6933F873
:104CB000022C4DF602739A422CD0384B93F82830D0
:104CC000002B35D1354B93F82930002B37D1334B9E
:104CD0005B8D9BB2002B39D03846FFF723FE04468C
:104CE00009E0304B029301940094234601222A49A3
:104CF000204607F0AAFB204605B0F0BD2A4B0293E0
:104D000000200190009003460122234907F09DFBFB
:104D10002C46F0E73B680393244B0293002001905C
:104D20000090034601221C4907F08FFB3C68E2E734
:104D3000324601213846FFF7B3FE0446DBE7324630
:104D400001213846FFF746FD0446D4E7184C40F2EF
:104D5000CD2322461749184807F094FA174807F060
:104D600091FA40F2CD21204607F085FA2C46C2E7A1
:104D70000F4D40F2D1232A460E490F4807F082FA20
:104D80000F4807F07FFA40F2D121284607F073FA66
:104D9000B1E700BFD4EA00009CD4000000ED00E0C1
:104DA00020EB0000ECEA000010EB000040EB0000FC
:104DB00028EA000000D800003CD600005CEB0000B0
:104DC00080EB0000F0B58FB0314B5D68C5F308058E
:104DD000002383F31188BFF36F8F02F07F43B3F199
:104DE0007F4F25D102F00C03082B11D012F0080FD1
:104DF0001BD00C460026F4B10DF13702294620469F
:104E000007F032FB05469DF837302BB30FB0F0BDED
:104E1000204B0293002401940094234601221E4952
:104E2000204607F012FB2646E5E704460126E2E7A6
:104E300000263446DFE7194F40F2FB333A46184963
:104E4000184807F01FFA184807F01CFA40F2FB3127
:104E5000384607F010FACFE72022214605A807F0D0
:104E6000A9FB4EB10C9BC3F308025AB96FEA532356
:104E70006FEA43230C9305E00C9B23F4FF7323F0AC
:104E800001030C9305A9284607F0BFFABEE700BF4F
:104E900000ED00E0B0EB00009CD4000028EA000028
:104EA000DCEB00003CD60000F0EB0000024A536946
:104EB00043F010035361704700ED00E0EFF308800A
:104EC000EFF3098101B57246FFF77CFF01BD00BF1A
:104ED000002206E002F00F01094B0B442021197655
:104EE00001322F2A0ADC53B2002BF3DB03F16043BB
:104EF00003F56143202183F80013F1E7704700BFF9
:104F0000FCEC00E0002080F31488BFF36F8F08F002
:104F100063F900200D490860BFF34F8F0C4880F300
:104F2000088800F02DF8202080F3118809484FF4FC
:104F30000261401880F30988EFF3148002210843CE
:104F400080F31488BFF36F8FFFF742FB94ED00E00E
:104F5000E0280020602A0020084BD3F89000C0F31E
:104F60000720002306E0054AC2F898300021C2F865
:104F7000A01001338342F6DB704700BF00ED00E074
:104F800010B572B6002484F31388FFF7E5FF2346BB
:104F900008E003F120010E4A4FF0FF3042F82100F3
:104FA0000133DBB2072BF4D9002308E003F16001E1
:104FB000074A4FF0FF3042F821000133DBB2072BE4
:104FC000F4D962B6BFF34F8FBFF36F8F10BD00BF30
:104FD00000E100E008B50A4B9B68834202D006F06E
:104FE00003F808BDEFF30583002BF8D0054B5A6892
:104FF00042F080525A605A6A22F400425A62EEE746
:105000002812002000ED00E008B5034B034A0121FF
:10501000034800F0BBF808BD000004200000002099
:1050200034EC000008B5D0F89830203B0448036009
:1050300020234360034B8360012100F0C9F808BDC1
:10504000C40C002000000B15084AC2F898000B6839
:1050500023F01F03034343F01003C2F89C308B6816
:1050600043F00103C2F8A030704700BF00ED00E03C
:1050700010B584B00446072804D8FFF7E5FF2046A2
:1050800004B010BD0390064B0293002001900090E5
:1050900003460122034907F01DFA6FF01500EFE700
:1050A00040EC000094D400002DE9F04385B0804628
:1050B0000F4699461646002509E02146F0B207F052
:1050C00018FA064610F1160F1ED001360135BD4202
:1050D0001ADA05EB450408EB84046268002AF5D06F
:1050E000B9F1000FE9D0204607F0E3F90028E4D138
:1050F0000395074B02930190009003460122054956
:1051000007F0E8F96FF01506304605B0BDE8F0830A
:1051100068EC000094D4000010B5034C0123227801
:10512000FFF7C2FF207010BD5914002008B50023FE
:10513000094A1278FFF7B8FF10F1160F0AD003469C
:1051400006E0064AC2F898300021C2F8A0100133E8
:10515000072BF6DD08BD00BF5914002000ED00E06C
:10516000044B0522C3F89420BFF34F8FBFF36F8F1A
:10517000704700BF00ED00E0BFF35F8F024B0022DD
:10518000C3F89420704700BF00ED00E038B50C462E
:10519000FFF7C2FF10F1160F00D038BD084D40F2E6
:1051A00011132A460749084807F06CF821460748BA
:1051B00007F068F840F21111284607F05CF8ECE7B8
:1051C0008CEC000000D800003CD60000C4EC0000CD
:1051D00038B50C46FFF7AAFF10F1160F00D038BD06
:1051E000084D4FF498732A460749084807F04AF8D3
:1051F0002146074807F046F84FF49871284607F013
:105200003AF8ECE78CEC000000D800003CD6000037
:10521000F0EC000038B5244B1D68082D03D8FFF7CB
:10522000ABFF00241EE0214C4FF4A473224620491A
:10523000204807F027F8082229461F4807F022F8DF
:105240004FF4A471204607F016F84FF0FF3017E036
:10525000154B596804EB4402930019442046FFF7AC
:10526000F3FE0134A542F3D8144B1D70FFF778FF0D
:10527000134BD3F89030C3F30723082B01D1002040
:1052800038BD0A4C4FF4D47322460E49094806F043
:10529000F9FF0D4806F0F6FF4FF4D471204606F0F2
:1052A000EAFF0020ECE700BFD8ED00008CEC000026
:1052B00000D800003CD6000020ED0000591400206A
:1052C00000ED00E054ED0000A4ED0000014B18607B
:1052D000704700BFC40000200239012904D808B576
:1052E000034B1B68984708BD4FF0FF30704700BF65
:1052F000C40000200FB400B583B004AB53F8042BF6
:10530000019302210348FDF713FE03B05DF804EB9F
:1053100004B0704755C6000010B54FF02003EFF3FE
:10532000118483F31288BFF36F8F01230C4AC2F8F4
:1053300040354FF08042C2F8783507F08FF920B140
:105340004FF080430122C3F838264FF080430122FA
:10535000C3F8802584F31188BFF36F8F002010BD40
:1053600000E00140C0B24FF08042C2F81C05BFF31C
:105370004F8F0549CA6802F4E062044B1343CB60C7
:10538000BFF34F8F00BFFDE700ED00E00400FA051A
:1053900030B108B58001034B43F00103984708BDC5
:1053A000704700BF50D50000074B0122C3F800250D
:1053B00090F8763013B1044BDA607047024B01224B
:1053C0001A605A60704700BF0070004049B9054B31
:1053D000D3F82C26D3F8341689B202EB4102C3F875
:1053E0002C26704700700040027CA2F10803062BB7
:1053F0000DD8DFE803F01E0C200C040C0A0002227A
:105400000E4BC3F8F025002070470322F8E700B5E3
:1054100085B003920A4B029300200190009003464E
:105420000122084907F051F96FF0150005B05DF849
:1054300004FB0022E4E70122E2E700BF0070004025
:10544000FCED00006CD4000000B585B0012901D945
:10545000437C4BB9437C082B13D8DFE803F02020B2
:105460002020202020202000104B029300200190BB
:105470000090034601220E4907F027F96FF015004E
:1054800011E003930B4B0293002001900090034620
:105490000122074907F019F96FF0150003E0064AE9
:1054A000C2F8F435002005B05DF804FB24EE0000DE
:1054B0006CD4000058EE0000007000404900036802
:1054C00013B19B8903FB0111C3688B4201D30020F8
:1054D000704700B587B004910393074B02930020F7
:1054E0000190009003460122044907F0EEF86FF0A6
:1054F0000B0007B05DF804FB7CEE00006CD40000EC
:1055000010B586B000230493CDF813300A7902F069
:105510001F02072A00F2D0800B78092B33D8DFE86E
:1055200003F008051A1E2232262A322E01238DF896
:1055300012304B78032B33D0042B34D0604B0293C2
:10554000002001900090034601225E4907F0BDF85B
:105550006FF0150091E002238DF81230E9E7032384
:105560008DF81230E5E704238DF81230E1E70523CA
:105570008DF81230DDE706238DF81230D9E70723C6
:105580008DF81230D5E7504B029300200190009027
:10559000034601224B4907F098F86FF015006CE0C4
:1055A00001238DF813304B88002B68D044F228007B
:1055B000834274D844F20300834270D3A3F580433E
:1055C000033B252B6BD8DFE803F0166A136A6A6A7F
:1055D0006A5A6A6A6A6A5E6A6A6A6A626A6A6A6A4F
:1055E0006A6A6A6A6A6A6A6A6A6A6A6A6A6A6A661F
:1055F00001238DF814300B79C3F340138DF8153067
:105600009DF8103003F003039DF81100000100F035
:10561000300003439DF81200000200F4E0600343F1
:105620009DF81300000300F4805003439DF814001C
:10563000000400F4E02003439DF81500000500F489
:10564000801003439DF81600000600F080700343AD
:105650001E4C04EB0210C0F81835887902F1510392
:105660004FEA031C04EB03135860002044F80C00BD
:105670004979174B1A4482F8901006B010BD0223E6
:105680008DF81430B7E703238DF81430B3E7042303
:105690008DF81430AFE705238DF81430ABE70D4BD0
:1056A000029300200190009003460122054907F073
:1056B0000CF86FF01500E0E76FF01500DDE700BFB4
:1056C000C4EE00006CD40000A4EE000000700040A6
:1056D00000000020E8EE0000F0B585B04E6836B15D
:1056E0000D4636F0FF0302D100231C4624E0544B44
:1056F000029300200190009003460122514906F0D8
:10570000E4FF6FF015033FE003934F4B029300203B
:1057100001900090034601224A4906F0D6FF6FF03F
:10572000150331E003F1510212014849002088506D
:105730000133DBB2072B22D81A4626FA03F111F007
:10574000010FEFD04249194491F89070002FDBD03F
:10575000687C011E18BF0121DFF8F0C00CEB031EAE
:10576000DEF8180520F0807040EA0160CEF81805D8
:10577000513212014CF802700134E4B2D8E72846E5
:10578000FFF732FE034610B1184605B0F0BD2146C2
:105790002846FFF759FE03460028F5D12146284642
:1057A000FFF78CFE03460028EED1AA68274BC3F80A
:1057B0002C26C3F83046264F07F164042E460FCE40
:1057C0000FC43368236000233B662B684BB107F19D
:1057D00078040FCB84E80F007C660023A7F888309C
:1057E00068B91B48FFF7E0FD194C4FF0FF324FF04E
:1057F000FF3304F1500004F0B1F8236EC4E73C46D7
:105800000023BFF35B8F54E8002F44E800310029E8
:10581000F9D1BFF35B8FA36F590CDB030D48181848
:105820000D4A4FF0000341F10001FAF74BFE0090E2
:1058300001910022002304F1080006F0BBF8D3E731
:1058400014EF00006CD4000034EF00000070004042
:10585000000000203F420F0040420F0070B5044698
:105860000D46094E4FF0FF324FF0FF33304604F043
:1058700075F829462046FFF72FFF0446304604F00E
:1058800029F8204670BD00BF4000002010B50F4B26
:105890000024C3F80441D3F80421C3F81041D3F81D
:1058A00010211222C3F804230720FEF73BFE2246F4
:1058B00001210720FEF752FE054B9B6C0BB1002027
:1058C00010BD044804F006F8F9E700BF007000407E
:1058D0000000002040000020364BD3F804317BB993
:1058E000344BD3F81031002B62D0324B0022C3F876
:1058F0001021D3F8102101229A601A605A60704773
:1059000010B52C4B0022C3F80421D3F80411012157
:105910009960C3F80025284B5B6E13B3264BDB6FF1
:1059200043B12549B1F888206431984701280FD048
:10593000022810D0204AB2F88830B2F8842093426E
:1059400013D201331C4AA2F8883000210B4604E030
:105950000121002301E0002101234BB1164B9B6F75
:1059600013BB164803F0B6FF10BD00210123F4E776
:10597000114C2046FFF72AFDA36F1BB92046FFF705
:1059800013FDF1E70C4BBFF35B8F53E8002F511E63
:1059900043E800100028F8D1BFF35B8F012AE3DD54
:1059A0001846FFF701FDDFE7054807F0F1FBD8E7F0
:1059B000704700BF00700040000000205000002031
:1059C0000800002000487047280D0020014BC01A35
:1059D00040117047E00C002030B583B005460C46FE
:1059E000FFF7F4FF0146402300932346054A06488B
:1059F00006F0E7FE011E01DB03B030BD2846A047DC
:105A0000FAE700BF0BC800005CD2000008B50A4BE3
:105A1000BFF35B8F53E8002F22F0020143E8001030
:105A20000028F7D1BFF35B8F12F0010F00D008BD43
:105A300006F0FDFEFBE700BF380D002070B50546FF
:105A4000CCB2012C07D82146284606F04DFE8068CE
:105A500000F0070070BD064E79233246054906481E
:105A600006F010FC7921304606F005FCEBE700BF9C
:105A70006CEF0000ACEF00003CD600002DE9F041D7
:105A800007461646CCB2214606F02EFE0546012CEE
:105A90000FD8314605F1080006F037FE002806DB76
:105AA0002146384606F027FE436898470020BDE8A7
:105AB000F081DFF81C8040F24D134246054906484C
:105AC00006F0E0FB40F24D11404606F0D4FBE0E763
:105AD0006CEF0000ACEF00003CD6000038B5054686
