:1000000000570020F537000097AC0000AD37000026
:10001000AD370000AD370000AD3700000000000034
:10002000000000000000000000000000792F000028
:10003000AD37000000000000212F0000AD370000A8
:10004000593000005930000059300000593000008C
:10005000593000005930000059300000593000007C
:10006000593000005930000059300000593000006C
:10007000593000005930000059300000593000005C
:10008000593000005930000059300000593000004C
:10009000593000005930000059300000593000003C
:1000A000593000005930000059300000593000002C
:1000B000593000005930000059300000593000001C
:1000C000593000005930000059300000593000000C
:1000D00059300000593000005930000059300000FC
:1000E00059300000593000005930000059300000EC
:1000F00059300000593000005930000059300000DC
:1001000053B94AB9002908BF00281CBF4FF0FF317E
:100110004FF0FF3000F00CB8ADF1080C6DE904CEE3
:1001200000F008F8DDF804E0DDE9022304B07047D0
:10013000704700BF2DE9F04F07468C460846099EE0
:1001400015463C461946002B40F0C6808242B2FA62
:1001500082F746D94FB1C7F1200E24FA0EFE00FAFD
:1001600007F3BD404EEA030CBC404FEA15481FFAA6
:1001700085FEBCFBF8F9220C08FB19C309FB0EFA3B
:1001800042EA03439A4528D9EB1809F1FF3004D21B
:100190009A4502D9A9F102002B44A3EB0A03A4B2A9
:1001A000B3FBF8F208FB123302FB0EFE44EA0344F1
:1001B000A64514D92C1902F1FF3303D2A64501D963
:1001C000931E2C44A4EB0E0443EA00401EB1FC40F5
:1001D000002334607360BDE8F08F4846DDE71346C6
:1001E000F0E702B9FFDE87BB831A01214FEA154E03
:1001F000AAB2B3FBFEFC200C0EFB1C330CFB02F876
:1002000040EA0343984563D9EB180CF1FF3004D260
:10021000984502D9ACF102002B44A3EB0803A4B229
:10022000B3FBFEFC0EFB1C330CFB02F244EA03445E
:10023000A2424FD92C190CF1FF3304D2A24202D9A9
:10024000ACF102032C44A41ABEE7C7F1200C20FA3B
:100250000CF800FA07F324FA0CFCBD404CEA030248
:100260004FEA154EABB2B8FBFEFC110C0EFB1C8026
:100270000CFB03F941EA0040814504FA07F423D955
:1002800028180CF1FF3104D2814502D9ACF10201EA
:100290002844A0EB090092B2B0FBFEFC0EFB1C0050
:1002A0000CFB03F842EA004398450FD9EB180CF118
:1002B000FF3204D2984502D9ACF102022B44A3EBE1
:1002C000080342EA014191E76146E2E76246F6E748
:1002D0006046A2E76346B6E7834205D90EB1C6E998
:1002E00000700021084676E7B3FA83F181B98342B2
:1002F00001D3BA420AD8BC1A60EB030301209C4622
:10030000002E68D0C6E9004C002164E70846F7E7F4
:10031000C1F1200C8B4022FA0CF41C4302FA01F5C7
:1003200000FA01F327FA0CF220FA0CFB4FEA144909
:100330001343BBFBF9F81FFA84FE09FB18BB1A0C28
:1003400008FB0EFA42EA0B42924507FA01F73ED942
:10035000A21808F1FF3004D2924502D9A8F1020098
:100360002244A2EB0A029BB2B2FBF9F809FB182265
:1003700008FB0EFE43EA024296452AD9A21808F16C
:10038000FF3304D2964502D9A8F10203224443EA7E
:100390000040A0FB0593A2EB0E029A42CE4698467F
:1003A00002D306D14F4504D2B9EB050E63EB040826
:1003B000013886B1B7EB0E0362EB080707FA0CFCB5
:1003C000CB404CEA0303CF40C6E900379CE74046E8
:1003D000C7E74346DBE73146FDE6034613F8012B4A
:1003E000002AFBD1181A01387047000038B50E48B2
:1003F0000AF06DFA0D4D28680AF08DF904464FF4A5
:1004000080420B490BF09CFD0A480AF060FA04F5A3
:100410004053802283F83C2F296820460AF09DF93A
:1004200005480AF054FAE5E728C3000078450020A3
:100430000000002040C3000060C3000038B51AE08F
:1004400014480AF044FA01347F2C0FDC00237F2B80
:10045000F9DC03EBC412A95C0F4A02EBC412D25CB4
:100460009142EDD10133F2E70024EDE70B4B19681F
:1004700028460AF0BCF9094B18680AF08FF90546BE
:1004800000F5405393F83C3F802BEDD104480AF02F
:100490001EFAEBE7A8C3000000000020784500200A
:1004A00084C300002DE9F0418EB04FF4007009F0D4
:1004B0009DFE0446002506E0802009F097FE44F8E2
:1004C00025000135EDB215F0800FF5D000210AE0CE
:1004D00054F821004B4A02EBC112D25CC2540133E2
:1004E0007F2BF5D901317F2901D80023F8E7234676
:1004F0004FF48042072144480AF0CDF8434B18607E
:1005000043480AF0E4F90C2009F070FE80460C2004
:1005100009F06CFE05460121032009F05FFE074645
:100520000121032009F05AFE06463A480AF0CFF9A5
:1005300000241CE00EAB03EB840353F80C0C3919B8
:1005400000220023CDE90623002304930122039215
:10055000029301930093304B6FF01B0207F0F8F900
:1005600048F8240021462D480AF0B1F90134022C44
:10057000E0DD2B480AF0ABF9002418E00EAB03EBEA
:10058000840353F8180C311900220023CDE9062307
:100590000023049301220392029301930093214BC1
:1005A0006FF01B0207F0D4F945F824000134022C47
:1005B000E4DD1D480AF08BF900240BE00EAB03EBE1
:1005C000840353F80C0C4FF0FF324FF0FF3309F067
:1005D0007FF80134022CF1DD00240BE00EAB03EBBD
:1005E000840353F8180C4FF0FF324FF0FF3309F03B
:1005F0006FF80134022CF1DD0C480AF068F90EB0F6
:10060000BDE8F08100000020B0C300007845002064
:10061000BCC30000D0C30000ED030000E4C3000031
:10062000FCC300003D04000010C4000024C400000E
:100630002DE9F04F8DB005920393134602F00402AA
:100640000192C3F3C20210F00303029340F09382BD
:1006500007468A460132041D002841D027B1E31B1A
:100660000433534500F28A82039B5D1EDDF808B017
:10067000CDF810B0CDF818B000264FF00408C146F0
:100680000FB1039B2360531E0793002A40F3B780EA
:10069000059B13F0020221D00120E11B8B081AB147
:1006A000B1F5007F80F0BF80BBF10F0F00F2CE806C
:1006B000002F00F0E280DBB20CAA5A4402F8103C92
:1006C000002800F0D68063F07F030CAA5A4402F899
:1006D000103C049B013304930BF1010B0434F6E04E
:1006E00001F0070A5444CAF1080AB7E7252B40F085
:1006F000ED8001264FF00408C146E7E04FF00808FE
:10070000C146E3E04FF00408C146DFE04FF00408C3
:10071000C146DBE02A786C2A26D0002604EB0802CA
:10072000013AC8F100010A40144627B1D11B4944DF
:100730008A45C0F02682732B59D0B9F1040F00F01E
:10074000A880B9F1080F40F0AC80169B073323F066
:10075000070303F108011691D3E900010FB1C2E9C3
:10076000000102F10804B1E01CF8022C6C2A04D04C
:1007700000264FF00408C146D0E700264FF00808D5
:10078000C146CBE72B784C2B1CD0169B073323F0AC
:10079000070303F108021692D3E90001E21D22F0DB
:1007A000070247B1D31B0833534515D82B784C2B80
:1007B00015D0C2E9000102F1080400264FF0080834
:1007C000C14683E0169B073323F0070303F10802B9
:1007D0001692D3E90001E1E76FF01B00C8E1C2E91E
:1007E0000001E8E700264FF00408C14696E7169B93
:1007F0001A1D16921B680393079A654640E7BB4B88
:10080000039A9A4204D3BA4B9A420AD3002300E0D7
:100810000023002B7FF43CAF059B03F00202002075
:100820003BE70123F5E7B34C4FF4F8732246B24996
:10083000B2480AF055F9B2480AF052F94FF4F8718B
:1008400020460AF046F96FF0150091E1A94C40F2FC
:10085000F5132246A849A9480AF042F9A9480AF026
:100860003FF940F2F51120460AF033F96FF0150018
:100870007EE1069B013306932EE708B9019B13B175
:100880000AF1010A28E70398FFF7A7FD831C9A44A1
:1008900022E7169B191D16911B6807B11360141DE2
:1008A00014E0944C40F231232246934993480AF0D5
:1008B00017F9494694480AF013F940F231212046CD
:1008C0000AF007F96FF0150052E10026654605F1C0
:1008D000010C6B78002B00F0C180002E3FF406AFB6
:1008E000A3F120015A29F0D801A252F821F000BF4B
:1008F000CD080000CB080000CB080000CD080000A8
:10090000CB080000CB080000CB080000CB0800009B
:10091000CB080000CB0800001D070000CD08000038
:10092000CB080000CD080000CD080000CB08000077
:10093000CD080000CD080000CD080000CD08000063
:10094000CD080000CD080000CD080000CD08000053
:10095000CD080000CD080000CB080000CB08000047
:10096000CB080000CB080000CB080000CB0800003B
:10097000CB08000085070000CB080000CB08000072
:10098000CB080000850700008507000085070000F0
:10099000CB080000CB080000CB080000CB0800000B
:1009A000CD080000CB080000CB080000CB080000F9
:1009B000CB080000CB080000CB080000CB080000EB
:1009C000CB080000CB080000CB080000CB080000DB
:1009D00015070000CB080000CB080000CB08000082
:1009E000CB080000CB080000CB080000CB080000BB
:1009F000CB08000085070000CB08000015070000A9
:100A00001507000085070000850700008507000026
:100A1000CD08000015070000FD060000CB0800000F
:100A2000CD080000CB080000E50700001507000016
:100A3000E5070000CB080000CB080000E507000038
:100A40000D07000015070000CB080000CB080000D0
:100A500015070000CB08000005070000E31BB3F5F5
:100A6000806F11D21FB300223A609B083B70019B3C
:100A70000BB3069BFB70049BBB70ABBB029DDDF808
:100A80001090DDF80C8058E01A4C40F23D232246CD
:100A900019491A480AF024F81C480AF021F840F2D3
:100AA0003D2120460AF015F86FF0150060E0534430
:100AB000A3F108005CE0069B7B70DCE704F8011BF7
:100AC00001339B45DAD90CAA1A4412F8101C12F90A
:100AD000102C002AF4DA01F07F01E21B013292456A
:100AE000ECD26FF01B0043E0029BEAE7D4BF0000AA
:100AF00038E3000030C4000038CB000078C40000A8
:100B000098C40000BCC40000D8C40000F0C40000B9
:100B1000019BF3B1029EE31B334401339A4533D367
:100B20000CAB2B4413F8103C04F8013B3246414611
:100B300020460BF005FA34440135AB4517D9B9F11D
:100B4000000FE5D00CAB2B4413F9103C002BDFDA7F
:100B5000F2E70CAB2B4413F8103C57F8238000222B
:100B600047F823204046FFF738FC461CD3E7E01B3C
:100B70000DB0BDE8F08F6FF00D00F9E76FF01B00CE
:100B8000F6E76FF01B00F3E76FF01B00F0E700BF24
:100B900038B50446436803F003038160022B03D990
:100BA000032B02D100680EE063B9084D45232A46A5
:100BB0000749084809F094FF4521284609F089FFB4
:100BC000002000E000200023636038BD08C500005D
:100BD00038CB000078C40000014B1860704700BF9C
:100BE0000040002038B504468C46838B002A14DB75
:100BF00003F007035A1F012A1BD9042B50D02F4C96
:100C000040F21B1322462E492E4809F069FF40F29C
:100C10001B11204609F05DFF38BDD0E900018CE8CA
:100C200003000023236063600121204609F05DFE7C
:100C3000F2E7D0E900018CE8030000222260626044
:100C4000062B0FD0052B1DD10021204609F04DFEAB
:100C5000204609F071FE0028DED0A38B43F020036C
:100C6000A383D9E7DCF800303BB1E28B0132E283A9
:100C7000002BF9D01B68002BF6D10221204609F089
:100C800034FEE5E70D4D40F209132A460E490D48A2
:100C900009F026FF40F20911284609F01AFFD3E7B0
:100CA000002109F022FE204609F046FE0028B3D0BC
:100CB000A38B43F02003A383AEE700BF2CC5000045
:100CC00038CB000078C4000050C500002DE9F04F7B
:100CD00083B004461646838B03F0070703F0080829
:100CE0000D4631B1B8F1000F12D1002300930193EA
:100CF000AAE0DFF8E09240F233134A46B649B7481B
:100D000009F0EEFE40F23311484609F0E2FEE9E751
:100D1000012D13D0022D16D1A38B43F02003A38302
:100D20001434204606F0DCFC002800F09C8186F399
:100D30001188BFF36F8F03B0BDE8F08FA38B43F032
:100D40001003A383ECE7A34D4FF49E732A46A449F6
:100D5000A24809F0C5FE4FF49E71284609F0B9FE7D
:100D6000DAE7204609F0E8FD05466FE0D4F8189070
:100D70004A4669462046FFF735FF002511E0002F5F
:100D800040F081802368002B00F08B8023691D6870
:100D9000002D00F094800621204609F0A6FD4FF0BA
:100DA0000009A38B03F00708B84500F00B81A26887
:100DB000002A00F00981012217461AB9009A002A78
:100DC00000F0048143F00803A38304F1140A5046A1
:100DD00006F086FC002800F0158186F31188BFF329
:100DE0006F8F002F40F01F81009B2BB14B46424676
:100DF0006946204609F0E2FD15B17A492046A84728
:100E00004FF02003EFF3118683F31288BFF36F8F47
:100E1000504606F055FC002800F00B81504606F0C5
:100E20006FFCA38B23F00803A383A38B13F0100F95
:100E300000F00F8123F01003A3830125A78B07F097
:100E40000707002D3FF46CAF022D8AD0002D3FF430
:100E500067AF012D8AD0032D91D0042D3ED0052DF2
:100E600040F0A080012F72D12368002B7DD0236930
:100E70009D68002D00F087800521204609F035FD92
:100E80004FF000098DE7534D4FF4AB732A46564996
:100E9000524809F025FE4FF4AB71284609F019FEBF
:100EA00070E74C4D40F257132A4650494B4809F021
:100EB00017FE40F25711284609F00BFE66E7DFF8EF
:100EC00014814FF4AD7342464949444809F008FE85
:100ED0004FF4AD71404609F0FCFD5CE7022F0BD1E9
:100EE000E38BBBB923695D6815B30421204609F083
:100EF000FCFC4FF0000954E7364D40F25D132A46E2
:100F00003C49364809F0ECFD40F25D11284609F0F5
:100F1000E0FDE5E72F4D4FF4AF732A4636492F48E1
:100F200009F0DEFD4FF4AF71284609F0D2FDD9E794
:100F3000DFF8A08040F2611342462D49274809F0AE
:100F4000CFFD40F26111404609F0C3FDCDE7214DD0
:100F50004FF4B2732A462949204809F0C1FD4FF4E5
:100F6000B271284609F0B5FD7EE71A4D40F26513CF
:100F70002A461E49194809F0B3FD40F2651128467A
:100F800009F0A7FD73E7DFF84C804FF4B4734246D5
:100F90001749124809F0A4FD4FF4B471404609F016
:100FA00098FD69E70B4D40F26B132A4614490B4834
:100FB00009F096FD40F26B11284609F08AFD0025E4
:100FC000A946EEE60022F7E60022F5E6002D7FF4C2
:100FD000F9AE2AE72CC5000078C5000078C40000EF
:100FE00088C50000A11000009CC50000A8C5000035
:100FF000CCC50000E4C50000FCC500000CC6000024
:1010000038CB0000DFF880B0B9235A461F4920488A
:1010100009F066FD51461F4809F062FDB9215846A6
:1010200009F057FDD9E64A464146204609F065FCDD
:10103000DAE6154D8E232A461749154809F050FD6A
:101040005146164809F04CFD8E21284609F041FD15
:10105000E4E613F0200F04D023F02003A38302253D
:10106000ECE60025EAE6084DB9232A460749084878
:1010700009F036FD2146074809F032FDB92128461E
:1010800009F027FD53E600BF24C6000054C6000047
:1010900078C400006CC6000084C600009CC6000036
:1010A0002DE9F04104460D4600F114064FF02003EF
:1010B000EFF3118783F31288BFF36F8F304606F08A
:1010C000FFFA50B1304606F01BFBA5613A460121FC
:1010D0002046FFF7FBFDBDE8F081DFF820808E237E
:1010E00042460749074809F0FBFC3146064809F02B
:1010F000F7FC8E21404609F0ECFCE3E724C6000033
:1011000084C6000078C400009CC600002DE9F84F9A
:101110000446884609F029FC061E58DB04F1140732
:101120004FF02003EFF3118983F31288BFF36F8F21
:10113000384606F0C5FAE8B1384606F0E1FAA58B64
:1011400005F00705E38B4FF6FF72934256D02E460B
:10115000022D1FD02DB3042D23D0062D21D0052D17
:1011600053D0012D36D16FF004064FF0000A5346DC
:1011700052461CE03C4D8E232A463C493C4809F02F
:10118000AFFC39463B4809F0ABFC8E21284609F0FC
:10119000A0FCD1E70133E3834FF0010A00231A4694
:1011A00005E0B5FA85F35B094FF0000A012242B170
:1011B0000022C8F80020626872B3C2F80080C4F848
:1011C000048073B34A4602212046FFF77FFD304674
:1011D000BDE8F88F284E40F2C9133246274924480B
:1011E00009F07EFC40F2C911304609F072FC6FF044
:1011F00004064FF0000A53465246D8E76FF00A063D
:101200004FF0000A53465246D1E76FF085064FF083
:10121000000A53465246CAE7C4F80480C4F8008066
:10122000CFE7384606F05CFA68B189F31188BFF35E
:101230006F8FBAF1000FCAD000232A4641462046DC
:1012400009F0A9FBC3E7DFF820B0B9235A460C49DF
:10125000074809F045FC39460A4809F041FCB92124
:10126000584609F036FCE0E724C6000084C60000BA
:1012700078C400009CC600002CC500000CC600000D
:1012800054C600006CC600002DE9F04706460D4626
:101290001446B2F5802F22D2042C31D9221FEC1D26
:1012A00024F00704154425F007052D1B4FEAD50847
:1012B000172D36D93460C4F808800023E360B8FAEB
:1012C00088F6C6F12007C6F12406B60007364FEAB5
:1012D000D60909F10103434534D8002349E0384FCA
:1012E00040F2E3133A463749374809F0F9FB3748EB
:1012F00009F0F6FB40F2E311384609F0EAFBCBE7D0
:101300002F4F4FF4F5733A4631492F4809F0E8FB67
:10131000304809F0E5FB4FF4F571384609F0D9FB88
:10132000BCE7274F40F2F3133A462B49264809F011
:10133000D7FB284809F0D4FB40F2F311384609F0F6
:10134000C8FBB7E7DFF878A04FF401735246234992
:101350001D4809F0C5FB1F4809F0C2FB4FF401719D
:10136000504609F0B6FBB8E71A1D002144F82210D8
:101370000133BB42F8DB4FEA49039BB26380002292
:10138000228043F001036380A8EB09084FEA48017B
:1013900026F00706B31CE15224F8069025F0070357
:1013A000A91C6252254424F803806B8843F0010392
:1013B0006B804946204609F066FBBDE8F08700BF18
:1013C000B4C6000088C7000078C40000A0C70000B1
:1013D000B8C70000DCC70000F8C7000024C8000040
:1013E00084460268002005E000EB8000013203EB38
:1013F0004000303813780449595C11F0040FF3D1E0
:10140000CCF80020704700BF35E2000070B582B014
:10141000044600230360436083604B78252B02D091
:101420004E1C01251FE0881CE37045E1237843F042
:1014300004032370B5B1013614E0237843F00803A8
:101440002370F7E7237843F010032370F2E7237843
:1014500043F020032370EDE7237843F0400323702B
:10146000E8E7002545B33378203B102BF9D801A2DB
:1014700052F823F0451400006314000063140000C8
:101480004F14000063140000631400006314000094
:101490006314000063140000631400006314000070
:1014A0003B140000631400002D14000063140000BE
:1014B0006314000059140000237803F04403442B04
:1014C0005FD00196237843F08003237033782A2B72
:1014D0005CD001A8FFF784FF019B9E420FD02378C8
:1014E00043F0800323706060DBB2C3F34003002845
:1014F00054DB00221343227863F341022270019BE4
:1015000001931B782E2B14BF00230123627863F311
:1015100041026270002B43D0019B5A1C01925B7800
:101520002A2B3FD001A8FFF75BFFA0602378C3F30D
:10153000400300283EDB00221343227863F341027C
:101540002270019803784C3B2E2B00F29D80DFE83F
:1015500003F0909B9B9B9B9B9B9B9B9B9B9B9B9B29
:101560009B9B9B9B9B9B9B9B9B9B9B9B9B9B339B33
:10157000579B459B9B9B9B9B9B9B899B9B9B9B9B67
:10158000820023786FF3861323709AE7637843F021
:1015900001036370334601330193B1E70122A9E7E8
:1015A0000198CFE7637843F004036370104601307D
:1015B0000190C7E70122BFE7421C4378682B06D0A1
:1015C0006378022161F3C603637010461EE06378FE
:1015D000012262F3C6036370023017E0421C4378B5
:1015E0006C2B06D06378032161F3C6036370104649
:1015F0000CE06378042262F3C6036370023005E0F6
:101600006378052262F3C6036370013010F8013B72
:10161000E370A3F14102372A7DD8DFE802F05E7C57
:101620007C7C5E5E5E7C7C7C7C7C7C7C7C7C7C7C54
:101630007C7C7C7C7C4F7C7C7C7C7C7C7C7C5E7C35
:101640004F3A5E5E5E7C3A7C7C7C7C654F717C7C34
:10165000717C4F7C7C4F6378062262F3C603637013
:101660000130D3E76378072262F3C6036370013069
:10167000CCE76378082262F3C603637001302378F5
:1016800043F002032370C1E763786FF3C60363700E
:10169000BCE7A278012161F30202A270627802F035
:1016A0007802402A10D0632B13D02378C3F3400272
:1016B000154365F34103237002B070BDA278022187
:1016C00061F30202A270E9E7217841F00101217083
:1016D000E9E7151E18BF0125E7E7A378042262F3A6
:1016E0000203A3700125E0E7A378032262F302035B
:1016F000A370637803F07803402BD6D10125D4E79B
:10170000A378032262F30203A370637813F0780FC7
:10171000CBD00125C9E7237843F001032370C4E748
:101720002DE9F04F83B004460D4601929A460C9E77
:10173000D378324A13F802B00BF0030B6F2B0FD0A3
:1017400006D9702B0FD0782B10D14FF0100923E061
:10175000582B02D04FF00A091EE04FF010091BE091
:101760004FF0080918E04FF0100915E04FF00A0992
:1017700012E0D2B23032D2B206F8012D3A464346D8
:1017800020462946FEF7BCFCBC4275F1000319D384
:10179000564517D904460D464FF000084F464A46B5
:1017A000434620462946FEF7ABFC092AE1D9BBF1A6
:1017B000010F03D0D2B25732D2B2DDE7D2B2373204
:1017C000D2B2D9E7019B1B7813F0200F05D0B9F1F5
:1017D000080F06D0B9F1100F09D0304603B0BDE8AC
:1017E000F08F019A937843F008039370F5E7019A1C
:1017F000937843F010039370EFE700BF35E20000E9
:101800002DE9F04F91B006460D4691460393002412
:1018100099F80000002800F0D582252808D009F1A9
:1018200001092946B0470028C0F2CD820134EFE714
:10183000002304930593069307930893099349465D
:1018400006A8FFF7E3FD02909DF8193013F0010F91
:1018500000F09780039B1A1D03921F68002FC0F2AF
:1018600088809DF8193013F0040F00F09C80039BD2
:101870001A1D0392D3F800A0BAF1000FC0F28A80BB
:101880000023079308939DF81A3003F007039DF88F
:101890001910C1F3C301012B00F08E80022B00F060
:1018A000D380042B00F02481032B00F03B819DF8B2
:1018B000188018F0030B40F03B819DF81B30253B4E
:1018C000532B00F2E681DFE813F04001E401E4016C
:1018D000E401E401E401E401E401E401E401E401E0
:1018E000E401E401E401E401E401E401E401E401D0
:1018F000E401E401E401E401E401E401E401E401C0
:10190000E401E401E401E401E401E401E401E401AF
:10191000E401E401E401E401E401E401E401E4019F
:10192000E401E401E401E401E401E401E401E4018F
:101930008101E401E401E401E401E401E401E401E2
:10194000E401E401E4015E016701E401E401E40172
:10195000E4016701E401E401E401E401BE01810165
:10196000A201E401E4014D01E4018101E401E4018B
:1019700081019DF8183043F004038DF818307F4240
:101980006FE79DF91830002B02DB4FF0FF3768E757
:10199000079F66E79DF819306FF341038DF8193002
:1019A0004FF0FF3A6CE713F0020F02D0DDF820A0F1
:1019B00066E74FF0FF3A63E7CB1E042B04D8DFE85D
:1019C00003F00B1D29353500039B1A1D03921B687C
:1019D000DA170493059206E0039B1A1D03921B6815
:1019E000DA1704930592012928D002297FF45FAF0A
:1019F000BDF91030DA170493059258E7039B0733BB
:101A000023F0070303F108020392D3E90023CDE991
:101A10000423E8E7039B073323F0070303F10802DD
:101A20000392D3E90023CDE90423DCE7039B1A1DCD
:101A300003921B68DA1704930592D4E79DF81030DF
:101A400004930023059332E7CB1E042B04D8DFE870
:101A500003F00B1F35414100039B1A1D03921B68C5
:101A60000493002305931EE09DF81B30632B07D0E1
:101A7000039B1A1D03921B6804930023059312E035
:101A8000039B1A1D03921B680493002305930AE02D
:101A9000039B073323F0070303F108020392D3E902
:101AA0000023CDE9042301291CD002297FF4FFAED5
:101AB000BDF81030049300230593F8E6039B073329
:101AC00023F0070303F108020392D3E90023CDE9D1
:101AD0000423E8E7039B1A1D03921B680493002369
:101AE0000593E0E79DF81030049300230593DEE6AC
:101AF00008290BD0039B073323F0070303F10802E7
:101B00000392D3E90023CDE90423D0E6039B0733F6
:101B100023F0070303F108020392D3E90023CDE980
:101B20000423C4E6039B1A1D03921B680493BEE6BC
:101B3000029F3B464A462946304608F0B0FF00283F
:101B4000C0F241810444B94662E629462520B047E7
:101B50000028C0F238810134D8460DF13E0A4FF01A
:101B600000099BE0DDF81090BAF1000F07DB514649
:101B700048460AF01CFA09EB000AD8468EE04846AF
:101B8000FEF72BFCF7E7049B8DF82830D8460DF1C3
:101B9000290A0DF1280981E018F0080F05D118F085
:101BA000100804D04FF0200801E04FF02B08049AF1
:101BB000059B002B02DB0492059308E0524263EB85
:101BC0004303049205934FF02D0800E0D8460DF131
:101BD0003E0300930AAB06AADDE90401FFF7A0FD6E
:101BE0008146BAF1000FC0F288800DF13E03A3EBED
:101BF00009039DF818206FF386128DF818209A4576
:101C00007ED9AAEB030307930DF13E0A46E0049840
:101C100028B9D846DFF8B4A1AAF105093EE00DF1D4
:101C20003E0300930AAB06AA0021FFF779FD814627
:101C30009DF81A3043F010038DF81A3078238DF890
:101C40001B30D846CDE7049A9DF81930C3F3C3037F
:101C5000072B06D8DFE803F0040B0D0F1115191B35
:101C60001460D8460DF13E0A4FF0000916E01470DA
:101C7000F7E71480F5E71460F3E7E31714605360A7
:101C8000EFE7E31714605360EBE71460E9E71460D3
:101C9000E7E7D8460DF13E0A4FF00009B9F1000F11
:101CA00000F08D80AAEB0902B8F1000F00D00132DC
:101CB0009DF81A1011F0100F25D00232079B134423
:101CC00011F0400F01D0089A1344002F31DDFF1AA4
:101CD0009DF8183013F0040F2BD113F0400F17D0DC
:101CE000B8F1000F17D029464046B04700286ADBFC
:101CF0000134D8464FF0300B0FE00DF13E0ACDE72E
:101D00000DF13E0ACAE711F0080FD7D00132D5E72E
:101D10004FF0200B01E04FF0300B3B465F1E002BD5
:101D200007DD29465846B04700284CDB01343B46C6
:101D3000F4E7B8F1000F05D029464046B047002827
:101D400041DB01349DF81A30C3F30012C3F3C00322
:101D5000134305D029463020B047002833DB013437
:101D60009DF81A3013F0100F06D029469DF81B007D
:101D7000B047002827DB0134079B03F1FF38002B15
:101D800007DD29463020B04700281CDB01344346DC
:101D9000F3E753464A462946304608F080FE0028BD
:101DA00011DB0444002F07DD29462020B04700281E
:101DB00009DB0134013FF5E7DDF8089028E5DDF89F
:101DC000089025E5204611B0BDE8F08F55C8000009
:101DD00008B54FF02002EFF3118382F31288BFF3AE
:101DE0006F8F01F08FFF034808F071FD00F0A8FF2E
:101DF000FCE700BF58C80000002950D12DE9F84386
:101E00000746002422E0DFF898904FF499734A4681
:101E10002449254808F064FE4FF49971484608F0BB
:101E200058FE1FE0DFF8789085234A461D491E487A
:101E300008F056FE8521484608F04BFE1EE058F893
:101E400005301B683946304698470134174B184A0D
:101E50009B1AB4EB231F20DA4FEA0418144D15EB3C
:101E60000416D0D073685B79002BEED0394630462B
:101E700008F047FE0028E8D0002ED3D0002FDED196
:101E8000DFF81C9086234A460A49074808F028FED6
:101E90008621484608F01DFED1E7BDE8F88370476B
:101EA00084C80000BCC8000078C40000ACC20000B8
:101EB0008CC20000D4C80000014B53F820007047CA
:101EC00058C90000F8B5204B204A9B1A1E11902BD0
:101ED0000ED81F4BBFF35B8F53E8002F511C43E814
:101EE00000100028F8D1BFF35B8F5ABB002417E025
:101EF000184C40F2732322461749184808F0F0FDA9
:101F000040F27321204608F0E4FDE2E70F4B03EBBB
:101F100007135B6804221968284600F0D3F80134DF
:101F2000B4420FDA2746094D05EB04152B7B002B35
:101F3000F5D02301054AD3589B69002BE6D02846EB
:101F40009847E3E7F8BD00BFACC200008CC20000B8
:101F500084450020E8C8000030C9000078C40000B3
:101F600038B108B5044A1060084600F0C3FA0020F2
:101F700008BD6FF0150070470440002008B500232D
:101F8000044A1370044A13604FF400410348FFF7FA
:101F9000E7FF08BDE55200208045002007AB0000A8
:101FA000204B1B7803B170472DE9F041FFF78AFF02
:101FB000002413E0DFF870804FF4997342461B4908
:101FC0001B4808F08DFD4FF49971404608F081FDE3
:101FD0000FE07B595B69304698470134154B164A30
:101FE0009B1AB4EB231F17DA2701134D15EB0416C8
:101FF000E0D073685B79002BEFD0002EE9D1DFF8D9
:102000002880D72342460949094808F069FDD721AD
:10201000404608F05EFDDCE7024B01221A70BDE885
:10202000F08100BFE552002084C80000BCC8000059
:1020300078C40000ACC200008CC20000014B012239
:102040001A707047E45200200D4BBFF35B8F53E8CA
:10205000002F013243E800210029F8D1BFF35B8F44
:1020600000B97047074BBFF35B8F53E8002F013A6D
:1020700043E800210029F8D1BFF35B8FF1E700BFEF
:10208000804500207C45002010B50446044B1B68A9
:102090009847A06000212046FFF7AEFE10BD00BFAC
:1020A00004400020054B064A9B1AB1EBD30F02D225
:1020B00052F8310070470020704700BF8CC200000A
:1020C00044C20000F8B504460E461E4D451B2D11B6
:1020D000013503681B6863B1EDB2CCB163681D7153
:1020E00014B363681E60636801225A71FFF7A6FF8C
:1020F000F8BD154FBB233A461449154808F0F0FCCB
:10210000144808F0EDFCBB21384608F0E2FCE3E798
:10211000114FE6233A4611490D4808F0E1FCE6214B
:10212000384608F0D6FCD9E70B4D40F217132A4683
:102130000A49074808F0D4FC40F21711284608F075
:10214000C8FCCEE78CC2000064C90000C0C9000012
:1021500078C40000D8C9000084C80000BCC80000D2
:102160000EB400B582B0014603AB53F8042B0193C3
:102170000348FFF745FB02B05DF804EB03B070477E
:102180003BAB000030B585B011F0440F05D01A4BC1
:102190001C6834B9002005B030BD1849FFF7E0FFD6
:1021A000F9E7174B1968B2FBF1F1B1FBF4FC154AE2
:1021B000A2FB0C32D20A4FF4616E0EFB12CE124B10
:1021C000A3FB0E535B0904FB1C114FF47A7C0CFB40
:1021D00001F1B1FBF4F505FB14110CFB01F1B1FBAE
:1021E000F4F102910195C3EB0311AEEB8101009173
:1021F0000649FFF7B5FFCEE788450020FCC900007F
:102200008C450020C5B3A2918988888808CA00003F
:1022100061B108B52AB1064A52F8232012B9054A1D
:1022200000E0044A0449FFF79BFF08BD704700BF68
:10223000CCCA000024CA00002CCA000011F0100F04
:102240000BD108B511F0200F03D00449FFF788FF28
:1022500008BD0349FFF784FFFAE77047A4C30000F5
:1022600010E200002DE9F04105460F46164698465B
:102270000699FFF7E3FF0024444505DA2449284680
:10228000FFF76EFF0134F7E7002409E020492846F4
:10229000FFF766FF0BE01F492846FFF761FF013497
:1022A0000F2C0CDC002C02DD14F0070FEED0B44232
:1022B000F1D23A5D18492846FFF752FFEFE7174978
:1022C0002846FFF74DFF002409E011492846FFF793
:1022D00047FF0BE012492846FFF742FF01340F2C5D
:1022E00013DC002C02DD14F0070FEED0B44207D24D
:1022F0003A5D0C4BD35C13F0970FEBD12E22E9E73C
:1023000003492846FFF72CFFE8E7BDE8F08100BF4E
:1023100054CA000038CA000030CA00003CCA00009D
:1023200040CA000035E200002DE9F0418046164623
:102330001D46BDF9187059B90024002F1CDB86B169
:102340000123079A934013F0100F18D10D4E09E0A6
:102350000D4B079A53F822200C49FFF701FF044662
:10236000EBE7084E39462846FFF79CFE0246314609
:102370004046FFF7F5FE04442046BDE8F081044ED8
:10238000F0E700BF44CA0000E0CA000050CA0000E5
:102390004CCA00002DE9F04F85B005460C461646A4
:1023A00003939DF8388001F0020B01F0010AC1F39C
:1023B000C00908F0C0FBE8B1024613492846FFF700
:1023C000CFFE0746BBF1000F16D1424651462846C4
:1023D00008F0DDFBCDF80480BDF9403000939DF896
:1023E0003C30324649462846FFF79EFF384405B048
:1023F000BDE8F08F0027E5E7039A21462846FFF75E
:10240000C1FE0744E1E700BF58CA00002DE9F047CC
:1024100084B006460C4617468B680A88C2F38218B9
:1024200012F4E07F37D04A680978C1F3C2017AB369
:102430002948121A42F3CF0202920191CDF800808E
:10244000002239463046FFF7A5FF8146254655F85C
:10245000103BC3F3492353B1B8F1000F1ED11F48FD
:102460002B4632461E4908F0E6F9002818DB628840
:10247000C2F3CB022168C1F349212944FAB9B8F16A
:10248000000F22D1304608F0B5FB04B0BDE8F0875C
:102490004FF0FF32D0E74FF00009D7E71148DFE7F0
:1024A000DFF844A040F2B72352461049104808F024
:1024B00017FB40F2B721504608F00BFBD7E7009717
:1024C0004B46304608F07BFBD9E74246394630465A
:1024D00008F069FBD6E700BF44C2000059AB00001A
:1024E000011800003BAB00005CCA0000A0CA00005D
:1024F00078C40000074B01221A6004E04008054A36
:1025000013685B001360044B9842F7D8034B1860C4
:10251000704700BF8C45002040420F0088450020D6
:102520002DE9F04F87B002AF824679609146984618
:10253000BE6BD7F840B0BBF1000F16D07B6CFB60D0
:1025400000935B46FA6B10210020FEF771F8051E20
:102550000CDA264C672322462549264808F0C0FAA3
:102560006721204608F0B5FA00E000252946AB199E
:10257000173300246FF300046FF341046FF38204F8
:102580006AF3C50469F3881465F3522466F3DE44E4
:102590006FF3DF7423F00703ADEB030D02AD6B4661
:1025A00013F118000AD0BBF1000F07D07B6C009329
:1025B0005B46FA6BFEF73CF8002809DB43462246EF
:1025C0007968284608F023FB1437BD46BDE8F08F34
:1025D000DFF8189081234A460549064808F080FA3A
:1025E0008121484608F075FAE8E700BFF4CA000008
:1025F00030CB000078C4000070B506460D460024BC
:1026000006E0054B1868315D8368DB699847013443
:10261000AC42F6D3284670BDA8450020014B196096
:10262000002070479845002010B50948094B1860F4
:1026300009F074FB00B110BD074C7923224607490D
:10264000074808F04DFA7921204608F042FAF2E7EF
:10265000ACC00000A84500203CCB000074CB0000BB
:1026600078C4000008B5034B01221A70024808F034
:10267000C1FA08BDE6520020D0CB000010B50C46D0
:10268000044B1868FFF718FC03460F222146024846
:10269000984710BD98450020D0CB0000034B012285
:1026A0001A70034B034A1A60704700BFE7520020BC
:1026B000D4450020BC450020014B19600020704724
:1026C000D845002008B518B9044B00221A7008BD7F
:1026D00041F2883009F0FFFBF9E700BFE752002024
:1026E00038B504460A4B01221A700A4B1B782BB9E5
:1026F00038BD651E2046FFF7E5FF2C46002004F09C
:10270000EBFC0028F4D0024B1B78002BF1D1EFE753
:10271000E7520020E8520020F8B506460D4604278F
:1027200006E03846FFF7DCFF9CB90D4B1B7883B100
:102730002A463146002004F06BFC04460028F0D104
:10274000074B1B78002BEFD0013F3846FFF7BAFF4D
:10275000EAE714B9024B1B7803B92C462046F8BDB2
:10276000E752002008B5034B01221A70024808F016
:1027700041FA08BDE852002010CC000010B50C460C
:10278000044B1868FFF798FB03460F2221460248C6
:10279000984710BDD845002010CC000070B5404BC4
:1027A0001D7D05F01F0301229A4069093D4B03EB93
:1027B0008103D043BFF35B8F53E8001F01EA00049D
:1027C00043E80046002EF7D1BFF35B8F0A4200D1E9
:1027D00070BD354A05EB4503980002EB830333498E
:1027E000A9B15978105C08F0F0FA4FF02003EFF32C
:1027F000118683F31288BFF36F8F2D4804F060FFBA
:1028000058B12B4804F07CFF2A4B1C6820E00023C1
:1028100083F31188BFF36F8FE7E7274C8E2322469F
:102820002649274808F05CF92149264808F058F95C
:102830008E21204608F04DF9E3E7194B1B7D03EB91
:102840004303194911F8230090470CB1246824B1BF
:102850001CB1A268002AF0D1F7E7154804F040FF48
:1028600070B186F31188BFF36F8F0F4A05EB4505F2
:10287000A90002EB8505002353506B60AB60A7E70E
:102880000D4CB923224610490D4808F029F9084992
:102890000E4808F025F9B921204608F01AF9E0E7BA
:1028A000AC50002004460020F4450020CBAD0000D1
:1028B000E8450020EC45002024C6000084C6000046
:1028C00078C400009CC6000054C600006CC600001E
:1028D00070B504466D4B1D7D6A09BFF35B8F6C4B71
:1028E00053F82230BFF35B8F05F01F02134113F042
:1028F000010F1DD005EB4503664A12F8233033B3B0
:10290000B4F1FF3F39D105F045FD4FF02003EFF35F
:10291000118683F31288BFF36F8F5F4804F0D0FEF7
:10292000002840D05C4804F0EBFE5C4B1C6855E08E
:102930000146284600F0D6F80028DBD005EB450319
:10294000544A02EB830307C883E80700D2E705F087
:102950001F02012393406D094D4A02EB8505DB43BD
:10296000BFF35B8F55E8002F1A4045E8002100298E
:10297000F8D1BFF35B8F002077E005EB4503454AB4
:1029800002EB83039868410CC003454BC018454ACD
:102990004FF0000341F10001FDF7B2FB0121201AC5
:1029A00007F034F9AFE7404C8E2322463F494048B8
:1029B00008F096F838493F4808F092F88E212046F2
:1029C00008F087F8AEE7314B1B7D03EB4303314939
:1029D00011F8230090470CB1246824B11CB162683F
:1029E000002AF0D1F7E72C4804F07AFE00283DD009
:1029F00086F31188BFF36F8F05F01F030121994003
:102A00006B092D4A02EB8303BFF35B8F53E8002F62
:102A10000A4343E800200028F8D1BFF35B8F274B1F
:102A20004BB11C4B05EB450203EB8201497813F8CF
:102A3000220008F0BEF9FFF7B1FE05F01F030124E4
:102A400004FA03F36D09124A02EB8505DB43BFF379
:102A50005B8F55E8002F1A4045E800210029F8D186
:102A6000BFF35B8F06F022FA204670BD0E4CB923EF
:102A7000224613490E4808F033F80749114808F078
:102A80002FF8B921204608F024F8B1E7AC50002017
:102A900000460020F4450020E8450020EC450020D9
:102AA0003F420F0040420F0024C6000084C60000D1
:102AB00078C400009CC6000004460020B3AD0000AE
:102AC00054C600006CC60000BFF35B8F044B53F884
:102AD0002000BFF35B8F003818BF0120704700BF94
:102AE000084600202DE9F04182B00E4601A900F011
:102AF00043F8441E24B207E0B6F1FF3F32D0404411
:102B0000B0422FD9013C24B2002C2ADB019B04EBFC
:102B1000440203EB820513F82200FFF7D5FF0028DB
:102B2000F0D16868410CC003104FC019104A4FF033
:102B3000000341F10001FDF7E3FA8046AB68590C50
:102B4000DB03D8190A4A4FF0000341F10001FDF7F9
:102B5000D7FA084B1B68B3F1FF3FCDD08342CBD8E7
:102B6000D0E70025284602B0BDE8F0813F420F00C3
:102B700040420F000840002008B9024B0B600020C3
:102B8000704700BF24CC000008B5024807F0F4FBF2
:102B900008BD00BF24CC0000D0B108B54268042AAB
:102BA00005D0D2B1006805F0EBF8002008BD03683D
:102BB0000022BFF35B8F53E8001F012903D143E8D4
:102BC00000200028F7D1BFF35B8F04D11046EDE75A
:102BD0006FF4E04070470248E8E70248E6E700BFCC
:102BE000E98FFFFFEA8FFFFF20B308B54268042A90
:102BF00002D092B911480FE003680122BFF35B8F46
:102C000053E8001F002903D143E800200028F7D132
:102C1000BFF35B8F0CD1002008BD00684FF0FF327E
:102C20004FF0FF3304F08CFF0028F5D00448F3E7A1
:102C30000348F1E76FF4E040704700BFEA8FFFFF01
:102C4000E98FFFFF10B5044690B16368042B0ED0E6
:102C5000082B0CD05BB113F0020F0ED123680022B9
:102C60001A605A609A60DA601A610023636010BDCE
:102C7000054B5B6805489847E7E72146044804F0A0
:102C8000A9FC00232360F0E7504100202CCC000079
:102C90002446002010B5044678B16368042B0BD09D
:102CA000082B09D00BB9236863B1206809F0C5F877
:102CB000636843F00103636010BD104B5B6810480C
:102CC0009847EAE74FF0FF324FF0FF3321460D48B7
:102CD00004F00AFC08B923681BB9084B5B680A4872
:102CE0009847236800221A605A609A60DA601A6175
:102CF000636843F002036360D7E700BF50410020E0
:102D00002CCC00002446002054CC000008B5402301
:102D100014220449044809F03CF80449044807F027
:102D20008BFB08BD444600202446002094CC0000C4
:102D300084CC0000014910220A60704710ED00E0C9
:102D400072B6404080F31188BFF36F8FBFF34F8F8F
:102D500030BF62B6BFF36F8F704700BF72B6494095
:102D600081F3118820BF80F3118862B6704700BFDD
:102D700070B586B005461E4E83680593436804937C
:102D8000036803931B4B0293002401940094234691
:102D900001223146204607F057FF6B6905932B69E6
:102DA0000493EB680393144B02930194009423461D
:102DB00001223146204607F047FFEB6903930F4B92
:102DC000029301940094234601223146204607F0E5
:102DD0003BFFAB6903930A4B029301940094234693
:102DE00001223146204607F02FFF06B070BD00BF1C
:102DF0006CC20000A8CC0000D8CC000008CD0000B8
:102E000018CD000040B2002807DB00F01F02400987
:102E100001239340014A42F82030704700E100E06E
:102E20004209054B53F8222000F01F00012303FA4A
:102E300000F01040704700BF00E100E0F8B5044624
:102E40004D1C072D0BD860B200281BDB6D01EDB2C5
:102E500000F1604000F5614080F80053F8BD0E4677
:102E60000C4F57233A460C490C4807F039FE07230C
:102E7000224631460A4807F033FE5721384607F00C
:102E800028FEE0E700F00F006D01EDB2054B1D5488
:102E9000E4E700BF48CD000080CD000078C400000A
:102EA0009CCD000014ED00E030BFFFF7FDBF00BF78
:102EB00008B50B4B0B4A22F07F029A60BFF34F8F8D
:102EC000BFF36F8FD3F8882022F47002C3F88820F4
:102ED00004F036FA06F0A8FC00F072FC04F08EFA5A
:102EE00000ED00E0000000000A4A9368C3F8A80063
:102EF00009490968C3F8AC1008494B6843F080538E
:102F00004B60002383F31188BFF36F8F9368D3F86E
:102F1000AC007047AC50002098DA000000ED00E0F3
:102F200013498A684FF030001044EFF3098C80E8B1
:102F3000F01F202080F31288BFF36F8F0D4F4FF0EA
:102F40000066CA698A603E60D2F8A8000023C2F811
:102F5000A83080F3118804B5104600F0DBFCBDE812
:102F6000044002F1300090E8F01F8CF309887047AC
:102F7000AC50002004ED00E01EF0040F0CBFEFF396
:102F80000880EFF30980816911F8021C0229FFD043
:102F900001B507F074FE01BD10B4A2F120040E4982
:102FA00042F8081C21F0010142F8081C42F8203CBC
:102FB000019B42F81C3C029B42F8183C039B42F8E0
:102FC000143C4FF0807342F8043C04650023C0F8C1
:102FD000A83010BC704700BF23AA0000124B9A68AB
:102FE00002B310F1160F11D0D2F89830A3F1200CD3
:102FF000844505D8834205D98B4205D800210BE0D2
:10300000002109E0002107E0012105E0D2F8983015
:103010008B4294BF0021012109B900207047D2F8EA
:103020009800704700207047AC50002008B50D464E
:103030001446084B986000F06DFC204685F3098823
:10304000002163B681F31188BFF36F8F0022002344
:1030500007F0E7FCAC50002001B572B60B4A90694E
:1030600000281EBF0021916108F0CBFE62B6EFF38D
:103070000580A0F110004FEAC0000549014409C9CC
:103080009847BDE80140034908470000AC500020C4
:10309000C4C0000099300000044B9968D869884288
:1030A00003D003494FF080520A607047AC500020B3
:1030B00004ED00E070B584B005460E461446474B5B
:1030C000029300200190009003460122444907F03A
:1030D000EAFD444B9B6A13F4805F25D1414B9B6A08
:1030E00013F4006F2BD13F4B9B6A13F4007F31D157
:1030F0003C4B9B6A13F4806F4FD13A4B9B6A13F49D
:10310000807F55D1374B9B6A13F4005F5BD1354A02
:10311000936A43F47F4393620121284607F0C1FD7F
:103120002070002004B070BD2F4B0293002001904E
:103130000090034601222A4907F0B5FDCEE72B4B4C
:10314000029300200190009003460122244907F0D9
:10315000AAFDC8E7264B0293002001900090034689
:1031600001221F4907F09FFD1E4B9A6B9B6A13F4C7
:10317000004FBDD003921F4B02930020019000909E
:1031800003460122164907F08EFD002EB0D0154AE5
:10319000936A23F400439362AAE7174B029300203B
:1031A00001900090034601220D4907F07CFDA4E741
:1031B000124B02930020019000900346012208491F
:1031C00007F071FDA3E70E4B0293002001900090E1
:1031D00003460122024907F066FD98E7DCCD0000B6
:1031E0006CC2000000ED00E0F4CD000008CE00004D
:1031F0001CCE000038CE000050CE00006CCE000087
:1032000084CE000000B585B03A4B029300200190B7
:10321000009003460122384907F045FD374B9B6A71
:1032200013F0007F23D1354B9B6A13F0807F29D1A7
:10323000324B9B6A13F4002F2FD1304B9B6A13F44F
:10324000802F35D12D4B9B6A13F4003F3BD12B4B84
:103250009B6A13F4803F41D1284A936A6FEA034383
:103260006FEA13439362002005B05DF804FB244B22
:103270000293002001900090034601221E4907F0AE
:1032800012FDD0E71F4B02930020019000900346EF
:103290000122194907F007FDCAE71B4B02930020E2
:1032A0000190009003460122134907F0FCFCC4E79B
:1032B000164B0293002001900090034601220E4914
:1032C00007F0F1FCBEE7124B029300200190009042
:1032D00003460122084907F0E6FCB8E70D4B0293CC
:1032E00000200190009003460122034907F0DBFC17
:1032F000B2E700BFB4CE00006CC2000000ED00E0F9
:10330000CCCE0000E0CE0000FCCE00001CCF0000C0
:1033100044CF000060CF000000B585B000200870E9
:10332000054B02930190009003460122034907F0E8
:10333000BAFC05B05DF804FB8CCF00006CC2000045
:1033400000B587B00F2910DC094B103904910393A5
:10335000084B029300200190009003460122064989
:1033600007F0A1FC07B05DF804FB044BEDE700BFDC
:10337000CCCF0000E4CF00006CC20000B0CF000052
:10338000F0B585B005460C4616465F4B029300200B
:1033900001900090034601225C4907F084FC5C4BDD
:1033A0009B6A13F0100F3BD1594B9B6A13F0080F27
:1033B00041D1574B9B6A13F0020F47D16FF01507AD
:1033C000534B9B6A13F0010F66D1514B9B6A13F06C
:1033D000200F6CD14E4B9B6A13F0100F04D14C4B55
:1033E0009C6A14F0020404D0494B5C6814F4006435
:1033F00068D1474B9B6A13F0200F04D0444A536AAC
:1034000023F400535362424A936A43F0FF039362EA
:103410000121284607F045FC3070204605B0F0BD7C
:103420003C4B029300200190009003460122374953
:1034300007F039FCB8E7384B029300200190009068
:1034400003460122314907F02EFCB2E7334B0293C9
:10345000002001900090034601222C4907F023FC34
:103460002B4B5F6B9B6A13F0800F02D16FF0150737
:10347000A6E703972A4B0293002001900090034691
:103480000122224907F00FFC002C99D0204A936AB0
:1034900023F08003936293E7224B02930020019074
:1034A000009003460122194907F0FDFB8DE71E4BF2
:1034B000029300200190009003460122134907F077
:1034C000F2FB87E729463846FFF788FD0746B0B983
:1034D0000F4B9C6A14F010048BD0144C40F249132B
:1034E00022461349134807F0FBFA134807F0F8FA8D
:1034F00040F24911204607F0ECFA3C4679E780F3A8
:103500000988022475E700BFF8CF00006CC20000F4
:1035100000ED00E010D0000008CE000044D0000014
:103520005CD0000074D0000084CE000094D0000075
:10353000D0D0000078C400001CD10000F0B585B0E8
:1035400007460E464B4B02930024019400942346F9
:1035500001224949204607F0A6FB3470474BDD6A3B
:1035600015F002052DD1454BDB6A002B36DB434BB2
:10357000DC6A14F080446BD0414B02930020019030
:103580000090034601223C4907F08DFBBB6933F8EC
:10359000022C4DF602739A422CD0384B93F8283007
:1035A000002B35D1354B93F82930002B37D1334BD5
:1035B0005B8D9BB2002B39D03846FFF723FE0446C3
:1035C00009E0304B029301940094234601222A49DA
:1035D000204607F068FB204605B0F0BD2A4B029359
:1035E00000200190009003460122234907F05BFB75
:1035F0002C46F0E73B680393244B02930020019094
:103600000090034601221C4907F04DFB3C68E2E7AD
:10361000324601213846FFF7B3FE0446DBE7324667
:1036200001213846FFF746FD0446D4E7184C40F226
:10363000CD2322461749184807F052FA174807F0D9
:103640004FFA40F2CD21204607F043FA2C46C2E75C
:103650000F4D40F2D1232A460E490F4807F040FA99
:103660000F4807F03DFA40F2D121284607F031FA21
:10367000B1E700BF40D100006CC2000000ED00E0E7
:103680008CD1000058D100007CD10000ACD10000EA
:1036900094D0000038CB000078C40000C8D10000EE
:1036A000ECD10000F0B58FB0354B5D68C5F308056F
:1036B000002383F31188BFF36F8F02F07F43B3F1D0
:1036C0007F4F25D102F00C03082B11D012F0080F08
:1036D0001BD00C460026F4B10DF1370229462046D6
:1036E00007F0F0FA05469DF837302BB30FB0F0BD68
:1036F000244B029300240194009423460122224982
:10370000204607F0D0FA2646E5E704460126E2E720
:1037100000263446DFE71D4F40F2FB333A461C4992
:103720001C4807F0DDF91C4807F0DAF940F2FB31DC
:10373000384607F0CEF9CFE70DF1140C2068616828
:10374000A268E368ACE80F0020696169A269E369D7
:10375000ACE80F0046B1C3F308025AB96FEA53232D
:103760006FEA43230C9305E00C9B23F4FF7323F0D3
:1037700001030C9305A9284607F075FAB6E700BFC8
:1037800000ED00E01CD200006CC2000094D00000EC
:1037900048D2000078C400005CD20000024A53699D
:1037A00043F010035361704700ED00E0EFF3088031
:1037B000EFF3098101B57246FFF774FF01BD00BF49
:1037C000002206E002F00F01094B0B44202119767C
:1037D00001322F2A0ADC53B2002BF3DB03F16043E2
:1037E00003F56143202183F80013F1E7704700BF20
:1037F000FCEC00E0002080F31488BFF36F8F08F02A
:10380000E3FB00200D490860BFF34F8F0C4880F3A5
:10381000088800F02DF8202080F3118809484FF423
:103820000261401880F30988EFF3148002210843F5
:1038300080F31488BFF36F8FFFF73AFB94ED00E03D
:103840000057002080580020084BD3F89000C0F3A8
:103850000720002306E0054AC2F898300021C2F88C
:10386000A01001338342F6DB704700BF00ED00E09B
:1038700010B572B6002484F31388FFF7E5FF2346E2
:1038800008E003F120010E4A4FF0FF3042F821001A
:103890000133DBB2072BF4D9002308E003F1600108
:1038A000074A4FF0FF3042F821000133DBB2072B0B
:1038B000F4D962B6BFF34F8FBFF36F8F10BD00BF57
:1038C00000E100E008B50A4B9B68834202D005F096
:1038D0005DFE08BDEFF30583002BF8D0054B5A6859
:1038E00042F080525A605A6A22F400425A62EEE76D
:1038F000AC50002000ED00E008B5034B034A012165
:10390000034800F0BBF808BD0000042000000020C0
:10391000A0D2000008B5D0F89830203B04480360DE
:1039200020234360034B8360012100F0C9F808BDE8
:10393000444B002000000B15084AC2F898000B68A1
:1039400023F01F03034343F01003C2F89C308B683D
:1039500043F00103C2F8A030704700BF00ED00E063
:1039600010B584B00446072804D8FFF7E5FF2046C9
:1039700004B010BD0390064B02930020019000900C
:1039800003460122034907F0D3F96FF01500EFE772
:10399000ACD2000064C200002DE9F04385B080463F
:1039A0000F4699461646002509E02146F0B207F079
:1039B000CEF9064610F1160F1ED001360135BD4274
:1039C0001ADA05EB450408EB84046268002AF5D096
:1039D000B9F1000FE9D0204607F099F90028E4D1A9
:1039E0000395074B0293019000900346012205497D
:1039F00007F09EF96FF01506304605B0BDE8F0837C
:103A0000D4D2000064C2000010B5034C0123227818
:103A1000FFF7C2FF207010BDE952002008B5002357
:103A2000094A1278FFF7B8FF10F1160F0AD00346C3
:103A300006E0064AC2F898300021C2F8A01001330F
:103A4000072BF6DD08BD00BFE952002000ED00E0C5
:103A5000044B0522C3F89420BFF34F8FBFF36F8F41
:103A6000704700BF00ED00E0BFF35F8F024B002204
:103A7000C3F89420704700BF00ED00E038B50C4655
:103A8000FFF7C2FF10F1160F00D038BD084D40F20D
:103A900011132A460749084807F022F8214607482B
:103AA00007F01EF840F21111284607F012F8ECE773
:103AB000F8D2000038CB000078C4000030D30000FA
:103AC00038B50C46FFF7AAFF10F1160F00D038BD2D
:103AD000084D4FF498732A460749084807F000F844
:103AE0002146074806F0FCFF4FF49871284606F07F
:103AF000F0FFECE7F8D2000038CB000078C40000FB
:103B00005CD3000038B5244B1D68082D03D8FFF79F
:103B1000ABFF00241EE0214C4FF4A4732246204941
:103B2000204806F0DDFF082229461F4806F0D8FF8E
:103B30004FF4A471204606F0CCFF4FF0FF3017E0A1
:103B4000154B596804EB4402930019442046FFF7D3
:103B5000F3FE0134A542F3D8144B1D70FFF778FF34
:103B6000134BD3F89030C3F30723082B01D1002067
:103B700038BD0A4C4FF4D47322460E49094806F06A
:103B8000AFFF0D4806F0ACFF4FF4D471204606F0AD
:103B9000A0FF0020ECE700BF98D50000F8D200009D
:103BA00038CB000078C400008CD30000E95200201C
:103BB00000ED00E0C0D3000010D400000D4BC3F1B5
:103BC000005303F58023B3F5006F01D30020704745
:103BD00010B5094C812322460849094806F080FFA8
:103BE000084806F07DFF8121204606F072FF002084
:103BF00010BD00BFA061002034D4000064D40000D8
:103C000078C40000ACD40000014B1860704700BFBE
:103C10002C4000200246084B1968084BC8180A447B
:103C2000C3F1005303F580239A4202D2024B1A607B
:103C300070474FF0FF307047504B0020A0610020CC
:103C400038B5044638B14FF0FF324FF0FF3320460D
:103C500003F076FF38BD074D4FF4D2732A4606496C
:103C6000064806F03DFF4FF4D271284606F031FFBA
:103C7000E9E700BF34D4000034D5000078C4000068
:103C800038B5044618B1204604F07AF838BD074D1F
:103C90004FF4E0732A460649064806F021FF4FF428
:103CA000E071284606F015FFEDE700BF34D40000B0
:103CB00034D5000078C4000010B54FF02003EFF3B6
:103CC000118483F31288BFF36F8F01230C4AC2F86B
:103CD00040354FF08042C2F8783507F05AF820B1ED
:103CE0004FF080430122C3F838264FF08043012271
:103CF000C3F8802584F31188BFF36F8F002010BDB7
:103D000000E00140C0B24FF08042C2F81C05BFF392
:103D10004F8F0549CA6802F4E062044B1343CB603D
:103D2000BFF34F8F00BFFDE700ED00E00400FA0590
:103D300030B108B58001034B43F00103984708BD3B
:103D4000704700BF20C3000000487047AC4B002004
:103D5000014BC01A40117047644B002030B583B04E
:103D600005460C46FFF7F4FF014640230093234627
:103D7000054A064807F09CF8011E01DB03B030BD80
:103D80002846A047FAE700BFF9AE00004CC000008B
:103D900008B50A4BBFF35B8F53E8002F22F00201F6
:103DA00043E800100028F7D1BFF35B8F12F0010F3A
:103DB00000D008BD07F0B2F8FBE700BFBC4B002005
:103DC00070B50546CCB2012C07D82146284607F02D
:103DD00002F8806800F0070070BD064E7923324675
:103DE0000549064806F07CFE7921304606F071FE52
:103DF000EBE700BFBCD50000FCD5000078C4000094
:103E00002DE9F04107461646CCB2214606F0E3FF05
:103E10000546012C0FD8314605F1080006F0ECFFED
:103E2000002806DB2146384606F0DCFF4368984749
:103E30000020BDE8F081DFF81C8040F24D134246BF
:103E40000549064806F04CFE40F24D11404606F08A
:103E500040FEE0E7BCD50000FCD5000078C40000BF
:103E600038B505460C46FFF773FF0146402203486C
:103E7000FFF7C6FF01462846A04738BD4CC00000EA
:103E800010B501281DD0032820D068B1164C40F28F
:103E9000622322461549164806F022FE40F26221AE
:103EA000204606F016FE10E00021124806F093FFAF
:103EB000836813F0070F08D100210E4806F0E6FFD3
:103EC00003E001210B4806F0E1FF10BD064C40F273
:103ED0005E2322460549064806F002FE40F25E21B6
:103EE000204606F0F6FDF0E7BCD5000038CB000018
:103EF00078C400004CC0000000B585B0CDF800D0FB
:103F0000CDF804D000230293012303936B46074AA4
:103F100006F0EAFF002805DB4FF4804200236846E4
:103F200004F046F805B05DF804FB00BF3BAF0000AD
:103F300070B50646002201211046FEF77FFF1148AA
:103F400001F024FF104B984219D101F049FF0024E1
:103F5000012C12D82146304606F03DFF0546214689
:103F6000304606F045FF094906F03FFD002805DB15
:103F70000123AB601C44E4B2EAE7002070BD6FF09F
:103F80000400FBE7813E00000000AD0B78D6000086
:103F900070B50546012807D14FF08043D3F81C3493
:103FA00003F00303012B5AD007F014FF28B92F4B5D
:103FB0001B78002B43D0002300E001231C46002B7C
:103FC0003FD04FF02003EFF3118683F31288BFF345
:103FD0006F8F24B94FF080430222C3F808234FF0BB
:103FE0008042D2F8183403F00303D2F8182412F4F4
:103FF000803F2DD100221AB1012B2BD0012D29D0C9
:104000000CB33046FEF7AAFE4FF08043D3F81835C4
:10401000002BE4D14FF08043D3F80431002BDED0E5
:104020004FF080430022C3F80421D3F80421012279
:10403000C3F818250E49C1F880219A60CFE7012303
:10404000BCE70026C5E72120002105F04DFADBE79B
:104050000122D0E724B186F31188BFF36F8F70BDC2
:104060004FF080430222C3F80423F8E7EA5200200D
:1040700000E100E010B54FF02003EFF3118483F36B
:104080001288BFF36F8F134A136843F00203136063
:1040900013F0010F08D1002384F31188BFF36F8F51
:1040A0009BB906F031FF10BD4FF08043D3F80C24CC
:1040B000D3F80C3412F0010F01D10023ECE7FFF725
:1040C00043FE06F0D0FE0123E6E70021024806F099
:1040D000DDFEE8E7BC4B00204CC0000038B50446CC
:1040E0001F4B0121BFF35B8F53E8002F43E8001003
:1040F0000028F9D1BFF35B8F42B134B1631EDBB24C
:10410000012B1FD82046FFF743FF38BD154806F0A6
:104110006FFE154900234B608B60CB6001238B60E1
:10412000FCF7F4FF0028E8DA104D4FF408732A4634
:104130000F49104806F0D4FC4FF40871284606F0E9
:10414000C8FCDAE7094C40F2322322460A49094802
:1041500006F0C6FC40F23221204606F0BAFCD4E755
:10416000C04B00204CC00000544B0020BCD50000C8
:10417000A0CA000078C4000038CB000010B5044687
:104180000A2807D0074B1868E1B28368DB699847B3
:10419000204610BD034B18688368DB690D219847E2
:1041A000F0E700BFC44B002010B5044C2046FFF7D9
:1041B0002BFD2046FCF710FD10BD00BF7D41000027
:1041C00008B50648064B186007F0A8FD18B1FFF7C0
:1041D000EBFF002008BD6FF01200FBE7ACC0000051
:1041E000C44B002028B1012801D1034870470020AA
:1041F00070470248704700BF64C000007CC00000E8
:104200002DE9F041164605692F1D0C4631B1636852
:10421000A3B16B68002B3BD000212AE0DFF894802B
:10422000242342462449254806F05AFC244806F037
:1042300057FC2421404606F04CFCE8E7DFF8748088
:10424000252342461F491D4806F04AFC1E4806F039
:1042500047FC2521404606F03CFCDAE723686B600A
:104260007A6894420FD17B600DE079600BE01946CB
:104270001B685BB19C42FAD10029EFD023680B6028
:104280007B689C42F1D000232360012303B956B11F
:1042900066B16B6823606C607B680BB1002006E040
:1042A0007C60002003E06FF0150000E00020BDE816
:1042B000F08100BF84D60000B4D6000078C40000AE
:1042C000C0D60000D0D60000E4D600002DE9F041B1
:1042D00000F01F044009FFF785FF80B3074603691C
:1042E0000126A6405C681CB125467CB125680DE01E
:1042F00025460BE06368A26832402146384698475D
:10430000DDB12B4605B12B682C461D46BCB1A36818
:104310001E42F5D06368002BECD1DFF828804523DE
:1043200042460949094806F0DBFB094806F0D8FB7C
:104330004521404606F0CDFBDCE72B46E4E7BDE82F
:10434000F08100BF84D60000FCD6000078C40000D5
:10435000E4D60000F0B585B00E46194643681B7BD5
:1043600006F01F0444EA4314B2F5001F22D00746AA
:104370001546002302930393104606F05CFE8DF869
:1043800008007B689968F14011F0010102D1B5F194
:10439000A07F14D0002302AA1946204602F09AF901
:1043A000324B98425FD10121204602F0F7FB0020FA
:1043B00005B0F0BD204602F0FDFC0020F8E76309DF
:1043C0001FD0012B01D14FF6FF7104F01F03D9401C
:1043D00011F0010F18D004F01F05630922D0012B42
:1043E00023D0234E40F22E2332462249224806F0A3
:1043F00077FB40F22E21304606F06BFB4FF0A043D6
:1044000014E04FF0FF31E0E7194D40F229232A462E
:104410001A49194806F064FB40F22921284606F0A3
:1044200058FBD8E74FF0A04300E0154B05F5E075C9
:1044300053F8253013F0010FACD10DF107012046E0
:1044400002F03CFB0F4B984203D00DF1070303939E
:10445000A0E70DF1070002F099FB044B9842F4D05D
:104460006FF00B00A4E76FF00400A1E70000AD0BB4
:1044700008D7000038CB000078C400003CD700000B
:10448000000300500400AD0B30B583B004460DF1BD
:10449000070102F013FB0546204602F0F3FC0B4B2C
:1044A00098420FD19D4205D0084B984207D1002079
:1044B00003B030BD9DF8070002F060FBF4E76FF039
:1044C0000400F5E76FF00400F2E700BF0000AD0B59
:1044D0002DE9F04387B0D0F8048098F80C3001F053
:1044E0001F0545EA4315002A44D00C46174600260E
:1044F000039604960DF11701204602F0DFFA81467B
:10450000334603AA3146284602F0E4F8304B98427D
:104510005BD1994536D017F4003F43D00DF103012C
:10452000384606F00FFD064640BB9DF803308DF877
:10453000043017F4803F0CBF012300238DF80530B1
:10454000384606F045FD8DF8060017F4002F1ED002
:10455000D8F80430012101FA04F4C3F80845002218
:1045600001A9284602F0AAF9194B984206D06FF02B
:10457000150603E02846FFF787FF0646304607B0DA
:10458000BDE8F0839DF8170002F0F8FAC3E717F4CE
:10459000802FE4D0D8F80420012303FA04F4C2F8F1
:1045A0000C45DCE7384606F013FD8DF808000023C3
:1045B0001A4602A9284602F08DF8054B984201D10F
:1045C0000026DBE76FF01506D8E76FF01506D5E794
:1045D0000000AD0B08B502F0C7FA08B1002008BD15
:1045E00002F098FA084B98420AD10021074802F0DD
:1045F0005FFA002205210620FEF720FC0020EEE7EE
:104600006FF00400EBE700BF0000AD0BCD420000EF
:1046100043681A68B1F5164F6FD03AD8B1F5165FF6
:104620006ED00AD9B1F5E14F75D024D947F61223DF
:1046300099422BD14FF4000313E0B1F5966F61D08E
:1046400007D9B1F5166F63D0B1F5965F10D13C4B29
:1046500007E0B1F5967F58D0B1F5167F05D14FF43C
:104660001C33C2F82435002070476FF015007047E6
:104670006FF015007047B1F5615F4ED0B1F5964F00
:1046800001D1304BEDE76FF0150070476FF015006A
:104690007047B1F5613F42D009D9B1F5612F46D0DD
:1046A0001FD9294B994248D14FF08053D9E7B1F532
:1046B000963F37D005D9B1F5E13F0FD14FF0EB73FD
:1046C000CFE74DF6C02399422ED0B1F5614F02D10C
:1046D0004FF46B03C5E76FF0150070476FF01500DE
:1046E00070471A4B994225D0B1F5E12F02D14FF016
:1046F000E863B6E76FF0150070474FF41D03B0E7AD
:10470000134BAEE74FF49E23ABE74FF4A033A8E77B
:104710004FF41D23A5E70F4BA3E70F4BA1E74FF085
:104720006C739EE70D4B9CE74FF4650399E74FF0E0
:10473000706396E74FF0806393E76FF01500704762
:1047400000B0130000A04E0040420F0090D00300C4
:104750000050270000C0750000F03A0000903A01B8
:104760002DE9F04105468846076907F033FB20B97B
:104770001E4B1B78A3B1002300E00123B3B92846E8
:1047800006F0EAFD0646394601F8148F0122284654
:1047900006F005FD86F31188BFF36F8FBDE8F08149
:1047A0000123EBE784F31188BFF36F8F4FF02003F1
:1047B000EFF3118483F31288BFF36F8F26462846E8
:1047C00006F0CBFC0028EDD0FB68002BDBD0DA68CC
:1047D000002AD8D0D3F8C420002AD4DA6A68126834
:1047E000D2F84C25C3F8C420CDE700BFEA52002020
:1047F0002DE9F04716460469D0F80490D9F8005026
:1048000099F8082092B980460F46E26892F8D210D3
:10481000002940F08480D367B3F5E87F19DD414A71
:1048200082FB0312DB17C3EB620313E03E4C40F242
:104830007F3322463D493E4806F052F93D4806F096
:104840004FF940F27F31204606F043F96FF08500C2
:104850003DE05C23E268C2F88030E3681F66E368ED
:104860005E66E26800239366E268D366E2681367D7
:10487000D9F8043013F0100F10D0E16891F8D1305E
:1048800063B1B34228BF33469A461A46CC31384604
:1048900007F056FB5744B6EB0A061AD0C5F8347534
:1048A000C5F838650023C5F81031D5F81021C5F8D2
:1048B0004C31D5F84C31E368012283F8D220D9F885
:1048C000043013F0100F19D101232B600020BDE834
:1048D000F087E26892F8D130A3EB0A0382F8D13076
:1048E0005146404606F0AAFCE1686031404606F0B9
:1048F000BDFC404606F0D1FC0020E8E74FF0200365
:10490000EFF3118483F31288BFF36F8F02214046C7
:1049100006F037FC84F31188BFF36F8FD4E76FF094
:104920000F00D4E767666666B4D7000038CB000096
:1049300078C40000E8D700002DE9F04383B00546B5
:1049400098460469466833684FF02000EFF31189F8
:1049500080F31288BFF36F8FE668F768F7B9F260EB
:10496000E06881604FF48000C3F8040301F0604305
:10497000B3F1005F19D1E3681961E3685A61214618
:10498000284606F038FC89F31188BFF36F8FE37A6D
:10499000012B11D0002003B0BDE8F08389F311880A
:1049A000BFF36F8F6FF00F00F5E7E36800221A6224
:1049B000204606F010FEE2E7B8F1FF3F01D10020EB
:1049C000E9E7E468283428EAE870C117C90341EA36
:1049D0005041C003094BC018094A4FF0000341F190
:1049E0000001FBF78DFB02460B4600200021CDE9BC
:1049F0000001204605F05CFB0020CCE73F420F00A1
:104A000040420F0010B588B004690023039304935B
:104A100005930693079303238DF80C3003A906F042
:104A200005FCE368DA6FB2F1FF3F01D108B010BDB9
:104A3000C3F88420E36803F18804D3F8800020EAF7
:104A4000E070C117C90341EA5041C003084BC018C8
:104A5000084A4FF0000341F10001FBF751FB024609
:104A60000B4600900191204605F022FBDEE700BFD7
:104A70003F420F0040420F0030B585B004460D465E
:104A800001F1160002F08AFA114B984212D1AB7D67
:104A900004F590710C340F4AA23342F8331002EB44
:104AA000C3035C60A97D01238B40C2F8043500205C
:104AB00005B030BD084B02930020019000900346E2
:104AC0000122064906F0A0FD6FF00400F0E700BFE8
:104AD0000000AD0B00F0014004D8000084C20000CB
:104AE00070B5056943681C6806F07EFB064690BBFE
:104AF000EB680122C3F8C820184BC4F8043308231C
:104B0000C4F80035D4F84C31A3B16260D4F8443114
:104B10001BB9D4F82431002BF8D00023C4F84C3151
:104B2000D4F84C21C4F81031D4F81021C4F8443121
:104B3000D4F84431E86800220949883007F0D1F9F7
:104B4000EB68C3F8BC50E86800220649283007F03B
:104B5000C8F9EB68DD65304670BD00BF10020A0081
:104B60007DB4000071B4000021F07F4100F5A87011
:104B7000014B43F8201070470010014000F5A87069
:104B8000014B53F820007047001001404FF4803370
:104B90008340024AC2F84433704700BF001001400E
:104BA0004FF480338340024AC2F84833704700BF55
:104BB00000100140014BD3F804057047001001407C
:104BC00010B5012383406FEA030C104ABFF35B8FDB
:104BD00052E8001F01EA0C0E42E800E4002CF7D175
:104BE000BFF35B8F4FF4803202FA00F002F1804293
:104BF00002F58052C2F80803BFF35F8FBFF36F8FD7
:104C00000B4214BF0120002010BD00BFE44B002068
:104C100070B5044606F026FF05464FF48033A340E6
:104C2000174AD2F80423134205D10026284606F07D
:104C300022FF304670BD0123A340DB43114ABFF37E
:104C40005B8F52E8001F01EA030042E80006002ED5
:104C5000F7D1BFF35B8F59B904F150039B009BB2AE
:104C600003F1804303F588331B6813B1012300E08F
:104C700001231E46002BD9D0204606F0E4FED5E7DE
:104C800000100140E04B002001B970470123834030
:104C9000114ABFF35B8F52E8001F194342E8001C22
:104CA000BCF1000FF7D1BFF35B8F4FF4803383402B
:104CB0000A4AC2F80433BFF35B8F094B1B68BFF38A
:104CC0005B8F23FA00F010F0010FDED0054B4FF49C
:104CD0000032C3F80021D8E7E44B00200010014067
:104CE000E04B002000E100E02DE9F84307461446C0
:104CF0001E461046194606F0B2FE0546154B1A68C8
:104D0000A01A1C605E60A5F50013B3F5400F09D32F
:104D1000002404F0E1FF3846FFF730FFA8420ED030
:104D2000BDE8F8830C4B1B681A0A1B0615EB030839
:104D300042F10009094BC3E900890124E9E71CB1EC
:104D40003846FFF723FFEBE74FF400013846FFF743
:104D50000BFFF5E708440020E84B0020F04300205B
:104D600038B50D4B1C68250A2406BFF35F8FFFF78B
:104D700021FF0346001945F10001B3F5801F0AD257
:104D8000064BD3E90023904271EB030303D210F1E9
:104D9000807041F1000138BDE84B0020F043002055
:104DA000F8B5064614461D461046194606F057FE4D
:104DB0000746FFF7D5FFA04271EB05031DD2231A6A
:104DC00065EB01011B4A934271F100032FD21A4B8C
:104DD00003EB0613D3E90223AB4208BFA2421AD069
:104DE0003946304606F04CFE394606F028FE0019DA
:104DF00045F1000304461D460DE00123B3400F4A70
:104E0000BFF35B8F52E8001F194342E800100028EF
:104E1000F8D1BFF35B8F084B320103EB0616C6E9EE
:104E2000024506999950079B73600020F8BD6FF00A
:104E30001500FBE701000001F8430020E04B0020D3
:104E400030B583B000231D4AC2F80835002B24DD9D
:104E50001A4C0225C4F80453194B4FF40032C3F81E
:104E60008021002201211120FDF7E8FF1120FDF72C
:104E7000C9FF0123A3602360124A13600024019438
:104E8000114B0093114A0023204606F034FE2846B9
:104E9000FFF724F9204603B030BD0D4A02EB0312A0
:104EA0004FF0FF304FF0FF31C2E902014FF4803282
:104EB0009A400249C1F804230133C7E700100140BA
:104EC00000E100E0E44B0020E94C0000FFFF7F0020
:104ED000F84300202DE9F04782B00446FFF798FE22
:104EE00010B902B0BDE8F087FFF73AFF82460E46E0
:104EF00006F0B8FD0546134B03EB0413D3E9028912
:104F0000C24576EB09030BD20026284606F0B3FD16
:104F1000002EE6D0009742464B462046B047E0E7D9
:104F2000084A230102EB0411D6584F680020D050E4
:104F30004FF0FF324FF0FF33C1E902232046FFF765
:104F40002FFEE2E7F843002010B50E4BD3F80433F0
:104F500013F0020F0DD00B4BD3F804314BB1094BBA
:104F60000022C3F80421D3F80431074A136801333F
:104F700013600024002C00DD10BD2046FFF7AAFFBF
:104F80000134F7E700100140E84B002010B582B073
:104F9000B0F1FF3F06D0012806DDB0F5000F05DABD
:104FA000441E04E00F48F8E7002400E00D4CFFF732
:104FB000D7FE0D4B19685B68401AB0F5000F00D39F
:104FC00000242044421CB2F5000F00D3054A002003
:104FD0008A1801900549009143F1000306F08BFD0A
:104FE00002B010BDFFFF7F0008440020E94C000024
:104FF00008B5FFF7B5FE024B1B68C01A08BD00BF1D
:10500000084400202DE9F8430C46914610F4805FD7
:1050100002D04FF00109002400F03F05C0F38118D1
:10502000C0F30327C0F3401310F0200F1DD0FBB1D5
:105030004FF6FF7305F01F02D34013F0010F19D094
:1050400005F01F066D0923D02DBB194D40F22E230C
:105050002A461849184805F043FD40F22E212846FB
:1050600005F037FD4FF0A04316E04FF0FF33E1E7C6
:105070000023DFE70E4E40F2292332460F490E4847
:1050800005F02EFD40F22921304605F022FDD7E73C
:105090004FF0A04300E00A4B44EA490444EA880484
:1050A00044EA072406F5E07643F82640BDE8F88395
:1050B00008D7000038CB000078C400003CD70000BF
:1050C000000300502DE9F04705460E461746002420
:1050D0004EE003F03F03C7F80C3555F8243003F0D9
:1050E0003F09C3F3401113F0200F1FD009B14FF651
:1050F000FF7209F01F03DA4012F0010F19D009F016
:105100001F0A5FEA591323D02BBBDFF8449340F208
:105110002E234A46CF49D04805F0E2FC40F22E212A
:10512000484605F0D6FC4FF0A04215E04FF0FF32A4
:10513000DFE7DFF81CA340F229235246C749C648DF
:1051400005F0CEFC40F22921504605F0C2FCD6E71E
:105150004FF0A04200E0C24A012101FA0AF3C2F86E
:1051600008350A4655F80800FFF74CFF0134E4B251
:10517000B44280F01E844FEA840855F824301A0C9B
:10518000222A00F2188401A151F822F0D350000025
:10519000195200002F520000CF520000E5520000CB
:1051A0008553000025540000B7590000B75900008E
:1051B000B7590000B75900003B5400006554000087
:1051C000B7590000B7590000B7590000B75900009F
:1051D000B7590000B7590000B7590000B75900008F
:1051E000B75900007B540000A1550000C7560000CD
:1051F00003580000B7590000B7590000B759000024
:10520000295900003F590000555900006B59000012
:10521000835900009B59000003F03F03C7F8143581
:105220000022114655F82400FFF7ECFE9EE703F03C
:105230003F03C7F8083555F8243003F03F09C3F39E
:10524000401213F0200F1FD00AB34FF6FF7309F07E
:105250001F02D34013F0010F1BD009F01F0A5FEAB1
:10526000591325D03BBBDFF8E89140F22E234A4684
:105270007849794805F034FC40F22E21484605F083
:1052800028FC4FF0A04217E04FF0FF33DFE7002388
:10529000DDE7DFF8BCA140F2292352466F496E4892
:1052A00005F01EFC40F22921504605F012FCD4E71F
:1052B0004FF0A04200E06A4A012101FA0AF3C2F865
:1052C00008350A4655F80800FFF79CFE4EE703F044
:1052D0003F03C7F810350022114655F82400FFF7A8
:1052E00091FE43E703F03F03C7F8083555F8243033
:1052F00003F03F09C3F3401213F0200F1FD00AB38D
:105300004FF6FF7309F01F02D34013F0010F1BD0BB
:1053100009F01F0A5FEA591325D03BBBDFF8309133
:1053200040F22E234A464B494B4805F0D9FB40F248
:105330002E21484605F0CDFB4FF0A04217E04FF07C
:10534000FF33DFE70023DDE7DFF804A140F2292384
:1053500052464249404805F0C3FB40F229215046DD
:1053600005F0B7FBD4E74FF0A04200E03C4A012132
:1053700001FA0AF3C2F80C35002255F80800FFF7CD
:1053800041FEF3E603F03F03C7F80C3555F824302F
:1053900003F03F09C3F3401213F0200F1FD00AB3EC
:1053A0004FF6FF7309F01F02D34013F0010F1BD01B
:1053B00009F01F0A5FEA591325D03BBBDFF8909034
:1053C00040F22E234A462349234805F089FB40F248
:1053D0002E21484605F07DFB4FF0A04217E04FF02C
:1053E000FF33DFE70023DDE7DFF864A040F2292385
:1053F00052461A49184805F073FB40F229215046DD
:1054000005F067FBD4E74FF0A04200E0144A012109
:1054100001FA0AF3C2F80C350A4655F80800FFF7FE
:10542000F1FDA3E603F03F03C7F810350022114653
:1054300055F82400FFF7E6FD98E603F03F03C7F8B0
:1054400008350022114655F82400FFF7DBFD8DE6F4
:1054500008D7000038CB000078C400003CD700001B
:105460000003005003F03F03C7F80C35002211463B
:1054700055F82400FFF7C6FD78E603F03F03C7F8B0
:10548000603555F8243003F03F09C3F3403213F47C
:10549000005F44D15FEA59131FD00BB14FF6FF7282
:1054A00009F01F03DA4012F0010F19D009F01F0AAA
:1054B0005FEA591323D02BBBDFF8009340F22E2371
:1054C0004A46BF49BF4805F00BFB40F22E21484633
:1054D00005F0FFFA4FF0A04215E04FF0FF32DFE792
:1054E000DFF8D8A240F229235246B749B54805F063
:1054F000F7FA40F22921504605F0EBFAD6E74FF0D3
:10550000A04200E0B14A012303FA0AF3C2F80C35C5
:105510000122114655F80800FFF774FD26E65FEA00
:1055200059131FD00BB34FF6FF7309F01F02D3407E
:1055300013F0010F1BD009F01F0A5FEA591325D0A1
:105540003BBBDFF8789240F22E234A469C499D48A7
:1055500005F0C6FA40F22E21484605F0BAFA4FF09F
:10556000A04217E04FF0FF33DFE70023DDE7DFF86D
:105570004CA240F2292352469349924805F0B0FAD2
:1055800040F22921504605F0A4FAD4E74FF0A0429A
:1055900000E08E4A012303FA0AF3C2F80835B7E7A0
:1055A00003F03F03C7F8643555F8243003F03F0992
:1055B000C3F3403213F4005F44D15FEA59131FD0A4
:1055C0000BB14FF6FF7209F01F03DA4012F0010F22
:1055D00019D009F01F0A5FEA591323D02BBBDFF85B
:1055E000DC9140F22E234A467549764805F078FA58
:1055F00040F22E21484605F06CFA4FF0A04215E02B
:105600004FF0FF32DFE7DFF8B4A140F22923524622
:105610006D496C4805F064FA40F22921504605F0C6
:1056200058FAD6E74FF0A04200E0684A012303FA97
:105630000AF3C2F80C350122114655F80800FFF7AD
:10564000E1FC93E55FEA59131FD00BB34FF6FF73EC
:1056500009F01F02D34013F0010F1BD009F01F0AFD
:105660005FEA591325D03BBBDFF8509140F22E235F
:105670004A465349534805F033FA40F22E21484632
:1056800005F027FA4FF0A04217E04FF0FF33DFE7B5
:105690000023DDE7DFF824A140F2292352464A49DE
:1056A000484805F01DFA40F22921504605F011FA4C
:1056B000D4E74FF0A04200E0444A012303FA0AF382
:1056C000C2F80835B7E703F03F03C7F8683555F867
:1056D000243003F03F09C3F3403213F4005F44D198
:1056E0005FEA59131FD00BB14FF6FF7209F01F0389
:1056F000DA4012F0010F19D009F01F0A5FEA5913BE
:1057000023D02BBBDFF8B49040F22E234A462C491D
:105710002C4805F0E5F940F22E21484605F0D9F96C
:105720004FF0A04215E04FF0FF32DFE7DFF88CA02A
:1057300040F2292352462449224805F0D1F940F28B
:105740002921504605F0C5F9D6E74FF0A04200E008
:105750001E4A012303FA0AF3C2F80C35012211464E
:1057600055F80800FFF74EFC00E55FEA59131FD01B
:105770000BB34FF6FF7309F01F02D34013F0010F74
:1057800026D009F01F0A5FEA591330D093BBDFF827
:105790002C9040F22E234A4609490A4805F0A0F908
:1057A00040F22E21484605F094F94FF0A04222E045
:1057B0004FF0FF33DFE70023DDE700BF08D700002D
:1057C00038CB000078C400003CD700000003005034
:1057D000DFF8ECA140F2292352467A497A4805F0D5
:1057E0007FF940F22921504605F073F9C9E74FF0DF
:1057F000A04200E0754A012303FA0AF3C2F8083513
:10580000ACE703F03F03C7F86C3555F8243003F0DC
:105810003F09C3F3403213F4005F44D15FEA5913E8
:105820001FD00BB14FF6FF7209F01F03DA4012F0E0
:10583000010F19D009F01F0A5FEA591323D02BBBBF
:10584000DFF87C9140F22E234A4661495E4805F01C
:1058500047F940F22E21484605F03BF94FF0A042AF
:1058600015E04FF0FF32DFE7DFF854A140F22923C3
:1058700052465449544805F033F940F22921504624
:1058800005F027F9D6E74FF0A04200E04F4A012388
:1058900003FA0AF3C2F80C350122114655F8080044
:1058A000FFF7B0FB62E45FEA59131FD00BB34FF66A
:1058B000FF7309F01F02D34013F0010F1BD009F052
:1058C0001F0A5FEA591325D03BBBDFF8F49040F282
:1058D0002E234A463E493C4805F002F940F22E216B
:1058E000484605F0F6F84FF0A04217E04FF0FF33BE
:1058F000DFE70023DDE7DFF8C8A040F229235246A6
:105900003049314805F0ECF840F22921504605F0C5
:10591000E0F8D4E74FF0A04200E02C4A012303FA5C
:105920000AF3C2F80835B7E703F03F03C7F8243598
:105930000122002155F82400FFF764FB16E403F070
:105940003F03C7F828350122002155F82400FFF74E
:1059500059FB0BE403F03F03C7F830350122002167
:1059600055F82400FFF74EFB00E403F03F03C7F8AF
:1059700034350122002155F82400FFF743FBFFF7DF
:10598000F5BB03F03F03C7F838350122002155F875
:105990002400FFF737FBFFF7E9BB03F03F03C7F82D
:1059A0003C350122002155F82400FFF72BFBFFF7BF
:1059B000DDBB002001E06FF08500BDE8F08700BF8F
:1059C00008D700003CD7000078C400000003005056
:1059D00038CB000010B584B0FCF7E2FA064B029316
:1059E000002401940094234601220449204606F035
:1059F000B9F82046FEF786F9E0D800004CC2000056
:105A0000024BD3F80034002BFAD0704700E001407D
:105A100008B5034BC3F80405FFF7F2FF08BD00BF4C
:105A200000E00140014B024A1A60704760400020CC
:105A30000090D00338B506F0B2F840B14FF0804383
:105A40000022C3F80C21C3F81021C3F8382506F052
:105A5000B0F8002846D04FF08052D2F80414594BC9
:105A6000C3F82015D2F80814C3F82415D2F80C1482
:105A7000C3F82815D2F81014C3F82C15D2F8141452
:105A8000C3F83015D2F81814C3F83415D2F81C1422
:105A9000C3F84015D2F82014C3F84415D2F82414E2
:105AA000C3F84815D2F82814C3F84C15D2F82C14B2
:105AB000C3F85015D2F83014C3F85415D2F8341482
:105AC000C3F86015D2F83814C3F86415D2F83C1442
:105AD000C3F86815D2F84014C3F86C15D2F8442402
