:1000000000240020A149000027BE0000594900003B
:1000100059490000594900005949000000000000FA
:10002000000000000000000000000000354100005A
:100030005949000000000000DD400000594900005F
:100040001542000015420000154200001542000054
:100050001542000015420000154200001542000044
:100060001542000015420000154200001542000034
:100070001542000015420000154200001542000024
:100080001542000015420000154200001542000014
:100090001542000015420000154200001542000004
:1000A00015420000154200001542000015420000F4
:1000B00015420000154200001542000015420000E4
:1000C00015420000154200001542000015420000D4
:1000D00015420000154200001542000015420000C4
:1000E00015420000154200001542000015420000B4
:1000F00015420000154200001542000015420000A4
:100100004FF0FF0C1CEAD0521EBF1CEAD15392EAFA
:100110000C0F93EA0C0F6FD01A4480EA010C4002D6
:1001200018BF5FEA41211ED04FF0006343EA501030
:1001300043EA5111A0FB01310CF00040B1F5000F72
:100140003EBF490041EAD3715B0040EA010062F121
:100150007F02FD2A1DD8B3F1004F40EBC25008BF0B
:1001600020F00100704790F0000F0CF0004C08BF29
:1001700049024CEA502040EA51207F3AC2BFD2F1F6
:10018000FF0340EAC250704740F400004FF0000304
:10019000013A5DDC12F1190FDCBF00F0004070473E
:1001A000C2F10002410021FA02F1C2F1200200FA7C
:1001B00002FC5FEA310040F1000053EA4C0308BF43
:1001C00020EADC70704792F0000F00F0004C02BF94
:1001D000400010F4000F013AF9D040EA0C0093F00F
:1001E000000F01F0004C02BF490011F4000F013B69
:1001F000F9D041EA0C018FE70CEAD15392EA0C0FD7
:1002000018BF93EA0C0F0AD030F0004C18BF31F041
:10021000004CD8D180EA010000F00040704790F017
:10022000000F17BF90F0004F084691F0000F91F0BB
:10023000004F14D092EA0C0F01D142020FD193EA81
:100240000C0F03D14B0218BF084608D180EA010009
:1002500000F0004040F0FE4040F40000704740F0E5
:10026000FE4040F44000704780F0004002E000BFD4
:1002700081F0004142001FBF5FEA410392EA030F91
:100280007FEA226C7FEA236C6AD04FEA1262D2EBDB
:100290001363C1BFD218414048404140B8BF5B42E0
:1002A000192B88BF704710F0004F40F4000020F079
:1002B0007F4018BF404211F0004F41F4000121F08F
:1002C0007F4118BF494292EA030F3FD0A2F10102D9
:1002D00041FA03FC10EB0C00C3F1200301FA03F117
:1002E00000F0004302D5494260EB4000B0F5000F3A
:1002F00013D3B0F1807F06D340084FEA310102F1F9
:100300000102FE2A51D2B1F1004F40EBC25008BFAA
:1003100020F0010040EA03007047490040EB000074
:10032000013A28BFB0F5000FEDD2B0FA80FCACF175
:10033000080CB2EB0C0200FA0CF0AABF00EBC250A2
:1003400052421843BCBFD0401843704792F0000F90
:1003500081F4000106BF80F400000132013BB5E7E3
:100360004FEA41037FEA226C18BF7FEA236C21D059
:1003700092EA030F04D092F0000F08BF08467047BE
:1003800090EA010F1CBF0020704712F07F4F04D18C
:10039000400028BF40F00040704712F100723CBF9F
:1003A00000F50000704700F0004343F0FE4040F4C9
:1003B000000070477FEA226216BF08467FEA236387
:1003C0000146420206BF5FEA412390EA010F40F472
:1003D000800070474FF0000304E000BF10F00043BE
:1003E00048BF40425FEA000C08BF704743F09643A5
:1003F00001464FF000001CE050EA010208BF7047C0
:100400004FF000030AE000BF50EA010208BF704746
:1004100011F0004302D5404261EB41015FEA010C5B
:1004200002BF84460146002043F0B64308BFA3F153
:100430008053A3F50003BCFA8CF2083AA3EBC25335
:1004400010DB01FA02FC634400FA02FCC2F1200254
:10045000BCF1004F20FA02F243EB020008BF20F08B
:100460000100704702F1200201FA02FCC2F12002F1
:1004700050EA4C0021FA02F243EB020008BF20EAE6
:10048000DC70704742000ED2B2F1FE4F0BD34FF03A
:100490009E03B3EB126209D44FEA002343F00043FA
:1004A00023FA02F070474FF00000704712F1610F1D
:1004B00001D1420202D14FF0FF3070474FF00000EF
:1004C000704700BF53B94AB9002908BF00281CBFB4
:1004D0004FF0FF314FF0FF3000F00CB8ADF1080CD9
:1004E0006DE904CE00F008F8DDF804E0DDE9022350
:1004F00004B07047704700BF2DE9F04F07468C46A7
:100500000846099E15463C461946002B40F0C68019
:100510008242B2FA82F746D94FB1C7F1200E24FACF
:100520000EFE00FA07F3BD404EEA030CBC404FEA52
:1005300015481FFA85FEBCFBF8F9220C08FB19C30D
:1005400009FB0EFA42EA03439A4528D9EB1809F150
:10055000FF3004D29A4502D9A9F102002B44A3EB43
:100560000A03A4B2B3FBF8F208FB123302FB0EFE3F
:1005700044EA0344A64514D92C1902F1FF3303D2EF
:10058000A64501D9931E2C44A4EB0E0443EA004077
:100590001EB1FC40002334607360BDE8F08F484614
:1005A000DDE71346F0E702B9FFDE87BB831A0121BE
:1005B0004FEA154EAAB2B3FBFEFC200C0EFB1C3317
:1005C0000CFB02F840EA0343984563D9EB180CF1A1
:1005D000FF3004D2984502D9ACF102002B44A3EBC2
:1005E0000803A4B2B3FBFEFC0EFB1C330CFB02F2AF
:1005F00044EA0344A2424FD92C190CF1FF3304D230
:10060000A24202D9ACF102032C44A41ABEE7C7F1FE
:10061000200C20FA0CF800FA07F324FA0CFCBD4079
:100620004CEA03024FEA154EABB2B8FBFEFC110CCC
:100630000EFB1C800CFB03F941EA0040814504FAE3
:1006400007F423D928180CF1FF3104D2814502D9CF
:10065000ACF102012844A0EB090092B2B0FBFEFC11
:100660000EFB1C000CFB03F842EA004398450FD92F
:10067000EB180CF1FF3204D2984502D9ACF102021A
:100680002B44A3EB080342EA014191E76146E2E70C
:100690006246F6E76046A2E76346B6E7834205D9BD
:1006A0000EB1C6E900700021084676E7B3FA83F17F
:1006B00081B9834201D3BA420AD8BC1A60EB030362
:1006C00001209C46002E68D0C6E9004C002164E75A
:1006D0000846F7E7C1F1200C8B4022FA0CF41C43CA
:1006E00002FA01F500FA01F327FA0CF220FA0CFBEA
:1006F0004FEA14491343BBFBF9F81FFA84FE09FBC8
:1007000018BB1A0C08FB0EFA42EA0B42924507FA94
:1007100001F73ED9A21808F1FF3004D2924502D960
:10072000A8F102002244A2EB0A029BB2B2FBF9F844
:1007300009FB182208FB0EFE43EA024296452AD91D
:10074000A21808F1FF3304D2964502D9A8F102039A
:10075000224443EA0040A0FB0593A2EB0E029A421A
:10076000CE46984602D306D14F4504D2B9EB050ECA
:1007700063EB0408013886B1B7EB0E0362EB0807A0
:1007800007FA0CFCCB404CEA0303CF40C6E9003724
:100790009CE74046C7E74346DBE73146FDE60000FD
:1007A00010B586B00023019302930393049305933D
:1007B000022302930E4A039204930A238DF8143005
:1007C0000C4B186840B183685B6801A998470446E0
:1007D00040B9204606B010BD07480BF0C4F84FF0F2
:1007E000FF34F6E7014605480BF0BDF8F1E700BF1E
:1007F000FC050020F805002048CF000078CF00005D
:100800002DE9F84F05460E461446D0F808A0D0F85A
:1008100004B0D0F8108012F0FC6F36D104F0300331
:10082000302B43D004F00213022B50D004F0060307
:10083000042B5DD014F4402702D014F4003F65D09F
:10084000B7F5402F74D014F4801F05D027B114F0F1
:10085000010F01D084F4402424F48019DBF8003027
:100860000127B7403B4275D014F0010F00F084809F
:10087000D8F800303B43C8F80030DAF800304A4678
:10088000314628469847BDE8F88F3F4F40F2B523E0
:100890003A463E493E480BF0EBF93E480BF0E8F98A
:1008A00040F2B52138460BF0DCF9B7E7364F4FF48C
:1008B0002E733A46384936480BF0DAF937480BF0D0
:1008C000D7F94FF42E7138460BF0CBF9AAE72E4F2B
:1008D0004FF42F733A4632492D480BF0C9F931488D
:1008E0000BF0C6F94FF42F7138460BF0BAF99DE7BB
:1008F000254F4FF430733A462B4925480BF0B8F991
:100900004FF4307138460BF0ACF993E7DFF878908C
:1009100040F2C3234A4625491D480BF0A9F9244853
:100920000BF0A6F940F2C32148460BF09AF987E78D
:10093000DFF8549040F2C7234A461E4914480BF092
:1009400097F91D480BF094F940F2C72148460BF087
:1009500088F978E7DFF830B04FF435735A46174915
:100960000B480BF085F916480BF082F94FF43571FE
:1009700058460BF076F977E7D8F8003023EA0703FA
:10098000C8F8003079E700BF98CF0000CCCF000056
:100990002CD000004CD0000070D00000ACD0000083
:1009A000ECD0000024D1000078D10000ACD10000D0
:1009B000F4D1000030D2000074D20000A0D20000B8
:1009C000E0D200002DE9F04157480AF0CCFF0CF0CE
:1009D000CBF84A0142EAD06243011B1A62EB0102E2
:1009E000920042EA93729B001C1842EB0103DB0069
:1009F00043EA5473C4F3103444EA4344DB0B14F564
:100A00007A7443F10006002548E048480AF0ABFF3D
:100A100022E04FF47A7808FB07F0FFF7DFFC444947
:100A2000FFF76EFBFFF72EFD82B2394641480AF010
:100A30009AFF414B188808FB00F0FFF7CFFC3C49B8
:100A4000FFF75EFBFFF71EFD3C4B18804FF4FA5199
:100A500019803B480AF087FF3A4808F089FC0CF0FF
:100A600083F884464A0142EAD0624001B0EB0C03AD
:100A700062EB0102920042EA93729B0013EB0C03BB
:100A800042EB0101C90041EA5371C3F3103343EA59
:100A90004143C90BA34271EB06022BDB01350CF07D
:100AA00063F802464B0143EAD0634001801A63EBCE
:100AB00001039B0043EA90738000801843EB01031D
:100AC000DB0043EA5073C0F3103040EA4342DB0BD3
:100AD00029461D480AF047FFFFF762FE014600283D
:100AE00093D1154B1F88B7F5806F92D317480AF042
:100AF0003AFFB1E7E01A20EAE070C117C90341EA02
:100B00005041C00340F2E733C0184FF47A724FF0FF
:100B1000000341F10001FFF7D5FC09F009FF14F5CE
:100B20007A7446F10006B9E7F4D2000048D3000019
:100B30000C30403B90D30000FC050020DC0100207D
:100B4000B4D300000006002010D3000074D30000CE
:100B500070B565480AF007FF64480BF019FF00B94B
:100B600070BD62480BF014FF0028F9D05F480BF00D
:100B70000FFF0028F4D05D480BF00AFF0028EFD0EB
:100B80000024C8E05A4E40F29243324659495A482E
:100B90000BF06EF859480BF06BF840F2924130467A
:100BA0000BF05FF8F2E00025F6E0514E4FF48D6354
:100BB0003246504950480BF05BF850480BF058F85B
:100BC0004FF48D6130460BF04CF8ECE047488368F9
:100BD0001B694FF400519847EEE049480AF0C3FE04
:100BE000EDE0434E40F292433246424942480BF018
:100BF0003FF842480BF03CF840F2924130460BF08F
:100C000030F8E4E00025E8E0394E4FF48D633246D9
:100C1000384939480BF02CF838480BF029F84FF4D4
:100C20008D6130460BF01DF8DEE0304883681B69AB
:100C30004FF480419847E0E031480AF094FEDFE04D
:100C40002B4E40F2924332462A492B480BF010F8C3
:100C50002A480BF00DF840F2924130460BF001F8B3
:100C6000D6E00025DAE0224E4FF48D63324621496A
:100C700021480AF0FDFF21480AF0FAFF4FF48D6188
:100C800030460AF0EEFFD0E0184883681B694FF445
:100C900000419847D2E01A480AF065FED1E0144EB0
:100CA00040F292433246134913480AF0E1FF1348D9
:100CB0000AF0DEFF40F2924130460AF0D2FFC8E06F
:100CC0000025CCE00A4E4FF48D63324609490A48AC
:100CD0000AF0CEFF09480AF0CBFF4FF48D61304691
:100CE0000AF0BFFFC2E000BFD4D3000078CC000000
:100CF00098CF0000A0D200002CD00000E0D200006D
:100D00006CD40000A94883681B694FF48031984770
:100D10000028C0F2B5804FF0FF324FF0FF33A448F7
:100D200008F06AFB01340BF01FFF02464B0143EA57
:100D3000D0634001801A63EB01039B0043EA907388
:100D40008000801843EB0103DB0043EA5073C0F3DB
:100D5000103040EA4342DB0B214696480AF003FE7E
:100D6000954D298895480AF0FEFD298894480AF097
:100D7000FAFD2B88B3F57A7F80F086808B4B5A681A
:100D80001D69136813F4005F3FF4FCAE2B6813F485
:100D9000005F7FF408AF0125844B5B681B6813F488
:100DA000005F3FF402AF002D3FF410AF7F4883682F
:100DB000DB684FF4005198470028FFF60EAF7B4BDD
:100DC0005A681D69136813F4804F3FF40AAF2B680B
:100DD00013F4804F7FF416AF0125744B5B681B68DA
:100DE00013F4804F3FF410AF002D3FF41EAF6F4857
:100DF0008368DB684FF4804198470028FFF61CAFFA
:100E00006A4B5A681D69136813F4004F3FF418AF1A
:100E10002B6813F4004F7FF424AF0125634B5B680C
:100E20001B6813F4004F3FF41EAF002D3FF42CAFAE
:100E30005E488368DB684FF4004198470028FFF65E
:100E40002AAF5A4B5A681D69136813F4803F3FF468
:100E500026AF2B6813F4803F7FF432AF0125534B4C
:100E60005B681B6813F4803F3FF42CAF002D3FF408
:100E700049AF4E488368DB684FF48031984747E7B5
:100E800050480AF070FD46E7B3F5FA6FC0F09C8059
:100E900040F6B732934200F29B82444B5A681D6978
:100EA000136813F4005F00F0CE812B6813F4005F29
:100EB00040F0DA8101253D4B5B681B6813F4005F4D
:100EC00000F0D481002D00F0EF8138488368DB68A2
:100ED0004FF4005198470028C0F2ED81334B5A6817
:100EE0001D69136813F4804F00F0E9812B6813F437
:100EF000804F40F0F58101252C4B5B681B6813F493
:100F0000804F00F0EF81002D00F0FD8127488368BD
:100F1000DB684FF4804198470028C0F2FB81234BE7
:100F20005A681D69136813F4004F00F0F7812B68AD
:100F300013F4004F40F0038200251C4B5B681B68D4
:100F400013F4004F00F0FD81002D00F00B821748D4
:100F50008368DB684FF4004198470028C0F209829B
:100F6000124B5A681D69136813F4803F00F0058224
:100F70002B6813F4803F40F0118200250B4B5B6817
:100F80001B6813F4803F00F00B82002D00F01982E3
:100F900006488368DB684FF4803198470028BFF625
:100FA000BAAE08480AF0DFFCB5E600BF78CC000016
:100FB0001006002010D40000DE01002048D40000FC
:100FC00064D400006CD40000B14B5A681D691368EA
:100FD00013F4005F7FD02B6813F4005F40F08C8027
:100FE0000125AB4B5B681B6813F4005F00F0868043
:100FF000002D00F09480A6488368DB684FF4005110
:1010000098470028C0F29280A14B5A681D69136866
:1010100013F4804F00F08E802B6813F4804F40F063
:101020009A8001259A4B5B681B6813F4804F00F08F
:101030009480002D00F0A28095488368DB684FF40F
:10104000804198470028C0F2A080914B5A681D69E2
:10105000136813F4004F00F09C802B6813F4004FCA
:1010600040F0A88001258A4B5B681B6813F4004F91
:1010700000F0A280002D00F0B08085488368DB6816
:101080004FF4004198470028C0F2AE80804B5A6868
:101090001D69136813F4803F00F0AA802B6813F4D5
:1010A000803F40F0B6800025794B5B681B6813F4E5
:1010B000803F00F0B080002D00F0BE80744883684F
:1010C000DB684FF4803198470028BFF624AE7148A2
:1010D0000AF049FC1FE6704E40F2924332466F49D7
:1010E0006F480AF0C5FD6F480AF0C2FD40F2924118
:1010F00030460AF0B6FD6EE7002572E7664E4FF403
:101100008D633246654966480AF0B2FD65480AF0CB
:10111000AFFD4FF48D6130460AF0A3FD68E75C48EF
:1011200083681B694FF4005198476AE759480AF0F1
:101130001AFC69E7584E40F29243324657495848E4
:101140000AF096FD57480AF093FD40F2924130466E
:101150000AF087FD60E7002564E74F4E4FF48D638A
:1011600032464E494E480AF083FD4E480AF080FD53
:101170004FF48D6130460AF074FD5AE744488368A5
:101180001B694FF4804198475CE742480AF0EBFB4B
:101190005BE7414E40F292433246404940480AF0F4
:1011A00067FD40480AF064FD40F2924130460AF083
:1011B00058FD52E7002556E7374E4FF48D6332460F
:1011C000364937480AF054FD36480AF051FD4FF4CD
:1011D0008D6130460AF045FD4CE72D4883681B6958
:1011E0004FF4004198474EE72A480AF0BCFB4DE710
:1011F000294E40F292433246284929480AF038FDE8
:1012000028480AF035FD40F2924130460AF029FDA7
:1012100044E7012548E7204E4FF48D6332461F49CD
:101220001F480AF025FD1F480AF022FD4FF48D618A
:1012300030460AF016FD3EE7154883681B694FF4F7
:101240008031984740E7144E40F2924332461349AA
:1012500013480AF00DFD13480AF00AFD40F29241CE
:1012600030460AF0FEFC20E6002524E60A4E4FF444
:101270008D63324609490A480AF0FAFC09480AF027
:10128000F7FC4FF48D6130460AF0EBFC1AE600BF24
:1012900078CC00006CD4000098CF0000A0D20000F1
:1012A0002CD00000E0D20000AE4883681B694FF4E8
:1012B000005198470FE6AC480AF055FB0EE6AB4EDE
:1012C00040F292433246AA49AA480AF0D1FCAA4801
:1012D0000AF0CEFC40F2924130460AF0C2FC05E62C
:1012E000002509E6A14E4FF48D633246A049A1487E
:1012F0000AF0BEFCA0480AF0BBFC4FF48D613046FA
:101300000AF0AFFCFFE5974883681B694FF4804102
:10131000984701E694480AF026FB00E6934E40F217
:1013200092433246924993480AF0A2FC92480AF04E
:101330009FFC40F2924130460AF093FCF7E501250C
:10134000FBE58A4E4FF48D633246894989480AF09D
:101350008FFC89480AF08CFC4FF48D6130460AF00E
:1013600080FCF1E57F4883681B694FF40041984792
:10137000F3E57D480AF0F7FAF2E57C4E40F292433D
:1013800032467B497B480AF073FC7B480AF070FCCC
:1013900040F2924130460AF064FCE9E50125EDE5B2
:1013A000724E4FF48D633246714972480AF060FC08
:1013B00071480AF05DFC4FF48D6130460AF051FC33
:1013C000E3E5684883681B694FF480319847E5E599
:1013D000644B5A681D69136813F4005F7FD02B6853
:1013E00013F4005F40F08C8001255E4B5B681B6846
:1013F00013F4005F00F08680002D00F094805948BF
:101400008368DB684FF4005198470028C0F292804F
:10141000544B5A681D69136813F4804F00F08E8096
:101420002B6813F4804F40F09A8000254D4B5B6889
:101430001B6813F4804F00F0A180002D00F0AF80F6
:1014400048488368DB684FF4804198470028C0F221
:10145000AD80444B5A681D69136813F4004F00F0C7
:10146000A9802B6813F4004F40F0B58000253D4B58
:101470005B681B6813F4004F00F0AF80002D00F094
:10148000BD8038488368DB684FF4004198470028E6
:10149000C0F2BB80334B5A681D69136813F4803F58
:1014A00000F0B7802B6813F4803F40F0C380002524
:1014B0002C4B5B681B6813F4803F00F0BD80002D4F
:1014C00000F0CB8027488368DB684FF48031984771
:1014D0000028BFF620AC24480AF045FA1BE4234E4E
:1014E00040F292433246224922480AF0C1FB224888
:1014F0000AF0BEFB40F2924130460AF0B2FB6EE7C2
:10150000002572E7194E4FF48D6332461849194889
:101510000AF0AEFB18480AF0ABFB4FF48D61304681
:101520000AF09FFB68E70F4883681B694FF400517E
:1015300098476AE70C480AF016FA69E70B4E40F242
:10154000924332460A490B480AF092FB0A480AF0D5
:101550008FFB40F2924130460AF083FB60E70125A1
:1015600064E700BF78CC00006CD4000098CF000086
:10157000A0D200002CD00000E0D200003A4E4FF480
:101580008D63324639493A480AF072FB39480AF00D
:101590006FFB4FF48D6130460AF063FB4DE7364830
:1015A00083681B694FF4804198474FE733480AF03E
:1015B000DAF94EE72C4E40F2924332462B492C4842
:1015C0000AF056FB2B480AF053FB40F2924130469A
:1015D0000AF047FB45E7012549E7234E4FF48D63A9
:1015E0003246224922480AF043FB22480AF040FBD7
:1015F0004FF48D6130460AF034FB3FE71E488368A4
:101600001B694FF40041984741E71C480AF0ABF9C9
:1016100040E7154E40F292433246144914480AF00E
:1016200027FB14480AF024FB40F2924130460AF0AE
:1016300018FB37E701253BE70B4E4FF48D6332462D
:101640000A490B480AF014FB0A480AF011FB4FF450
:101650008D6130460AF005FB31E7074883681B6956
:101660004FF48031984733E798CF0000A0D20000B4
:101670002CD00000E0D2000078CC00006CD4000038
:101680002DE9F04188B04FF4B0113D480AF0F5F86B
:10169000002869DB4FF4B0113A480AF0EEF8002850
:1016A00062DB4FF4B01138480AF0E7F800285BDB42
:1016B0004FF4B01135480AF0E0F8002854DB344804
:1016C00006F040FF334B1860002850D0314B1868AB
:1016D00083681B6830499847014600284BD1012593
:1016E0002E4BDD602E4803F053FB2A4600212D4887
:1016F0000BF0E4F92A4600212B480BF0DFF9002615
:101700000027CDE906670024049403950294019410
:101710000094264B4FF480622549264807F03CFB95
:10172000254B1860CDE90667049403950294019453
:101730000094224B4FF480622149224807F02CFB91
:10174000DFF88480C8F80000CDE9066704940395AB
:101750000294019400941D4B4FF480621C491D4873
:1017600007F01AFBC8F8000008B0BDE8F0811A487D
:101770000AF0F9F8AAE719480AF0F5F8AFE700BF50
:10178000F4D50000FCD5000004D600000CD6000003
:1017900088D40000F805002014D600000070004036
:1017A000E4D400000006002010060020C509000057
:1017B000A0130020C003002024060020E117000031
:1017C000C01700201003002020060020510B00004D
:1017D000E01B00206002002090D40000B4D4000080
:1017E000F0B58FB0002509950A950B950C95ADF8CD
:1017F00034503B480AF0B7F82C463DE00922314608
:1018000009A80AF045F887B2364B1F80364807F022
:10181000AFFDBDF82A30BDF82C20BDF82E10BDF864
:101820003000BDF832C0BDF834E007970696CDF819
:1018300014E0CDF810C00390029101920093BDF81E
:101840002830BDF82620BDF8241028480AF08BF86F
:10185000274A82FB0432E317C3EB620303EBC303A3
:10186000E31A0EAA02EB430323F8146C01341D4B58
:10187000198820480AF077F84FF0FF324FF0FF3315
:101880001D4807F0B9FD01350BF06EF902464B011A
:1018900043EAD0634001801A63EB01039B0043EAF3
:1018A00090738000801843EB0103DB0043EA507320
:1018B000C0F3103040EA4342DB0B29460F480AF0E0
:1018C00052F80F4E31880F480AF04DF83688082C30
:1018D00094DC0EAB03EB440323F8146CC6E700BFA3
:1018E00018D50000DE01002010060020A8D5000059
:1018F000398EE338D4D500000006002054D500000E
:10190000DC0100208CD500002DE9F04F8DB0059250
:101910000393134602F004020192C3F3C20210F0D3
:101920000303029340F0938207468A460132041D66
:10193000002841D027B1E31B0433534500F28A82CB
:10194000039B5D1EDDF808B0CDF810B0CDF818B0DF
:1019500000264FF00408C1460FB1039B2360531EBD
:101960000793002A40F3B780059B13F0020221D0B1
:101970000120E11B8B081AB1B1F5007F80F0BF8018
:10198000BBF10F0F00F2CE80002F00F0E280DBB23F
:101990000CAA5A4402F8103C002800F0D68063F0EC
:1019A0007F030CAA5A4402F8103C049B01330493B1
:1019B0000BF1010B0434F6E001F0070A5444CAF1BC
:1019C000080AB7E7252B40F0ED8001264FF0040808
:1019D000C146E7E04FF00808C146E3E04FF00408D5
:1019E000C146DFE04FF00408C146DBE02A786C2AEC
:1019F00026D0002604EB0802013AC8F100010A4093
:101A0000144627B1D11B4944514500F22682732B5D
:101A100059D0B9F1040F00F0A880B9F1080F40F0D7
:101A2000AC80169B073323F0070303F108011691DE
:101A3000D3E900010FB1C2E9000102F10804B1E0ED
:101A40001CF8022C6C2A04D000264FF00408C14672
:101A5000D0E700264FF00808C146CBE72B784C2B87
:101A60001CD0169B073323F0070303F108021692DC
:101A7000D3E90001E21D22F0070247B1D31B08336E
:101A8000534515D82B784C2B15D0C2E9000102F133
:101A9000080400264FF00808C14683E0169B073370
:101AA00023F0070303F108021692D3E90001E1E7EE
:101AB0006FF01B00C8E1C2E90001E8E700264FF023
:101AC0000408C14696E7169B1A1D16921B680393DD
:101AD000079A654640E7BB4B039A9A4204D3BA4B38
:101AE0009A420AD3002300E00023002B7FF43CAF8E
:101AF000059B03F0020200203BE70123F5E7B34C0E
:101B00004FF4F8732246B249B2480AF0B1F8B2482D
:101B10000AF0AEF84FF4F87120460AF0A2F86FF020
:101B2000150091E1A94C40F2F5132246A849A948B5
:101B30000AF09EF8A9480AF09BF840F2F5112046F9
:101B40000AF08FF86FF015007EE1069B01330693D3
:101B50002EE708B9019B13B10AF1010A28E703989F
:101B60000AF000FA831C9A4422E7169B191D16916D
:101B70001B6807B11360141D14E0944C40F231232C
:101B80002246934993480AF073F8494694480AF06C
:101B90006FF840F2312120460AF063F86FF015002B
:101BA00052E10026654605F1010C6B78002B00F030
:101BB000C180002E3FF406AFA3F120015A29F0D8CE
:101BC00001A252F821F000BFA51B0000A31B0000DA
:101BD000A31B0000A51B0000A31B0000A31B00000B
:101BE000A31B0000A31B0000A31B0000A31B0000FD
:101BF000F5190000A51B0000A31B0000A51B000099
:101C0000A51B0000A31B0000A51B0000A51B0000D6
:101C1000A51B0000A51B0000A51B0000A51B0000C4
:101C2000A51B0000A51B0000A51B0000A51B0000B4
:101C3000A31B0000A31B0000A31B0000A31B0000AC
:101C4000A31B0000A31B0000A31B00005D1A0000E3
:101C5000A31B0000A31B0000A31B00005D1A0000D3
:101C60005D1A00005D1A0000A31B0000A31B00000A
:101C7000A31B0000A31B0000A51B0000A31B00006A
:101C8000A31B0000A31B0000A31B0000A31B00005C
:101C9000A31B0000A31B0000A31B0000A31B00004C
:101CA000A31B0000A31B0000ED190000A31B0000F4
:101CB000A31B0000A31B0000A31B0000A31B00002C
:101CC000A31B0000A31B0000A31B00005D1A000063
:101CD000A31B0000ED190000ED1900005D1A0000C3
:101CE0005D1A00005D1A0000A51B0000ED19000040
:101CF000D5190000A31B0000A51B0000A31B0000BA
:101D0000BD1A0000ED190000BD1A0000A31B000061
:101D1000A31B0000BD1A0000E5190000ED1900002A
:101D2000A31B0000A31B0000ED190000A31B000073
:101D3000DD190000E31BB3F5806F11D21FB3002241
:101D40003A609B083B70019B0BB3069BFB70049BA6
:101D5000BB70ABBB029DDDF81090DDF80C8058E045
:101D60001A4C40F23D23224619491A4809F080FFD7
:101D70001C4809F07DFF40F23D21204609F071FF2B
:101D80006FF0150060E05344A3F108005CE0069B8F
:101D90007B70DCE704F8011B01339B45DAD90CAA00
:101DA0001A4412F8101C12F9102C002AF4DA01F06F
:101DB0007F01E21B01325245ECD96FF01B0043E07A
:101DC000029BEAE7D0CB000028F300001CD60000FD
:101DD000F0D100002CD0000064D6000088D60000AE
:101DE000A4D60000BCD60000019BF3B1029EE31B09
:101DF00033440133534533D80CAB2B4413F8103C18
:101E000004F8013B3246414620460AF0C9F8344402
:101E10000135AB4517D9B9F1000FE5D00CAB2B4418
:101E200013F9103C002BDFDAF2E70CAB2B4413F86C
:101E3000103C57F82380002247F8232040460AF040
:101E400091F8461CD3E7E01B0DB0BDE8F08F6FF0B2
:101E50000D00F9E76FF01B00F6E76FF01B00F3E7EA
:101E60006FF01B00F0E700BF38B50446436803F08D
:101E700003038160022B03D9032B02D100680EE01B
:101E800063B9084D45232A460749084809F0F0FE82
:101E90004521284609F0E5FE002000E0002000234F
:101EA000636038BDD4D60000F0D100002CD0000013
:101EB000014B1860704700BF9800002038B50446F9
:101EC0008C46838B002A14DB03F007035A1F012A78
:101ED0001BD9042B50D02F4C40F21B1322462E4905
:101EE0002E4809F0C5FE40F21B11204609F0B9FE4C
:101EF00038BDD0E900018CE8030000232360636053
:101F00000121204609F03DFDF2E7D0E900018CE80F
:101F10000300002222606260062B0FD0052B1DD12A
:101F20000021204609F02DFD204609F051FD002832
:101F3000DED0A38B43F02003A383D9E7DCF8003085
:101F40003BB1E28B0132E283002BF9D01B68002BFE
:101F5000F6D10221204609F014FDE5E70D4D40F2CF
:101F600009132A460E490D4809F082FE40F2091174
:101F7000284609F076FED3E7002109F002FD20464D
:101F800009F026FD0028B3D0A38B43F02003A383E0
:101F9000AEE700BFF8D60000F0D100002CD0000062
:101FA0001CD700002DE9F04F83B004461646838B02
:101FB00003F0070703F008080D4631B1B8F1000F30
:101FC00012D1002300930193AAE0DFF8E09240F2DF
:101FD00033134A46B649B74809F04AFE40F2331176
:101FE000484609F03EFEE9E7012D13D0022D16D137
:101FF000A38B43F02003A3831434204606F094FD02
:10200000002800F09C8186F31188BFF36F8F03B026
:10201000BDE8F08FA38B43F01003A383ECE7A34D3F
:102020004FF49E732A46A449A24809F021FE4FF4BA
:102030009E71284609F015FEDAE7204609F0C8FC33
:1020400005466FE0D4F818904A4669462046FFF7E7
:1020500035FF002511E0002F40F081802368002B20
:1020600000F08B8023691D68002D00F0948006210C
:10207000204609F086FC4FF00009A38B03F0070807
:10208000B84500F00B81A268002A00F00981012206
:1020900017461AB9009A002A00F0048143F0080399
:1020A000A38304F1140A504606F03EFD002800F018
:1020B000158186F31188BFF36F8F002F40F01F81C9
:1020C000009B2BB14B4642466946204609F0C2FCB4
:1020D00015B17A492046A8474FF02003EFF3118647
:1020E00083F31288BFF36F8F504606F00DFD002872
:1020F00000F00B81504606F027FDA38B23F0080368
:10210000A383A38B13F0100F00F00F8123F01003B3
:10211000A3830125A78B07F00707002D3FF46CAFC1
:10212000022D8AD0002D3FF467AF012D8AD0032DF8
:1021300091D0042D3ED0052D40F0A080012F72D10A
:102140002368002B7DD023699D68002D00F08780D7
:102150000521204609F015FC4FF000098DE7534D8D
:102160004FF4AB732A465649524809F081FD4FF4AB
:10217000AB71284609F075FD70E74C4D40F25713DE
:102180002A4650494B4809F073FD40F25711284642
:1021900009F067FD66E7DFF814814FF4AD7342463E
:1021A0004949444809F064FD4FF4AD71404609F0D7
:1021B00058FD5CE7022F0BD1E38BBBB923695D6847
:1021C00015B30421204609F0DCFB4FF0000954E769
:1021D000364D40F25D132A463C49364809F048FD29
:1021E00040F25D11284609F03CFDE5E72F4D4FF424
:1021F000AF732A4636492F4809F03AFD4FF4AF71C4
:10220000284609F02EFDD9E7DFF8A08040F26113DF
:1022100042462D49274809F02BFD40F26111404606
:1022200009F01FFDCDE7214D4FF4B2732A4629492D
:10223000204809F01DFD4FF4B271284609F011FD48
:102240007EE71A4D40F265132A461E49194809F0E7
:102250000FFD40F26511284609F003FD73E7DFF832
:102260004C804FF4B47342461749124809F000FD00
:102270004FF4B471404609F0F4FC69E70B4D40F2AD
:102280006B132A4614490B4809F0F2FC40F26B111B
:10229000284609F0E6FC0025A946EEE60022F7E60E
:1022A0000022F5E6002D7FF4F9AE2AE7F8D600000B
:1022B00044D700002CD0000054D700007923000040
:1022C00068D7000074D7000098D70000B0D700008E
:1022D000C8D70000D8D70000F0D10000DFF880B0E8
:1022E000B9235A461F49204809F0C2FC51461F48ED
:1022F00009F0BEFCB921584609F0B3FCD9E64A46BC
:102300004146204609F045FBDAE6154D8E232A4664
:102310001749154809F0ACFC5146164809F0A8FCCD
:102320008E21284609F09DFCE4E613F0200F04D02E
:1023300023F02003A3830225ECE60025EAE6084DFE
:10234000B9232A460749084809F092FC2146074864
:1023500009F08EFCB921284609F083FC53E600BF42
:10236000F0D7000020D800002CD0000038D80000A2
:1023700050D8000068D800002DE9F04104460D4611
:1023800000F114064FF02003EFF3118783F3128856
:10239000BFF36F8F304606F0B7FB50B1304606F002
:1023A000D3FBA5613A4601212046FFF7FBFDBDE8BE
:1023B000F081DFF820808E2342460749074809F064
:1023C00057FC3146064809F053FC8E21404609F07F
:1023D00048FCE3E7F0D7000050D800002CD0000004
:1023E00068D800002DE9F84F0446884609F009FB3B
:1023F000061E58DB04F114074FF02003EFF3118998
:1024000083F31288BFF36F8F384606F07DFBE8B187
:10241000384606F099FBA58B05F00705E38B4FF6D0
:10242000FF72934256D02E46022D1FD02DB3042D9D
:1024300023D0062D21D0052D53D0012D36D16FF09C
:1024400004064FF0000A534652461CE03C4D8E23D2
:102450002A463C493C4809F00BFC39463B4809F008
:1024600007FC8E21284609F0FCFBD1E70133E3830A
:102470004FF0010A00231A4605E0B5FA85F35B091F
:102480004FF0000A012242B10022C8F80020626821
:1024900072B3C2F80080C4F8048073B34A460221C4
:1024A0002046FFF77FFD3046BDE8F88F284E40F20A
:1024B000C91332462749244809F0DAFB40F2C91112
:1024C000304609F0CEFB6FF004064FF0000A534689
:1024D0005246D8E76FF00A064FF0000A53465246BC
:1024E000D1E76FF085064FF0000A53465246CAE71F
:1024F000C4F80480C4F80080CFE7384606F014FB27
:1025000068B189F31188BFF36F8FBAF1000FCAD099
:1025100000232A464146204609F089FAC3E7DFF83E
:1025200020B0B9235A460C49074809F0A1FB3946A7
:102530000A4809F09DFBB921584609F092FBE0E7F3
:10254000F0D7000050D800002CD0000068D8000060
:10255000F8D60000D8D7000020D8000038D80000F6
:102560002DE9F04706460D461446B2F5802F22D2DB
:10257000042C31D9221FEC1D24F00704154425F04A
:1025800007052D1B4FEAD508172D36D93460C4F83E
:1025900008800023E360B8FA88F6C6F12007C6F188
:1025A0002406B60007364FEAD60909F10103434570
:1025B00034D8002349E0384F40F2E3133A46374914
:1025C000374809F055FB374809F052FB40F2E31158
:1025D000384609F046FBCBE72F4F4FF4F5733A46E8
:1025E00031492F4809F044FB304809F041FB4FF4D2
:1025F000F571384609F035FBBCE7274F40F2F3137D
:102600003A462B49264809F033FB284809F030FBAD
:1026100040F2F311384609F024FBB7E7DFF878A061
:102620004FF40173524623491D4809F021FB1F480E
:1026300009F01EFB4FF40171504609F012FBB8E798
:102640001A1D002144F822100133BB42F8DB4FEA87
:1026500049039BB263800022228043F00103638020
:10266000A8EB09084FEA480126F00706B31CE1521F
:1026700024F8069025F00703A91C6252254424F88B
:1026800003806B8843F001036B804946204609F0C4
:1026900046FABDE8F08700BF80D8000054D900009A
:1026A0002CD000006CD9000084D90000A8D900000B
:1026B000C4D90000F0D9000070B582B004460023F0
:1026C0000360436083604B78252B02D04E1C0125AC
:1026D0001FE0881CE37045E1237843F00403237076
:1026E000B5B1013614E0237843F008032370F7E70F
:1026F000237843F010032370F2E7237843F020039C
:102700002370EDE7237843F040032370E8E70025CA
:1027100045B33378203B102BF9D801A252F823F0AF
:10272000F12600000F2700000F270000FB26000005
:102730000F2700000F2700000F2700000F270000C1
:102740000F2700000F2700000F270000E7260000DA
:102750000F270000D92600000F2700000F270000D8
:1027600005270000237803F04403442B5FD0019633
:10277000237843F08003237033782A2B5CD001A8A0
:1027800009F0D9F9019B9E420FD0237843F08003D2
:1027900023706060DBB2C3F34003002854DB0022E7
:1027A0001343227863F341022270019B01931B784B
:1027B0002E2B14BF00230123627863F34102627061
:1027C000002B43D0019B5A1C01925B782A2B3FD0EF
:1027D00001A809F0B0F9A0602378C3F340030028F2
:1027E0003EDB00221343227863F3410222700198FA
:1027F00003784C3B2E2B00F29D80DFE803F0909B8A
:102800009B9B9B9B9B9B9B9B9B9B9B9B9B9B9B9B18
:102810009B9B9B9B9B9B9B9B9B9B339B579B459B0A
:102820009B9B9B9B9B9B899B9B9B9B9B8200237859
:102830006FF3861323709AE7637843F001036370A4
:10284000334601330193B1E70122A9E70198CFE7AD
:10285000637843F004036370104601300190C7E7CA
:102860000122BFE7421C4378682B06D0637802211F
:1028700061F3C603637010461EE06378012262F3C1
:10288000C6036370023017E0421C43786C2B06D0FD
:102890006378032161F3C603637010460CE063782C
:1028A000042262F3C6036370023005E063780522F8
:1028B00062F3C6036370013010F8013BE370A3F1CB
:1028C0004102372A7DD8DFE802F05E7C7C7C5E5EC8
:1028D0005E7C7C7C7C7C7C7C7C7C7C7C7C7C7C7C56
:1028E0007C4F7C7C7C7C7C7C7C7C5E7C4F3A5E5E1E
:1028F0005E7C3A7C7C7C7C654F717C7C717C4F7CFF
:102900007C4F6378062262F3C60363700130D3E71D
:102910006378072262F3C60363700130CCE7637803
:10292000082262F3C60363700130237843F0020388
:102930002370C1E763786FF3C6036370BCE7A278C6
:10294000012161F30202A270627802F07802402A4B
:1029500010D0632B13D02378C3F34002154365F3E3
:102960004103237002B070BDA278022161F302021C
:10297000A270E9E7217841F001012170E9E7151E15
:1029800018BF0125E7E7A378042262F30203A370CE
:102990000125E0E7A378032262F30203A3706378C2
:1029A00003F07803402BD6D10125D4E7A378032286
:1029B00062F30203A370637813F0780FCBD0012584
:1029C000C9E7237843F001032370C4E72DE9F04FF2
:1029D00091B006460D4691460393002499F80000F5
:1029E000002800F0D582252808D009F101092946E0
:1029F000B0470028C0F2CD820134EFE700230493F2
:102A000005930693079308930993494606A8FFF791
:102A100053FE02909DF8193013F0010F00F09780DB
:102A2000039B1A1D03921F68002FC0F288809DF837
:102A3000193013F0040F00F09C80039B1A1D0392C1
:102A4000D3F800A0BAF1000FC0F28A8000230793E8
:102A500008939DF81A3003F007039DF81910C1F38D
:102A6000C301012B00F08E80022B00F0D380042BD9
:102A700000F02481032B00F03B819DF8188018F0B2
:102A8000030B40F03B819DF81B30253B532B00F29C
:102A9000E681DFE813F04001E401E401E401E40130
:102AA000E401E401E401E401E401E401E401E401FE
:102AB000E401E401E401E401E401E401E401E401EE
:102AC000E401E401E401E401E401E401E401E401DE
:102AD000E401E401E401E401E401E401E401E401CE
:102AE000E401E401E401E401E401E401E401E401BE
:102AF000E401E401E401E401E401E4018101E40111
:102B0000E401E401E401E401E401E401E401E4019D
:102B1000E4015E016701E401E401E401E40167010D
:102B2000E401E401E401E401BE018101A201E40148
:102B3000E4014D01E4018101E401E40181019DF81A
:102B4000183043F004038DF818307F426FE79DF989
:102B50001830002B02DB4FF0FF3768E7079F66E76E
:102B60009DF819306FF341038DF819304FF0FF3A9B
:102B70006CE713F0020F02D0DDF820A066E74FF0FB
:102B8000FF3A63E7CB1E042B04D8DFE803F00B1DEC
:102B900029353500039B1A1D03921B68DA1704932D
:102BA000059206E0039B1A1D03921B68DA17049333
:102BB0000592012928D002297FF45FAFBDF91030BA
:102BC000DA170493059258E7039B073323F00703B2
:102BD00003F108020392D3E90023CDE90423E8E7D7
:102BE000039B073323F0070303F108020392D3E9A1
:102BF0000023CDE90423DCE7039B1A1D03921B6825
:102C0000DA1704930592D4E79DF81030049300235B
:102C1000059332E7CB1E042B04D8DFE803F00B1F2B
:102C200035414100039B1A1D03921B680493002346
:102C300005931EE09DF81B30632B07D0039B1A1DE4
:102C400003921B6804930023059312E0039B1A1D53
:102C500003921B680493002305930AE0039B073348
:102C600023F0070303F108020392D3E90023CDE91F
:102C7000042301291CD002297FF4FFAEBDF81030D7
:102C8000049300230593F8E6039B073323F007031F
:102C900003F108020392D3E90023CDE90423E8E716
:102CA000039B1A1D03921B68049300230593E0E71E
:102CB0009DF81030049300230593DEE608290BD01D
:102CC000039B073323F0070303F108020392D3E9C0
:102CD0000023CDE90423D0E6039B073323F0070349
:102CE00003F108020392D3E90023CDE90423C4E6EB
:102CF000039B1A1D03921B680493BEE6029F3B468A
:102D00004A462946304608F092FF0028C0F2418129
:102D10000444B94662E629462520B0470028C0F29F
:102D200038810134D8460DF13E0A4FF000099BE08E
:102D3000DDF81090BAF1000F07DB5146484609F064
:102D40001AF909EB000AD8468EE0484609F00AF95C
:102D5000F7E7049B8DF82830D8460DF1290A0DF1CC
:102D6000280981E018F0080F05D118F0100804D0E8
:102D70004FF0200801E04FF02B08049A059B002B30
:102D800002DB0492059308E0524263EB4303049292
:102D900005934FF02D0800E0D8460DF13E03009357
:102DA0000AAB06AADDE9040108F0D7FE8146BAF1B4
:102DB000000FC0F288800DF13E03A3EB09039DF8DC
:102DC00018206FF386128DF818209A457ED9AAEB49
:102DD000030307930DF13E0A46E0049828B9D8464C
:102DE000DFF8B4A1AAF105093EE00DF13E0300931E
:102DF0000AAB06AA002108F0B0FE81469DF81A3001
:102E000043F010038DF81A3078238DF81B30D84624
:102E1000CDE7049A9DF81930C3F3C303072B06D8F6
:102E2000DFE803F0040B0D0F1115191B1460D846D1
:102E30000DF13E0A4FF0000916E01470F7E7148018
:102E4000F5E71460F3E7E31714605360EFE7E31767
:102E500014605360EBE71460E9E71460E7E7D846D5
:102E60000DF13E0A4FF00009B9F1000F00F08D801E
:102E7000AAEB0903B8F1000F00D001339DF81A2026
:102E800012F0100F25D0023307990B4412F0400FB7
:102E900001D0089A1344002F31DDFF1A9DF8183035
:102EA00013F0040F2BD113F0400F17D0B8F1000F1F
:102EB00017D029464046B04700286ADB0134D8467F
:102EC0004FF0300B0FE00DF13E0ACDE70DF13E0A59
:102ED000CAE712F0080FD7D00133D5E74FF0200B27
:102EE00001E04FF0300B3B465F1E002B07DD29460B
:102EF0005846B04700284CDB01343B46F4E7B8F1B4
:102F0000000F05D029464046B047002841DB013478
:102F10009DF81A30C3F30012C3F3C003134305D066
:102F200029463020B047002833DB01349DF81A30A1
:102F300013F0100F06D029469DF81B00B04700285B
:102F400027DB0134079B03F1FF38002B07DD2946FF
:102F50003020B04700281CDB01344346F3E75346DA
:102F60004A462946304608F062FE002811DB044438
:102F7000002F07DD29462020B047002809DB013457
:102F8000013FF5E7DDF8089028E5DDF8089025E534
:102F9000204611B0BDE8F08F21DA000008B54FF0EF
:102FA0002002EFF3118382F31288BFF36F8F01F0D9
:102FB00027FF034808F0D7FC00F0A0FFFCE700BFA4
:102FC00024DA0000002950D12DE9F84307460024F7
:102FD00022E0DFF898904FF499734A462449254837
:102FE00008F046FE4FF49971484608F03AFE1FE09B
:102FF000DFF8789085234A461D491E4808F038FEC0
:103000008521484608F02DFE1EE058F805301B6863
:103010003946304698470134174B184A9B1AB4EB8F
:10302000231F20DA4FEA0418144D15EB0416D0D0F4
:1030300073685B79002BEED03946304608F029FEE4
:103040000028E8D0002ED3D0002FDED1DFF81C906E
:1030500086234A460A49074808F00AFE8621484660
:1030600008F0FFFDD1E7BDE8F883704750DA0000B3
:1030700088DA00002CD00000C8CE0000A8CE0000E6
:10308000A0DA0000014B53F82000704724DB000059
:10309000F8B5204B204A9B1A1E11902B0ED81F4BBF
:1030A000BFF35B8F53E8002F511C43E8001000284A
:1030B000F8D1BFF35B8F5ABB002417E0184C40F2E5
:1030C000732322461749184808F0D2FD40F27321B5
:1030D000204608F0C6FDE2E70F4B03EB07135B68E1
:1030E00004221968284600F0D3F80134B4420FDAFC
:1030F0002746094D05EB04152B7B002BF5D023014A
:10310000054AD3589B69002BE6D028469847E3E749
:10311000F8BD00BFC8CE0000A8CE000030060020D9
:10312000B4DA0000FCDA00002CD0000038B108B599
:10313000044A1060084600F0BFFA002008BD6FF096
:10314000150070479C00002008B50023044A137046
:10315000044A13604FF400410348FFF7E7FF08BD3E
:10316000811300202C06002097BC0000204B1B7808
:1031700003B170472DE9F041FFF78AFF002413E007
:10318000DFF870804FF4997342461B491B4808F0E2
:103190006FFD4FF49971404608F063FD0FE07B59D5
:1031A0005B69304698470134154B164A9B1AB4EBBD
:1031B000231F17DA2701134D15EB0416E0D07368AF
:1031C0005B79002BEFD0002EE9D1DFF82880D723E0
:1031D00042460949094808F04BFDD721404608F00E
:1031E00040FDDCE7024B01221A70BDE8F08100BF10
:1031F0008113002050DA000088DA00002CD0000093
:10320000C8CE0000A8CE0000014B01221A70704702
:10321000801300200D4BBFF35B8F53E8002F01326A
:1032200043E800210029F8D1BFF35B8F00B9704754
:10323000074BBFF35B8F53E8002F013A43E80021AF
:103240000029F8D1BFF35B8FF1E700BF2C06002007
:103250002806002010B50446044B1B689847A06060
:1032600000212046FFF7AEFE10BD00BF9C000020ED
:10327000054B064A9B1AB1EBD30F02D252F831002C
:1032800070470020704700BFA8CE000058CE000055
:10329000F8B504460E461E4D451B2D110135036839
:1032A0001B6863B1EDB2CCB163681D7114B3636880
:1032B0001E60636801225A71FFF7A6FFF8BD154F23
:1032C000BB233A461449154808F0D2FC144808F0CC
:1032D000CFFCBB21384608F0C4FCE3E7114FE623DE
:1032E0003A4611490D4808F0C3FCE621384608F07B
:1032F000B8FCD9E70B4D40F217132A460A49074894
:1033000008F0B6FC40F21711284608F0AAFCCEE7F8
:10331000A8CE000030DB00008CDB00002CD00000C9
:10332000A4DB000050DA000088DA00000EB400B51B
:1033300082B0014603AB53F8042B01930348FFF717
:1033400045FB02B05DF804EB03B07047CBBC000056
:1033500030B585B011F0440F05D01A4B1C6834B954
:10336000002005B030BD1849FFF7E0FFF9E7174B23
:103370001968B2FBF1F1B1FBF4FC154AA2FB0C3267
:10338000D20A4FF4616E0EFB12CE124BA3FB0E530A
:103390005B0904FB1C114FF47A7C0CFB01F1B1FBBF
:1033A000F4F505FB14110CFB01F1B1FBF4F10291F2
:1033B0000195C3EB0311AEEB810100910649FFF7C4
:1033C000B5FFCEE734060020C8DB00003806002039
:1033D000C5B3A29189888888D4DB000061B108B5A3
:1033E0002AB1064A52F8232012B9054A00E0044ADD
:1033F0000449FFF79BFF08BD704700BF94DC000045
:10340000F0DB0000F8DB000011F0100F0BD108B565
:1034100011F0200F03D00449FFF788FF08BD0349CE
:10342000FFF784FFFAE7704744D4000004F300007C
:103430002DE9F04105460F46164698460699FFF7D6
:10344000E3FF0024444505DA23492846FFF76EFFD1
:103450000134F7E7002409E01F492846FFF766FF1B
:103460000BE01E492846FFF761FF01340F2C0CDCEE
:10347000002C02DD14F0070FEED0B442F1D23A5D19
:1034800017492846FFF752FFEFE716492846FFF78E
:103490004DFF002409E010492846FFF747FF0BE0E5
:1034A00011492846FFF742FF01340F2C12DC002C93
:1034B00002DD14F0070FEED0B44206D23A5DA2F15D
:1034C00020035E2BECD92E22EAE703492846FFF7BA
:1034D0002DFFE9E7BDE8F08120DC000004DC0000FE
:1034E000FCDB000008DC00000CDC00002DE9F041F2
:1034F000804616461D46BDF9187059B90024002FA4
:103500001CDB86B10123079A934013F0100F18D1EA
:103510000D4E09E00D4B079A53F822200C49FFF796
:1035200005FF0446EBE7084E39462846FFF7A0FEA4
:10353000024631464046FFF7F9FE04442046BDE806
:10354000F081044EF0E700BF10DC0000A8DC0000B2
:103550001CDC000018DC00002DE9F04F85B00546AA
:103560000C46164603939DF8388001F0020B01F0DB
:10357000010AC1F3C00908F0A6FBE8B102461349ED
:103580002846FFF7D3FE0746BBF1000F16D142468F
:103590005146284608F0C3FBCDF80480BDF9403001
:1035A00000939DF83C30324649462846FFF79EFF7F
:1035B000384405B0BDE8F08F0027E5E7039A2146BF
:1035C0002846FFF7C5FE0744E1E700BF24DC000002
:1035D0002DE9F04784B006460C4617468B680A88EA
:1035E000C2F3821812F4E07F37D04A680978C1F339
:1035F000C2017AB32948121A42F3CF020292019112
:10360000CDF80080002239463046FFF7A5FF8146FD
:10361000254655F8103BC3F3492353B1B8F1000FC9
:103620001ED11F482B4632461E4908F050F900288B
:1036300018DB6288C2F3CB022168C1F34921294417
:10364000FAB9B8F1000F22D1304608F09BFB04B064
:10365000BDE8F0874FF0FF32D0E74FF00009D7E721
:103660001148DFE7DFF844A040F2B7235246104983
:10367000104808F0FDFA40F2B721504608F0F1FA80
:10368000D7E700974B46304608F061FBD9E7424642
:103690003946304608F04FFBD6E700BF58CE000051
:1036A000E9BC0000CD290000CBBC000028DC0000F4
:1036B00068DC00002CD00000074B01221A6004E0F7
:1036C0004008054A13685B001360044B9842F7D822
:1036D000034B1860704700BF3806002040420F00BF
:1036E000340600202DE9F04F87B002AF82467960A2
:1036F00091469846BE6BD7F840B0BBF1000F16D08C
:103700007B6CFB6000935B46FA6B10210020FEF798
:10371000FBF8051E0CDA264C67232246254926486D
:1037200008F0A6FA6721204608F09BFA00E0002581
:103730002946AB19173300246FF300046FF34104DB
:103740006FF382046AF3C50469F3881465F35224A5
:1037500066F3DE446FF3DF7423F00703ADEB030D74
:1037600002AD6B4613F118000AD0BBF1000F07D071
:103770007B6C00935B46FA6BFEF7C6F8002809DB0A
:10378000434622467968284608F009FB1437BD46AF
:10379000BDE8F08FDFF8189081234A4605490648B6
:1037A00008F066FA8121484608F05BFAE8E700BFB6
:1037B000BCDC0000F8DC00002CD0000070B5064630
:1037C0000D46002406E0054B1868315D83685B6890
:1037D00098470134AC42F6D3284670BD5406002009
:1037E000014B1960002070474406002010B50948BD
:1037F000094B186009F0CCF800B110BD074C7923D3
:1038000022460749074808F033FA7921204608F094
:1038100028FAF2E7A8CC00005406002004DD0000DE
:103820003CDD00002CD0000008B5034B01221A70CB
:10383000024808F0A7FA08BD8213002098DD0000B6
:1038400010B50C46044B1868FFF71CFC03460F220A
:1038500021460248984710BD4406002098DD00002C
:10386000034B01221A70034B034A1A60704700BFD2
:10387000831300208006002068060020014B196099
:10388000002070478406002008B518B9044B0022B8
:103890001A7008BD41F2883009F06AF9F9E700BFF3
:1038A0008313002038B504460A4B01221A700A4BD4
:1038B0001B782BB938BD651E2046FFF7E5FF2C4667
:1038C000002004F0FBFD0028F4D0024B1B78002BF5
:1038D000F1D1EFE78313002084130020F8B50646EA
:1038E0000D46042706E03846FFF7DCFF9CB90D4B78
:1038F0001B7883B12A463146002004F07BFD044644
:103900000028F0D1074B1B78002BEFD0013F384641
:10391000FFF7BAFFEAE714B9024B1B7803B92C464C
:103920002046F8BD8313002008B5034B01221A700E
:10393000024808F027FA08BD84130020D8DD0000F3
:1039400010B50C46044B1868FFF79CFB03460F228A
:1039500021460248984710BD84060020D8DD0000AB
:1039600070B5404B1D7D05F01F0301229A40690987
:103970003D4B03EB8103D043BFF35B8F53E8001F44
:1039800001EA000443E80046002EF7D1BFF35B8F45
:103990000A4200D170BD354A05EB4503980002EBA1
:1039A00083033349A9B15978105C08F069FB4FF0E3
:1039B0002003EFF3118683F31288BFF36F8F2D4836
:1039C00005F0A2F858B12B4805F0BEF82A4B1C6848
:1039D00020E0002383F31188BFF36F8FE7E7274CC4
:1039E0008E2322462649274808F042F921492648D5
:1039F00008F03EF98E21204608F033F9E3E7194B31
:103A00001B7D03EB4303194911F8230090470CB1C8
:103A1000246824B11CB1A268002AF0D1F7E7154848
:103A200005F082F870B186F31188BFF36F8F0F4AEB
:103A300005EB4505A90002EB8505002353506B609B
:103A4000AB60A7E70D4CB923224610490D4808F09A
:103A50000FF908490E4808F00BF9B921204608F083
:103A600000F9E0E754110020B0060020A006002075
:103A700081C000009406002098060020F0D70000C6
:103A800050D800002CD0000068D8000020D80000DA
:103A900038D8000070B504466D4B1D7D6A09BFF330
:103AA0005B8F6C4B53F82230BFF35B8F05F01F0226
:103AB000134113F0010F1DD005EB4503664A12F8C0
:103AC000233033B3B4F1FF3F39D105F087FE4FF017
:103AD0002003EFF3118683F31288BFF36F8F5F48E3
:103AE00005F012F8002840D05C4805F02DF85C4B3A
:103AF0001C6855E00146284600F0D6F80028DBD0C7
:103B000005EB4503544A02EB830307C883E807002B
:103B1000D2E705F01F02012393406D094D4A02EBE5
:103B20008505DB43BFF35B8F55E8002F1A4045E85E
:103B300000210029F8D1BFF35B8F002077E005EB6F
:103B40004503454A02EB83039868410CC003454B8B
:103B5000C018454A4FF0000341F10001FCF7B2FCE8
:103B60000121201A07F0CAF9AFE7404C8E23224604
:103B70003F49404808F07CF838493F4808F078F859
:103B80008E21204608F06DF8AEE7314B1B7D03EB2C
:103B90004303314911F8230090470CB1246824B144
:103BA0001CB16268002AF0D1F7E72C4804F0BCFF92
:103BB00000283DD086F31188BFF36F8F05F01F03F7
:103BC000012199406B092D4A02EB8303BFF35B8F00
:103BD00053E8002F0A4343E800200028F8D1BFF340
:103BE0005B8F274B4BB11C4B05EB450203EB82016E
:103BF000497813F8220008F037FAFFF7B1FE05F014
:103C00001F03012404FA03F36D09124A02EB850530
:103C1000DB43BFF35B8F55E8002F1A4045E80021D6
:103C20000029F8D1BFF35B8F06F064FB204670BD1E
:103C30000E4CB923224613490E4808F019F80749DB
:103C4000114808F015F8B921204608F00AF8B1E744
:103C500054110020AC060020A0060020940600208D
:103C6000980600203F420F0040420F00F0D70000AE
:103C700050D800002CD0000068D80000B00600200A
:103C800069C0000020D8000038D80000BFF35B8F67
:103C9000044B53F82000BFF35B8F003818BF01209E
:103CA000704700BFB40600202DE9F04182B00E46F7
:103CB00001A900F043F8441E24B207E0B6F1FF3F2B
:103CC00032D04044B0422FD9013C24B2002C2ADB30
:103CD000019B04EB440203EB820513F82200FFF77B
:103CE000D5FF0028F0D16868410CC003104FC019FF
:103CF000104A4FF0000341F10001FCF7E3FB80465E
:103D0000AB68590CDB03D8190A4A4FF0000341F1A4
:103D10000001FCF7D7FB084B1B68B3F1FF3FCDD088
:103D20008342CBD8D0E70025284602B0BDE8F08119
:103D30003F420F0040420F00A000002008B9024B94
:103D40000B600020704700BFECDD000008B50248A2
:103D500007F004FC08BD00BFECDD0000D0B108B5E1
:103D60004268042A05D0D2B1006805F02DFA00207F
:103D700008BD03680022BFF35B8F53E8001F0129D1
:103D800003D143E800200028F7D1BFF35B8F04D1B3
:103D90001046EDE76FF4E04070470248E8E702485C
:103DA000E6E700BFE98FFFFFEA8FFFFF20B308B50A
:103DB0004268042A02D092B911480FE00368012238
:103DC000BFF35B8F53E8001F002903D143E80020B5
:103DD0000028F7D1BFF35B8F0CD1002008BD00682D
:103DE0004FF0FF324FF0FF3305F0CEF80028F5D04A
:103DF0000448F3E70348F1E76FF4E040704700BF81
:103E0000EA8FFFFFE98FFFFF10B5044688B16368B2
:103E1000042B0DD0082B0BD053B113F0020F0DD093
:103E20002146094804F0FAFD002323600023636063
:103E300010BD064B5B6806489847E8E7142200214E
:103E4000206808F0DCF8F1E7D00600207C010020B3
:103E5000F4DD000010B5044678B16368042B0BD084
:103E6000082B09D00BB9236863B1206808F01FFE46
:103E7000636843F00103636010BD0F4B5B680F483C
:103E80009847EAE74FF0FF324FF0FF3321460C48E6
:103E900004F04EFD08B923681BB9074B5B6809485D
:103EA000984714220021206808F0A9F8636843F0BD
:103EB00002036360D9E700BF7C010020F4DD00004D
:103EC000D00600201CDE000008B54023142204495F
:103ED000044808F098FD0449044807F09FFB08BD1A
:103EE000F0060020D00600205CDE00004CDE000062
:103EF000014910220A60704710ED00E072B64040A0
:103F000080F31188BFF36F8FBFF34F8F30BF62B65E
:103F1000BFF36F8F704700BF72B6494081F31188BD
:103F200020BF80F3118862B6704700BF70B586B0BD
:103F300005461E4E83680593436804930368039304
:103F40001B4B029300240194009423460122314626
:103F5000204607F041FF6B6905932B690493EB68DA
:103F60000393144B0293019400942346012231469B
:103F7000204607F031FFEB6903930F4B0293019446
:103F80000094234601223146204607F025FFAB6905
:103F900003930A4B02930194009423460122314675
:103FA000204607F019FF06B070BD00BF88CE0000A4
:103FB00070DE0000A0DE0000D0DE0000E0DE0000C9
:103FC00040B2002807DB00F01F02400901239340A4
:103FD000014A42F82030704700E100E04209054BF9
:103FE00053F8222000F01F00012303FA00F01040D4
:103FF000704700BF00E100E0F8B504464D1C072DF6
:104000000BD860B200281BDB6D01EDB200F16040FF
:1040100000F5614080F80053F8BD0E460C4F572361
:104020003A460C490C4807F023FE07232246314646
:104030000A4807F01DFE5721384607F012FEE0E758
:1040400000F00F006D01EDB2054B1D54E4E700BF19
:1040500010DF000048DF00002CD0000064DF00000B
:1040600014ED00E030BFFFF7FDBF00BF08B50B4BFC
:104070000B4A22F07F029A60BFF34F8FBFF36F8F1E
:10408000D3F8882022F47002C3F8882004F07CFB67
:1040900006F042FD00F06AFC04F0D4FB00ED00E005
:1040A000000000000A4A9368C3F8A800094909689B
:1040B000C3F8AC1008494B6843F080534B600023B1
:1040C00083F31188BFF36F8F9368D3F8AC00704708
:1040D0005411002004EC000000ED00E013498A6850
:1040E0004FF030001044EFF3098C80E8F01F2020DF
:1040F00080F31288BFF36F8F0D4F4FF00066CA69CF
:104100008A603E60D2F8A8000023C2F8A83080F38D
:10411000118804B5104600F0D3FCBDE8044002F15C
:10412000300090E8F01F8CF309887047541100208C
:1041300004ED00E01EF0040F0CBFEFF30880EFF376
:104140000980816911F8021C0229FFD001B507F02E
:104150005EFE01BD10B4A2F120040E4942F8081C15
:1041600021F0010142F8081C42F8203C019B42F872
:104170001C3C029B42F8183C039B42F8143C4FF055
:10418000807342F8043C04650023C0F8A83010BCDA
:10419000704700BFBBBA0000124B9A6802B310F11F
:1041A000160F11D0D2F89830A3F1200C844505D811
:1041B000834205D98B4205D800210BE0002109E09C
:1041C000002107E0012105E0D2F898308B4294BF2E
:1041D0000021012109B900207047D2F898007047EA
:1041E000002070475411002008B50D461446084BB6
:1041F000986000F065FC204685F30988002163B6CD
:1042000081F31188BFF36F8F0022002307F055FC64
:104210005411002001B572B60B4A906900281EBFE8
:104220000021916108F027FC62B6EFF30580A0F150
:1042300010004FEAC0000549014409C99847BDE88C
:10424000014003490847000054110020D8CC000069
:1042500055420000044B9968D869884203D003494D
:104260004FF080520A6070475411002004ED00E0C6
:1042700070B584B005460E461446474B02930020A5
:104280000190009003460122444907F0D4FD444BBD
:104290009B6A13F4805F25D1414B9B6A13F4006F36
:1042A0002BD13F4B9B6A13F4007F31D13C4B9B6A6F
:1042B00013F4806F4FD13A4B9B6A13F4807F55D132
:1042C000374B9B6A13F4005F5BD1354A936A43F422
:1042D0007F4393620121284607F0ABFD2070002048
:1042E00004B070BD2F4B0293002001900090034654
:1042F00001222A4907F09FFDCEE72B4B02930020B5
:104300000190009003460122244907F094FDC8E77C
:10431000264B0293002001900090034601221F4982
:1043200007F089FD1E4B9A6B9B6A13F4004FBDD0BA
:1043300003921F4B0293002001900090034601223C
:10434000164907F078FD002EB0D0154A936A23F481
:1043500000439362AAE7174B02930020019000905C
:10436000034601220D4907F066FDA4E7124B0293B4
:1043700000200190009003460122084907F05BFDF0
:10438000A3E70E4B02930020019000900346012208
:10439000024907F050FD98E7A4DF000088CE000036
:1043A00000ED00E0BCDF0000D0DF0000E4DF000033
:1043B00000E0000018E0000034E000004CE00000E5
:1043C00000B585B03A4B029300200190009003465F
:1043D0000122384907F02FFD374B9B6A13F0007F0D
:1043E00023D1354B9B6A13F0807F29D1324B9B6AD6
:1043F00013F4002F2FD1304B9B6A13F4802F35D14B
:104400002D4B9B6A13F4003F3BD12B4B9B6A13F45B
:10441000803F41D1284A936A6FEA03436FEA13430E
:104420009362002005B05DF804FB244B029300204A
:1044300001900090034601221E4907F0FCFCD0E7E2
:104440001F4B02930020019000900346012219495E
:1044500007F0F1FCCAE71B4B02930020019000908B
:1044600003460122134907F0E6FCC4E7164B02930A
:10447000002001900090034601220E4907F0DBFC6A
:10448000BEE7124B029300200190009003460122E8
:10449000084907F0D0FCB8E70D4B029300200190CB
:1044A000009003460122034907F0C5FCB2E700BFB4
:1044B0007CE0000088CE000000ED00E094E0000009
:1044C000A8E00000C4E00000E4E000000CE100000F
:1044D00028E1000000B585B000200870054B02936C
:1044E0000190009003460122034907F0A4FC05B0A7
:1044F0005DF804FB54E1000088CE000000B587B0F1
:104500000F2910DC094B103904910393084B0293D7
:1045100000200190009003460122064907F08BFC21
:1045200007B05DF804FB044BEDE700BF94E1000029
:10453000ACE1000088CE000078E10000F0B585B065
:1045400005460C4616465F4B0293002001900090F2
:10455000034601225C4907F06EFC5C4B9B6A13F03A
:10456000100F3BD1594B9B6A13F0080F41D1574BA9
:104570009B6A13F0020F47D16FF01507534B9B6AEC
:1045800013F0010F66D1514B9B6A13F0200F6CD1D1
:104590004E4B9B6A13F0100F04D14C4B9C6A14F0E5
:1045A000020404D0494B5C6814F4006468D1474BA2
:1045B0009B6A13F0200F04D0444A536A23F400533B
:1045C0005362424A936A43F0FF03936201212846F3
:1045D00007F02FFC3070204605B0F0BD3C4B029335
:1045E00000200190009003460122374907F023FC88
:1045F000B8E7384B02930020019000900346012257
:10460000314907F018FCB2E7334B029300200190C8
:104610000090034601222C4907F00DFC2B4B5F6BE9
:104620009B6A13F0800F02D16FF01507A6E703977E
:104630002A4B029300200190009003460122224958
:1046400007F0F9FB002C99D0204A936A23F08003ED
:10465000936293E7224B029300200190009003465F
:104660000122194907F0E7FB8DE71E4B029300205A
:104670000190009003460122134907F0DCFB87E715
:1046800029463846FFF788FD0746B0B90F4B9C6AAC
:1046900014F010048BD0144C40F2491322461349F5
:1046A000134807F0E5FA134807F0E2FA40F249111F
:1046B000204607F0D6FA3C4679E780F309880224C1
:1046C00075E700BFC0E1000088CE000000ED00E00B
:1046D000D8E10000D0DF00000CE2000024E200007E
:1046E0003CE200004CE000005CE2000098E20000C8
:1046F0002CD00000E4E20000F0B585B007460E467D
:104700004B4B029300240194009423460122494913
:10471000204607F090FB3470474BDD6A15F0020528
:104720002DD1454BDB6A002B36DB434BDC6A14F0A2
:1047300080446BD0414B02930020019000900346CF
:1047400001223C4907F077FBBB6933F8022C4DF698
:1047500002739A422CD0384B93F82830002B35D175
:10476000354B93F82930002B37D1334B5B8D9BB2FF
:10477000002B39D03846FFF723FE044609E0304BC2
:10478000029301940094234601222A49204607F00F
:1047900052FB204605B0F0BD2A4B02930020019049
:1047A000009003460122234907F045FB2C46F0E721
:1047B0003B680393244B0293002001900090034632
:1047C00001221C4907F037FB3C68E2E73246012131
:1047D0003846FFF7B3FE0446DBE732460121384690
:1047E000FFF746FD0446D4E7184C40F2CD2322469D
:1047F0001749184807F03CFA174807F039FA40F211
:10480000CD21204607F02DFA2C46C2E70F4D40F28D
:10481000D1232A460E490F4807F02AFA0F4807F01D
:1048200027FA40F2D121284607F01BFAB1E700BF72
:1048300008E3000088CE000000ED00E054E3000033
:1048400020E3000044E3000074E300005CE20000A9
:10485000F0D100002CD0000090E30000B4E3000091
:10486000F0B58FB0314B5D68C5F30805002383F3C5
:104870001188BFF36F8F02F07F43B3F17F4F25D1D3
:1048800002F00C03082B11D012F0080F1BD00C46BD
:104890000026F4B10DF137022946204607F0DAFA76
:1048A00005469DF837302BB30FB0F0BD204B029377
:1048B000002401940094234601221E49204607F05B
:1048C000BAFA2646E5E704460126E2E70026344622
:1048D000DFE7194F40F2FB333A461849184807F012
:1048E000C7F9184807F0C4F940F2FB31384607F021
:1048F000B8F9CFE72022214605A807F051FB4EB1B9
:104900000C9BC3F308025AB96FEA53236FEA43239F
:104910000C9305E00C9B23F4FF7323F001030C932D
:1049200005A9284607F067FABEE700BF00ED00E0E2
:10493000E4E3000088CE00005CE2000010E4000028
:104940002CD0000024E40000024A536943F0100315
:104950005361704700ED00E0EFF30880EFF3098149
:1049600001B57246FFF77CFF01BD00BF002206E0E3
:1049700002F00F01094B0B442021197601322F2A36
:104980000ADC53B2002BF3DB03F1604303F5614310
:10499000202183F80013F1E7704700BFFCEC00E032
:1049A000002080F31488BFF36F8F08F00BF900200C
:1049B0000D490860BFF34F8F0C4880F3088800F062
:1049C0002DF8202080F3118809484FF40261401827
:1049D00080F30988EFF314800221084380F31488E0
:1049E000BFF36F8FFFF742FB94ED00E0002400203F
:1049F00080250020084BD3F89000C0F30720002347
:104A000006E0054AC2F898300021C2F8A010013330
:104A10008342F6DB704700BF00ED00E010B572B6D0
:104A2000002484F31388FFF7E5FF234608E003F131
:104A300020010E4A4FF0FF3042F821000133DBB273
:104A4000072BF4D9002308E003F16001074A4FF077
:104A5000FF3042F821000133DBB2072BF4D962B6F4
:104A6000BFF34F8FBFF36F8F10BD00BF00E100E0B9
:104A700008B50A4B9B68834202D005F0ABFF08BD26
:104A8000EFF30583002BF8D0054B5A6842F08052B3
:104A90005A605A6A22F400425A62EEE7541100202A
:104AA00000ED00E008B5034B034A0121034800F084
:104AB000BBF808BD000004200000002068E40000EE
:104AC00008B5D0F89830203B0448036020234360A9
:104AD000034B8360012100F0C9F808BDF00B0020F2
:104AE00000000B15084AC2F898000B6823F01F035A
:104AF000034343F01003C2F89C308B6843F001037A
:104B0000C2F8A030704700BF00ED00E010B584B0DF
:104B10000446072804D8FFF7E5FF204604B010BD7F
:104B20000390064B0293002001900090034601225F
:104B3000034907F0C5F96FF01500EFE774E40000D2
:104B400080CE00002DE9F04385B080460F4699469F
:104B50001646002509E02146F0B207F0C0F90646E6
:104B600010F1160F1ED001360135BD421ADA05EBE1
:104B7000450408EB84046268002AF5D0B9F1000FFF
:104B8000E9D0204607F08BF90028E4D10395074BC4
:104B900002930190009003460122054907F090F925
:104BA0006FF01506304605B0BDE8F0839CE40000C8
:104BB00080CE000010B5034C01232278FFF7C2FF1E
:104BC000207010BD8513002008B50023094A127813
:104BD000FFF7B8FF10F1160F0AD0034606E0064AA9
:104BE000C2F898300021C2F8A0100133072BF6DD7F
:104BF00008BD00BF8513002000ED00E0044B052236
:104C0000C3F89420BFF34F8FBFF36F8F704700BF7F
:104C100000ED00E0BFF35F8F024B0022C3F8942049
:104C2000704700BF00ED00E038B50C46FFF7C2FF4B
:104C300010F1160F00D038BD084D40F211132A466E
:104C40000749084807F014F82146074807F010F80C
:104C500040F21111284607F004F8ECE7C0E4000028
:104C6000F0D100002CD00000F8E4000038B50C466C
:104C7000FFF7AAFF10F1160F00D038BD084D4FF412
:104C800098732A460749084806F0F2FF214607486C
:104C900006F0EEFF4FF49871284606F0E2FFECE7CD
:104CA000C0E40000F0D100002CD0000024E500009A
:104CB00038B5244B1D68082D03D8FFF7ABFF00243F
:104CC0001EE0214C4FF4A47322462049204806F0F0
:104CD000CFFF082229461F4806F0CAFF4FF4A471EF
:104CE000204606F0BEFF4FF0FF3017E0154B596825
:104CF00004EB4402930019442046FFF7F3FE01340D
:104D0000A542F3D8144B1D70FFF778FF134BD3F86F
:104D10009030C3F30723082B01D1002038BD0A4C83
:104D20004FF4D47322460E49094806F0A1FF0D48FE
:104D300006F09EFF4FF4D471204606F092FF00204B
:104D4000ECE700BF0CE60000C0E40000F0D100007A
:104D50002CD0000054E500008513002000ED00E099
:104D600088E50000D8E50000014B1860704700BFDF
:104D7000C40000200239012904D808B5034B1B6880
:104D8000984708BD4FF0FF30704700BFC4000020B7
:104D90000FB400B583B004AB53F8042B0193022188
:104DA0000348FDF713FE03B05DF804EB04B0704751
:104DB00041C0000010B54FF02003EFF3118483F3DE
:104DC0001288BFF36F8F01230C4AC2F840354FF0B1
:104DD0008042C2F8783507F037F920B14FF08043B0
:104DE0000122C3F838264FF080430122C3F8802502
:104DF00084F31188BFF36F8F002010BD00E00140E5
:104E0000C0B24FF08042C2F81C05BFF34F8F054976
:104E1000CA6802F4E062044B1343CB60BFF34F8FC8
:104E200000BFFDE700ED00E00400FA0530B108B571
:104E30008001034B43F00103984708BD704700BF52
:104E400040CF0000074B0122C3F8002590F87630D0
:104E500013B1044BDA607047024B01221A605A60AA
:104E6000704700BF0070004049B9054BD3F82C26AD
:104E7000D3F8341689B202EB4102C3F82C267047EE
:104E800000700040027CA2F10803062B0DD8DFE879
:104E900003F01E0C200C040C0A0002220E4BC3F877
:104EA000F025002070470322F8E700B585B0039293
:104EB0000A4B02930020019000900346012208490A
:104EC00007F0F9F86FF0150005B05DF804FB00225B
:104ED000E4E70122E2E700BF0070004030E6000096
:104EE00058CE000000B585B0012901D9437C4BB9EB
:104EF000437C082B13D8DFE803F02020202020205B
:104F000020202000104B02930020019000900346C7
:104F100001220E4907F0CFF86FF0150011E003935E
:104F20000B4B029300200190009003460122074999
:104F300007F0C1F86FF0150003E0064AC2F8F43537
:104F4000002005B05DF804FB58E6000058CE0000D4
:104F50008CE60000007000404900036813B19B8993
:104F600003FB0111C3688B4201D30020704700B5D9
:104F700087B004910393074B0293002001900090A7
:104F800003460122044907F096F86FF00B0007B0C2
:104F90005DF804FBB0E6000058CE000010B586B006
:104FA00000230493CDF813300A7902F01F02072A78
:104FB00000F2D0800B78092B33D8DFE803F0080526
:104FC0001A1E2232262A322E01238DF812304B78F7
:104FD000032B33D0042B34D0604B0293002001907C
:104FE0000090034601225E4907F065F86FF0150056
:104FF00091E002238DF81230E9E703238DF8123097
:10500000E5E704238DF81230E1E705238DF812302F
:10501000DDE706238DF81230D9E707238DF812302B
:10502000D5E7504B029300200190009003460122E7
:105030004B4907F040F86FF015006CE001238DF844
:1050400013304B88002B68D044F22800834274D878
:1050500044F20300834270D3A3F58043033B252B26
:105060006BD8DFE803F0166A136A6A6A6A5A6A6ADA
:105070006A6A5E6A6A6A6A626A6A6A6A6A6A6A6AA4
:105080006A6A6A6A6A6A6A6A6A6A6A6601238DF883
:1050900014300B79C3F340138DF815309DF81030A0
:1050A00003F003039DF81100000100F030000343FA
:1050B0009DF81200000200F4E06003439DF8130025
:1050C000000300F4805003439DF81400000400F432
:1050D000E02003439DF81500000500F48010034311
:1050E0009DF81600000600F0807003431E4C04EB90
:1050F0000210C0F81835887902F151034FEA031CF9
:1051000004EB03135860002044F80C004979174B56
:105110001A4482F8901006B010BD02238DF81430A6
:10512000B7E703238DF81430B3E704238DF8143068
:10513000AFE705238DF81430ABE70D4B0293002049
:105140000190009003460122054906F0B4FF6FF07C
:105150001500E0E76FF01500DDE700BFF8E600009E
:1051600058CE0000D8E6000000700040000000208B
:105170001CE70000F0B585B04E6836B10D4636F03C
:10518000FF0302D100231C4624E0544B029300206D
:105190000190009003460122514906F08CFF6FF008
:1051A00015033FE003934F4B0293002001900090C2
:1051B000034601224A4906F07EFF6FF0150331E0F5
:1051C00003F1510212014849002088500133DBB23B
:1051D000072B22D81A4626FA03F111F0010FEFD05F
:1051E0004249194491F89070002FDBD0687C011E71
:1051F00018BF0121DFF8F0C00CEB031EDEF8180524
:1052000020F0807040EA0160CEF81805513212019A
:105210004CF802700134E4B2D8E72846FFF732FEBA
:10522000034610B1184605B0F0BD21462846FFF7E9
:1052300059FE03460028F5D121462846FFF78CFE8B
:1052400003460028EED1AA68274BC3F82C26C3F8E2
:105250003046264F07F164042E460FCE0FC4336844
:10526000236000233B662B684BB107F178040FCB1A
:1052700084E80F007C660023A7F8883068B91B48D3
:10528000FFF7E0FD194C4FF0FF324FF0FF3304F110
:10529000500004F0B1F8236EC4E73C460023BFF38E
:1052A0005B8F54E8002F44E800310029F9D1BFF3A7
:1052B0005B8FA36F590CDB030D4818180D4A4FF094
:1052C000000341F10001FBF7FDF80090019100227D
:1052D000002304F1080006F063F8D3E748E7000074
:1052E00058CE000068E70000007000400000002079
:1052F0003F420F0040420F0070B504460D46094E74
:105300004FF0FF324FF0FF33304604F075F8294676
:105310002046FFF72FFF0446304604F029F82046C8
:1053200070BD00BF4000002010B50F4B0024C3F833
:105330000441D3F80421C3F81041D3F810211222FC
:10534000C3F804230720FEF73BFE22460121072075
:10535000FEF752FE054B9B6C0BB1002010BD0448BC
:1053600004F006F8F9E700BF0070004000000020DC
:1053700040000020364BD3F804317BB9344BD3F8CE
:105380001031002B62D0324B0022C3F81021D3F829
:10539000102101229A601A605A60704710B52C4B98
:1053A0000022C3F80421D3F8041101219960C3F845
:1053B0000025284B5B6E13B3264BDB6F43B12549A9
:1053C000B1F888206431984701280FD0022810D006
:1053D000204AB2F88830B2F88420934213D20133C5
:1053E0001C4AA2F8883000210B4604E0012100236A
:1053F00001E0002101234BB1164B9B6F13BB1648F4
:1054000003F0B6FF10BD00210123F4E7114C204644
:10541000FFF72AFDA36F1BB92046FFF713FDF1E745
:105420000C4BBFF35B8F53E8002F511E43E8001075
:105430000028F8D1BFF35B8F012AE3DD1846FFF7A0
:1054400001FDDFE7054807F099FBD8E7704700BF8B
:1054500000700040000000205000002008000020E4
:1054600000487047540C0020014BC01A401170478F
:105470000C0C002030B583B005460C46FFF7F4FF56
:105480000146402300932346054A064806F08FFE56
:10549000011E01DB03B030BD2846A047FAE700BF7C
:1054A000F7C1000048CC000008B50A4BBFF35B8F82
:1054B00053E8002F22F0020143E800100028F7D142
:1054C000BFF35B8F12F0010F00D008BD06F0A5FE00
:1054D000FBE700BF640C002070B50546CCB2012C80
:1054E00007D82146284606F0F5FD806800F0070041
:1054F00070BD064E792332460549064806F0B8FBD2
:105500007921304606F0ADFBEBE700BFA0E70000D5
:10551000E0E700002CD000002DE9F04107461646D8
:10552000CCB2214606F0D6FD0546012C0FD83146F7
:1055300005F1080006F0DFFD002806DB21463846AD
:1055400006F0CFFD436898470020BDE8F081DFF802
:105550001C8040F24D1342460549064806F088FB80
:1055600040F24D11404606F07CFBE0E7A0E700006A
:10557000E0E700002CD0000038B505460C46FFF7E8
:1055800073FF014640220348FFF7C6FF0146284645
:10559000A04738BD48CC000010B501281DD0032815
:1055A00020D068B1164C40F26223224615491648B5
:1055B00006F05EFB40F26221204606F052FB10E04E
:1055C0000021124806F086FD836813F0070F08D10A
:1055D00000210E4806F0D9FD03E001210B4806F03A
:1055E000D4FD10BD064C40F25E2322460549064814
:1055F00006F03EFB40F25E21204606F032FBF0E76B
:10560000A0E70000F0D100002CD0000048CC000042
:1056100000B585B0CDF800D0CDF804D000230293BA
:10562000012303936B46074A06F0DDFD002805DBE6
:105630004FF480420023684603F0DEFE05B05DF8BB
:1056400004FB00BF39C2000070B5064600220121EC
:105650001046FEF7D1FC114801F08CFD104B98422A
:1056600019D101F0B1FD0024012C12D82146304699
:1056700006F030FD05462146304606F038FD094962
:1056800006F0FFF9002805DB0123AB601C44E4B2FF
:10569000EAE7002070BD6FF00400FBE799550000B9
:1056A0000000AD0B5CE8000070B50546012807D18D
:1056B0004FF08043D3F81C3403F00303012B5AD07E
:1056C00007F0C2F928B92F4B1B78002B43D00023D9
:1056D00000E001231C46002B3FD04FF02003EFF3E6
:1056E000118683F31288BFF36F8F24B94FF0804384
:1056F0000222C3F808234FF08042D2F8183403F096
:105700000303D2F8182412F4803F2DD100221AB1DD
:10571000012B2BD0012D29D00CB33046FEF7FCFB1A
:105720004FF08043D3F81835002BE4D14FF080437D
:10573000D3F80431002BDED04FF080430022C3F8B1
:105740000421D3F804210122C3F818250E49C1F819
:1057500080219A60CFE70123BCE70026C5E721201E
:10576000002105F0E5F8DBE70122D0E724B186F35C
:105770001188BFF36F8F70BD4FF080430222C3F8D2
:105780000423F8E78613002000E100E010B54FF095
:105790002003EFF3118483F31288BFF36F8F134A52
:1057A000136843F00203136013F0010F08D10023C4
:1057B00084F31188BFF36F8F9BB906F024FD10BDF1
:1057C0004FF08043D3F80C24D3F80C3412F0010FBF
:1057D00001D10023ECE7FFF743FE06F0C3FC0123F1
:1057E000E6E70021024806F0D0FCE8E7640C002060
:1057F00048CC000038B504461F4B0121BFF35B8F36
:1058000053E8002F43E800100028F9D1BFF35B8F65
:1058100042B134B1631EDBB2012B1FD82046FFF723
:1058200043FF38BD154806F062FC154900234B6064
:105830008B60CB6001238B60FCF7D4FD0028E8DA95
:10584000104D4FF408732A460F49104806F010FA1D
:105850004FF40871284606F004FADAE7094C40F2E2
:10586000322322460A49094806F002FA40F2322160
:10587000204606F0F6F9D4E7680C002048CC00007A
:10588000FC0B0020A0E7000068DC00002CD000002A
:10589000F0D1000010B504460A2807D0074B18685D
:1058A000E1B283685B689847204610BD034B1868D7
:1058B00083685B680D219847F0E700BF6C0C0020FF
:1058C00010B5044C2046FFF74FFA2046FCF7F0FADB
:1058D00010BD00BF9558000008B50648064B18607B
:1058E00007F056F818B1FFF7EBFF002008BD6FF086
:1058F0001200FBE7A8CC00006C0C002028B10128A6
:1059000001D103487047002070470248704700BF2C
:1059100060CC000078CC00002DE9F0411646056906
:105920002F1D0C4631B16368A3B16B68002B3BD0CF
:1059300000212AE0DFF894802423424624492548A8
:1059400006F096F9244806F093F92421404606F023
:1059500088F9E8E7DFF87480252342461F491D488F
:1059600006F086F91E4806F083F92521404606F028
:1059700078F9DAE723686B607A6894420FD17B602C
:105980000DE079600BE019461B685BB19C42FAD1CF
:105990000029EFD023680B607B689C42F1D0002384
:1059A0002360012303B956B166B16B6823606C6054
:1059B0007B680BB1002006E07C60002003E06FF004
:1059C000150000E00020BDE8F08100BF68E800009D
:1059D00098E800002CD00000A4E80000B4E8000023
:1059E000C8E800002DE9F04100F01F044009FFF76E
:1059F00085FF80B3074603690126A6405C681CB199
:105A000025467CB125680DE025460BE06368A26859
:105A10003240214638469847DDB12B4605B12B6808
:105A20002C461D46BCB1A3681E42F5D06368002B0E
:105A3000ECD1DFF82880452342460949094806F0A1
:105A400017F9094806F014F94521404606F009F90E
:105A5000DCE72B46E4E7BDE8F08100BF68E8000022
:105A6000E0E800002CD00000C8E80000F0B585B0E8
:105A70000E46194643681B7B06F01F0444EA431494
:105A8000B2F5001F22D00746154600230293039368
:105A9000104606F04FFC8DF808007B689968F140CD
:105AA00011F0010102D1B5F1A07F14D0002302AAA8
:105AB0001946204602F002F8324B98425FD101218C
:105AC000204602F05FFA002005B0F0BD204602F04B
:105AD00065FB0020F8E763091FD0012B01D14FF6C9
