:10000000805900205D36000029A000001536000050
:1000100015360000153600001536000000000000FF
:10002000000000000000000000000000F12D0000B2
:100030001536000000000000992D00001536000064
:10004000D12E0000D12E0000D12E0000D12E0000B4
:10005000D12E0000D12E0000D12E0000D12E0000A4
:10006000D12E0000D12E0000D12E0000D12E000094
:10007000D12E0000D12E0000D12E0000D12E000084
:10008000D12E0000D12E0000D12E0000D12E000074
:10009000D12E0000D12E0000D12E0000D12E000064
:1000A000D12E0000D12E0000D12E0000D12E000054
:1000B000D12E0000D12E0000D12E0000D12E000044
:1000C000D12E0000D12E0000D12E0000D12E000034
:1000D000D12E0000D12E0000D12E0000D12E000024
:1000E000D12E0000D12E0000D12E0000D12E000014
:1000F000D12E0000D12E0000D12E0000D12E000004
:1001000053B94AB9002908BF00281CBF4FF0FF317E
:100110004FF0FF3000F00CB8ADF1080C6DE904CEE3
:1001200000F008F8DDF804E0DDE9022304B07047D0
:10013000704700BF2DE9F04F07468C460846099EE0
:1001400015463C461946002B40F0C6808242B2FA62
:1001500082F746D94FB1C7F1200E24FA0EFE00FAFD
:1001600007F3BD404EEA030CBC404FEA15481FFAA6
:1001700085FEBCFBF8F9220C08FB19C309FB0EFA3B
:1001800042EA03439A4528D9EB1809F1FF3004D21B
:100190009A4502D9A9F102002B44A3EB0A03A4B2A9
:1001A000B3FBF8F208FB123302FB0EFE44EA0344F1
:1001B000A64514D92C1902F1FF3303D2A64501D963
:1001C000931E2C44A4EB0E0443EA00401EB1FC40F5
:1001D000002334607360BDE8F08F4846DDE71346C6
:1001E000F0E702B9FFDE87BB831A01214FEA154E03
:1001F000AAB2B3FBFEFC200C0EFB1C330CFB02F876
:1002000040EA0343984563D9EB180CF1FF3004D260
:10021000984502D9ACF102002B44A3EB0803A4B229
:10022000B3FBFEFC0EFB1C330CFB02F244EA03445E
:10023000A2424FD92C190CF1FF3304D2A24202D9A9
:10024000ACF102032C44A41ABEE7C7F1200C20FA3B
:100250000CF800FA07F324FA0CFCBD404CEA030248
:100260004FEA154EABB2B8FBFEFC110C0EFB1C8026
:100270000CFB03F941EA0040814504FA07F423D955
:1002800028180CF1FF3104D2814502D9ACF10201EA
:100290002844A0EB090092B2B0FBFEFC0EFB1C0050
:1002A0000CFB03F842EA004398450FD9EB180CF118
:1002B000FF3204D2984502D9ACF102022B44A3EBE1
:1002C000080342EA014191E76146E2E76246F6E748
:1002D0006046A2E76346B6E7834205D90EB1C6E998
:1002E00000700021084676E7B3FA83F181B98342B2
:1002F00001D3BA420AD8BC1A60EB030301209C4622
:10030000002E68D0C6E9004C002164E70846F7E7F4
:10031000C1F1200C8B4022FA0CF41C4302FA01F5C7
:1003200000FA01F327FA0CF220FA0CFB4FEA144909
:100330001343BBFBF9F81FFA84FE09FB18BB1A0C28
:1003400008FB0EFA42EA0B42924507FA01F73ED942
:10035000A21808F1FF3004D2924502D9A8F1020098
:100360002244A2EB0A029BB2B2FBF9F809FB182265
:1003700008FB0EFE43EA024296452AD9A21808F16C
:10038000FF3304D2964502D9A8F10203224443EA7E
:100390000040A0FB0593A2EB0E029A42CE4698467F
:1003A00002D306D14F4504D2B9EB050E63EB040826
:1003B000013886B1B7EB0E0362EB080707FA0CFCB5
:1003C000CB404CEA0303CF40C6E900379CE74046E8
:1003D000C7E74346DBE73146FDE600002DE9F04F75
:1003E00089B05F4809F0C0FB0AF07DFC4A0142EA8F
:1003F000D06243011B1A62EB0102920042EA93723F
:100400009B001D1842EB0103DB0043EA5573C5F363
:10041000103545EA4345DB0B15F57A7543F10006C7
:100420004FF47A794FF00008CA46C346CDF81480DD
:10043000CDF8188074E00131012900DD0124013379
:100440005F2B09DC474A02EBC012D25C802AF2D053
:100450000129F1DD0021F2E701303F2802DC002113
:100460002023EDE764BB4049404809F07DFB0AF0DA
:100470003AFC4A0142EAD06243011B1A62EB0102D4
:10048000920042EA93729B001B1842EB0107FF00A7
:1004900047EA5377C3F3103444EA4744FF0B079409
:1004A000059BE21A069B67EB0303524573EB0B01B6
:1004B00008DB914578EB030106DA9146984603E0A4
:1004C0002B49D1E792469B460AF00DFC4B0143EACB
:1004D000D0634201121A63EB01039B0043EA92735B
:1004E0009200121843EB0103DB0043EA5273C2F39C
:1004F0001032CDF80890CDF80C80CDF800A0CDF8E2
:1005000004B042EA4342DB0B1A491B4809F02CFBBA
:10051000079BAB4277EB060308DB079B0593069727
:10052000164809F021FB0024204696E72B1B23EAFE
:10053000E373D917C90341EA5341DB0340F2E730C3
:1005400018184FF47A724FF0000341F10001FFF7E1
:10055000D7FD08F031FC15F57A7546F10006DCE7A9
:1005600070B000000000002068B00000B8B00000CB
:100570006CB00000DCB00000ECB0000098B00000EF
:1005800000B589B000220023CDE90623002304939F
:1005900001220392029301930093064B4FF4806271
:1005A0000549064806F0F6FE054B186009B05DF8EF
:1005B00004FB00BFDD03000060510020C0410020AB
:1005C000F84300202DE9F04F8DB0059203931346B8
:1005D00002F004020192C3F3C20210F0030302937B
:1005E00040F0938207468A460132041D002841D01C
:1005F00027B1E31B0433534500F28A82039B5D1E3F
:10060000DDF808B0CDF810B0CDF818B000264FF0E6
:100610000408C1460FB1039B2360531E0793002AB1
:1006200040F3B780059B13F0020221D00120E11BAB
:100630008B081AB1B1F5007F80F0BF80BBF10F0FBE
:1006400000F2CE80002F00F0E280DBB20CAA5A4408
:1006500002F8103C002800F0D68063F07F030CAA5B
:100660005A4402F8103C049B013304930BF1010B34
:100670000434F6E001F0070A5444CAF1080AB7E767
:10068000252B40F0ED8001264FF00408C146E7E03D
:100690004FF00808C146E3E04FF00408C146DFE030
:1006A0004FF00408C146DBE02A786C2A26D00026E9
:1006B00004EB0802013AC8F100010A40144627B1D0
:1006C000D11B4944514500F22682732B59D0B9F110
:1006D000040F00F0A880B9F1080F40F0AC80169B21
:1006E000073323F0070303F108011691D3E9000152
:1006F0000FB1C2E9000102F10804B1E01CF8022CBC
:100700006C2A04D000264FF00408C146D0E700262A
:100710004FF00808C146CBE72B784C2B1CD0169B1A
:10072000073323F0070303F108021692D3E900010F
:10073000E21D22F0070247B1D31B0833534515D8F9
:100740002B784C2B15D0C2E9000102F108040026D9
:100750004FF00808C14683E0169B073323F00703D8
:1007600003F108021692D3E90001E1E76FF01B00E4
:10077000C8E1C2E90001E8E700264FF00408C146DD
:1007800096E7169B1A1D16921B680393079A6546F7
:1007900040E7BB4B039A9A4204D3BA4B9A420AD31E
:1007A000002300E00023002B7FF43CAF059B03F007
:1007B000020200203BE70123F5E7B34C4FF4F87346
:1007C0002246B249B24809F054FBB24809F051FB45
:1007D0004FF4F871204609F045FB6FF0150091E1E8
:1007E000A94C40F2F5132246A849A94809F041FB5B
:1007F000A94809F03EFB40F2F511204609F032FB12
:100800006FF015007EE1069B013306932EE708B9D1
:10081000019B13B10AF1010A28E7039809F0A3FC30
:10082000831C9A4422E7169B191D16911B6807B179
:100830001360141D14E0944C40F231232246934976
:10084000934809F016FB4946944809F012FB40F220
:100850003121204609F006FB6FF0150052E1002619
:10086000654605F1010C6B78002B00F0C180002E6D
:100870003FF406AFA3F120015A29F0D801A252F8A3
:1008800021F000BF610800005F0800005F08000061
:10089000610800005F0800005F0800005F080000BA
:1008A0005F0800005F0800005F080000B10600005C
:1008B000610800005F080000610800006108000096
:1008C0005F08000061080000610800006108000086
:1008D0006108000061080000610800006108000074
:1008E0006108000061080000610800005F08000066
:1008F0005F0800005F0800005F0800005F0800005C
:100900005F0800005F080000190700005F08000092
:100910005F0800005F0800001907000019070000C9
:10092000190700005F0800005F0800005F08000072
:100930005F080000610800005F0800005F08000019
:100940005F0800005F0800005F0800005F0800000B
:100950005F0800005F0800005F0800005F080000FB
:100960005F080000A90600005F0800005F080000A3
:100970005F0800005F0800005F0800005F080000DB
:100980005F0800005F080000190700005F08000012
:10099000A9060000A90600001907000019070000B9
:1009A0001907000061080000A90600009106000078
:1009B0005F080000610800005F0800007907000080
:1009C000A9060000790700005F0800005F0800002A
:1009D00079070000A1060000A90600005F080000DA
:1009E0005F080000A90600005F08000099060000EB
:1009F000E31BB3F5806F11D21FB300223A609B084E
:100A00003B70019B0BB3069BFB70049BBB70ABBBA5
:100A1000029DDDF81090DDF80C8058E01A4C40F291
:100A20003D23224619491A4809F023FA1C4809F0C7
:100A300020FA40F23D21204609F014FA6FF015002B
:100A400060E05344A3F108005CE0069B7B70DCE7A8
:100A500004F8011B01339B45DAD90CAA1A4412F899
:100A6000101C12F9102C002AF4DA01F07F01E21BAD
:100A700001325245ECD96FF01B0043E0029BEAE7DC
:100A800018AD0000F4CC000038B100003CB8000004
:100A900080B10000A0B10000C4B10000E0B10000CE
:100AA000F8B10000019BF3B1029EE31B3344013314
:100AB000534533D80CAB2B4413F8103C04F8013BDE
:100AC00032464146204609F061FB34440135AB45CE
:100AD00017D9B9F1000FE5D00CAB2B4413F9103C3A
:100AE000002BDFDAF2E70CAB2B4413F8103C57F87D
:100AF0002380002247F82320404609F034FB461C9F
:100B0000D3E7E01B0DB0BDE8F08F6FF00D00F9E703
:100B10006FF01B00F6E76FF01B00F3E76FF01B00B0
:100B2000F0E700BF38B50446436803F00303816073
:100B3000022B03D9032B02D100680EE063B9084DE4
:100B400045232A460749084809F093F945212846D4
:100B500009F088F9002000E000200023636038BD20
:100B600010B200003CB8000080B10000014B1860DA
:100B7000704700BF0040002038B504468C46838B88
:100B8000002A14DB03F007035A1F012A1BD9042B88
:100B900050D02F4C40F21B1322462E492E4809F00C
:100BA00068F940F21B11204609F05CF938BDD0E924
:100BB00000018CE8030000232360636001212046CC
:100BC00008F0E0FFF2E7D0E900018CE80300002222
:100BD00022606260062B0FD0052B1DD1002120461C
:100BE00008F0D0FF204608F0F4FF0028DED0A38BE9
:100BF00043F02003A383D9E7DCF800303BB1E28B5C
:100C00000132E283002BF9D01B68002BF6D10221C0
:100C1000204608F0B7FFE5E70D4D40F209132A46DC
:100C20000E490D4809F025F940F20911284609F04E
:100C300019F9D3E7002108F0A5FF204608F0C9FF05
:100C40000028B3D0A38B43F02003A383AEE700BFFB
:100C500034B200003CB8000080B1000058B200007F
:100C60002DE9F04F83B004461646838B03F0070747
:100C700003F008080D4631B1B8F1000F12D100237E
:100C800000930193AAE0DFF8E09240F233134A4662
:100C9000B649B74809F0EDF840F23311484609F07B
:100CA000E1F8E9E7012D13D0022D16D1A38B43F013
:100CB0002003A3831434204606F034FA002800F001
:100CC0009C8186F31188BFF36F8F03B0BDE8F08F6E
:100CD000A38B43F01003A383ECE7A34D4FF49E7363
:100CE0002A46A449A24809F0C4F84FF49E71284648
:100CF00009F0B8F8DAE7204608F06BFF05466FE028
:100D0000D4F818904A4669462046FFF735FF00257B
:100D100011E0002F40F081802368002B00F08B80D1
:100D200023691D68002D00F094800621204608F0FC
:100D300029FF4FF00009A38B03F00708B84500F026
:100D40000B81A268002A00F00981012217461AB916
:100D5000009A002A00F0048143F00803A38304F101
:100D6000140A504606F0DEF9002800F0158186F3DB
:100D70001188BFF36F8F002F40F01F81009B2BB1B4
:100D80004B4642466946204608F065FF15B17A4950
:100D90002046A8474FF02003EFF3118683F3128813
:100DA000BFF36F8F504606F0ADF9002800F00B81BD
:100DB000504606F0C7F9A38B23F00803A383A38B47
:100DC00013F0100F00F00F8123F01003A38301250F
:100DD000A78B07F00707002D3FF46CAF022D8AD0D8
:100DE000002D3FF467AF012D8AD0032D91D0042D43
:100DF0003ED0052D40F0A080012F72D12368002B3A
:100E00007DD023699D68002D00F087800521204654
:100E100008F0B8FE4FF000098DE7534D4FF4AB7367
:100E20002A465649524809F024F84FF4AB71284637
:100E300009F018F870E74C4D40F257132A46504914
:100E40004B4809F016F840F25711284609F00AF805
:100E500066E7DFF814814FF4AD73424649494448D0
:100E600009F007F84FF4AD71404608F0FBFF5CE76E
:100E7000022F0BD1E38BBBB923695D6815B3042145
:100E8000204608F07FFE4FF0000954E7364D40F24F
:100E90005D132A463C49364808F0EBFF40F25D11ED
:100EA000284608F0DFFFE5E72F4D4FF4AF732A46E1
:100EB00036492F4808F0DDFF4FF4AF71284608F09F
:100EC000D1FFD9E7DFF8A08040F2611342462D49F7
:100ED000274808F0CEFF40F26111404608F0C2FFFB
:100EE000CDE7214D4FF4B2732A462949204808F036
:100EF000C0FF4FF4B271284608F0B4FF7EE71A4DE8
:100F000040F265132A461E49194808F0B2FF40F224
:100F10006511284608F0A6FF73E7DFF84C804FF410
:100F2000B47342461749124808F0A3FF4FF4B47156
:100F3000404608F097FF69E70B4D40F26B132A46D5
:100F400014490B4808F095FF40F26B11284608F051
:100F500089FF0025A946EEE60022F7E60022F5E625
:100F6000002D7FF4F9AE2AE734B2000080B2000011
:100F700080B1000090B2000035100000A4B2000063
:100F8000B0B20000D4B20000ECB2000004B3000024
:100F900014B300003CB80000DFF880B0B9235A4613
:100FA0001F49204808F065FF51461F4808F061FFBF
:100FB000B921584608F056FFD9E64A464146204630
:100FC00008F0E8FDDAE6154D8E232A461749154844
:100FD00008F04FFF5146164808F04BFF8E21284677
:100FE00008F040FFE4E613F0200F04D023F02003C4
:100FF000A3830225ECE60025EAE6084DB9232A463C
:101000000749084808F035FF2146074808F031FF36
:10101000B921284608F026FF53E600BF2CB3000094
:101020005CB3000080B1000074B300008CB300001A
:10103000A4B300002DE9F04104460D4600F114066A
:101040004FF02003EFF3118783F31288BFF36F8F04
:10105000304606F057F850B1304606F073F8A561F7
:101060003A4601212046FFF7FBFDBDE8F081DFF89D
:1010700020808E2342460749074808F0FAFE314691
:10108000064808F0F6FE8E21404608F0EBFEE3E746
:101090002CB300008CB3000080B10000A4B30000AA
:1010A0002DE9F84F0446884608F0ACFD061E58DBD3
:1010B00004F114074FF02003EFF3118983F3128832
:1010C000BFF36F8F384606F01DF8E8B1384606F0DA
:1010D00039F8A58B05F00705E38B4FF6FF729342B5
:1010E00056D02E46022D1FD02DB3042D23D0062D11
:1010F00021D0052D53D0012D36D16FF004064FF0CD
:10110000000A534652461CE03C4D8E232A463C4979
:101110003C4808F0AEFE39463B4808F0AAFE8E2156
:10112000284608F09FFED1E70133E3834FF0010A20
:1011300000231A4605E0B5FA85F35B094FF0000A73
:10114000012242B10022C8F80020626872B3C2F8DE
:101150000080C4F8048073B34A4602212046FFF79A
:101160007FFD3046BDE8F88F284E40F2C913324665
:101170002749244808F07DFE40F2C911304608F0A6
:1011800071FE6FF004064FF0000A53465246D8E74E
:101190006FF00A064FF0000A53465246D1E76FF04F
:1011A00085064FF0000A53465246CAE7C4F8048049
:1011B000C4F80080CFE7384605F0B4FF68B189F382
:1011C0001188BFF36F8FBAF1000FCAD000232A46EF
:1011D0004146204608F02CFDC3E7DFF820B0B923D4
:1011E0005A460C49074808F044FE39460A4808F0B8
:1011F00040FEB921584608F035FEE0E72CB3000068
:101200008CB3000080B10000A4B3000034B2000031
:1012100014B300005CB3000074B300002DE9F04784
:1012200006460D461446B2F5802F22D2042C31D941
:10123000221FEC1D24F00704154425F007052D1B83
:101240004FEAD508172D36D93460C4F8088000233A
:10125000E360B8FA88F6C6F12007C6F12406B600A6
:1012600007364FEAD60909F10103434534D8002374
:1012700049E0384F40F2E3133A463749374808F01F
:10128000F8FD374808F0F5FD40F2E311384608F064
:10129000E9FDCBE72F4F4FF4F5733A4631492F481C
:1012A00008F0E7FD304808F0E4FD4FF4F5713846EA
:1012B00008F0D8FDBCE7274F40F2F3133A462B491C
:1012C000264808F0D6FD284808F0D3FD40F2F31177
:1012D000384608F0C7FDB7E7DFF878A04FF4017390
:1012E000524623491D4808F0C4FD1F4808F0C1FDBF
:1012F0004FF40171504608F0B5FDB8E71A1D002102
:1013000044F822100133BB42F8DB4FEA49039BB299
:1013100063800022228043F001036380A8EB090868
:101320004FEA480126F00706B31CE15224F8069064
:1013300025F00703A91C6252254424F803806B881A
:1013400043F001036B804946204608F0E9FCBDE804
:10135000F08700BFBCB3000090B4000080B1000073
:10136000A8B40000C0B40000E4B4000000B5000060
:101370002CB5000070B582B00446002303604360C2
:1013800083604B78252B02D04E1C01251FE0881C62
:10139000E37045E1237843F004032370B5B10136CF
:1013A00014E0237843F008032370F7E7237843F031
:1013B00010032370F2E7237843F020032370EDE756
:1013C000237843F040032370E8E7002545B33378E2
:1013D000203B102BF9D801A252F823F0AD130000E6
:1013E000CB130000CB130000B7130000CB13000099
:1013F000CB130000CB130000CB130000CB13000075
:10140000CB130000CB130000A3130000CB1300008C
:1014100095130000CB130000CB130000C113000094
:10142000237803F04403442B5FD00196237843F0E4
:101430008003237033782A2B5CD001A808F07CFC51
:10144000019B9E420FD0237843F08003237060609D
:10145000DBB2C3F34003002854DB0022134322789D
:1014600063F341022270019B01931B782E2B14BF62
:1014700000230123627863F341026270002B43D0A2
:10148000019B5A1C01925B782A2B3FD001A808F0DF
:1014900053FCA0602378C3F3400300283EDB002206
:1014A0001343227863F341022270019803784C3B86
:1014B0002E2B00F29D80DFE803F0909B9B9B9B9B73
:1014C0009B9B9B9B9B9B9B9B9B9B9B9B9B9B9B9B6C
:1014D0009B9B9B9B9B9B339B579B459B9B9B9B9B5E
:1014E0009B9B899B9B9B9B9B820023786FF386131E
:1014F00023709AE7637843F0010363703346013346
:101500000193B1E70122A9E70198CFE7637843F09F
:1015100004036370104601300190C7E70122BFE762
:10152000421C4378682B06D06378022161F3C6031E
:10153000637010461EE06378012262F3C603637095
:10154000023017E0421C43786C2B06D063780321ED
:1015500061F3C603637010460CE06378042262F303
:10156000C6036370023005E06378052262F3C603A8
:101570006370013010F8013BE370A3F14102372A98
:101580007DD8DFE802F05E7C7C7C5E5E5E7C7C7CED
:101590007C7C7C7C7C7C7C7C7C7C7C7C7C4F7C7CB8
:1015A0007C7C7C7C7C7C5E7C4F3A5E5E5E7C3A7CA4
:1015B0007C7C7C654F717C7C717C4F7C7C4F63783C
:1015C000062262F3C60363700130D3E76378072213
:1015D00062F3C60363700130CCE76378082262F3DC
:1015E000C60363700130237843F002032370C1E720
:1015F00063786FF3C6036370BCE7A278012161F3DF
:101600000202A270627802F07802402A10D0632BA6
:1016100013D02378C3F34002154365F341032370CD
:1016200002B070BDA278022161F30202A270E9E764
:10163000217841F001012170E9E7151E18BF01254D
:10164000E7E7A378042262F30203A3700125E0E731
:10165000A378032262F30203A370637803F0780394
:10166000402BD6D10125D4E7A378032262F30203ED
:10167000A370637813F0780FCBD00125C9E72378E6
:1016800043F001032370C4E72DE9F04F91B0064603
:101690000D4691460393002499F80000002800F0BD
:1016A000D582252808D009F101092946B04700282C
:1016B000C0F2CD820134EFE7002304930593069333
:1016C000079308930993494606A8FFF753FE029033
:1016D0009DF8193013F0010F00F09780039B1A1D3D
:1016E00003921F68002FC0F288809DF8193013F014
:1016F000040F00F09C80039B1A1D0392D3F800A0F6
:10170000BAF1000FC0F28A800023079308939DF876
:101710001A3003F007039DF81910C1F3C301012B20
:1017200000F08E80022B00F0D380042B00F0248187
:10173000032B00F03B819DF8188018F0030B40F05C
:101740003B819DF81B30253B532B00F2E681DFE8FF
:1017500013F04001E401E401E401E401E401E401E7
:10176000E401E401E401E401E401E401E401E40151
:10177000E401E401E401E401E401E401E401E40141
:10178000E401E401E401E401E401E401E401E40131
:10179000E401E401E401E401E401E401E401E40121
:1017A000E401E401E401E401E401E401E401E40111
:1017B000E401E401E401E4018101E401E401E40164
:1017C000E401E401E401E401E401E401E4015E0177
:1017D0006701E401E401E401E4016701E401E401DB
:1017E000E401E401BE018101A201E401E4014D0133
:1017F000E4018101E401E40181019DF8183043F026
:1018000004038DF818307F426FE79DF91830002BE4
:1018100002DB4FF0FF3768E7079F66E79DF8193056
:101820006FF341038DF819304FF0FF3A6CE713F076
:10183000020F02D0DDF820A066E74FF0FF3A63E721
:10184000CB1E042B04D8DFE803F00B1D293535002F
:10185000039B1A1D03921B68DA170493059206E096
:10186000039B1A1D03921B68DA1704930592012942
:1018700028D002297FF45FAFBDF91030DA17049346
:10188000059258E7039B073323F0070303F108028F
:101890000392D3E90023CDE90423E8E7039B073350
:1018A00023F0070303F108020392D3E90023CDE9F3
:1018B0000423DCE7039B1A1D03921B68DA170493C9
:1018C0000592D4E79DF8103004930023059332E786
:1018D000CB1E042B04D8DFE803F00B1F3541410079
:1018E000039B1A1D03921B680493002305931EE0BB
:1018F0009DF81B30632B07D0039B1A1D03921B68B6
:1019000004930023059312E0039B1A1D03921B68A6
:101910000493002305930AE0039B073323F0070396
:1019200003F108020392D3E90023CDE9042301293E
:101930001CD002297FF4FFAEBDF8103004930023C1
:101940000593F8E6039B073323F0070303F108022E
:101950000392D3E90023CDE90423E8E7039B1A1D92
:1019600003921B68049300230593E0E79DF8103071
:10197000049300230593DEE608290BD0039B07336D
:1019800023F0070303F108020392D3E90023CDE912
:101990000423D0E6039B073323F0070303F1080277
:1019A0000392D3E90023CDE90423C4E6039B1A1D67
:1019B00003921B680493BEE6029F3B464A462946B3
:1019C000304608F035FA0028C0F241810444B94697
:1019D00062E629462520B0470028C0F2388101344C
:1019E000D8460DF13E0A4FF000099BE0DDF810905B
:1019F000BAF1000F07DB5146484608F0BDFB09EB82
:101A0000000AD8468EE0484608F0ADFBF7E7049B95
:101A10008DF82830D8460DF1290A0DF1280981E00A
:101A200018F0080F05D118F0100804D04FF0200866
:101A300001E04FF02B08049A059B002B02DB049277
:101A4000059308E0524263EB4303049205934FF081
:101A50002D0800E0D8460DF13E0300930AAB06AA1C
:101A6000DDE9040108F07AF98146BAF1000FC0F20D
:101A700088800DF13E03A3EB09039DF818206FF356
:101A800086128DF818209A457ED9AAEB0303079396
:101A90000DF13E0A46E0049828B9D846DFF8B4A113
:101AA000AAF105093EE00DF13E0300930AAB06AA38
:101AB000002108F053F981469DF81A3043F01003D5
:101AC0008DF81A3078238DF81B30D846CDE7049A6C
:101AD0009DF81930C3F3C303072B06D8DFE803F0E2
:101AE000040B0D0F1115191B1460D8460DF13E0A99
:101AF0004FF0000916E01470F7E71480F5E7146062
:101B0000F3E7E31714605360EFE7E31714605360E3
:101B1000EBE71460E9E71460E7E7D8460DF13E0A09
:101B20004FF00009B9F1000F00F08D80AAEB090316
:101B3000B8F1000F00D001339DF81A2012F0100FF9
:101B400025D0023307990B4412F0400F01D0089AB8
:101B50001344002F31DDFF1A9DF8183013F0040FE5
:101B60002BD113F0400F17D0B8F1000F17D0294632
:101B70004046B04700286ADB0134D8464FF0300BAE
:101B80000FE00DF13E0ACDE70DF13E0ACAE712F073
:101B9000080FD7D00133D5E74FF0200B01E04FF00D
:101BA000300B3B465F1E002B07DD29465846B047E9
:101BB00000284CDB01343B46F4E7B8F1000F05D0B8
:101BC00029464046B047002841DB01349DF81A30D1
:101BD000C3F30012C3F3C003134305D029463020DA
:101BE000B047002833DB01349DF81A3013F0100F92
:101BF00006D029469DF81B00B047002827DB01349A
:101C0000079B03F1FF38002B07DD29463020B04742
:101C100000281CDB01344346F3E753464A46294675
:101C2000304608F005F9002811DB0444002F07DDD9
:101C300029462020B047002809DB0134013FF5E7A1
:101C4000DDF8089028E5DDF8089025E5204611B07C
:101C5000BDE8F08F5DB5000008B54FF02002EFF34E
:101C6000118382F31288BFF36F8F01F007FF0348DF
:101C700007F07AFF00F0A0FFFCE700BF60B50000AE
:101C8000002950D12DE9F8430746002422E0DFF86F
:101C900098904FF499734A462449254808F0E9F88A
:101CA0004FF49971484608F0DDF81FE0DFF87890AE
:101CB00085234A461D491E4808F0DBF88521484621
:101CC00008F0D0F81EE058F805301B683946304659
:101CD00098470134174B184A9B1AB4EB231F20DA9C
:101CE0004FEA0418144D15EB0416D0D073685B79D5
:101CF000002BEED03946304608F0CCF80028E8D06A
:101D0000002ED3D0002FDED1DFF81C9086234A4668
:101D10000A49074808F0ADF88621484608F0A2F8BD
:101D2000D1E7BDE8F88370478CB50000C4B500006A
:101D300080B10000E8AF0000C8AF0000DCB50000D3
:101D4000014B53F82000704760B60000F8B5204BF7
:101D5000204A9B1A1E11902B0ED81F4BBFF35B8F8E
:101D600053E8002F511C43E800100028F8D1BFF3BE
:101D70005B8F5ABB002417E0184C40F273232246B5
:101D80001749184808F075F840F27321204608F00A
:101D900069F8E2E70F4B03EB07135B68042219684D
:101DA000284600F0D3F80134B4420FDA2746094D33
:101DB00005EB04152B7B002BF5D02301054AD358E6
:101DC0009B69002BE6D028469847E3E7F8BD00BFA3
:101DD000E8AF0000C8AF000004440020F0B50000E8
:101DE00038B6000080B1000038B108B5044A106070
:101DF000084600F0BFFA002008BD6FF015007047DC
:101E00000440002008B50023044A1370044A1360FC
:101E10004FF400410348FFF7E7FF08BD5151002090
:101E200000440020999E0000204B1B7803B17047AE
:101E30002DE9F041FFF78AFF002413E0DFF87080FE
:101E40004FF4997342461B491B4808F012F84FF4AF
:101E50009971404608F006F80FE07B595B693046FF
:101E600098470134154B164A9B1AB4EB231F17DA17
:101E70002701134D15EB0416E0D073685B79002B36
:101E8000EFD0002EE9D1DFF82880D7234246094958
:101E9000094807F0EEFFD721404607F0E3FFDCE7F3
:101EA000024B01221A70BDE8F08100BF51510020A1
:101EB0008CB50000C4B5000080B10000E8AF0000A0
:101EC000C8AF0000014B01221A707047505100202A
:101ED0000D4BBFF35B8F53E8002F013243E8002125
:101EE0000029F8D1BFF35B8F00B97047074BBFF3F0
:101EF0005B8F53E8002F013A43E800210029F8D115
:101F0000BFF35B8FF1E700BF00440020FC430020DB
:101F100010B50446044B1B689847A060002120467A
:101F2000FFF7AEFE10BD00BF04400020054B064A7F
:101F30009B1AB1EBD30F02D252F831007047002048
:101F4000704700BFC8AF000080AF0000F8B504467E
:101F50000E461E4D451B2D11013503681B6863B1EC
:101F6000EDB2CCB163681D7114B363681E60636821
:101F700001225A71FFF7A6FFF8BD154FBB233A4661
:101F80001449154807F075FF144807F072FFBB218C
:101F9000384607F067FFE3E7114FE6233A46114959
:101FA0000D4807F066FFE621384607F05BFFD9E7EA
:101FB0000B4D40F217132A460A49074807F059FF0C
:101FC00040F21711284607F04DFFCEE7C8AF0000DA
:101FD0006CB60000C8B6000080B10000E0B600009A
:101FE0008CB50000C4B500000EB400B582B0014647
:101FF00003AB53F8042B01930348FFF745FB02B0F2
:102000005DF804EB03B07047CD9E000030B585B09D
:1020100011F0440F05D01A4B1C6834B9002005B0EC
:1020200030BD1849FFF7E0FFF9E7174B1968B2FB1D
:10203000F1F1B1FBF4FC154AA2FB0C32D20A4FF4C9
:10204000616E0EFB12CE124BA3FB0E535B0904FB19
:102050001C114FF47A7C0CFB01F1B1FBF4F505FB8C
:1020600014110CFB01F1B1FBF4F102910195C3EBEA
:102070000311AEEB810100910649FFF7B5FFCEE7F2
:102080000844002004B700000C440020C5B3A2910E
:102090008988888810B7000061B108B52AB1064A5E
:1020A00052F8232012B9054A00E0044A0449FFF718
:1020B0009BFF08BD704700BFD0B700002CB70000E1
:1020C00034B7000011F0100F0BD108B511F0200F3C
:1020D00003D00449FFF788FF08BD0349FFF784FFD9
:1020E000FAE7704794B00000D0CC00002DE9F04131
:1020F00005460F46164698460699FFF7E3FF00246B
:10210000444505DA23492846FFF76EFF0134F7E717
:10211000002409E01F492846FFF766FF0BE01E492F
:102120002846FFF761FF01340F2C0CDC002C02DD88
:1021300014F0070FEED0B442F1D23A5D17492846A9
:10214000FFF752FFEFE716492846FFF74DFF00243F
:1021500009E010492846FFF747FF0BE011492846E0
:10216000FFF742FF01340F2C12DC002C02DD14F0CB
:10217000070FEED0B44206D23A5DA2F120035E2BE7
:10218000ECD92E22EAE703492846FFF72DFFE9E7BD
:10219000BDE8F0815CB7000040B7000038B7000030
:1021A00044B7000048B700002DE9F04180461646CC
:1021B0001D46BDF9187059B90024002F1CDB86B1EB
:1021C0000123079A934013F0100F18D10D4E09E028
:1021D0000D4B079A53F822200C49FFF705FF0446E0
:1021E000EBE7084E39462846FFF7A0FE0246314687
:1021F0004046FFF7F9FE04442046BDE8F081044E56
:10220000F0E700BF4CB70000E4B7000058B700008B
:1022100054B700002DE9F04F85B005460C46164630
:1022200003939DF8388001F0020B01F0010AC1F31D
:10223000C00907F049FEE8B1024613492846FFF7F6
:10224000D3FE0746BBF1000F16D142465146284641
:1022500007F066FECDF80480BDF9403000939DF88C
:102260003C30324649462846FFF79EFF384405B0C9
:10227000BDE8F08F0027E5E7039A21462846FFF7DF
:10228000C5FE0744E1E700BF60B700002DE9F04755
:1022900084B006460C4617468B680A88C2F382183B
:1022A00012F4E07F37D04A680978C1F3C2017AB3EB
:1022B0002948121A42F3CF0202920191CDF8008010
:1022C000002239463046FFF7A5FF8146254655F8DE
:1022D000103BC3F3492353B1B8F1000F1ED11F487F
:1022E0002B4632461E4907F0F3FB002818DB6288B4
:1022F000C2F3CB022168C1F349212944FAB9B8F1EC
:10230000000F22D1304607F03EFE04B0BDE8F08752
:102310004FF0FF32D0E74FF00009D7E71148DFE771
:10232000DFF844A040F2B72352461049104807F0A6
:10233000A0FD40F2B721504607F094FDD7E7009783
:102340004B46304607F004FED9E742463946304650
:1023500007F0F2FDD6E700BF80AF0000EB9E000063
:1023600089160000CD9E000064B70000A4B70000ED
:1023700080B10000074B01221A6004E04008054AC2
:1023800013685B001360044B9842F7D8034B186046
:10239000704700BF0C44002040420F00084400205A
:1023A0002DE9F04F87B002AF82467960914698469A
:1023B000BE6BD7F840B0BBF1000F16D07B6CFB6052
:1023C00000935B46FA6B10210020FEF7FBF8051E18
:1023D0000CDA264C672322462549264807F049FD9A
:1023E0006721204607F03EFD00E000252946AB1995
:1023F000173300246FF300046FF341046FF382047A
:102400006AF3C50469F3881465F3522466F3DE4465
:102410006FF3DF7423F00703ADEB030D02AD6B46E2
:1024200013F118000AD0BBF1000F07D07B6C0093AA
:102430005B46FA6BFEF7C6F8002809DB43462246E6
:102440007968284607F0ACFD1437BD46BDE8F08F2B
:10245000DFF8189081234A460549064807F009FD30
:102460008121484607F0FEFCE8E700BFF8B700000E
:1024700034B8000080B1000070B506460D46002457
:1024800006E0054B1868315D83685B689847013446
:10249000AC42F6D3284670BD28440020014B196099
:1024A000002070471844002010B50948094B1860F7
:1024B00008F03CFB00B110BD074C792322460749C8
:1024C000074807F0D6FC7921204607F0CBFCF2E75D
:1024D000E8AD00002844002040B8000078B80000B3
:1024E00080B1000008B5034B01221A70024807F0C2
:1024F0004AFD08BD52510020D4B8000010B50C466A
:10250000044B1868FFF71CFC03460F2221460248C3
:10251000984710BD18440020D4B80000034B012296
:102520001A70034B034A1A60704700BF53510020D2
:10253000544400203C440020014B196000207047A7
:102540005844002008B518B9044B00221A7008BD81
:1025500041F2883008F0CBFBF9E700BF535100206F
:1025600038B504460A4B01221A700A4B1B782BB966
:1025700038BD651E2046FFF7E5FF2C46002004F01D
:10258000CDFA0028F4D0024B1B78002BF1D1EFE7F5
:102590005351002054510020F8B506460D4604273B
:1025A00006E03846FFF7DCFF9CB90D4B1B7883B182
:1025B0002A463146002004F04DFA04460028F0D1A6
:1025C000074B1B78002BEFD0013F3846FFF7BAFFCF
:1025D000EAE714B9024B1B7803B92C462046F8BD34
:1025E0005351002008B5034B01221A70024807F02E
:1025F000CAFC08BD5451002014B9000010B50C46A7
:10260000044B1868FFF79CFB03460F222146024843
:10261000984710BD5844002014B9000070B5404BD5
:102620001D7D05F01F0301229A4069093D4B03EB14
:102630008103D043BFF35B8F53E8001F01EA00041E
:1026400043E80046002EF7D1BFF35B8F0A4200D16A
:1026500070BD354A05EB4503980002EB830333490F
:10266000A9B15978105C07F0FDFD4FF02003EFF39E
:10267000118683F31288BFF36F8F2D4804F042FD5B
:1026800058B12B4804F05EFD2A4B1C6820E0002363
:1026900083F31188BFF36F8FE7E7274C8E23224621
:1026A0002649274807F0E5FB2149264807F0E1FBCA
:1026B0008E21204607F0D6FBE3E7194B1B7D03EB89
:1026C0004303194911F8230090470CB1246824B141
:1026D0001CB1A268002AF0D1F7E7154804F022FDEA
:1026E00070B186F31188BFF36F8F0F4A05EB450574
:1026F000A90002EB8505002353506B60AB60A7E790
:102700000D4CB923224610490D4807F0B2FB084989
:102710000E4807F0AEFBB921204607F0A3FBE0E727
:10272000284F0020844400207444002065A200004B
:10273000684400206C4400202CB300008CB30000DF
:1027400080B10000A4B300005CB3000074B30000CB
:1027500070B504466D4B1D7D6A09BFF35B8F6C4BF2
:1027600053F82230BFF35B8F05F01F02134113F0C3
:10277000010F1DD005EB4503664A12F8233033B331
:10278000B4F1FF3F39D105F0CDFA4FF02003EFF35C
:10279000118683F31288BFF36F8F5F4804F0B2FC99
:1027A000002840D05C4804F0CDFC5C4B1C6855E030
:1027B0000146284600F0D6F80028DBD005EB45039B
:1027C000544A02EB830307C883E80700D2E705F009
:1027D0001F02012393406D094D4A02EB8505DB433F
:1027E000BFF35B8F55E8002F1A4045E80021002910
:1027F000F8D1BFF35B8F002077E005EB4503454A36
:1028000002EB83039868410CC003454BC018454A4E
:102810004FF0000341F10001FDF772FC0121201A85
:1028200006F0B0FDAFE7404C8E2322463F494048BA
:1028300007F01FFB38493F4807F01BFB8E2120465D
:1028400007F010FBAEE7314B1B7D03EB430331492F
:1028500011F8230090470CB1246824B11CB16268C0
:10286000002AF0D1F7E72C4804F05CFC00283DD0AA
:1028700086F31188BFF36F8F05F01F030121994084
:102880006B092D4A02EB8303BFF35B8F53E8002FE4
:102890000A4343E800200028F8D1BFF35B8F274BA1
:1028A0004BB11C4B05EB450203EB8201497813F851
:1028B000220007F0CBFCFFF7B1FE05F01F03012457
:1028C00004FA03F36D09124A02EB8505DB43BFF3FB
:1028D0005B8F55E8002F1A4045E800210029F8D108
:1028E000BFF35B8F05F0AAFF204670BD0E4CB923E5
:1028F000224613490E4807F0BCFA0749114807F071
:10290000B8FAB921204607F0ADFAB1E7284F002008
:102910008044002074440020684400206C4400205F
:102920003F420F0040420F002CB300008CB3000068
:1029300080B10000A4B30000844400204DA2000038
:102940005CB3000074B30000BFF35B8F044B53F81B
:102950002000BFF35B8F003818BF0120704700BF15
:10296000884400202DE9F04182B00E4601A900F014
:1029700043F8441E24B207E0B6F1FF3F32D0404492
:10298000B0422FD9013C24B2002C2ADB019B04EB7E
:10299000440203EB820513F82200FFF7D5FF00285D
:1029A000F0D16868410CC003104FC019104A4FF0B5
:1029B000000341F10001FDF7A3FB8046AB68590C11
:1029C000DB03D8190A4A4FF0000341F10001FDF77B
:1029D00097FB084B1B68B3F1FF3FCDD08342CBD8A8
:1029E000D0E70025284602B0BDE8F0813F420F0045
:1029F00040420F000840002008B9024B0B60002045
:102A0000704700BF28B9000008B5024806F0CAFEAA
:102A100008BD00BF28B90000D0B108B54268042A3B
:102A200005D0D2B1006804F0CDFE002008BD0368D7
:102A30000022BFF35B8F53E8001F012903D143E855
:102A400000200028F7D1BFF35B8F04D11046EDE7DB
:102A50006FF4E04070470248E8E70248E6E700BF4D
:102A6000E98FFFFFEA8FFFFF20B308B54268042A11
:102A700002D092B911480FE003680122BFF35B8FC7
:102A800053E8001F002903D143E800200028F7D1B4
:102A9000BFF35B8F0CD1002008BD00684FF0FF3200
:102AA0004FF0FF3304F06EFD0028F5D00448F3E743
:102AB0000348F1E76FF4E040704700BFEA8FFFFF83
:102AC000E98FFFFF10B5044688B16368042B0DD071
:102AD000082B0BD053B113F0020F0DD0214609483B
:102AE00004F09AFA002323600023636010BD064BB4
:102AF0005B6806489847E8E714220021206807F041
:102B000074FBF1E7A4440020E440002030B9000049
:102B100010B5044678B16368042B0BD0082B09D09C
:102B20000BB9236863B1206808F08FF8636843F03D
:102B30000103636010BD0F4B5B680F489847EAE7DD
:102B40004FF0FF324FF0FF3321460C4804F0EEF90E
:102B500008B923681BB9074B5B68094898471422DA
:102B60000021206807F041FB636843F002036360C3
:102B7000D9E700BFE440002030B90000A4440020A1
:102B800058B9000008B5402314220449044808F04D
:102B900008F80449044806F065FE08BDC444002056
:102BA000A444002098B9000088B90000014910220F
:102BB0000A60704710ED00E072B6404080F3118863
:102BC000BFF36F8FBFF34F8F30BF62B6BFF36F8F0E
:102BD000704700BF72B6494081F3118820BF80F36F
:102BE000118862B6704700BF70B586B005461E4EAC
:102BF0008368059343680493036803931B4B029314
:102C0000002401940094234601223146204607F017
:102C1000E4F96B6905932B690493EB680393144BF8
:102C2000029301940094234601223146204607F086
:102C3000D4F9EB6903930F4B02930194009423465C
:102C400001223146204607F0C8F9AB6903930A4BCD
:102C5000029301940094234601223146204607F056
:102C6000BCF906B070BD00BFA8AF0000ACB9000051
:102C7000DCB900000CBA00001CBA000040B2002809
:102C800007DB00F01F02400901239340014A42F88C
:102C90002030704700E100E04209054B53F8222044
:102CA00000F01F00012303FA00F01040704700BF3E
:102CB00000E100E0F8B504464D1C072D0BD860B2CA
:102CC00000281BDB6D01EDB200F1604000F56140B2
:102CD00080F80053F8BD0E460C4F57233A460C4976
:102CE0000C4807F0C6F80723224631460A4807F089
:102CF000C0F85721384607F0B5F8E0E700F00F00BC
:102D00006D01EDB2054B1D54E4E700BF4CBA000065
:102D100084BA000080B10000A0BA000014ED00E009
:102D200030BFFFF7FDBF00BF08B50B4B0B4A22F0C9
:102D30007F029A60BFF34F8FBFF36F8FD3F8882065
:102D400022F47002C3F8882004F01CF806F028F979
:102D500000F06AFC04F074F800ED00E000000000F0
:102D60000A4A9368C3F8A80009490968C3F8AC1077
:102D700008494B6843F080534B60002383F311886C
:102D8000BFF36F8F9368D3F8AC007047284F0020D3
:102D9000D0C5000000ED00E013498A684FF0300014
:102DA0001044EFF3098C80E8F01F202080F3128894
:102DB000BFF36F8F0D4F4FF00066CA698A603E60A7
:102DC000D2F8A8000023C2F8A83080F3118804B517
:102DD000104600F0D3FCBDE8044002F1300090E85A
:102DE000F01F8CF309887047284F002004ED00E0A5
:102DF0001EF0040F0CBFEFF30880EFF30980816928
:102E000011F8021C0229FFD001B507F001F901BD3C
:102E100010B4A2F120040E4942F8081C21F001016F
:102E200042F8081C42F8203C019B42F81C3C029BE3
:102E300042F8183C039B42F8143C4FF0807342F870
:102E4000043C04650023C0F8A83010BC704700BFE4
:102E5000BD9C0000124B9A6802B310F1160F11D0FE
:102E6000D2F89830A3F1200C844505D8834205D9C7
:102E70008B4205D800210BE0002109E0002107E08A
:102E8000012105E0D2F898308B4294BF0021012146
:102E900009B900207047D2F89800704700207047A9
:102EA000284F002008B50D461446084B986000F0E6
:102EB00065FC204685F30988002163B681F31188FB
:102EC000BFF36F8F0022002306F0F8FE284F00208A
:102ED00001B572B60B4A906900281EBF00219161AE
:102EE00007F097FE62B6EFF30580A0F110004FEAFD
:102EF000C0000549014409C99847BDE8014003499C
:102F000008470000284F002000AE0000112F0000ED
:102F1000044B9968D869884203D003494FF0805226
:102F20000A607047284F002004ED00E070B584B0BF
:102F300005460E461446474B029300200190009030
:102F400003460122444907F077F8444B9B6A13F487
:102F5000805F25D1414B9B6A13F4006F2BD13F4B0F
:102F60009B6A13F4007F31D13C4B9B6A13F4806F52
:102F70004FD13A4B9B6A13F4807F55D1374B9B6AF4
:102F800013F4005F5BD1354A936A43F47F43936245
:102F90000121284607F04EF82070002004B070BDD3
:102FA0002F4B0293002001900090034601222A49F2
:102FB00007F042F8CEE72B4B0293002001900090DF
:102FC00003460122244907F037F8C8E7264B02934D
:102FD000002001900090034601221F4907F02CF8C1
:102FE0001E4B9A6B9B6A13F4004FBDD003921F4B8C
:102FF000029300200190009003460122164907F039
:103000001BF8002EB0D0154A936A23F40043936254
:10301000AAE7174B0293002001900090034601227B
:103020000D4907F009F8A4E7124B02930020019024
:10303000009003460122084906F0FEFFA3E70E4B6D
:10304000029300200190009003460122024906F0FD
:10305000F3FF98E7E0BA0000A8AF000000ED00E041
:10306000F8BA00000CBB000020BB00003CBB000015
:1030700054BB000070BB000088BB000000B585B0E9
:103080003A4B0293002001900090034601223849F8
:1030900006F0D2FF374B9B6A13F0007F23D1354BEC
:1030A0009B6A13F0807F29D1324B9B6A13F4002F67
:1030B0002FD1304B9B6A13F4802F35D12D4B9B6A57
:1030C00013F4003F3BD12B4B9B6A13F4803F41D15B
:1030D000284A936A6FEA03436FEA1343936200201E
:1030E00005B05DF804FB244B029300200190009092
:1030F000034601221E4906F09FFFD0E71F4B0293B3
:1031000000200190009003460122194906F094FF27
:10311000CAE71B4B02930020019000900346012256
:10312000134906F089FFC4E7164B02930020019073
:103130000090034601220E4906F07EFFBEE7124BC7
:10314000029300200190009003460122084906F0F6
:1031500073FFB8E70D4B02930020019000900346E7
:103160000122034906F068FFB2E700BFB8BB0000C8
:10317000A8AF000000ED00E0D0BB0000E4BB000001
:1031800000BC000020BC000048BC000064BC000083
:1031900000B585B000200870054B029301900090A7
:1031A00003460122034906F047FF05B05DF804FB22
:1031B00090BC0000A8AF000000B587B00F2910DC5C
:1031C000094B103904910393084B0293002001909E
:1031D000009003460122064906F02EFF07B05DF875
:1031E00004FB044BEDE700BFD0BC0000E8BC0000CE
:1031F000A8AF0000B4BC0000F0B585B005460C4691
:1032000016465F4B02930020019000900346012276
:103210005C4906F011FF5C4B9B6A13F0100F3BD129
:10322000594B9B6A13F0080F41D1574B9B6A13F01F
:10323000020F47D16FF01507534B9B6A13F0010F34
:1032400066D1514B9B6A13F0200F6CD14E4B9B6A99
:1032500013F0100F04D14C4B9C6A14F0020404D0FC
:10326000494B5C6814F4006468D1474B9B6A13F0C7
:10327000200F04D0444A536A23F400535362424A55
:10328000936A43F0FF0393620121284606F0D2FEC1
:103290003070204605B0F0BD3C4B029300200190F9
:1032A000009003460122374906F0C6FEB8E7384BC6
:1032B000029300200190009003460122314906F05C
:1032C000BBFEB2E7334B029300200190009003460F
:1032D00001222C4906F0B0FE2B4B5F6B9B6A13F06A
:1032E000800F02D16FF01507A6E703972A4B0293D0
:1032F00000200190009003460122224906F09CFE26
:10330000002C99D0204A936A23F08003936293E7BC
:10331000224B02930020019000900346012219499C
:1033200006F08AFE8DE71E4B02930020019000906C
:1033300003460122134906F07FFE87E729463846F7
:10334000FFF788FD0746B0B90F4B9C6A14F01004D4
:103350008BD0144C40F2491322461349134806F00F
:1033600088FD134806F085FD40F24911204606F01D
:1033700079FD3C4679E780F30988022475E700BFB0
:10338000FCBC0000A8AF000000ED00E014BD000090
:103390000CBB000048BD000060BD000078BD00000F
:1033A00088BB000098BD0000D4BD000080B10000C3
:1033B00020BE0000F0B585B007460E464B4B029389
:1033C000002401940094234601224949204606F036
:1033D00033FE3470474BDD6A15F002052DD1454BA5
:1033E000DB6A002B36DB434BDC6A14F080446BD085
:1033F000414B0293002001900090034601223C497A
:1034000006F01AFEBB6933F8022C4DF602739A429D
:103410002CD0384B93F82830002B35D1354B93F80E
:103420002930002B37D1334B5B8D9BB2002B39D029
:103430003846FFF723FE044609E0304B029301941F
:103440000094234601222A49204606F0F5FD204635
:1034500005B0F0BD2A4B0293002001900090034676
:103460000122234906F0E8FD2C46F0E73B68039370
:10347000244B0293002001900090034601221C4936
:1034800006F0DAFD3C68E2E7324601213846FFF7F4
:10349000B3FE0446DBE7324601213846FFF746FD1E
:1034A0000446D4E7184C40F2CD2322461749184869
:1034B00006F0DFFC174806F0DCFC40F2CD21204688
:1034C00006F0D0FC2C46C2E70F4D40F2D1232A462D
:1034D0000E490F4806F0CDFC0F4806F0CAFC40F23A
:1034E000D121284606F0BEFCB1E700BF44BE000073
:1034F000A8AF000000ED00E090BE00005CBE000040
:1035000080BE0000B0BE000098BD00003CB80000C6
:1035100080B10000CCBE0000F0BE0000F0B58FB05E
:10352000314B5D68C5F30805002383F31188BFF3B1
:103530006F8F02F07F43B3F17F4F25D102F00C0370
:10354000082B11D012F0080F1BD00C460026F4B146
:103550000DF137022946204606F07DFD05469DF80F
:1035600037302BB30FB0F0BD204B029300240194F1
:103570000094234601221E49204606F05DFD2646A2
:10358000E5E704460126E2E700263446DFE7194F67
:1035900040F2FB333A461849184806F06AFC1848CE
:1035A00006F067FC40F2FB31384606F05BFCCFE7E3
:1035B0002022214605A806F0E9FD4EB10C9BC3F37D
:1035C00008025AB96FEA53236FEA43230C9305E0CC
:1035D0000C9B23F4FF7323F001030C9305A92846E9
:1035E00006F00AFDBEE700BF00ED00E020BF0000CE
:1035F000A8AF000098BD00004CBF000080B10000E3
:1036000060BF0000024A536943F0100353617047E2
:1036100000ED00E0EFF30880EFF3098101B5724699
:10362000FFF77CFF01BD00BF002206E002F00F01A2
:10363000094B0B442021197601322F2A0ADC53B2A0
:10364000002BF3DB03F1604303F56143202183F892
:103650000013F1E7704700BFFCEC00E0002080F3AE
:103660001488BFF36F8F07F051FB00200D490860ED
:10367000BFF34F8F0C4880F3088800F02DF820200E
:1036800080F3118809484FF40261401880F30988DB
:10369000EFF314800221084380F31488BFF36F8F87
:1036A000FFF742FB94ED00E080590020005B002012
:1036B000084BD3F89000C0F30720002306E0054A2A
:1036C000C2F898300021C2F8A01001338342F6DB23
:1036D000704700BF00ED00E010B572B6002484F31F
:1036E0001388FFF7E5FF234608E003F120010E4AA7
:1036F0004FF0FF3042F821000133DBB2072BF4D941
:10370000002308E003F16001074A4FF0FF3042F860
:1037100021000133DBB2072BF4D962B6BFF34F8F20
:10372000BFF36F8F10BD00BF00E100E008B50A4B8A
:103730009B68834202D005F091FB08BDEFF305833F
:10374000002BF8D0054B5A6842F080525A605A6AF2
:1037500022F400425A62EEE7284F002000ED00E01C
:1037600008B5034B034A0121034800F0BBF808BD2C
:103770000000042000000020A4BF000008B5D0F81D
:103780009830203B0448036020234360034B836050
:10379000012100F0C9F808BDC449002000000B1544
:1037A000084AC2F898000B6823F01F03034343F054
:1037B0001003C2F89C308B6843F00103C2F8A030BC
:1037C000704700BF00ED00E010B584B00446072844
:1037D00004D8FFF7E5FF204604B010BD0390064B68
:1037E000029300200190009003460122034906F055
:1037F00068FC6FF01500EFE7B0BF0000A0AF00005D
:103800002DE9F04385B080460F46994616460025BF
:1038100009E02146F0B206F063FC064610F1160FEF
:103820001ED001360135BD421ADA05EB450408EB1E
:1038300084046268002AF5D0B9F1000FE9D020466F
:1038400006F02EFC0028E4D10395074B029301906B
:10385000009003460122054906F033FC6FF015067F
:10386000304605B0BDE8F083D8BF0000A0AF00002F
:1038700010B5034C01232278FFF7C2FF207010BD62
:103880005551002008B50023094A1278FFF7B8FF08
:1038900010F1160F0AD0034606E0064AC2F8983027
:1038A0000021C2F8A0100133072BF6DD08BD00BFD0
:1038B0005551002000ED00E0044B0522C3F8942090
:1038C000BFF34F8FBFF36F8F704700BF00ED00E075
:1038D000BFF35F8F024B0022C3F89420704700BFF4
:1038E00000ED00E038B50C46FFF7C2FF10F1160FEF
:1038F00000D038BD084D40F211132A460749084848
:1039000006F0B7FA2146074806F0B3FA40F2111163
:10391000284606F0A7FAECE7FCBF00003CB8000020
:1039200080B1000034C0000038B50C46FFF7AAFF94
:1039300010F1160F00D038BD084D4FF498732A4689
:103940000749084806F095FA2146074806F091FA1B
:103950004FF49871284606F085FAECE7FCBF0000AA
:103960003CB8000080B1000060C0000038B5244BB6
:103970001D68082D03D8FFF7ABFF00241EE0214C83
:103980004FF4A47322462049204806F072FA082218
:1039900029461F4806F06DFA4FF4A471204606F040
:1039A00061FA4FF0FF3017E0154B596804EB440201
:1039B000930019442046FFF7F3FE0134A542F3D8E3
:1039C000144B1D70FFF778FF134BD3F89030C3F3FF
:1039D0000723082B01D1002038BD0A4C4FF4D473C3
:1039E00022460E49094806F044FA0D4806F041FA0D
:1039F0004FF4D471204606F035FA0020ECE700BF02
:103A000048C10000FCBF00003CB8000080B10000CD
:103A100090C000005551002000ED00E0C4C000003F
:103A200014C10000014B1860704700BF2C400020FB
:103A300010B54FF02003EFF3118483F31288BFF326
:103A40006F8F01230C4AC2F840354FF08042C2F814
:103A5000783506F0EBFB20B14FF080430122C3F82C
:103A600038264FF080430122C3F8802584F3118863
:103A7000BFF36F8F002010BD00E00140C0B24FF0D7
:103A80008042C2F81C05BFF34F8F0549CA6802F493
:103A9000E062044B1343CB60BFF34F8F00BFFDE7E1
:103AA00000ED00E00400FA0530B108B58001034BD9
:103AB00043F00103984708BD704700BF60B00000A5
:103AC00000487047284A0020014BC01A4011704737
:103AD000E049002030B583B005460C46FFF7F4FFFF
:103AE0000146402300932346054A064806F02DFC74
:103AF000011E01DB03B030BD2846A047FAE700BF36
:103B000093A3000088AD000008B50A4BBFF35B8F9C
:103B100053E8002F22F0020143E800100028F7D1FB
:103B2000BFF35B8F12F0010F00D008BD06F043FC1D
:103B3000FBE700BF384A002070B50546CCB2012C27
:103B400007D82146284606F093FB806800F007005E
:103B500070BD064E792332460549064806F089F9BC
:103B60007921304606F07EF9EBE700BF6CC100001A
:103B7000ACC1000080B100002DE9F04107461646B7
:103B8000CCB2214606F074FB0546012C0FD8314615
:103B900005F1080006F07DFB002806DB21463846CB
:103BA00006F06DFB436898470020BDE8F081DFF820
:103BB0001C8040F24D1342460549064806F059F96B
:103BC00040F24D11404606F04DF9E0E76CC10000AF
:103BD000ACC1000080B1000038B505460C46FFF7C7
:103BE00073FF014640220348FFF7C6FF01462846FF
:103BF000A04738BD88AD000010B501281DD00328AE
:103C000020D068B1164C40F262232246154916486E
:103C100006F02FF940F26221204606F023F910E069
:103C20000021124806F024FB836813F0070F08D127
:103C300000210E4806F077FB03E001210B4806F057
:103C400072FB10BD064C40F25E2322460549064831
:103C500006F00FF940F25E21204606F003F9F0E786
:103C60006CC100003CB8000080B1000088AD0000CD
:103C700000B585B0CDF800D0CDF804D00023029374
:103C8000012303936B46074A06F07BFB002805DB04
:103C90004FF480420023684603F0ACFE05B05DF8A7
:103CA00004FB00BFD5A3000070B506460022012129
:103CB0001046FEF7FFFF114801F08CFD104B9842B3
:103CC00019D101F0B1FD0024012C12D82146304653
:103CD00006F0CEFA05462146304606F0D6FA0949E6
:103CE00005F0D0FF002805DB0123AB601C44E4B2E3
:103CF000EAE7002070BD6FF00400FBE7F93B00002D
:103D00000000AD0B28C2000070B50546012807D1A0
:103D10004FF08043D3F81C3403F00303012B5AD037
:103D200006F060FF28B92F4B1B78002B43D00023EF
:103D300000E001231C46002B3FD04FF02003EFF39F
:103D4000118683F31288BFF36F8F24B94FF080433D
:103D50000222C3F808234FF08042D2F8183403F04F
:103D60000303D2F8182412F4803F2DD100221AB197
:103D7000012B2BD0012D29D00CB33046FEF72AFFA2
:103D80004FF08043D3F81835002BE4D14FF0804337
:103D9000D3F80431002BDED04FF080430022C3F86B
:103DA0000421D3F804210122C3F818250E49C1F8D3
:103DB00080219A60CFE70123BCE70026C5E72120D8
:103DC000002104F0F9FFDBE70122D0E724B186F3FC
:103DD0001188BFF36F8F70BD4FF080430222C3F88C
:103DE0000423F8E75651002000E100E010B54FF041
:103DF0002003EFF3118483F31288BFF36F8F134A0C
:103E0000136843F00203136013F0010F08D100237D
:103E100084F31188BFF36F8F9BB906F0C2FA10BD0F
:103E20004FF08043D3F80C24D3F80C3412F0010F78
:103E300001D10023ECE7FFF743FE06F061FA01230E
:103E4000E6E70021024806F06EFAE8E7384A00206B
:103E500088AD000038B504461F4B0121BFF35B8FCE
:103E600053E8002F43E800100028F9D1BFF35B8F1F
:103E700042B134B1631EDBB2012B1FD82046FFF7DD
:103E800043FF38BD154806F000FA154900234B6082
:103E90008B60CB6001238B60FDF702F90028E8DA24
:103EA000104D4FF408732A460F49104805F0E1FF02
:103EB0004FF40871284605F0D5FFDAE7094C40F2C7
:103EC000322322460A49094805F0D3FF40F2322145
:103ED000204605F0C7FFD4E73C4A002088AD00002B
:103EE000D04900206CC10000A4B7000080B10000E0
:103EF0003CB8000010B504460A2807D0074B1868E4
:103F0000E1B283685B689847204610BD034B186890
:103F100083685B680D219847F0E700BF404A0020A6
:103F200010B5044C2046FFF77DFD2046FCF71EFE31
:103F300010BD00BFF53E000008B50648064B1860EE
:103F400006F0F4FD18B1FFF7EBFF002008BD6FF09D
:103F50001200FBE7E8AD0000404A002028B101282C
:103F600001D103487047002070470248704700BFE6
:103F7000A0AD0000B8AD00002DE9F041164605697E
:103F80002F1D0C4631B16368A3B16B68002B3BD089
:103F900000212AE0DFF89480242342462449254862
:103FA00005F067FF244805F064FF2421404605F032
:103FB00059FFE8E7DFF87480252342461F491D4872
:103FC00005F057FF1E4805F054FF2521404605F037
:103FD00049FFDAE723686B607A6894420FD17B600F
:103FE0000DE079600BE019461B685BB19C42FAD189
:103FF0000029EFD023680B607B689C42F1D000233E
:104000002360012303B956B166B16B6823606C600D
:104010007B680BB1002006E07C60002003E06FF0BD
:10402000150000E00020BDE8F08100BF34C20000B0
:1040300064C2000080B1000070C2000080C20000B5
:1040400094C200002DE9F04100F01F044009FFF781
:1040500085FF80B3074603690126A6405C681CB152
:1040600025467CB125680DE025460BE06368A26813
:104070003240214638469847DDB12B4605B12B68C2
:104080002C461D46BCB1A3681E42F5D06368002BC8
:10409000ECD1DFF82880452342460949094805F05C
:1040A000E8FE094805F0E5FE4521404605F0DAFE48
:1040B000DCE72B46E4E7BDE8F08100BF34C2000036
:1040C000ACC2000080B1000094C20000F0B585B021
:1040D0000E46194643681B7B06F01F0444EA43144E
:1040E000B2F5001F22D00746154600230293039322
:1040F000104606F0EDF98DF808007B689968F140EC
:1041000011F0010102D1B5F1A07F14D0002302AA61
:104110001946204602F002F8324B98425FD1012145
:10412000204602F05FFA002005B0F0BD204602F004
:1041300065FB0020F8E763091FD0012B01D14FF682
:10414000FF7104F01F03D94011F0010F18D004F0E3
:104150001F05630922D0012B23D0234E40F22E23CA
:1041600032462249224805F084FE40F22E21304694
:1041700005F078FE4FF0A04314E04FF0FF31E0E788
:10418000194D40F229232A461A49194805F071FEB3
:1041900040F22921284605F065FED8E74FF0A043FC
:1041A00000E0154B05F5E07553F8253013F0010FCD
:1041B000ACD10DF10701204602F0A4F90F4B984253
:1041C00003D00DF107030393A0E70DF1070002F000
:1041D00001FA044B9842F4D06FF00B00A4E76FF0A3
:1041E0000400A1E70000AD0BB8C200003CB800001D
:1041F00080B10000ECC20000000300500400AD0BD1
:1042000030B583B004460DF1070102F07BF9054695
:10421000204602F05BFB0B4B98420FD19D4205D02C
:10422000084B984207D1002003B030BD9DF807002D
:1042300002F0C8F9F4E76FF00400F5E76FF004004E
:10424000F2E700BF0000AD0B2DE9F04387B0D0F8D6
:10425000048098F80C3001F01F0545EA4315002A48
:1042600044D00C4617460026039604960DF117011C
:10427000204602F047F98146334603AA31462846D4
:1042800001F04CFF304B98425BD1994536D017F482
:10429000003F43D00DF10301384606F0A0F8064672
:1042A00040BB9DF803308DF8043017F4803F0CBFFD
:1042B000012300238DF80530384606F0D6F88DF836
:1042C000060017F4002F1ED0D8F80430012101FA9F
:1042D00004F4C3F80845002201A9284602F012F8A8
:1042E000194B984206D06FF0150603E02846FFF7F9
:1042F00087FF0646304607B0BDE8F0839DF81700FB
:1043000002F060F9C3E717F4802FE4D0D8F8042056
:10431000012303FA04F4C2F80C45DCE7384606F042
:10432000A4F88DF8080000231A4602A9284601F0D7
:10433000F5FE054B984201D10026DBE76FF015062C
:10434000D8E76FF01506D5E70000AD0B08B502F011
:104350002FF908B1002008BD02F000F9084B98427F
:104360000AD10021074802F0C7F8002205210620E3
:10437000FEF7A0FC0020EEE76FF00400EBE700BFC3
:104380000000AD0B4540000043681A68B1F5164FB8
:104390006FD03AD8B1F5165F6ED00AD9B1F5E14FBA
:1043A00075D024D947F6122399422BD14FF400033C
:1043B00013E0B1F5966F61D007D9B1F5166F63D0F0
:1043C000B1F5965F10D13C4B07E0B1F5967F58D020
:1043D000B1F5167F05D14FF41C33C2F82435002007
:1043E00070476FF0150070476FF015007047B1F51A
:1043F000615F4ED0B1F5964F01D1304BEDE76FF0D4
:10440000150070476FF015007047B1F5613F42D05D
:1044100009D9B1F5612F46D01FD9294B994248D10E
:104420004FF08053D9E7B1F5963F37D005D9B1F5B4
:10443000E13F0FD14FF0EB73CFE74DF6C023994228
:104440002ED0B1F5614F02D14FF46B03C5E76FF089
:10445000150070476FF0150070471A4B994225D030
:10446000B1F5E12F02D14FF0E863B6E76FF0150028
:1044700070474FF41D03B0E7134BAEE74FF49E2394
:10448000ABE74FF4A033A8E74FF41D23A5E70F4B8C
:10449000A3E70F4BA1E74FF06C739EE70D4B9CE732
:1044A0004FF4650399E74FF0706396E74FF0806330
:1044B00093E76FF01500704700B0130000A04E00A6
:1044C00040420F0090D003000050270000C075004C
:1044D00000F03A0000903A012DE9F04105460F4600
:1044E000D0F8108006F07EFB20B9164B1B7843B144
:1044F000002300E0012353B9284606F0F2F80646EF
:1045000013E00123F7E784F31188BFF36F8F4FF0B7
:104510002003EFF3118483F31288BFF36F8F2646D5
:10452000284606F090F80028EDD0414601F8107FAB
:104530000122284606F0A1F886F31188BFF36F8F99
:10454000BDE8F0815651002030B585B004460D46D7
:1045500001F1120002F046FA114B984212D1AB7CE5
:1045600004F590710C340F4AA23342F8331002EB79
:10457000C3035C60A97C01238B40C2F80435002092
:1045800005B030BD084B0293002001900090034617
:104590000122064906F0CCF86FF00400F0E700BFF6
:1045A0000000AD0B00F0014064C30000C0AF00008C
:1045B00021F07F4100F5A870014B43F820107047AF
:1045C0000010014000F5A870014B53F8200070471F
:1045D000001001404FF480338340024AC2F8443354
:1045E000704700BF001001404FF480338340024AFF
:1045F000C2F84833704700BF00100140014BD3F8A8
:10460000040570470010014010B5012383406FEA94
:10461000030C104ABFF35B8F52E8001F01EA0C0E37
:1046200042E800E4002CF7D1BFF35B8F4FF48032F7
:1046300002FA00F002F1804202F58052C2F808034B
:10464000BFF35F8FBFF36F8F0B4214BF01200020B9
:1046500010BD00BF604A002070B5044606F00AF99C
:1046600005464FF48033A340174AD2F8042313427F
:1046700005D10026284606F006F9304670BD012314
:10468000A340DB43114ABFF35B8F52E8001F01EAEE
:10469000030042E80006002EF7D1BFF35B8F59B943
:1046A00004F150039B009BB203F1804303F5883370
:1046B0001B6813B1012300E001231E46002BD9D053
:1046C000204606F0C8F8D5E7001001405C4A0020FB
:1046D00001B9704701238340114ABFF35B8F52E851
:1046E000001F194342E8001CBCF1000FF7D1BFF3D3
:1046F0005B8F4FF4803383400A4AC2F80433BFF320
:104700005B8F094B1B68BFF35B8F23FA00F010F03F
:10471000010FDED0054B4FF40032C3F80021D8E77B
:10472000604A0020001001405C4A002000E100E0E7
:104730002DE9F843074614461E461046194606F072
:1047400096F80546154B1A68A01A1C605E60A5F520
:104750000013B3F5400F09D3002404F079FE384666
:10476000FFF730FFA8420ED0BDE8F8830C4B1B6862
:104770001A0A1B0615EB030842F10009094BC3E9AD
:1047800000890124E9E71CB13846FFF723FFEBE776
:104790004FF400013846FFF70BFFF5E78842002091
:1047A000644A00207042002038B50D4B1C68250A71
:1047B0002406BFF35F8FFFF721FF0346001945F181
:1047C0000001B3F5801F0AD2064BD3E900239042C3
:1047D00071EB030303D210F1807041F1000138BD89
:1047E000644A002070420020F8B5064614461D4673
:1047F0001046194606F03BF80746FFF7D5FFA042E2
:1048000071EB05031DD2231A65EB01011B4A93428C
:1048100071F100032FD21A4B03EB0613D3E90223E5
:10482000AB4208BFA2421AD03946304606F030F8F3
:10483000394606F00CF8001945F1000304461D4600
:104840000DE00123B3400F4ABFF35B8F52E8001F16
:10485000194342E800100028F8D1BFF35B8F084BE2
:10486000320103EB0616C6E9024506999950079BEB
:1048700073600020F8BD6FF01500FBE70100000138
:10488000784200205C4A002030B583B000231D4AE6
:10489000C2F80835002B24DD1A4C0225C4F8045355
:1048A000194B4FF40032C3F880210022012111205E
:1048B000FEF700FA1120FEF7E1F90123A36023605F
:1048C000124A136000240194114B0093114A0023F3
:1048D000204606F018F82846FFF7BCFA204603B039
:1048E00030BD0D4A02EB03124FF0FF304FF0FF31A5
:1048F000C2E902014FF480329A400249C1F8042310
:104900000133C7E70010014000E100E0604A0020E9
:1049100031470000FFFF7F00784200202DE9F0477B
:1049200082B00446FFF798FE10B902B0BDE8F087E8
:10493000FFF73AFF82460E4605F09CFF0546134BF3
:1049400003EB0413D3E90289C24576EB09030BD2CA
:104950000026284605F097FF002EE6D00097424635
:104960004B462046B047E0E7084A230102EB04111A
:10497000D6584F680020D0504FF0FF324FF0FF3331
:10498000C1E902232046FFF72FFEE2E7784200202C
:1049900010B50E4BD3F8043313F0020F0DD00B4BB0
:1049A000D3F804314BB1094B0022C3F80421D3F8EA
:1049B0000431074A1368013313600024002C00DD22
:1049C00010BD2046FFF7AAFF0134F7E700100140B1
:1049D000644A002010B582B0B0F1FF3F06D0012834
:1049E00006DDB0F5000F05DA441E04E00F48F8E7D5
:1049F000002400E00D4CFFF7D7FE0D4B19685B68F3
:104A0000401AB0F5000F00D300242044421CB2F538
:104A1000000F00D3054A00208A1801900549009133
:104A200043F1000305F06FFF02B010BDFFFF7F00F0
:104A3000884200203147000008B5FFF7B5FE024B61
:104A40001B68C01A08BD00BF884200202DE9F8434A
:104A50000C46914610F4805F02D04FF0010900240B
:104A600000F03F05C0F38118C0F30327C0F34013E3
:104A700010F0200F1DD0FBB14FF6FF7305F01F02A1
:104A8000D34013F0010F19D005F01F066D0923D094
:104A90002DBB194D40F22E232A461849184805F01F
:104AA000E8F940F22E21284605F0DCF94FF0A0434A
:104AB00016E04FF0FF33E1E70023DFE70E4E40F250
:104AC000292332460F490E4805F0D3F940F2292137
:104AD000304605F0C7F9D7E74FF0A04300E00A4B96
:104AE00044EA490444EA880444EA072406F5E076E7
:104AF00043F82640BDE8F883B8C200003CB8000087
:104B000080B10000ECC20000000300502DE9F04726
:104B100005460E46174600244EE003F03F03C7F853
:104B20000C3555F8243003F03F09C3F3401113F05E
:104B3000200F1FD009B14FF6FF7209F01F03DA40B2
:104B400012F0010F19D009F01F0A5FEA591323D0A0
:104B50002BBBDFF8449340F22E234A46CF49D0487E
:104B600005F087F940F22E21484605F07BF94FF019
:104B7000A04215E04FF0FF32DFE7DFF81CA340F260
:104B800029235246C749C64805F073F940F2292146
:104B9000504605F067F9D6E74FF0A04200E0C24A60
:104BA000012101FA0AF3C2F808350A4655F808004F
:104BB000FFF74CFF0134E4B2B44280F01E844FEAA8
:104BC000840855F824301A0C222A00F2188401A116
:104BD00051F822F01B4B0000614C0000774C0000A4
:104BE000174D00002D4D0000CD4D00006D4E000012
:104BF000FF530000FF530000FF530000FF5300006D
:104C0000834E0000AD4E0000FF530000FF53000034
:104C1000FF530000FF530000FF530000FF5300004C
:104C2000FF530000FF530000FF530000C34E00007D
:104C3000E94F00000F5100004B520000FF530000ED
:104C4000FF530000FF530000715300008753000022
:104C50009D530000B3530000CB530000E35300000A
:104C600003F03F03C7F814350022114655F824001D
:104C7000FFF7ECFE9EE703F03F03C7F8083555F851
:104C8000243003F03F09C3F3401213F0200F1FD06C
:104C90000AB34FF6FF7309F01F02D34013F0010F60
:104CA0001BD009F01F0A5FEA591325D03BBBDFF880
:104CB000E89140F22E234A467849794805F0D9F820
:104CC00040F22E21484605F0CDF84FF0A04217E003
:104CD0004FF0FF33DFE70023DDE7DFF8BCA140F250
:104CE000292352466F496E4805F0C3F840F2292146
:104CF000504605F0B7F8D4E74FF0A04200E06A4A0A
:104D0000012101FA0AF3C2F808350A4655F80800ED
:104D1000FFF79CFE4EE703F03F03C7F81035002273
:104D2000114655F82400FFF791FE43E703F03F03D7
:104D3000C7F8083555F8243003F03F09C3F3401293
:104D400013F0200F1FD00AB34FF6FF7309F01F02B4
:104D5000D34013F0010F1BD009F01F0A5FEA59136B
:104D600025D03BBBDFF8309140F22E234A464B4919
:104D70004B4805F07EF840F22E21484605F072F8C7
:104D80004FF0A04217E04FF0FF33DFE70023DDE7ED
:104D9000DFF804A140F2292352464249404805F079
:104DA00068F840F22921504605F05CF8D4E74FF04E
:104DB000A04200E03C4A012101FA0AF3C2F80C3596
:104DC000002255F80800FFF741FEF3E603F03F0329
:104DD000C7F80C3555F8243003F03F09C3F34012EF
:104DE00013F0200F1FD00AB34FF6FF7309F01F0214
:104DF000D34013F0010F1BD009F01F0A5FEA5913CB
:104E000025D03BBBDFF8909040F22E234A46234941
:104E1000234805F02EF840F22E21484605F022F8EE
:104E20004FF0A04217E04FF0FF33DFE70023DDE74C
:104E3000DFF864A040F2292352461A49184805F0C9
:104E400018F840F22921504605F00CF8D4E74FF04D
:104E5000A04200E0144A012101FA0AF3C2F80C351D
:104E60000A4655F80800FFF7F1FDA3E603F03F03FB
:104E7000C7F810350022114655F82400FFF7E6FD6B
:104E800098E603F03F03C7F808350022114655F8AD
:104E90002400FFF7DBFD8DE6B8C200003CB800003F
:104EA00080B10000ECC200000003005003F03F039B
:104EB000C7F80C350022114655F82400FFF7C6FD4F
:104EC00078E603F03F03C7F8603555F8243003F067
:104ED0003F09C3F3403213F4005F44D15FEA591332
:104EE0001FD00BB14FF6FF7209F01F03DA4012F02A
:104EF000010F19D009F01F0A5FEA591323D02BBB09
:104F0000DFF8009340F22E234A46BF49BF4804F021
:104F1000B0FF40F22E21484604F0A4FF4FF0A0421B
:104F200015E04FF0FF32DFE7DFF8D8A240F2292387
:104F30005246B749B54804F09CFF40F2292150463B
:104F400004F090FFD6E74FF0A04200E0B14A012301
:104F500003FA0AF3C2F80C350122114655F808008D
:104F6000FFF774FD26E65FEA59131FD00BB34FF627
:104F7000FF7309F01F02D34013F0010F1BD009F09B
:104F80001F0A5FEA591325D03BBBDFF8789240F245
:104F90002E234A469C499D4804F06BFF40F22E2187
:104FA000484604F05FFF4FF0A04217E04FF0FF3398
:104FB000DFE70023DDE7DFF84CA240F22923524669
:104FC0009349924804F055FF40F22921504604F0DD
:104FD00049FFD4E74FF0A04200E08E4A012303FAD4
:104FE0000AF3C2F80835B7E703F03F03C7F86435A2
:104FF00055F8243003F03F09C3F3403213F4005F47
:1050000044D15FEA59131FD00BB14FF6FF7209F07C
:105010001F03DA4012F0010F19D009F01F0A5FEAEE
:10502000591323D02BBBDFF8DC9140F22E234A46E4
:105030007549764804F01DFF40F22E21484604F0E1
:1050400011FF4FF0A04215E04FF0FF32DFE7DFF82D
:10505000B4A140F2292352466D496C4804F009FF7F
:1050600040F22921504604F0FDFED6E74FF0A04261
:1050700000E0684A012303FA0AF3C2F80C35012262
:10508000114655F80800FFF7E1FC93E55FEA591374
:105090001FD00BB34FF6FF7309F01F02D34013F07C
:1050A000010F1BD009F01F0A5FEA591325D03BBB43
:1050B000DFF8509140F22E234A465349534804F0FA
:1050C000D8FE40F22E21484604F0CCFE4FF0A0421C
:1050D00017E04FF0FF33DFE70023DDE7DFF824A11F
:1050E00040F2292352464A49484804F0C2FE40F2A1
:1050F0002921504604F0B6FED4E74FF0A04200E06C
:10510000444A012303FA0AF3C2F80835B7E703F06B
:105110003F03C7F8683555F8243003F03F09C3F35F
:10512000403213F4005F44D15FEA59131FD00BB132
:105130004FF6FF7209F01F03DA4012F0010F19D089
:1051400009F01F0A5FEA591323D02BBBDFF8B49094
:1051500040F22E234A462C492C4804F08AFE40F2A5
:105160002E21484604F07EFE4FF0A04215E04FF09D
:10517000FF32DFE7DFF88CA040F2292352462449B2
:10518000224804F076FE40F22921504604F06AFEDF
:10519000D6E74FF0A04200E01E4A012303FA0AF3CB
:1051A000C2F80C350122114655F80800FFF74EFCF5
:1051B00000E55FEA59131FD00BB34FF6FF7309F0F8
:1051C0001F02D34013F0010F26D009F01F0A5FEA37
:1051D000591330D093BBDFF82C9040F22E234A466F
:1051E00009490A4804F045FE40F22E21484604F0E1
:1051F00039FE4FF0A04222E04FF0FF33DFE70023FB
:10520000DDE700BFB8C200003CB8000080B100007C
:10521000ECC2000000030050DFF8ECA140F22923AB
:1052200052467A497A4804F024FE40F22921504639
:1052300004F018FEC9E74FF0A04200E0754A0123D0
:1052400003FA0AF3C2F80835ACE703F03F03C7F8E6
:105250006C3555F8243003F03F09C3F3403213F4A2
:10526000005F44D15FEA59131FD00BB14FF6FF72B4
:1052700009F01F03DA4012F0010F19D009F01F0ADC
:105280005FEA591323D02BBBDFF87C9140F22E2329
:105290004A4661495E4804F0ECFD40F22E21484642
:1052A00004F0E0FD4FF0A04215E04FF0FF32DFE7E1
:1052B000DFF854A140F2292352465449544804F0DF
:1052C000D8FD40F22921504604F0CCFDD6E74FF03E
:1052D000A04200E04F4A012303FA0AF3C2F80C355A
:1052E0000122114655F80800FFF7B0FB62E45FEABF
:1052F00059131FD00BB34FF6FF7309F01F02D340B1
:1053000013F0010F1BD009F01F0A5FEA591325D0D3
:105310003BBBDFF8F49040F22E234A463E493C481E
:1053200004F0A7FD40F22E21484604F09BFD4FF00B
:10533000A04217E04FF0FF33DFE70023DDE7DFF89F
:10534000C8A040F2292352463049314804F091FD6B
:1053500040F22921504604F085FDD4E74FF0A042E9
:1053600000E02C4A012303FA0AF3C2F80835B7E734
:1053700003F03F03C7F824350122002155F824002B
:10538000FFF764FB16E403F03F03C7F8283501225A
:10539000002155F82400FFF759FB0BE403F03F030D
:1053A000C7F830350122002155F82400FFF74EFBE5
:1053B00000E403F03F03C7F834350122002155F81B
:1053C0002400FFF743FBFFF7F5BB03F03F03C7F8EB
:1053D00038350122002155F82400FFF737FBFFF78D
:1053E000E9BB03F03F03C7F83C350122002155F823
:1053F0002400FFF72BFBFFF7DDBB002001E06FF07F
:105400008500BDE8F08700BFB8C20000ECC2000014
:1054100080B10000000300503CB8000010B584B01B
:10542000FCF702FD064B02930024019400942346EE
:1054300001220449204605F09DFA2046FEF71EFB96
:1054400018C4000088AF0000024BD3F80034002BD2
:10545000FAD0704700E0014008B5034BC3F80405DB
:10546000FFF7F2FF08BD00BF00E00140014B024A18
:105470001A607047584000200090D00338B505F0FE
:1054800096FA40B14FF080430022C3F80C21C3F8D4
:105490001021C3F8382505F094FA002846D04FF0C3
:1054A0008052D2F80414594BC3F82015D2F80814CE
:1054B000C3F82415D2F80C14C3F82815D2F8101428
:1054C000C3F82C15D2F81414C3F83015D2F81814F8
:1054D000C3F83415D2F81C14C3F84015D2F82014C0
:1054E000C3F84415D2F82414C3F84815D2F8281488
:1054F000C3F84C15D2F82C14C3F85015D2F8301458
:10550000C3F85415D2F83414C3F86015D2F838141F
:10551000C3F86415D2F83C14C3F86815D2F84014E7
:10552000C3F86C15D2F84424C3F8702505F053FA7B
:1055300018B1374B374AC3F88C2605F05FFA18B11B
:10554000354BFB22C3F8182505F06BFA70B14FF00C
:105550008041D1F8E43E23F00F034FF08052D2F89F
:10556000582202F00F021343C1F8E43E05F06CFA32
:1055700020B12A4B4FF40072C3F8402605F077FAA9
:1055800060B14FF08043D3F8003413F0010F05D021
:105590004FF080436FF00102C3F8002405F071FA68
:1055A00038B14FF01023D3F808224FF08043C3F8EE
:1055B00058254FF01023D3F80032002B08DB4FF0B2
:1055C0001023D3F80432002B02DBFFF74FFF38BD66
:1055D0000120FFF741FF4FF010241225C4F80052BC
:1055E000FFF732FFC4F80452FFF72EFF0020FFF749
:1055F00033FFBFF34F8F0A49CA6802F4E062094BD8
:105600001343CB60BFF34F8F00BFFDE700C00040E6
:10561000005000404881030000F00040009002402C
:1056200000ED00E00400FA0510B50468B4FA84F354
:10563000C3F11F035FFA83FC002B16DB012202FA81
:1056400003F324EA0303BFF35B8F50E8002FA24269
:1056500004D140E8003EBEF1000FF6D1BFF35B8FEE
:10566000E3D181F800C0024810BD0248FCE700BF4A
:105670000000AD0B0200AD0B0368CB4013F0010F2F
:1056800015D100B5026801238B401343BFF35B8F34
:1056900050E800CF944504D140E8003EBEF1000F31
:1056A000F6D1BFF35B8FEDD102485DF804FB0248F1
:1056B000704700BF0000AD0B0400AD0BF0B583B028
:1056C000054668B1012820D03D4CD82322463D49EB
:1056D0003D4804F0CEFBD821204604F0C3FB68E02F
:1056E0004FF080430222C3F808230022C3F80421AC
:1056F000D3F804210122DA6001238DF807309D429E
:105700000FD0002642F2107429E04FF080430122AE
:10571000C3F808230021C3F80011D3F800115A6020
:10572000EAE70DF10706EDE736B14FF08043D3F815
:10573000183403F0030333604FF08043D3F8183478
:1057400013F4803F2FD100238BB31EB19DF8073097
:10575000012B2CD1012005F0A7F9013C27D0002D09
:10576000E2D0012D0ED0194F4FF44F733A46154930
:10577000154804F07EFB4FF44F71384604F072FB7D
:105780000023E1E736B14FF08043D3F80C3403F047
:10579000010333704FF08043D3F80C3413F4803F8F
:1057A00003D10023D0E70123CEE70123CCE7012D6D
:1057B00001D003B0F0BD064B00225A71F9E700BFDB
:1057C00038C400003CB8000080B1000078C400007C
:1057D000684A002038B5044650B10D4B1B79ABB96F
:1057E0000B4B1C6001221A7100225A71094838BD06
:1057F000094D40F215132A460849094804F039FBBF
:1058000040F21511284604F02DFBE6E70548EEE7C7
:10581000684A00200000AD0B38C40000ACC4000092
:1058200080B100000C00AD0B10B50F4B1B7953B1CC
:105830000020FDF731FAA0B105F03AF94FF08043AE
:10584000C3F8180510BD094C4FF497732246084958
:10585000084804F00EFB4FF49771204604F002FB59
:10586000E6E7FDF70BFAE7E7684A002038C40000D6
:10587000BCC4000080B1000030B583B00446344B96
:105880001B7983B1ECB1012C55D0324C4FF4D3735A
:1058900022463149314804F0ECFA4FF4D3712046E6
:1058A00004F0E0FA52E02B4D4FF4B4732A462C4931
:1058B0002A4804F0DEFA4FF4B471284604F0D2FA14
:1058C000E0E74FF08042D2F8183403F0030301936D
:1058D000D2F8183413F4803F17D1D2F8143413F0EF
:1058E000010F16D105F0E4F801904FF08043019AC2
:1058F000C3F818250022C3F80421D3F8042102229A
:10590000C3F8042301229A6020E001A805F0D2F830
:10591000EBE74FF08043D3F81C3403F0030301930B
:1059200001A805F0C7F80028DFD04FF0804302221D
:10593000C3F804230AE04FF080430022C3F800219B
:10594000D3F800210122C3F804231A6003B030BD4C
:10595000684A002038C400003CB8000080B1000054
:10596000BCC4000038B504460A4B1B791BB1204665
:10597000FFF7A4FE38BD084D40F2AD132A46074993
:10598000074804F076FA40F2AD11284604F06AFAAE
:10599000EDE700BF684A002038C40000BCC4000026
:1059A00080B1000008B54FF08043D3F800318BB1CF
:1059B0004FF080430022C3F80021D3F800210122D8
:1059C000C3F80823154B5B7923B9144B5A711B6834
:1059D000002098474FF08043D3F804319BB14FF03B
:1059E00080430022C3F80421D3F80421D3F81824FB
:1059F000D3F8183412F0030F06D14FF08043012280
:105A0000C3F818259A6008BD4FF080430222C3F8FE
:105A10000823024B1B6801209847F4E7684A0020DE
:105A20000830034B33F8100000F00100704700BF4E
:105A30005C4000200830034B33F81000C0F34010E6
:105A4000704700BF5C4000200830044B33F8100062
:105A500010F01C0018BF0120704700BF5C40002000
:105A60000830034B33F81000C0F34000704700BF0C
:105A70005C4000200830024B33F81000400B7047A8
:105A80005C400020002204E04FF0FF3383420FD03F
:105A900001322F2A0AD802F10803064931F81330DF
:105AA00013F4807FF0D0C3F34323EFE70020704767
:105AB000012070475C400020002313B14FF0FF30FD
:105AC0007047074A52F83320824201D00133F4E78D
:105AD000034A02EBC30252688A42F7D11846704764
