:10000000C0EF0020ED67000061F40000A56700006C
:10001000A5670000A5670000A567000000000000BC
:10002000000000000000000000000000715F000000
:10003000A567000000000000195F0000A567000030
:1000400051600000516000005160000051600000EC
:1000500051600000516000005160000051600000DC
:1000600051600000516000005160000051600000CC
:1000700051600000516000005160000051600000BC
:1000800051600000516000005160000051600000AC
:10009000516000005160000051600000516000009C
:1000A000516000005160000051600000516000008C
:1000B000516000005160000051600000516000007C
:1000C000516000005160000051600000516000006C
:1000D000516000005160000051600000516000005C
:1000E000516000005160000051600000516000004C
:1000F000516000005160000051600000516000003C
:1001000001F0FF01102A2BDB10F0070F08D010F8C8
:10011000013B013A8B422DD010F0070F42B3F6D1CC
:10012000F0B441EA012141EA014122F007047FF0E5
:1001300000070023F0E80256083C85EA010586EA3C
:10014000010685FA47F5A3FA87F586FA47F6A5FA78
:1001500087F68EB9EED1F0BC01F0FF0102F0070284
:1001600032B110F8013B013A83EA010313B1F8D12F
:100170000020704701387047002D06BF3546033810
:10018000073815F0010F07D1013015F4807F02BF49
:10019000013015F4C03F0130F0BC0138704700BF9A
:1001A00081F0004102E000BF83F0004330B54FEA28
:1001B00041044FEA430594EA050F08BF90EA020F95
:1001C0001FBF54EA000C55EA020C7FEA645C7FEA28
:1001D000655C00F0E2804FEA5454D4EB5555B8BF4B
:1001E0006D420CDD2C4480EA020281EA030382EABC
:1001F000000083EA010180EA020281EA0303362D4E
:1002000088BF30BD11F0004F4FEA01314FF4801C20
:100210004CEA113102D0404261EB410113F0004F32
:100220004FEA03334CEA133302D0524263EB4303E9
:1002300094EA050F00F0A780A4F10104D5F1200E87
:100240000DDB02FA0EFC22FA05F2801841F10001E2
:1002500003FA0EF2801843FA05F359410EE0A5F1B6
:1002600020050EF1200E012A03FA0EFC28BF4CF0E7
:10027000020C43FA05F3C01851EBE37101F000459D
:1002800007D54FF0000EDCF1000C7EEB00006EEBAA
:100290000101B1F5801F1BD3B1F5001F0CD3490834
:1002A0005FEA30004FEA3C0C04F101044FEA44528B
:1002B00012F5800F80F09A80BCF1004F08BF5FEA12
:1002C000500C50F1000041EB045141EA050130BDF2
:1002D0005FEA4C0C404141EB0101013C28BFB1F504
:1002E000801FE9D291F0000F04BF01460020B1FA4F
:1002F00081F308BF2033A3F10B03B3F120020CDA22
:100300000C3208DD02F1140CC2F10C0201FA0CF0FF
:1003100021FA02F10CE002F11402D8BFC2F1200C64
:1003200001FA02F120FA0CFCDCBF41EA0C0190401A
:10033000E41AA2BF01EB0451294330BD6FEA040463
:100340001F3C1CDA0C340EDC04F11404C4F120024E
:1003500020FA04F001FA02F340EA030021FA04F360
:1003600045EA030130BDC4F10C04C4F1200220FAB7
:1003700002F001FA04F340EA0300294630BD21FAF5
:1003800004F0294630BD94F0000F83F4801306BFBB
:1003900081F480110134013D4EE77FEA645C18BFAF
:1003A0007FEA655C29D094EA050F08BF90EA020F46
:1003B00005D054EA000C04BF1946104630BD91EA3E
:1003C000030F1EBF0021002030BD5FEA545C05D141
:1003D0004000494128BF41F0004130BD14F5800480
:1003E0003CBF01F5801130BD01F0004545F0FE41F4
:1003F00041F470014FF0000030BD7FEA645C1ABF29
:10040000194610467FEA655C1CBF0B46024650EA5F
:10041000013406BF52EA033591EA030F41F400218B
:1004200030BD00BF90F0000F04BF0021704730B511
:100430004FF4806404F132044FF000054FF00001E6
:1004400050E700BF90F0000F04BF0021704730B5A7
:100450004FF4806404F1320410F0004548BF40427C
:100460004FF000013EE700BF42004FEAE2014FEAD1
:1004700031014FEA02701FBF12F07F4393F07F4FAC
:1004800081F06051704732F07F4208BF704793F0AF
:100490007F4F04BF41F40021704730B54FF46074C2
:1004A00001F0004521F000411CE700BF50EA0102C5
:1004B00008BF704730B54FF000050AE050EA01026E
:1004C00008BF704730B511F0004502D5404261EBDE
:1004D00041014FF4806404F132045FEA915C3FF41F
:1004E000D8AE4FF003025FEADC0C18BF03325FEABC
:1004F000DC0C18BF033202EBDC02C2F1200300FA6D
:1005000003FC20FA02F001FA03FE40EA0E0021FA91
:1005100002F11444BDE600BF70B54FF0FF0C4CF47F
:10052000E06C1CEA11541DBF1CEA135594EA0C0F31
:1005300095EA0C0F00F0DEF82C4481EA030621EA6C
:100540004C5123EA4C5350EA013518BF52EA0335A7
:1005500041F4801143F4801338D0A0FB02CE4FF059
:100560000005E1FB02E506F00042E0FB03E54FF089
:100570000006E1FB03569CF0000F18BF4EF0010E81
:10058000A4F1FF04B6F5007F64F5407404D25FEA7D
:100590004E0E6D4146EB060642EAC62141EA555130
:1005A0004FEAC52040EA5E504FEACE2EB4F1FD0C72
:1005B00088BFBCF5E06F1ED8BEF1004F08BF5FEAF0
:1005C000500E50F1000041EB045170BD06F00046A2
:1005D00046EA010140EA020081EA0301B4EB5C044F
:1005E000C2BFD4EB0C0541EA045170BD41F4801147
:1005F0004FF0000E013C00F3AB8014F1360FDEBF6C
:10060000002001F0004170BDC4F10004203C35DA47
:100610000C341BDC04F11404C4F1200500FA05F3CA
:1006200020FA04F001FA05F240EA020001F000426B
:1006300021F0004110EBD37021FA04F642EB0601E1
:100640005EEA430E08BF20EAD37070BDC4F10C040B
:10065000C4F1200500FA04F320FA05F001FA04F2CF
:1006600040EA020001F0004110EBD37041F10001BB
:100670005EEA430E08BF20EAD37070BDC4F12005C6
:1006800000FA05F24EEA020E20FA04F301FA05F22E
:1006900043EA020321FA04F001F0004121FA04F2D6
:1006A00020EA020000EBD3705EEA430E08BF20EAA6
:1006B000D37070BD94F0000F0FD101F000464000E0
:1006C00041EB010111F4801F08BF013CF7D041EA62
:1006D000060195F0000F18BF704703F00046520066
:1006E00043EB030313F4801F08BF013DF7D043EA37
:1006F0000603704794EA0C0F0CEA135518BF95EAED
:100700000C0F0CD050EA410618BF52EA4306D1D173
:1007100081EA030101F000414FF0000070BD50EA92
:10072000410606BF1046194652EA430619D094EA1C
:100730000C0F02D150EA013613D195EA0C0F05D106
:1007400052EA03361CBF104619460AD181EA03015A
:1007500001F0004141F0FE4141F470014FF0000012
:1007600070BD41F0FE4141F4780170BD70B54FF0AD
:10077000FF0C4CF4E06C1CEA11541DBF1CEA13552D
:1007800094EA0C0F95EA0C0F00F0A7F8A4EB05040F
:1007900081EA030E52EA03354FEA013100F0888006
:1007A0004FEA03334FF0805545EA131343EA1263CF
:1007B0004FEA022245EA111545EA10654FEA002684
:1007C0000EF000419D4208BF964244F1FD0404F53D
:1007D000407402D25B084FEA3202B61A65EB030599
:1007E0005B084FEA32024FF480104FF4002CB6EB56
:1007F000020E75EB030E22BFB61A754640EA0C00D6
:100800005B084FEA3202B6EB020E75EB030E22BF15
:10081000B61A754640EA5C005B084FEA3202B6EB56
:10082000020E75EB030E22BFB61A754640EA9C0015
:100830005B084FEA3202B6EB020E75EB030E22BFE5
:10084000B61A754640EADC0055EA060E18D04FEAA3
:10085000051545EA16754FEA06164FEAC30343EA43
:1008600052734FEAC2025FEA1C1CC0D111F4801F10
:100870000BD141EA00014FF000004FF0004CB6E709
:1008800011F4801F04BF01430020B4F1FD0C88BFA8
:10089000BCF5E06F3FF6AFAEB5EB030C04BFB6EBB3
:1008A000020C5FEA500C50F1000041EB045170BDA6
:1008B0000EF0004E4EEA113114EB5C04C2BFD4EBD3
:1008C0000C0541EA045170BD41F480114FF0000E57
:1008D000013C90E645EA060E8DE60CEA135594EAD3
:1008E0000C0F08BF95EA0C0F3FF43BAF94EA0C0FD6
:1008F0000AD150EA01347FF434AF95EA0C0F7FF44B
:1009000025AF104619462CE795EA0C0F06D152EA9E
:1009100003353FF4FDAE1046194622E750EA410682
:1009200018BF52EA43067FF4C5AE50EA41047FF493
:100930000DAF52EA43057FF4EBAE12E74FEA4102F6
:10094000B2F1E04324BFB3F5001CDCF1FE5C0DD92D
:1009500001F0004C4FEAC0024CEA5070B2F1004F77
:1009600040EB830008BF20F00100704711F0804F7A
:1009700021D113F13872BCBF01F00040704741F43F
:1009800080114FEA5252C2F11802C2F1200C10FA43
:100990000CF320FA02F018BF40F001004FEAC12327
:1009A0004FEAD32303FA0CFC40EA0C0023FA02F3CB
:1009B0004FEA4303CCE77FEA625307D150EA0133A1
:1009C0001EBF4FF0FE4040F44000704701F0004071
:1009D00040F0FE4040F40000704700BF53B94AB9F0
:1009E000002908BF00281CBF4FF0FF314FF0FF3037
:1009F00000F00CB8ADF1080C6DE904CE00F0CEF8B3
:100A0000DDF804E0DDE9022304B07047704700BF61
:100A10004FF0FF3C06E000BF4FF0010C02E000BFCA
:100A20004FF0010C4DF804CD4FEA410C7FEA6C5CAD
:100A30004FEA430C18BF7FEA6C5C1BD001B050EA50
:100A4000410C0CBF52EA430C91EA030F02BF90EA3B
:100A5000020F0020704710F1000F91EA030F58BFFA
:100A6000994208BF90422CBFD8176FEAE37040F05C
:100A7000010070474FEA410C7FEA6C5C02D150EAFA
:100A8000013C07D14FEA430C7FEA6C5CD6D152EAB5
:100A9000033CD3D05DF8040B704700BF844610467A
:100AA00062468C461946634600E000BF01B5FFF779
:100AB000B7FF002848BF10F1000F01BD4DF808ED49
:100AC000FFF7F4FF0CBF012000205DF808FB00BF1A
:100AD0004DF808EDFFF7EAFF34BF012000205DF874
:100AE00008FB00BF4DF808EDFFF7E0FF94BF0120C1
:100AF00000205DF808FB00BF4DF808EDFFF7CEFFC2
:100B000094BF012000205DF808FB00BF4DF808ED00
:100B1000FFF7C4FF34BF012000205DF808FB00BFD1
:100B20004FEA410C7FEA6C5C02D150EA013C0AD1E9
:100B30004FEA430C7FEA6C5C02D152EA033C02D1DB
:100B40004FF0000070474FF0010070474FEA41023C
:100B500012F5001215D211D56FF47873B3EB62520F
:100B600012D94FEAC12343F0004343EA505311F036
:100B7000004F23FA02F018BF404270474FF00000C8
:100B8000704750EA013005D111F0004008BF6FF006
:100B9000004070474FF00000704700BF2DE9F04F54
:100BA00007468C460846099E15463C461946002BCA
:100BB00040F0C6808242B2FA82F746D94FB1C7F1FF
:100BC000200E24FA0EFE00FA07F3BD404EEA030C95
:100BD000BC404FEA15481FFA85FEBCFBF8F9220C11
:100BE00008FB19C309FB0EFA42EA03439A4528D9C8
:100BF000EB1809F1FF3004D29A4502D9A9F102009D
:100C00002B44A3EB0A03A4B2B3FBF8F208FB1233A4
:100C100002FB0EFE44EA0344A64514D92C1902F146
:100C2000FF3303D2A64501D9931E2C44A4EB0E0436
:100C300043EA00401EB1FC40002334607360BDE80D
:100C4000F08F4846DDE71346F0E702B9FFDE87BBC9
:100C5000831A01214FEA154EAAB2B3FBFEFC200C09
:100C60000EFB1C330CFB02F840EA0343984563D9A2
:100C7000EB180CF1FF3004D2984502D9ACF1020018
:100C80002B44A3EB0803A4B2B3FBFEFC0EFB1C3306
:100C90000CFB02F244EA0344A2424FD92C190CF196
:100CA000FF3304D2A24202D9ACF102032C44A41AAD
:100CB000BEE7C7F1200C20FA0CF800FA07F324FA7B
:100CC0000CFCBD404CEA03024FEA154EABB2B8FB38
:100CD000FEFC110C0EFB1C800CFB03F941EA0040EA
:100CE000814504FA07F423D928180CF1FF3104D206
:100CF000814502D9ACF102012844A0EB090092B26F
:100D0000B0FBFEFC0EFB1C000CFB03F842EA0043A8
:100D100098450FD9EB180CF1FF3204D2984502D94F
:100D2000ACF102022B44A3EB080342EA014191E734
:100D30006146E2E76246F6E76046A2E76346B6E749
:100D4000834205D90EB1C6E900700021084676E756
:100D5000B3FA83F181B9834201D3BA420AD8BC1AEB
:100D600060EB030301209C46002E68D0C6E9004CCE
:100D7000002164E70846F7E7C1F1200C8B4022FA16
:100D80000CF41C4302FA01F500FA01F327FA0CF205
:100D900020FA0CFB4FEA14491343BBFBF9F81FFA86
:100DA00084FE09FB18BB1A0C08FB0EFA42EA0B4240
:100DB000924507FA01F73ED9A21808F1FF3004D294
:100DC000924502D9A8F102002244A2EB0A029BB28A
:100DD000B2FBF9F809FB182208FB0EFE43EA0242B7
:100DE00096452AD9A21808F1FF3304D2964502D9B4
:100DF000A8F10203224443EA0040A0FB0593A2EBC2
:100E00000E029A42CE46984602D306D14F4504D2EE
:100E1000B9EB050E63EB0408013886B1B7EB0E039E
:100E200062EB080707FA0CFCCB404CEA0303CF4007
:100E3000C6E900379CE74046C7E74346DBE7314653
:100E4000FDE610F8012B11F8013B012A28BF9A4258
:100E5000F7D0D01A7047034613F8012B002AFBD1B4
:100E6000181A0138704700002DE9F84FB24C21F0F4
:100E70000043A34207460E4616DD03F1404303F547
:100E80008013034307D1002900F3028290A1D1E926
:100E90000001BDE8F88F02460B46FFF785F90246D0
:100EA0000B46FFF763FCF4E7A44CA34200F38380F6
:100EB000A34A934240F3EF8102460B46FFF72CFB17
:100EC00085A3D3E9002304460D46FFF725FB84A341
:100ED000D3E90023FFF76AF922462B46FFF71CFBF4
:100EE00081A3D3E90023FFF75FF922462B46FFF7E2
:100EF00013FB7FA3D3E90023FFF758F922462B46C3
:100F0000FFF70AFB7CA3D3E90023FFF74DF9224644
:100F10002B46FFF701FB7AA3D3E90023FFF746F93D
:100F200022462B46FFF7F8FA77A3D3E90023804641
:100F3000894620462946FFF7EFFA75A3D3E9002337
:100F4000FFF732F922462B46FFF7E6FA72A3D3E900
:100F50000023FFF72BF922462B46FFF7DDFA70A39B
:100F6000D3E90023FFF720F922462B46FFF7D4FAF6
:100F7000744B0022FFF71AF902460B4640464946D9
:100F8000FFF7F4FB3A463346FFF7C6FA02460B4634
:100F900065A1D1E90001FFF707F902460B46384683
:100FA0003146FFF701F902460B4661A1D1E9000184
:100FB000FFF7FAF86DE7002980F2C880614B002244
:100FC000FFF7F4F8604B0022FFF7A6FA42A3D3E93B
:100FD000002304460D46FFF79FFA41A3D3E90023FF
:100FE000FFF7E4F822462B46FFF796FA3EA3D3E933
:100FF0000023FFF7D9F822462B46FFF78DFA3CA3D2
:10100000D3E90023FFF7D2F822462B46FFF784FAF4
:1010100039A3D3E90023FFF7C7F822462B46FFF791
:101020007BFA37A3D3E90023FFF7C0F822462B460B
:10103000FFF772FA80468946204629460CF0CCF923
:1010400031A3D3E9002306460F4620462946FFF781
:1010500063FA2FA3D3E90023FFF7A6F822462B4615
:10106000FFF75AFA2CA3D3E90023FFF79FF8224693
:101070002B46FFF751FA2AA3D3E90023FFF794F890
:1010800022462B46FFF748FA2E4B0022FFF78EF838
:1010900002460B4640464946FFF768FB32463B4650
:1010A000FFF73AFA20A3D3E90023FFF77DF8324691
:1010B0003B46FFF77BF802460B46FFF777F8024600
:1010C0000B4603A1D1E9000172E700BFAFF3008036
:1010D000182D4454FB21094009F7FD0DE13D023F65
:1010E00088B20175E0EF493F3B8F68B52882A43F85
:1010F0005544880E55C1C93F7D6FEB0312D6D43FCE
:10110000555555555555C53F82922EB1C5B8B33F7B
:1011100059018D1B6C06E63FC88A599CE52A0040A0
:101120004B2D8A1C273A0340075C143326A6913CBA
:10113000182D4454FB21F93FFFFFEF3FFFFFDF3F36
:101140000000603C0000F03F0000E03F02460B461C
:1011500000206949FFF728F8684B0022FFF7DCF907
:1011600004460D460CF038F94DA3D3E90023894617
:10117000804629462046FFF7CFF94BA3D3E9002349
:10118000FFF714F822462B46FFF7C6F948A3D3E928
:101190000023FFF709F822462B46FFF7BDF946A3C7
:1011A000D3E90023FFF702F822462B46FFF7B4F9F4
:1011B00043A3D3E90023FEF7F7FF22462B46FFF7B0
:1011C000ABF941A3D3E90023FEF7F0FF22462B46FB
:1011D000FFF7A2F93EA3D3E9002382468B462046BF
:1011E0002946FFF799F93CA3D3E90023FEF7DCFF7A
:1011F00022462B46FFF790F939A3D3E90023FEF7E7
:10120000D5FF22462B46FFF787F937A3D3E9002302
:10121000FEF7CAFF22462B46FFF77EF9364B002227
:10122000FEF7C4FF02460B4650465946FFF79EFAAA
:1012300042464B46FFF770F9002682468B463246FF
:101240004B4630464946FFF767F902460B462046B3
:101250002946FEF7A9FF324604460D464B46404656
:101260004946FEF7A3FF02460B4620462946FFF7F4
:101270007DFA02460B4650465946FEF797FF324626
:101280004B46FEF793FF02460B46FEF78FFF00E644
:1012900000200021FDE516A1D1E90001F9E500BF1C
:1012A00009F7FD0DE13D023F88B20175E0EF493FCE
:1012B0003B8F68B52882A43F5544880E55C1C93F6D
:1012C0007D6FEB0312D6D43F555555555555C53F47
:1012D00082922EB1C5B8B33F59018D1B6C06E63F13
:1012E000C88A599CE52A00404B2D8A1C273A0340A6
:1012F000182D4454FB21F93F0000F03F0000E03F6F
:101300002DE9F04F93B0CDE90223DDE9022626F066
:10131000004555EA02030746884600F0BF847E4B2D
:1013200021F000449C428946824609DC03D178B909
:10133000A54202DD0CE09D4202DC9D420ED16AB165
:1013400004F1404404F5801454EA0A0300F0A68432
:10135000724813B0BDE8F04F0CF0ECB8B9F1000FD3
:1013600039DA6F4B9D4254DCA3F154739D4240F334
:10137000A6842B15A3F2FF33142B0FDDC3F1340326
:1013800022FA03F101FA03F3934240F0988401F04A
:101390000101C1F10203009382B15EE0002A5AD13B
:1013A000C3F1140345FA03F101FA03F3AB4240F031
:1013B000838401F00101C1F102030093594B9D4266
:1013C00030D1002E80F2748456493A4643460020BC
:1013D000FFF7CCF92FE000230093002A3DD14E4BBC
:1013E0009D42EBD104F1404303F5801353EA0A0315
:1013F00000F054844C4B9C420DDD002E80F254844E
:101400004FF0000B4FF0000C5846614613B0BDE89A
:10141000F08F0223E0E7002EF2DADDE902B303F1F8
:10142000004CF1E7B6F1804F08D13A4643463846C2
:101430004146FFF771F883468C46E5E73B4B9E42F9
:101440000BD1B9F1000F08DB3846414613B0BDE8B7
:10145000F04F0BF0C1BF00230093384641460FF018
:101460008CF983468C46BAF1000F29D124B12D4B5B
:1014700029F040429A4223D1002E07DA5A466346A9
:1014800028490020FFF772F983468C46B9F1000F16
:10149000BADA009B04F1404404F58014234308D1D8
:1014A0005A46634658466146FEF77EFE02460B46A4
:1014B0008EE7009B012BA7D10CF100439C46A3E7CC
:1014C0004FEAD973013B0C930C9A009B134304D150
:1014D0003A46434638464146E6E7154B9D4240F3BF
:1014E000F98003F104739D420F4B09DD9C420CDC33
:1014F000002E85DA06A3D3E900231046194698E7A3
:101500009C42F5DB074B9C4214DD002EF2DC77E7B2
:101510009C7500883CE4377E0000F07F8536010032
:10152000FFFF3F430000F03FFFFFEF3F0000E03FC1
:101530000000E0416146624B00225846FEF734FE4F
:1015400055A3D3E9002304460D46FEF7E5FF54A357
:10155000D3E9002306460F4620462946FEF7DCFF66
:10156000584B82468B46002220462946FEF7D4FF80
:1015700002460B464CA1D1E90001FEF715FE2246BA
:101580002B46FEF7C9FF02460B4600204E49FEF7E8
:101590000BFE22462B468046894620462946FEF70A
:1015A000BBFF02460B4640464946FEF7B5FF40A347
:1015B000D3E90023FEF7B0FF02460B4650465946DA
:1015C000FEF7F2FD02460B4604460D46304639460C
:1015D000FEF7ECFD4FF0000A32463B4650468B4684
:1015E000FEF7E2FD02460B4620462946FEF7DCFDEB
:1015F000009B0C9A013B1343DDE902670CBF334BA0
:101600002F4B00260022CDE9002304460D4632462A
:101610003B46DDE90201FEF7C7FD52465B46FEF799
:101620007BFFDDE902238046894620462946FEF7F6
:1016300073FF02460B4640464946FEF7B7FD324669
:101640003B468046894650465946FEF765FF0B46A5
:1016500004460D46024649464046CDE90245FEF79E
:10166000A5FD1B4B994282460F460E4640F3EF8282
:1016700001F13F4303F5E003034300F0E9810EA3CA
:10168000D3E90023DDE90001FEF746FF0AA3D3E911
:101690000023CEE6AFF30080000000604715F73F5F
:1016A00044DF5DF80BAE543E555555555555D53F65
:1016B000FE822B654715F73F9C7500883CE4377E1A
:1016C0000000F03F0000D03F0000E03F0000F0BF0E
:1016D000FFFF8F40D44B09EA0303002243B9584669
:1016E000D24B6146FEF718FF6FF0340283460C467A
:1016F0002315A3F2FF3313440B93CD4BC4F3130410
:1017000044F07F559C4245F4401508DDC94B9C428E
:1017100040F39C810B9B01330B93A5F580150026AC
:10172000F3000D93C44B03EBC603D3E900345846D2
:10173000CDE908341A4629462346FEF735FDDA4638
:1017400052462B46CDE90E01DDE90801FEF72EFDDC
:1017500002460B460020B949FFF708F802460B463F
:10176000CDE91001DDE90E01FEF7D6FECDE9060157
:10177000DDE90634CDE9043400230493DDE904896E
:10178000AB466D1045F0005505F5002505EB864389
:1017900000224046494614461D46FEF7BDFE02465D
:1017A0000B46DDE90E01FEF7FFFCDDE908230646E6
:1017B0000F4620462946FEF7F7FC02460B465046E8
:1017C0005946FEF7F1FC42464B46FEF7A5FE02469F
:1017D0000B4630463946FEF7E7FCDDE91023FEF7FD
:1017E0009BFEDDE90623CDE9080110461946FEF708
:1017F00093FE7BA3D3E9002304460D46FEF78CFE3F
:1018000079A3D3E90023FEF7D1FC22462B46FEF74D
:1018100083FE77A3D3E90023FEF7C8FC22462B46BC
:10182000FEF77AFE74A3D3E90023FEF7BFFC22463D
:101830002B46FEF771FE72A3D3E90023FEF7B6FC38
:1018400022462B46FEF768FE6FA3D3E90023FEF77E
:10185000ADFC224606460F462B4620462946FEF79B
:101860005BFE02460B4630463946FEF755FE4246C1
:1018700004460D464B46DDE90601FEF797FCDDE91F
:101880000823FEF749FE22462B46FEF78FFC424610
:1018900006460F464B4640464946FEF73DFE684B1E
:1018A000002282468B46FEF781FC32463B46FEF71D
:1018B0007DFC00240D4622460B4640464946FEF775
:1018C0002BFE5F4B80468946002220462946FEF7C4
:1018D0006BFC52465B46FEF767FC02460B46304601
:1018E0003946FEF761FCDDE90623FEF715FE2246C8
:1018F00006460F462B46DDE90801FEF70DFE0246BF
:101900000B4630463946FEF751FC06460F46024666
:101910000B4640464946FEF749FC00243CA3D3E968
:10192000002320460D46FEF7F7FD4246CDE90601AD
:101930004B4620462946FEF737FC02460B4630460A
:101940003946FEF731FC34A3D3E90023FEF7E4FD6A
:1019500033A3D3E9002306460F4620462946FEF767
:10196000DBFD02460B4630463946FEF71FFC0D9A5A
:10197000344B1344D3E90023FEF718FC80460B9840
:101980008946FEF75FFD0D9A2F4B1344D3E900679C
:1019900004460D4642464B46DDE90601FEF706FCCD
:1019A00032463B46FEF702FC22462B46FEF7FEFB84
:1019B0004FF0000A22462B4650468B46FEF7F4FBBA
:1019C00032463B46FEF7F0FBDDE90623FEF7ECFB73
:1019D00002460B464046494608E600BFAFF300808A
:1019E000EF4E454A287ECA3F65DBC9934A86CD3F04
:1019F00001411DA96074D13F4D268F515555D53FEA
:101A0000FFAB6FDBB66DDB3F033333333333E33F81
:101A1000000000E009C7EE3FFD033ADC09C7EE3FD6
:101A2000F5015B14E02F3EBE0000F07F0000404354
:101A30008E98030079B60B00481101000000F03FBA
:101A4000000008406811010058110100012667E6F6
:101A50009DA3D3E9002340464946FEF7A7FB224653
:101A6000CDE904012B4650463946FEF79DFB024660
:101A70000B46DDE90401FFF749F800287FF4FFADCC
:101A8000A54A26F00043934240F303811B154FF40F
:101A9000801AA3F2FE334AFA03F33344C3F30A5223
:101AA0009E4FA2F2FF321741C3F3130A002023EA2C
:101AB0000701C2F114024AF4801A4AFA02FA002E0F
:101AC00002460B4620462946B8BFCAF1000AFEF777
:101AD0006BFBCDE9020142464B46DDE90201FEF710
:101AE00065FB00247AA3D3E9002320460D46FEF7C8
:101AF00013FDDDE9022306460F4620462946FEF780
:101B000053FB02460B4640464946FEF74DFB72A387
:101B1000D3E90023FEF700FD71A3D3E9002380463B
:101B2000894620462946FEF7F7FC02460B4640460A
:101B30004946FEF73BFB04460D4602460B4630463F
:101B40003946FEF733FB32463B4680468946FEF770
:101B50002BFB02460B4620462946FEF725FB424654
:101B600006460F464B4640464946FEF7D5FC5EA367
:101B7000D3E9002304460D46FEF7CEFC5CA3D3E96F
:101B80000023FEF711FB22462B46FEF7C5FC5AA3A5
:101B9000D3E90023FEF70AFB22462B46FEF7BCFCE6
:101BA00057A3D3E90023FEF7FFFA22462B46FEF7A0
:101BB000B3FC55A3D3E90023FEF7F8FA22462B46DF
:101BC000FEF7AAFC02460B4640464946FEF7ECFAF1
:101BD00004460D4602460B4640464946FEF79CFC2D
:101BE0000022CDE902014FF0804320462946FEF74E
:101BF000DBFA02460B46DDE90201FEF7B7FD32468D
:101C000004460D463B4640464946FEF785FC3246B3
:101C10003B46FEF7CBFA02460B4620462946FEF726
:101C2000C3FA42464B46FEF7BFFA02460B46002077
:101C30003B49FEF7B9FA01EB0A54B4F5801F2BDAE1
:101C4000524600F075F8DDE90023FFF7F2BB354B93
:101C500021F000479F427FF713AF334B0B44034300
:101C60000BD02BA3D3E90023DDE90001FEF754FCE0
:101C700027A3D3E90023FFF7DCBB22462B46FEF760
:101C800093FA42464B46FEF737FF00283FF4F8AE82
:101C9000E7E74FF0000A1EE72146D4E7DFF880C0EF
:101CA0004FF0000BFFF7B0BBDDE902BCFFF7ACBBA8
:101CB00038464146FFF7BFBB0092FFF77FBB0023CA
:101CC000FFF769BBAFF30080FE822B654715973C99
:101CD00000000000432EE63FEF39FAFE422EE63FB9
:101CE000396CA80C615C20BED0A4BE726937663E18
:101CF000F16BD2C541BDBB3E2CDE25AF6A56113F0C
:101D000093BDBE166CC1663F3E5555555555C53FF2
:101D100059F3F8C21F6EA5010000E03FFFFF0F005E
:101D20000000F03FFFCB904000346F3F0000000008
:101D3000F8B5C1F30A5604460D4617460B4696B948
:101D400021F00043034339D0334B0022FEF7E4FB7C
:101D5000324B9F4204460D460FDA2BA3D3E90023F2
:101D6000FEF7DAFB06E040F2FF7296420AD1024625
:101D7000FEF71CFA04460D4620E00B46C1F30A515B
:101D8000A1F13606B91940F2FE7291420EDD05F05E
:101D9000004444F0FC4141F45F1141F410511CA394
:101DA000D3E900231E4841F03C01D9E7002908DDB2
:101DB00023F0FF4323F4E00343EA0155204629467C
:101DC000F8BD11F1350F12DA4CF250339F424FEA51
:101DD000D5734FEAC374DCDC44F0D27141F4B731FF
:101DE00009A3D3E900230F4841F01F01B8E723F00E
:101DF000FF43363123F4E00343EA015520460A4B02
:101E000029460022ACE700BF59F3F8C21F6EA501B6
:101E10009C7500883CE4377E00005043B03CFFFFD7
:101E20009C75008859F3F8C20000903C0000000047
:101E30002DE9F04390468BB01C46814600220023DA
:101E400040462146DDE91275159EFEF741FE08B1B8
:101E500004F100440022002340462146FEF72EFEF6
:101E600038B130232B7000236B7028460BB0BDE8CF
:101E7000F0834DA3D3E9002340462146FEF732FE0E
:101E800060B19DF850300193013F029600974246A1
:101E90002346294648460EF0D6FCE6E738460CF0C5
:101EA00001F942462346FEF71DFE0028E9D109ABA1
:101EB000049308AB039307ABCDE9017302230093AE
:101EC00042462346484600F073F8079A42F20F73E1
:101ED0009A4201460FD02B462F44084611F801CBF9
:101EE000079AFC1ABCF1000F01D0002A07DC002180
:101EF0004FF0300C0CE028460EF091FEB5E7013AA9
:101F000003F801CB0792E8E703F801CB013C01217C
:101F1000002A17462ADC01B107920EB9027812B3E3
:101F2000AB4204BF302203F8012B2E221A70079A0D
:101F300019460027A2EB030C4FF0300E1CEB010FEB
:101F40001CD4002AC2F10001C8BF002101F1010C1C
:101F500063440A4407B10792421E12F8011F09B1F7
:101F6000002C0FDCDEB900221A707EE7002C02F193
:101F7000FF32C9DC0029D0D00797CEE701F801EF86
:101F80000127DBE703F8011B013CE6E702F8016BE0
:101F9000811A0029FADC002CA8BF1B19E3E71A46B6
:101FA00018193026F4E700BF2D431CEBE2361A3F28
:101FB0002DE9F04F446A99B016461F46CDE90467F3
:101FC000DDF89480054674B910200BF085FB0246BD
:101FD000686220B9A84BEA21A8480CF0A7FBC0E929
:101FE00001440460C4606B6A196851B15A684A6060
:101FF000012393408B6028460BF080FD6B6A002222
:102000001A603B1EB9BF23F0004305930023C8F8B4
:102010000030DDF814909A4BBCBF0122C8F80020B4
:1020200033EA090319D1249A42F20F731360C9F3FA
:102030001303334300F08085269B53B9914B22E074
:10204000914B03930833269A1360039819B0BDE8A7
:10205000F08F8C4B03930333F5E7DDE90434CDE9CE
:102060000C34DDE90C0100220023FEF727FD804639
:1020700058B1249A01231360269B002B00F0598548
:1020800082481860431E0393DFE716AB019317AB3A
:1020900000932846DDE90C230BF0A8FFC9F30A548E
:1020A0008346002C7ED00D9BCDF84C80C3F31303E8
:1020B000DDE90C0143F07F5141F44011A4F2FF34FB
:1020C000734B0022FEF770F865A3D3E90023FEF7F7
:1020D00023FA65A3D3E90023FEF768F806462046F5
:1020E0000F46FEF7AFF962A3D3E90023FEF714FA17
:1020F00002460B4630463946FEF758F806460F466C
:10210000FEF724FD00228246002330463946FEF7C2
:10211000DFFC48B15046FEF795F932463B46FEF7E4
:10212000CDFC08B90AF1FF3ABAF1160F57D8594B4E
:1021300003EBCA03D3E90023DDE90C01FEF7C8FC79
:1021400000284ED00AF1FF3A00230F93169B1C1B68
:10215000631E099345BFC4F10103069300230023C6
:102160004CBF09930693BAF1000F3CDB099BCDF8F5
:1021700038A05344099300230A93229B092B00F2B1
:102180008D80052BC4BF043B2293229BA3F1020345
:10219000CCBF00240124032B00F28C80DFE803F085
:1021A0002D4F4D5BDDE916431C4404F23243202BD6
:1021B000C3BFC3F1400304F2124009FA03F3C3F1B1
:1021C0002003C6BF26FA00F0184306FA03F0FEF714
:1021D00029F90123A1F1F871013C139370E7012360
:1021E000B3E70F90B2E7069BA3EB0A030693CAF18D
:1021F00000030A9300230E93BFE700230B93239B56
:10220000002B5ADC4FF00109CDF820904B46CDF859
:102210008C90686A00224260042202F114069E42F9
:10222000416850D928460BF029FC039000284ED174
:10223000194B02464FF4D571CEE60123DEE70023A9
:102240000B93239B0AEB030909F10103012B08936C
:10225000B8BF0123DDE70123F2E700BFAFF3008041
:1022600061436F63A787D23FB3C8608B288AC63F9C
:10227000FB799F501344D33F9235010095360100FE
:102280000000F07F8F360100863601009436010091
:102290000000F83FB01101000636010001240023C0
:1022A00022930B944FF0FF390022CDF82090122397
:1022B0002392AEE701230B93F4E7DDF88C90CDF881
:1022C00020904B46A5E7013141605200A5E76B6ABB
:1022D000039A1A60089B0E2B00F2A880002C00F0D5
:1022E000A580BAF1000F34DD9A4A0AF00F0302EB21
:1022F000C303D3E900341AF4807FCDE910344FEAE8
:102300002A1416D0944BDDE90C01D3E90823FEF71B
:102310002DFACDE9040104F00F0403278E4E54B9C1
:10232000DDE91023DDE90401FEF720FACDE904011F
:1023300029E00227F2E7E10708D5DDE91001D6E937
:102340000023FEF7E9F8CDE91001013764100836E3
:10235000E5E700F0A580CAF100047E4B7E4E04F054
:102360000F0203EBC203D3E90023DDE90C01FEF702
:10237000D3F8CDE90401241100230227002C40F0FA
:102380008480002BD2D10F9B002B00F08B80DDE9E5
:102390000434CDE91034DDE91001704B0022FEF762
:1023A00097FB00287ED0089B002B7BD0B9F1000F53
:1023B00038DDDDE910016A4B0022FEF7ADF8CDE90A
:1023C00004010AF1FF3801374C463846FEF73AF867
:1023D000DDE90423FEF7A0F8624B0022FDF7E6FEDC
:1023E000A1F15076CDE910011196002C5DD1DDE907
:1023F00004015D4B0022FDF7D7FE02460B46CDE9F6
:102400000423109A3346FEF781FB002840F09C829B
:10241000DDE90401109A06F10043FEF759FB00289C
:1024200040F09082DDE90C34CDE90434179B002B99
:10243000C0F25281BAF10E0F00F34E81454B03EB0F
:10244000CA03D3E90034CDE90634239B002B80F284
:10245000DB80089B002B00F3D78040F07282424B58
:102460000022DDE90601FEF757F8DDE90423FEF757
:1024700043FB089C2646002840F04882039F3123F6
:1024800007F8013B0AF1010A44E2E20705D5D6E963
:102490000023FEF741F801370123641008366DE789
:1024A000022770E7089CD0468FE70399294B214407
:1024B00012910B9903EBC403DDE9106753E9022382
:1024C000002955D029490020FEF750F93B463246F5
:1024D000FDF76AFECDE91001039FDDE90401FEF777
:1024E00035FB0446FDF7AEFF02460B46DDE904016D
:1024F000FDF75AFE303402460B46CDE9042307F8B7
:10250000014BDDE91023FEF7E3FA002874D1DDE981
:10251000042312490020FDF747FEDDE91023FEF7F2
:10252000D7FA002840F0B780129B9F423FF47AAF61
:10253000DDE910010A4B0022FDF7EEFF084BCDE963
:1025400010010022DDE90401FDF7E6FFCDE90401F9
:10255000C3E700BFB0110100881101000000F03F87
:102560000000244000001C40000014400000E03F38
:1025700030463946FDF7D0FFCDE91001129B039C90
:102580001493DDE90401FEF7E1FA1590FDF75AFF17
:1025900002460B46DDE90401FDF706FE159B3033CC
:1025A00004F8013B129B9C4206460F464FF0000286
:1025B00024D1A44BDDE91001FDF7F8FD02460B46DE
:1025C00030463946FEF7A2FA002863D1DDE9102330
:1025D0009C490020FDF7E8FD02460B46304639468F
:1025E000FEF776FA00283FF41DAF149F7B1E14936C
:1025F00017F8013C302BF8D0C2463BE0924BFDF778
:102600008BFFCDE90401BCE7DDE90489039FDDE927
:10261000062340464946FEF7A9F8FEF797FA044616
:10262000FDF710FFDDE90623FDF776FF04F1300624
:1026300002460B4640464946FDF7B6FD07F8016BDA
:10264000039EDDF820C0BE1BB44502460B4636D1C2
:10265000FDF7ACFDDDE9062380468946FEF756FA14
:1026600058BBDDE9062340464946FEF727FA08B184
:10267000E10722D4284659460BF040FA00233B706C
:10268000249B0AF101001860269B002B3FF4DDAC6F
:102690001F60DAE427463B461F4613F8012D392A0E
:1026A00007D1039A9A42F7D10399302208F1010821
:1026B0000A701A7801321A709EE7D046EBE7624B37
:1026C0000022FDF729FF0022002380468946FEF7FD
:1026D000F5F900289BD0CDE70B9A002A00F0D080B6
:1026E000229A012A00F3B280139A002A00F0A680F1
:1026F00003F233430A9C069F069A1A440692099AEB
:1027000001211A44284609920BF060FA0646002F70
:102710000CDD099B002B09DDBB42069AA8BF3B4696
:10272000D21A0692099AFF1AD31A09930A9BF3B197
:102730000B9B002B00F0A880002C10DD31462246B8
:1027400028460BF001FB5A460146064628460BF088
:1027500053FA5946804628460BF0D0F9C3460A9BE7
:102760001A1B04D0594628460BF0EEFA8346012185
:1027700028460BF02BFA0E9B002B044640F3868074
:102780001A46014628460BF0DFFA229B012B04462D
:102790007FDD4FF00008236904EB830318690EF016
:1027A000FFF8C0F12000099B184410F01F0000F052
:1027B0009280C0F12003042B40F38A80C0F11C00FA
:1027C000069B03440693099B034407440993069B15
:1027D000002B05DD59461A4628460BF00FFB8346B1
:1027E000099B002B05DD21461A4628460BF006FB07
:1027F00004460F9B002B70D0214658460EF01DF961
:1028000000286ADA002359460A2228460BF098F974
:102810000B9B0AF1FF3A8346002B00F0948131466E
:1028200000230A2228460BF08BF9B9F1000F064667
:1028300000F39380229B022B57DC8EE0169BC3F1A2
:10284000360357E70000E03F00002440089B5C1E71
:102850000A9BA342BFBF0A9B0A94E21A0E9BB6BF13
:102860009B181C1B0E93089BB8BF0024002BB9BFFC
:10287000069B089A069F089BBCBF9F1A00233BE754
:102880000A9C069F0B9E42E70A9A6BE7229B012B4C
:1028900019DC049BBBB9059BC3F313039BB9059BD0
:1028A00023F000431B0D1B0583B1069B01330693E8
:1028B000099B013309934FF001080E9B002B7FF415
:1028C0006AAF01206FE74FF00008F6E79846F4E79B
:1028D0003FF47DAF18461C3072E7089B002B36DCB6
:1028E000229B022B33DDDDF82090B9F1000F0DD1D2
:1028F00021464B46052228460BF022F901460446A4
:1029000058460EF09AF800283FF7B8AD239B039F76
:102910006FEA030A4FF00008214628460BF0EEF854
:10292000002E3FF4A7AEB8F1000F05D0B04503D09C
:10293000414628460BF0E2F8314628460BF0DEF817
:1029400098E600242646E1E7C246264696E50B9B1C
:10295000DDF82090002B00F0FD80002F05DD3146D2
:102960003A4628460BF04AFA0646B8F1000F5CD00A
:10297000716828460BF082F8074628B9804B02465A
:1029800040F2EA21FFF728BB32690232920006F1D9
:102990000C010C300DF014FF0122394628460BF0D3
:1029A0002DFA039B01330893039B4B440A93049B2A
:1029B00003F00103B04609930646089B2146013BFC
:1029C000584604930EF033F90346303306904146DF
:1029D00058460B930EF031F8324681462146284680
:1029E0000BF07CFAC2680B9B074602BB01465846B7
:1029F0000EF023F80B9B024639462846CDE90B32F0
:102A00000BF07CF8229B0C9A089F43EA0201099B79
:102A10000B430B9B0DD1392B29D0B9F1000F01DDF0
:102A2000069B3133049A137076E73046B9E70122EA
:102A3000E2E7B9F1000F06DB229941EA0909099999
:102A400059EA010120D1002AECDD5946012228462D
:102A500008930BF0D3F9214683460DF0EEFF0028D2
:102A6000089B02DCDED1DA07DCD5392BD8D1049AF9
:102A7000392313703B461F46013B17F8012C392AB6
:102A800050D001321A7047E7002A03DD392BEED00F
:102A90000133C7E7089A0A9902F8013C8A422AD012
:102AA000594600230A2228460BF04AF8B0458346CF
:102AB0004FF000034FF00A024146284607D10BF0C1
:102AC0003FF880460646089B0133089375E70BF0F4
:102AD00037F83146804600230A2228460BF030F8AA
:102AE0000646F0E7B9F1000F039ACCBF4F46012725
:102AF00017444FF0000859460122284608930BF06E
:102B00007DF9214683460DF098FF0028B2DC02D102
:102B1000089BDB07AED43B461F4613F8012D302A35
:102B2000FAD0F9E6039A9A42A5D10AF1010A3123B3
:102B300079E7144BFFF7A7BA269B002B7FF480AAF6
:102B4000114BFFF7A0BAB9F1000F03DC229B022B57
:102B50003FF7CBAE039F214658460EF068F800F1D0
:102B6000300307F8013B039ABA1A9145BADD59467A
:102B700000230A2228460AF0E3FF8346EBE700BF62
:102B800006360100933601008636010038B50B7811
:102B9000062B77D8DFE803F004080C075A5E7200B2
:102BA0003A480CF079FA38BD39480CF075FAFAE772
:102BB0000C4638480CF070FA374D2A68A368E16873
:102BC00036480CF069FAE2682B681344B3F5804F7D
:102BD00007D98022114632480CF05EFA00222A60A2
:102BE000E1E72D4D2B68A1682E4801442E4818447A
:102BF0000DF0E6FDE2682B6813442B602B68B3F5FB
:102C0000804FD0D100222A60284808F031FA4FF0D6
:102C10002003EFF3118283F31288BFF36F8F244BED
:102C20001A604FF02003EFF3118283F31288BFF391
:102C30006F8F204B1A604FF02003EFF3118283F364
:102C40001288BFF36F8F1C4B1A60ACE71B480CF067
:102C500023FAA8E71A4B18688368DC684FF47A7384
:102C60004FF480420F49A047014600289BD01548E9
:102C70000CF012FA4FF0FF300AF01AFD12480CF077
:102C80000BFA90E711480CF007FA8CE77812010074
:102C900090120100AC120100A8C90020C41201006A
:102CA000E8120100404900204089002040C900206E
:102CB00034490020384900203C49002020130100FD
:102CC000A4C900204013010068130100841301000F
:102CD0002DE9F84339480CF0DFF90DF015FD4FF4FC
:102CE0007A794FF000084F464646444645463DE057
:102CF000334AD25CC2540133B3F5804FF8DB314B19
:102D000019680CF00FF9304808F0B2F92F4808F0B4
:102D1000AFF92F4808F0ACF90DF0F6FC4A0142EA91
:102D2000D06243011B1A62EB0102920042EA9372E5
:102D30009B001B1842EB0102D20042EA5372C3F31C
:102D40001033D10B43EA42431C1B61EB0505BC4227
:102D500075EB060206DBA14578EB050204DAA14615
:102D6000A84601E027462E461C460D464FF0FF328E
:102D70004FF0FF33174808F0BFF90DF0C5FC4A01CA
:102D800042EAD06243011B1A62EB0102920042EA5E
:102D900093729B001B1842EB0102D10041EA537170
:102DA000C3F3103343EA4142CB0B0B480CF074F9E8
:102DB000044B18680CF094F800239DE79C13010065
:102DC000408900203049002050C9002070C90020EF
:102DD00060C9002040C90020B81301002DE9F84364
:102DE0002B480CF059F90DF08FFC4FF47A794FF025
:102DF00000084F4646464446454605E025490FE053
:102E000027462E461C4615464FF0FF324FF0FF3343
:102E1000214808F071F9214B1B78012BEED0204995
:102E200020480CF039F9204901F10A021F480CF042
:102E300033F91F4B19881F480CF02EF90DF064FC74
:102E400084464A0142EAD0624001B0EB0C0062EBDA
:102E500001039B0043EA9073800010EB0C0043EBEE
:102E60000103DB0043EA5073C0F31030DA0B40EA91
:102E700043431C1B62EB0505BC4275EB0601BFDB3F
:102E8000A14578EB0501BDDAA146A846BAE700BF27
:102E9000D8130100D413010080C9002016D70020E8
:102EA000D0130100EC1301000000002010140100F9
:102EB00014D700203C140100F0B589B0704807F029
:102EC000BBF9704A106040B36F480CF0E5F86D4BE9
:102ED000186883685B6A2BB36C499847034613F103
:102EE000580F22D0674B18688368DC684FF47A73F8
:102EF0004FF480426649A0470146D0B9614B18683B
:102F000083681B68CBB10022624998470146B8B17B
:102F100061480CF0C1F809B0F0BD59495F480CF0A8
:102F2000BBF8F8E76FF05703D9E75D480CF0B4F849
:102F3000F1E75C480CF0B0F8EDE76FF05701E7E718
:102F40004FF400700AF0C8FB0446002506E080201C
:102F50000AF0C2FB44F825000135EDB215F0800FF0
:102F6000F5D000210AE054F821004F4A02EBC112CB
:102F7000D25CC25401337F2BF5D901317F2901D8AE
:102F80000023F8E749480CF087F823464FF48042C5
:102F9000052147480BF062FF464B186001220021D3
:102FA00045480DF05BFB0122002144480DF056FB23
:102FB0000122002142480DF051FB0122002141482D
:102FC0000DF04CFB012200213F480DF047FB00268D
:102FD0000027CDE906670024049404230393029498
:102FE00001940094394B4FF480623949394807F015
:102FF00053FD394B1860CDE906670494052303930C
:10300000029401940094354B4FF480623449354862
:1030100007F042FD344B1860CDE9066704940223A3
:103020000393029401940094304B4FF48062304932
:10303000304807F031FD304B1860CDE90667049445
:10304000032303930294019400942C4B4FF4806269
:103050002B492C4807F020FD2B4B1860CDE9066763
:10306000049401230393029401940094274B4FF49A
:1030700080622749274807F00FFD274B18604AE771
:1030800058140100A4C900208C1401004816010046
:10309000404900208D2B0000D8140100601401006D
:1030A000A8140100401301001400002004150100C1
:1030B000101501003049002050C9002070C90020BF
:1030C00080C9002060C9002040C900201D310000D7
:1030D00040DB00208842002090C90020D12C000055
:1030E00020D7002048450020A0C90020B9320000A8
:1030F00060DF0020E843002098C90020DD2D00009B
:1031000080E30020984400209CC90020C9340000BE
:10311000A0E700203843002094C900202DE9F04F9B
:1031200083B05C480BF0B8FF0DF0EEFA4FF47A78FC
:103130000027C346BA46B946019770E00132012A1A
:1031400000DD012501335F2B08DC54F82010C95C39
:103150008029F3D0012AF2DD0022F3E701307F2835
:1031600002DC00222023EEE7002604E054F82600CB
:103170000AF0BAFA01367F2EF8DD20460AF0B4FADA
:10318000454B1D70454807F073FF0DF0BDFA03462F
:103190000C46620142EAD3625B011B1A62EB040235
:1031A000920042EA93729B001B1842EB0404E40075
:1031B00044EA5374C3F31033E50B43EA4444B4EBDD
:1031C0000902019B65EB03035A4573EB0A015ADBC5
:1031D000904577EB030159DB314B1B6883F3118872
:1031E000BFF36F8F0DF090FA4A0142EAD0624301BB
:1031F0001B1A62EB0102920042EA93729B001B18B9
:1032000042EB0102D10041EA5371C3F3103343EAA8
:103210004142CB0B23480BF03FFFA14601950DF037
:1032200073FA4A0142EAD06243011B1A62EB0102BF
:10323000920042EA93729B001B1842EB0102D100FC
:1032400041EA5371C3F3103343EA4142CB0B1648B2
:103250000BF022FF4FF0FF324FF0FF33134807F01F
:103260004BFF13480BF018FF124E30680BF07BFE3B
:1032700005460BF0D0FD0446316828460BF09CFE55
:10328000002540206BE793469A46A5E790461F46E7
:10329000A2E700BF1C15010016D7002080C900203E
:1032A0003449002058150100B813010050C900200E
:1032B00038150100304900202DE9F04F87B07848DB
:1032C0000BF0EAFE0DF020FA4FF47A7304934FF0FE
:1032D0000009CA46CDF814900193CB46B6E02DB252
:1032E00000267F2E09DCD4F8FC319B5DFF2B06D035
:1032F0000136F6E74FF0FF35F2E74FF0FF36B5F154
:10330000FF3F42D0B6F1FF3F3FD0A846B54244D080
:10331000AD1B002D3FDD013500264FF080473246C2
:103320003B4600205F4909F07FFFCDE902012846B6
:10333000FDF788F832463B4609F076FF02460B4619
:10334000DDE90201FCF732FF0AF01AF802460B46EB
:1033500000205449FDF70AFA09F038FFFDF7EEFAAC
:103360000646002D01DD00F100464F4D0A22294698
:1033700040460DF023FA0A353046FDF775F82B4626
:1033800006220AF071F900250EE032462946474828
:103390000BF082FEB9E7013DBEE70026E5E754F8F1
:1033A00025000AF0A1F901357F2DF8DD20460AF04D
:1033B0009BF93F4807F05CFE0DF0A6F94A0142EA8E
:1033C000D06243011B1A62EB0102920042EA93723F
:1033D0009B001B1842EB0104E40044EA5374C3F35E
:1033E0001033E50B43EA4444B4EB0B0B65EB0A0ADC
:1033F000019B9B457AEB090349DB049B5B45059BDD
:1034000073EB0A0347DB2B4B1B6883F31188BFF375
:103410006F8F0DF079F94A0142EAD06243011B1A1D
:1034200062EB0102920042EA93729B001B1842EB8E
:103430000102D10041EA5371C3F3103343EA414220
:10344000CB0B1D480BF028FEA346AA464FF0FF32D7
:103450004FF0FF33194807F04FFE194E30680BF05C
:1034600082FD05460BF0D7FC0446316828460BF078
:10347000A3FD14480BF010FE00257F2D3FF73AAF57
:1034800023685B5DFF2B3FF42AAF0135F5E7CDF8EC
:1034900004B0D146B7E7CDF810B0CDF814A0B2E72C
:1034A0006C1501000000604000000020B415010010
:1034B00080C9002038490020E015010070C90020B3
:1034C00030490020881501002DE9F04F83B04E48A7
:1034D0000BF0E2FD0DF018F94FF47A7B0025DA4687
:1034E000A946A8462F4670E0013101337F2B09DC45
:1034F00054F82020D25C802AF6D00129F5DD01366F
:103500000021F2E7012900DD013601307F2802DCCD
:1035100000210B46EAE73D4B1E80002604E054F8EC
:1035200026000AF0E1F801367F2EF8DD20460AF089
:10353000DBF8374807F09CFD0DF0E6F803460C4633
:10354000620142EAD3625B011B1A62EB0402920041
:1035500042EA93729B001B1842EB0404E40044EA25
:103560005374C3F31033E60B43EA4444B4EB08024C
:1035700066EB0703524573EB09013FDB934575EB9F
:1035800003013EDB234B1B6883F31188BFF36F8F6E
:103590000DF0BAF84A0142EAD06243011B1A62EB0D
:1035A0000102920042EA93729B001B1842EB010257
:1035B000D10041EA5371C3F3103343EA4142CB0BCC
:1035C00015480BF069FDA04637464FF0FF324FF02B
:1035D000FF33124807F090FD114E30680BF0C3FC2A
:1035E00001900BF018FC0446316801980BF0E4FCE4
:1035F0000C480BF051FD0026304687E7924699466D
:10360000C0E793461D46BDE7F815010014D700201A
:1036100080C900203C4900203416010060C9002008
:1036200030490020101601002DE9F04F8DB00592B1
:103630000393134602F004020192C3F3C20210F096
:103640000303029340F0938207468A460132041D29
:10365000002841D027B1E31B0433534500F28A828E
:10366000039B5D1EDDF808B0CDF810B0CDF818B0A2
:1036700000264FF00408C1460FB1039B2360531E80
:103680000793002A40F3B780059B13F0020221D074
:103690000120E11B8B081AB1B1F5007F80F0BF80DB
:1036A000BBF10F0F00F2CE80002F00F0E280DBB202
:1036B0000CAA5A4402F8103C002800F0D68063F0AF
:1036C0007F030CAA5A4402F8103C049B0133049374
:1036D0000BF1010B0434F6E001F0070A5444CAF17F
:1036E000080AB7E7252B40F0ED8001264FF00408CB
:1036F000C146E7E04FF00808C146E3E04FF0040898
:10370000C146DFE04FF00408C146DBE02A786C2AAE
:1037100026D0002604EB0802013AC8F100010A4055
:10372000144627B1D11B49448A45C0F02682732B29
:1037300059D0B9F1040F00F0A880B9F1080F40F09A
:10374000AC80169B073323F0070303F108011691A1
:10375000D3E900010FB1C2E9000102F10804B1E0B0
:103760001CF8022C6C2A04D000264FF00408C14635
:10377000D0E700264FF00808C146CBE72B784C2B4A
:103780001CD0169B073323F0070303F1080216929F
:10379000D3E90001E21D22F0070247B1D31B083331
:1037A000534515D82B784C2B15D0C2E9000102F1F6
:1037B000080400264FF00808C14683E0169B073333
:1037C00023F0070303F108021692D3E90001E1E7B1
:1037D0006FF01B00C8E1C2E90001E8E700264FF0E6
:1037E0000408C14696E7169B1A1D16921B680393A0
:1037F000079A654640E7BB4B039A9A4204D3BA4BFB
:103800009A420AD3002300E00023002B7FF43CAF50
:10381000059B03F0020200203BE70123F5E7B34CD0
:103820004FF4F8732246B249B2480BF03EFDB2485D
:103830000BF03BFD4FF4F87120460BF02FFD6FF0BD
:10384000150091E1A94C40F2F5132246A849A94878
:103850000BF02BFDA9480BF028FD40F2F511204696
:103860000BF01CFD6FF015007EE1069B0133069303
:103870002EE708B9019B13B10AF1010A28E7039862
:10388000FDF7E9FA831C9A4422E7169B191D16914D
:103890001B6807B11360141D14E0944C40F23123EF
:1038A0002246934993480BF000FD494694480BF09B
:1038B000FCFC40F2312120460BF0F0FC6FF01500CB
:1038C00052E10026654605F1010C6B78002B00F0F3
:1038D000C180002E3FF406AFA3F120015A29F0D891
:1038E00001A252F821F000BFC5380000C338000023
:1038F000C3380000C5380000C3380000C3380000DA
:10390000C3380000C3380000C3380000C3380000CB
:1039100015370000C5380000C3380000C538000066
:10392000C5380000C3380000C5380000C5380000A5
:10393000C5380000C5380000C5380000C538000093
:10394000C5380000C5380000C5380000C538000083
:10395000C3380000C3380000C3380000C33800007B
:10396000C3380000C3380000C33800007D370000B2
:10397000C3380000C3380000C33800007D370000A2
:103980007D3700007D370000C3380000C3380000D9
:10399000C3380000C3380000C5380000C338000039
:1039A000C3380000C3380000C3380000C33800002B
:1039B000C3380000C3380000C3380000C33800001B
:1039C000C3380000C33800000D370000C3380000C2
:1039D000C3380000C3380000C3380000C3380000FB
:1039E000C3380000C3380000C33800007D37000032
:1039F000C33800000D3700000D3700007D37000090
:103A00007D3700007D370000C53800000D3700000D
:103A1000F5360000C3380000C5380000C338000088
:103A2000DD3700000D370000DD370000C33800002F
:103A3000C3380000DD370000053700000D370000F7
:103A4000C3380000C33800000D370000C338000041
:103A5000FD360000E31BB3F5806F11D21FB30022C7
:103A60003A609B083B70019B0BB3069BFB70049B69
:103A7000BB70ABBB029DDDF81090DDF80C8058E008
:103A80001A4C40F23D23224619491A480BF00DFC0E
:103A90001C480BF00AFC40F23D2120460BF0FEFBD7
:103AA0006FF0150060E05344A3F108005CE0069B52
:103AB0007B70DCE704F8011B01339B45DAD90CAAC3
:103AC0001A4412F8101C12F9102C002AF4DA01F032
:103AD0007F01E21B01329245ECD26FF01B0043E004
:103AE000029BEAE7F40D0100F436010050160100D4
:103AF000541D010098160100B8160100DC160100E3
:103B0000F816010010170100019BF3B1029EE31BA0
:103B1000334401339A4533D30CAB2B4413F8103C98
:103B200004F8013B3246414620460CF049FE34443D
:103B30000135AB4517D9B9F1000FE5D00CAB2B44DB
:103B400013F9103C002BDFDAF2E70CAB2B4413F82F
:103B5000103C57F82380002247F823204046FDF709
:103B60007AF9461CD3E7E01B0DB0BDE8F08F6FF08B
:103B70000D00F9E76FF01B00F6E76FF01B00F3E7AD
:103B80006FF01B00F0E700BF38B50446436803F050
:103B900003038160022B03D9032B02D100680EE0DE
:103BA00063B9084D45232A46074908480BF07DFBB9
:103BB000452128460BF072FB002000E00020002386
:103BC000636038BD28170100541D010098160100DC
:103BD000014B1860704700BF1440002038B5044600
:103BE0008C46838B002A14DB03F007035A1F012A3B
:103BF0001BD9042B50D02F4C40F21B1322462E49C8
:103C00002E480BF052FB40F21B1120460BF046FBF6
:103C100038BDD0E900018CE8030000232360636015
:103C2000012120460BF046FAF2E7D0E900018CE8CA
:103C30000300002222606260062B0FD0052B1DD1ED
:103C4000002120460BF036FA20460BF05AFA0028E5
:103C5000DED0A38B43F02003A383D9E7DCF8003048
:103C60003BB1E28B0132E283002BF9D01B68002BC1
:103C7000F6D1022120460BF01DFAE5E70D4D40F28A
:103C800009132A460E490D480BF00FFB40F20911AB
:103C900028460BF003FBD3E700210BF00BFA20467C
:103CA0000BF02FFA0028B3D0A38B43F02003A3839B
:103CB000AEE700BF4C170100541D0100981601002B
:103CC000701701002DE9F04F83B004461646838B30
:103CD00003F0070703F008080D4631B1B8F1000FF3
:103CE00012D1002300930193AAE0DFF8E09240F2A2
:103CF00033134A46B649B7480BF0D7FA40F23311AE
:103D000048460BF0CBFAE9E7012D13D0022D16D16E
:103D1000A38B43F02003A3831434204606F084FDD4
:103D2000002800F09C8186F31188BFF36F8F03B0E9
:103D3000BDE8F08FA38B43F01003A383ECE7A34D02
:103D40004FF49E732A46A449A2480BF0AEFA4FF4F2
:103D50009E7128460BF0A2FADAE720460BF0D1F963
:103D600005466FE0D4F818904A4669462046FFF7AA
:103D700035FF002511E0002F40F081802368002BE3
:103D800000F08B8023691D68002D00F094800621CF
:103D900020460BF08FF94FF00009A38B03F00708C2
:103DA000B84500F00B81A268002A00F009810122C9
:103DB00017461AB9009A002A00F0048143F008035C
:103DC000A38304F1140A504606F02EFD002800F0EB
:103DD000158186F31188BFF36F8F002F40F01F818C
:103DE000009B2BB14B464246694620460BF0CBF96F
:103DF00015B17A492046A8474FF02003EFF311860A
:103E000083F31288BFF36F8F504606F0FDFC002845
:103E100000F00B81504606F017FDA38B23F008033A
:103E2000A383A38B13F0100F00F00F8123F0100376
:103E3000A3830125A78B07F00707002D3FF46CAF84
:103E4000022D8AD0002D3FF467AF012D8AD0032DBB
:103E500091D0042D3ED0052D40F0A080012F72D1CD
:103E60002368002B7DD023699D68002D00F087809A
:103E7000052120460BF01EF94FF000098DE7534D48
:103E80004FF4AB732A46564952480BF00EFA4FF4E2
:103E9000AB7128460BF002FA70E74C4D40F2571315
:103EA0002A4650494B480BF000FA40F25711284679
:103EB0000BF0F4F966E7DFF814814FF4AD73424676
:103EC000494944480BF0F1F94FF4AD7140460BF00D
:103ED000E5F95CE7022F0BD1E38BBBB923695D6881
:103EE00015B3042120460BF0E5F84FF0000954E724
:103EF000364D40F25D132A463C4936480BF0D5F961
:103F000040F25D1128460BF0C9F9E5E72F4D4FF45B
:103F1000AF732A4636492F480BF0C7F94FF4AF71FB
:103F200028460BF0BBF9D9E7DFF8A08040F2611317
:103F300042462D4927480BF0B8F940F2611140463E
:103F40000BF0ACF9CDE7214D4FF4B2732A46294965
:103F500020480BF0AAF94FF4B27128460BF09EF9F5
:103F60007EE71A4D40F265132A461E4919480BF0A8
:103F70009CF940F2651128460BF090F973E7DFF8E1
:103F80004C804FF4B4734246174912480BF08DF938
:103F90004FF4B47140460BF081F969E70B4D40F2E4
:103FA0006B132A4614490B480BF07FF940F26B1152
:103FB00028460BF073F90025A946EEE60022F7E645
:103FC0000022F5E6002D7FF4F9AE2AE74C17010038
:103FD0009817010098160100A817010099400000E9
:103FE000BC170100C8170100EC17010004180100FC
:103FF0001C1801002C180100541D0100DFF880B0CE
:10400000B9235A461F4920480BF04FF951461F4823
:104010000BF04BF9B92158460BF040F9D9E64A4666
:10402000414620460BF04EF8DAE6154D8E232A461F
:10403000174915480BF039F9514616480BF035F978
:104040008E2128460BF02AF9E4E613F0200F04D065
:1040500023F02003A3830225ECE60025EAE6084DC1
:10406000B9232A46074908480BF01FF9214607489B
:104070000BF01BF9B92128460BF010F953E600BFED
:104080004418010074180100981601008C180100F2
:10409000A4180100BC1801002DE9F04104460D46AA
:1040A00000F114064FF02003EFF3118783F3128819
:1040B000BFF36F8F304606F0A7FB50B1304606F0D5
:1040C000C3FBA5613A4601212046FFF7FBFDBDE891
:1040D000F081DFF820808E234246074907480BF025
:1040E000E4F8314606480BF0E0F88E2140460BF02C
:1040F000D5F8E3E744180100A41801009816010060
:10410000BC1801002DE9F84F044688460BF012F860
:10411000061E58DB04F114074FF02003EFF311895A
:1041200083F31288BFF36F8F384606F06DFBE8B15A
:10413000384606F089FBA58B05F00705E38B4FF6A3
:10414000FF72934256D02E46022D1FD02DB3042D60
:1041500023D0062D21D0052D53D0012D36D16FF05F
:1041600004064FF0000A534652461CE03C4D8E2395
:104170002A463C493C480BF098F839463B480BF03E
:1041800094F88E2128460BF089F8D1E70133E383B8
:104190004FF0010A00231A4605E0B5FA85F35B09E2
:1041A0004FF0000A012242B10022C8F800206268E4
:1041B00072B3C2F80080C4F8048073B34A46022187
:1041C0002046FFF77FFD3046BDE8F88F284E40F2CD
:1041D000C9133246274924480BF067F840F2C91149
:1041E00030460BF05BF86FF004064FF0000A5346C0
:1041F0005246D8E76FF00A064FF0000A534652467F
:10420000D1E76FF085064FF0000A53465246CAE7E1
:10421000C4F80480C4F80080CFE7384606F004FBF9
:1042200068B189F31188BFF36F8FBAF1000FCAD05C
:1042300000232A46414620460AF092FFC3E7DFF8F2
:1042400020B0B9235A460C4907480BF02EF83946DE
:104250000A480BF02AF8B92158460BF01FF8E0E79E
:1042600044180100A418010098160100BC180100B0
:104270004C1701002C180100741801008C18010063
:104280002DE9F04706460D461446B2F5802F22D29E
:10429000042C31D9221FEC1D24F00704154425F00D
:1042A00007052D1B4FEAD508172D36D93460C4F801
:1042B00008800023E360B8FA88F6C6F12007C6F14B
:1042C0002406B60007364FEAD60909F10103434533
:1042D00034D8002349E0384F40F2E3133A463749D7
:1042E00037480AF0E2FF37480AF0DFFF40F2E311F7
:1042F00038460AF0D3FFCBE72F4F4FF4F5733A4619
:1043000031492F480AF0D1FF30480AF0CEFF4FF470
:10431000F57138460AF0C2FFBCE7274F40F2F313AD
:104320003A462B4926480AF0C0FF28480AF0BDFF4C
:1043300040F2F31138460AF0B1FFB7E7DFF878A092
:104340004FF40173524623491D480AF0AEFF1F483F
:104350000AF0ABFF4FF4017150460AF09FFFB8E737
:104360001A1D002144F822100133BB42F8DB4FEA4A
:1043700049039BB263800022228043F001036380E3
:10438000A8EB09084FEA480126F00706B31CE152E2
:1043900024F8069025F00703A91C6252254424F84E
:1043A00003806B8843F001036B80494620460AF086
:1043B0004FFFBDE8F08700BFD4180100A819010025
:1043C00098160100C0190100D8190100FC1901005C
:1043D000181A0100441A010084460268002005E012
:1043E00000EB8000013203EB4000303813780449C1
:1043F000595C11F0040FF3D1CCF80020704700BFD6
:104400006D34010070B582B0044600230360436040
:1044100083604B78252B02D04E1C01251FE0881CA1
:10442000E37045E1237843F004032370B5B101360E
:1044300014E0237843F008032370F7E7237843F070
:1044400010032370F2E7237843F020032370EDE795
:10445000237843F040032370E8E7002545B3337821
:10446000203B102BF9D801A252F823F03D44000064
:104470005B4400005B440000474400005B440000D4
:104480005B4400005B4400005B4400005B440000B0
:104490005B4400005B440000334400005B440000C8
:1044A000254400005B4400005B44000051440000D0
:1044B000237803F04403442B5FD00196237843F024
:1044C0008003237033782A2B5CD001A8FFF784FF88
:1044D000019B9E420FD0237843F0800323706060DD
:1044E000DBB2C3F34003002854DB002213432278DD
:1044F00063F341022270019B01931B782E2B14BFA2
:1045000000230123627863F341026270002B43D0E1
:10451000019B5A1C01925B782A2B3FD001A8FFF720
:104520005BFFA0602378C3F3400300283EDB00223A
:104530001343227863F341022270019803784C3BC5
:104540002E2B00F29D80DFE803F0909B9B9B9B9BB2
:104550009B9B9B9B9B9B9B9B9B9B9B9B9B9B9B9BAB
:104560009B9B9B9B9B9B339B579B459B9B9B9B9B9D
:104570009B9B899B9B9B9B9B820023786FF386135D
:1045800023709AE7637843F0010363703346013385
:104590000193B1E70122A9E70198CFE7637843F0DF
:1045A00004036370104601300190C7E70122BFE7A2
:1045B000421C4378682B06D06378022161F3C6035E
:1045C000637010461EE06378012262F3C6036370D5
:1045D000023017E0421C43786C2B06D0637803212D
:1045E00061F3C603637010460CE06378042262F343
:1045F000C6036370023005E06378052262F3C603E8
:104600006370013010F8013BE370A3F14102372AD7
:104610007DD8DFE802F05E7C7C7C5E5E5E7C7C7C2C
:104620007C7C7C7C7C7C7C7C7C7C7C7C7C4F7C7CF7
:104630007C7C7C7C7C7C5E7C4F3A5E5E5E7C3A7CE3
:104640007C7C7C654F717C7C717C4F7C7C4F63787B
:10465000062262F3C60363700130D3E76378072252
:1046600062F3C60363700130CCE76378082262F31B
:10467000C60363700130237843F002032370C1E75F
:1046800063786FF3C6036370BCE7A278012161F31E
:104690000202A270627802F07802402A10D0632BE6
:1046A00013D02378C3F34002154365F3410323700D
:1046B00002B070BDA278022161F30202A270E9E7A4
:1046C000217841F001012170E9E7151E18BF01258D
:1046D000E7E7A378042262F30203A3700125E0E771
:1046E000A378032262F30203A370637803F07803D4
:1046F000402BD6D10125D4E7A378032262F302032D
:10470000A370637813F0780FCBD00125C9E7237825
:1047100043F001032370C4E72DE9F04F83B0044652
:104720000D4601929A460C9ED378324A13F802B095
:104730000BF0030B6F2B0FD006D9702B0FD0782BFB
:1047400010D14FF0100923E0582B02D04FF00A0986
:104750001EE04FF010091BE04FF0080918E04FF081
:10476000100915E04FF00A0912E0D2B23032D2B28D
:1047700006F8012D3A46434620462946FCF72EF915
:10478000BC4275F1000319D3564517D904460D46AE
:104790004FF000084F464A46434620462946FCF75C
:1047A0001DF9092AE1D9BBF1010F03D0D2B257326A
:1047B000D2B2DDE7D2B23732D2B2D9E7019B1B7851
:1047C00013F0200F05D0B9F1080F06D0B9F1100F82
:1047D00009D0304603B0BDE8F08F019A937843F0DA
:1047E00008039370F5E7019A937843F010039370F0
:1047F000EFE700BF6D3401002DE9F04F91B00646A0
:104800000D4691460393002499F80000002800F01B
:10481000D582252808D009F101092946B04700288A
:10482000C0F2CD820134EFE7002304930593069391
:10483000079308930993494606A8FFF7E3FD029002
:104840009DF8193013F0010F00F09780039B1A1D9B
:1048500003921F68002FC0F288809DF8193013F072
:10486000040F00F09C80039B1A1D0392D3F800A054
:10487000BAF1000FC0F28A800023079308939DF8D5
:104880001A3003F007039DF81910C1F3C301012B7F
:1048900000F08E80022B00F0D380042B00F02481E6
:1048A000032B00F03B819DF8188018F0030B40F0BB
:1048B0003B819DF81B30253B532B00F2E681DFE85E
:1048C00013F04001E401E401E401E401E401E40146
:1048D000E401E401E401E401E401E401E401E401B0
:1048E000E401E401E401E401E401E401E401E401A0
:1048F000E401E401E401E401E401E401E401E40190
:10490000E401E401E401E401E401E401E401E4017F
:10491000E401E401E401E401E401E401E401E4016F
:10492000E401E401E401E4018101E401E401E401C2
:10493000E401E401E401E401E401E401E4015E01D5
:104940006701E401E401E401E4016701E401E40139
:10495000E401E401BE018101A201E401E4014D0191
:10496000E4018101E401E40181019DF8183043F084
:1049700004038DF818307F426FE79DF91830002B43
:1049800002DB4FF0FF3768E7079F66E79DF81930B5
:104990006FF341038DF819304FF0FF3A6CE713F0D5
:1049A000020F02D0DDF820A066E74FF0FF3A63E780
:1049B000CB1E042B04D8DFE803F00B1D293535008E
:1049C000039B1A1D03921B68DA170493059206E0F5
:1049D000039B1A1D03921B68DA17049305920129A1
:1049E00028D002297FF45FAFBDF91030DA170493A5
:1049F000059258E7039B073323F0070303F10802EE
:104A00000392D3E90023CDE90423E8E7039B0733AE
:104A100023F0070303F108020392D3E90023CDE951
:104A20000423DCE7039B1A1D03921B68DA17049327
:104A30000592D4E79DF8103004930023059332E7E4
:104A4000CB1E042B04D8DFE803F00B1F35414100D7
:104A5000039B1A1D03921B680493002305931EE019
:104A60009DF81B30632B07D0039B1A1D03921B6814
:104A700004930023059312E0039B1A1D03921B6805
:104A80000493002305930AE0039B073323F00703F5
:104A900003F108020392D3E90023CDE9042301299D
:104AA0001CD002297FF4FFAEBDF810300493002320
:104AB0000593F8E6039B073323F0070303F108028D
:104AC0000392D3E90023CDE90423E8E7039B1A1DF1
:104AD00003921B68049300230593E0E79DF81030D0
:104AE000049300230593DEE608290BD0039B0733CC
:104AF00023F0070303F108020392D3E90023CDE971
:104B00000423D0E6039B073323F0070303F10802D5
:104B10000392D3E90023CDE90423C4E6039B1A1DC5
:104B200003921B680493BEE6029F3B464A46294611
:104B300030460AF099FB0028C0F241810444B9468E
:104B400062E629462520B0470028C0F238810134AA
:104B5000D8460DF13E0A4FF000099BE0DDF81090B9
:104B6000BAF1000F07DB514648460BF060FE09EB37
:104B7000000AD8468EE04846FCF76DF9F7E7049B3B
:104B80008DF82830D8460DF1290A0DF1280981E069
:104B900018F0080F05D118F0100804D04FF02008C5
:104BA00001E04FF02B08049A059B002B02DB0492D6
:104BB000059308E0524263EB4303049205934FF0E0
:104BC0002D0800E0D8460DF13E0300930AAB06AA7B
:104BD000DDE90401FFF7A0FD8146BAF1000FC0F244
:104BE00088800DF13E03A3EB09039DF818206FF3B5
:104BF00086128DF818209A457ED9AAEB03030793F5
:104C00000DF13E0A46E0049828B9D846DFF8B4A171
:104C1000AAF105093EE00DF13E0300930AAB06AA96
:104C20000021FFF779FD81469DF81A3043F010030B
:104C30008DF81A3078238DF81B30D846CDE7049ACA
:104C40009DF81930C3F3C303072B06D8DFE803F040
:104C5000040B0D0F1115191B1460D8460DF13E0AF7
:104C60004FF0000916E01470F7E71480F5E71460C0
:104C7000F3E7E31714605360EFE7E3171460536042
:104C8000EBE71460E9E71460E7E7D8460DF13E0A68
:104C90004FF00009B9F1000F00F08D80AAEB090276
:104CA000B8F1000F00D001329DF81A1011F0100F6A
:104CB00025D00232079B134411F0400F01D0089A0F
:104CC0001344002F31DDFF1A9DF8183013F0040F44
:104CD0002BD113F0400F17D0B8F1000F17D0294691
:104CE0004046B04700286ADB0134D8464FF0300B0D
:104CF0000FE00DF13E0ACDE70DF13E0ACAE711F0D3
:104D0000080FD7D00132D5E74FF0200B01E04FF06C
:104D1000300B3B465F1E002B07DD29465846B04747
:104D200000284CDB01343B46F4E7B8F1000F05D016
:104D300029464046B047002841DB01349DF81A302F
:104D4000C3F30012C3F3C003134305D02946302038
:104D5000B047002833DB01349DF81A3013F0100FF0
:104D600006D029469DF81B00B047002827DB0134F8
:104D7000079B03F1FF38002B07DD29463020B047A1
:104D800000281CDB01344346F3E753464A462946D4
:104D900030460AF069FA002811DB0444002F07DDD1
:104DA00029462020B047002809DB0134013FF5E700
:104DB000DDF8089028E5DDF8089025E5204611B0DB
:104DC000BDE8F08F751A010008B54FF02002EFF32F
:104DD000118382F31288BFF36F8F01F0FFFF034846
:104DE0000AF05AF900F0A8FFFCE700BF781A0100AA
:104DF000002950D12DE9F8430746002422E0DFF8CE
:104E000098904FF499734A46244925480AF04DFA80
:104E10004FF4997148460AF041FA1FE0DFF87890A4
:104E200085234A461D491E480AF03FFA8521484617
:104E30000AF034FA1EE058F805301B68394630464F
:104E400098470134174B184A9B1AB4EB231F20DAFA
:104E50004FEA0418144D15EB0416D0D073685B7933
:104E6000002BEED0394630460AF030FA0028E8D060
:104E7000002ED3D0002FDED1DFF81C9086234A46C7
:104E80000A4907480AF011FA862148460AF006FA4C
:104E9000D1E7BDE8F8837047A41A0100DC1A0100CD
:104EA00098160100CC100100AC100100F41A0100AA
:104EB000014B53F820007047781B0100F8B5204BD8
:104EC000204A9B1A1E11902B0ED81F4BBFF35B8FED
:104ED00053E8002F511C43E800100028F8D1BFF31D
:104EE0005B8F5ABB002417E0184C40F27323224614
:104EF000174918480AF0D9F940F2732120460AF000
:104F0000CDF9E2E70F4B03EB07135B680422196846
:104F1000284600F0D3F80134B4420FDA2746094D91
:104F200005EB04152B7B002BF5D02301054AD35844
:104F30009B69002BE6D028469847E3E7F8BD00BF01
:104F4000CC100100AC100100B4C90020081B010006
:104F5000501B01009816010038B108B5044A1060D2
:104F6000084600F0C3FA002008BD6FF01500704736
:104F70001840002008B50023044A1370044A136047
:104F80004FF400410348FFF7E7FF08BD18D70020A2
:104F9000B0C90020D1F20000204B1B7803B170474C
:104FA0002DE9F041FFF78AFF002413E0DFF870805D
:104FB0004FF4997342461B491B480AF076F94FF4A7
:104FC000997140460AF06AF90FE07B595B693046F7
:104FD00098470134154B164A9B1AB4EB231F17DA76
:104FE0002701134D15EB0416E0D073685B79002B95
:104FF000EFD0002EE9D1DFF82880D72342460949B7
:1050000009480AF052F9D72140460AF047F9DCE78F
:10501000024B01221A70BDE8F08100BF18D70020B2
:10502000A41A0100DC1A010098160100CC1001003E
:10503000AC100100014B01221A70704717D70020F5
:105040000D4BBFF35B8F53E8002F013243E8002183
:105050000029F8D1BFF35B8F00B97047074BBFF34E
:105060005B8F53E8002F013A43E800210029F8D173
:10507000BFF35B8FF1E700BFB0C90020ACC90020CF
:1050800010B50446044B1B689847A06000212046D9
:10509000FFF7AEFE10BD00BF18400020054B064ACA
:1050A0009B1AB1EBD30F02D252F8310070470020A7
:1050B000704700BFAC10010064100100F8B5044651
:1050C0000E461E4D451B2D11013503681B6863B14B
:1050D000EDB2CCB163681D7114B363681E60636880
:1050E00001225A71FFF7A6FFF8BD154FBB233A46C0
:1050F000144915480AF0D9F814480AF0D6F8BB212B
:1051000038460AF0CBF8E3E7114FE6233A46114957
:105110000D480AF0CAF8E62138460AF0BFF8D9E788
:105120000B4D40F217132A460A4907480AF0BDF80A
:1051300040F2171128460AF0B1F8CEE7AC10010092
:10514000841B0100E01B010098160100F81B010000
:10515000A41A0100DC1A01000EB400B582B00146A9
:1051600003AB53F8042B01930348FFF745FB02B050
:105170005DF804EB03B0704705F3000030B585B06F
:1051800011F0440F05D01A4B1C6834B9002005B04B
:1051900030BD1849FFF7E0FFF9E7174B1968B2FB7C
:1051A000F1F1B1FBF4FC154AA2FB0C32D20A4FF428
:1051B000616E0EFB12CE124BA3FB0E535B0904FB78
:1051C0001C114FF47A7C0CFB01F1B1FBF4F505FBEB
:1051D00014110CFB01F1B1FBF4F102910195C3EB49
:1051E0000311AEEB810100910649FFF7B5FFCEE751
:1051F000B8C900201C1C0100BCC90020C5B3A29185
:1052000089888888281C010061B108B52AB1064A3E
:1052100052F8232012B9054A00E0044A0449FFF776
:105220009BFF08BD704700BFE81C0100441C010043
:105230004C1C010011F0100F0BD108B511F0200F1C
:1052400003D00449FFF788FF08BD0349FFF784FF37
:10525000FAE770471C130100483401002DE9F041C2
:1052600005460F46164698460699FFF7E3FF0024C9
:10527000444505DA24492846FFF76EFF0134F7E775
:10528000002409E020492846FFF766FF0BE01F498C
:105290002846FFF761FF01340F2C0CDC002C02DDE7
:1052A00014F0070FEED0B442F1D23A5D1849284607
:1052B000FFF752FFEFE717492846FFF74DFF00249D
:1052C00009E011492846FFF747FF0BE0124928463D
:1052D000FFF742FF01340F2C13DC002C02DD14F029
:1052E000070FEED0B44207D23A5D0C4BD35C13F0FB
:1052F000970FEBD12E22E9E703492846FFF72CFF51
:10530000E8E7BDE8F08100BF741C0100581C0100F3
:10531000501C01005C1C0100601C01006D34010088
:105320002DE9F041804616461D46BDF9187059B961
:105330000024002F1CDB86B10123079A934013F051
:10534000100F18D10D4E09E00D4B079A53F822208B
:105350000C49FFF701FF0446EBE7084E39462846A3
:10536000FFF79CFE024631464046FFF7F5FE044437
:105370002046BDE8F081044EF0E700BF641C010048
:10538000FC1C0100701C01006C1C01002DE9F04F99
:1053900085B005460C46164603939DF8388001F00B
:1053A000020B01F0010AC1F3C00909F0A9FFE8B13D
:1053B000024613492846FFF7CFFE0746BBF1000F10
:1053C00016D142465146284609F0C6FFCDF8048062
:1053D000BDF9403000939DF83C303246494628469E
:1053E000FFF79EFF384405B0BDE8F08F0027E5E7E2
:1053F000039A21462846FFF7C1FE0744E1E700BFB4
:10540000781C01002DE9F04784B006460C4617468B
:105410008B680A88C2F3821812F4E07F37D04A689A
:105420000978C1F3C2017AB32948121A42F3CF02B4
:1054300002920191CDF80080002239463046FFF7F4
:10544000A5FF8146254655F8103BC3F3492353B1C8
:10545000B8F1000F1ED11F482B4632461E4909F0F5
:10546000CFFD002818DB6288C2F3CB022168C1F3AC
:1054700049212944FAB9B8F1000F22D1304609F088
:105480009EFF04B0BDE8F0874FF0FF32D0E74FF049
:105490000009D7E71148DFE7DFF844A040F2B7235F
:1054A00052461049104809F000FF40F2B72150461B
:1054B00009F0F4FED7E700974B46304609F064FF49
:1054C000D9E742463946304609F052FFD6E700BFD9
:1054D0006410010023F30000F947000005F3000009
:1054E0007C1C0100BC1C010098160100074B012226
:1054F0001A6004E04008054A13685B001360044B1F
:105500009842F7D8034B1860704700BFBCC9002011
:1055100040420F00B8C900202DE9F04F87B002AF1C
:105520008246796091469846BE6BD7F840B0BBF191
:10553000000F16D07B6CFB6000935B46FA6B10216A
:105540000020FEF771F8051E0CDA264C6723224670
:105550002549264809F0A9FE6721204609F09EFE4C
:1055600000E000252946AB19173300246FF300042F
:105570006FF341046FF382046AF3C50469F388147E
:1055800065F3522466F3DE446FF3DF7423F0070300
:10559000ADEB030D02AD6B4613F118000AD0BBF161
:1055A000000F07D07B6C00935B46FA6BFEF73CF86C
:1055B000002809DB434622467968284609F00CFF9B
:1055C0001437BD46BDE8F08FDFF8189081234A46B6
:1055D0000549064809F069FE8121484609F05EFE4A
:1055E000E8E700BF101D01004C1D010098160100E6
:1055F00070B506460D46002406E0054B1868315D7F
:105600008368DB6998470134AC42F6D3284670BD05
:10561000D8C90020014B196000207047C8C900207C
:1056200010B50948094B18600AF082FF00B110BD9F
:10563000074C792322460749074809F036FE7921AD
:10564000204609F02BFEF2E7CC0E0100D8C900205D
:10565000581D0100901D01009816010008B5034B6C
:1056600001221A70024809F0AAFE08BD19D70020CD
:10567000EC1D010010B50C46044B1868FFF718FC30
:1056800003460F2221460248984710BDC8C9002092
:10569000EC1D0100034B01221A70034B034A1A60F0
:1056A000704700BF1AD7002004CA0020ECC90020B0
:1056B000014B19600020704708CA002008B518B9CE
:1056C000044B00221A7008BD41F288300BF020F81C
:1056D000F9E700BF1AD7002038B504460A4B01226B
:1056E0001A700A4B1B782BB938BD651E2046FFF790
:1056F000E5FF2C46002004F05BFD0028F4D0024BAF
:105700001B78002BF1D1EFE71AD700201BD7002020
:10571000F8B506460D46042706E03846FFF7DCFFDD
:105720009CB90D4B1B7883B12A463146002004F00A
:10573000DBFC04460028F0D1074B1B78002BEFD090
:10574000013F3846FFF7BAFFEAE714B9024B1B786E
:1057500003B92C462046F8BD1AD7002008B5034BE4
:1057600001221A70024809F02AFE08BD1BD700204A
:105770002C1E010010B50C46044B1868FFF798FB6F
:1057800003460F2221460248984710BD08CA002050
:105790002C1E010070B5404B1D7D05F01F0301223A
:1057A0009A4069093D4B03EB8103D043BFF35B8F04
:1057B00053E8001F01EA000443E80046002EF7D139
:1057C000BFF35B8F0A4200D170BD354A05EB45033C
:1057D000980002EB83033349A9B15978105C09F0B2
:1057E000FEFE4FF02003EFF3118683F31288BFF320
:1057F0006F8F2D4805F008F858B12B4805F024F8B4
:105800002A4B1C6820E0002383F31188BFF36F8FBD
:10581000E7E7274C8E2322462649274809F045FD15
:105820002149264809F041FD8E21204609F036FD28
:10583000E3E7194B1B7D03EB4303194911F82300E0
:1058400090470CB1246824B11CB1A268002AF0D1A1
:10585000F7E7154804F0E8FF70B186F31188BFF34D
:105860006F8F0F4A05EB4505A90002EB8505002364
:1058700053506B60AB60A7E70D4CB923224610492B
:105880000D4809F012FD08490E4809F00EFDB92136
:10589000204609F003FDE0E7DCD4002034CA0020F4
:1058A00024CA0020DFF5000018CA00201CCA00200E
:1058B00044180100A418010098160100BC1801004A
:1058C000741801008C18010070B504466D4B1D7DE5
:1058D0006A09BFF35B8F6C4B53F82230BFF35B8FC9
:1058E00005F01F02134113F0010F1DD005EB450316
:1058F000664A12F8233033B3B4F1FF3F39D105F0D3
:10590000EDFD4FF02003EFF3118683F31288BFF310
:105910006F8F5F4804F078FF002840D05C4804F0A7
:1059200093FF5C4B1C6855E00146284600F0D6F812
:105930000028DBD005EB4503544A02EB830307C87C
:1059400083E80700D2E705F01F02012393406D09A9
:105950004D4A02EB8505DB43BFF35B8F55E8002F13
:105960001A4045E800210029F8D1BFF35B8F0020E1
:1059700077E005EB4503454A02EB83039868410C49
:10598000C003454BC018454A4FF0000341F10001E8
:10599000FBF724F80121201A07F030F9AFE7404C5B
:1059A0008E2322463F49404809F07FFC38493F4852
:1059B00009F07BFC8E21204609F070FCAEE7314BEC
:1059C0001B7D03EB4303314911F8230090470CB1D1
:1059D000246824B11CB16268002AF0D1F7E72C4892
:1059E00004F022FF00283DD086F31188BFF36F8FAB
:1059F00005F01F03012199406B092D4A02EB830337
:105A0000BFF35B8F53E8002F0A4343E800200028D0
:105A1000F8D1BFF35B8F274B4BB11C4B05EB450215
:105A200003EB8201497813F8220009F0CCFDFFF75F
:105A3000B1FE05F01F03012404FA03F36D09124AB5
:105A400002EB8505DB43BFF35B8F55E8002F1A405F
:105A500045E800210029F8D1BFF35B8F06F0CAFAB0
:105A6000204670BD0E4CB923224613490E4809F05A
:105A70001CFC0749114809F018FCB921204609F01F
:105A80000DFCB1E7DCD4002030CA002024CA00207D
:105A900018CA00201CCA00203F420F0040420F00DD
:105AA00044180100A418010098160100BC18010058
:105AB00034CA0020C7F50000741801008C180100DA
:105AC000BFF35B8F044B53F82000BFF35B8F0038AC
:105AD00018BF0120704700BF38CA00202DE9F041EF
