:1000000020690020FD62000035E60000B5620000B6
:10001000B5620000B5620000B5620000000000009B
:10002000000000000000000000000000815A0000F5
:10003000B562000000000000295A0000B56200000F
:10004000615B0000615B0000615B0000615B0000C0
:10005000615B0000615B0000615B0000615B0000B0
:10006000615B0000615B0000615B0000615B0000A0
:10007000615B0000615B0000615B0000615B000090
:10008000615B0000615B0000615B0000615B000080
:10009000615B0000615B0000615B0000615B000070
:1000A000615B0000615B0000615B0000615B000060
:1000B000615B0000615B0000615B0000615B000050
:1000C000615B0000615B0000615B0000615B000040
:1000D000615B0000615B0000615B0000615B000030
:1000E000615B0000615B0000615B0000615B000020
:1000F000615B0000615B0000615B0000615B000010
:1001000001F0FF01102A2BDB10F0070F08D010F8C8
:10011000013B013A8B422DD010F0070F42B3F6D1CC
:10012000F0B441EA012141EA014122F007047FF0E5
:1001300000070023F0E80256083C85EA010586EA3C
:10014000010685FA47F5A3FA87F586FA47F6A5FA78
:1001500087F68EB9EED1F0BC01F0FF0102F0070284
:1001600032B110F8013B013A83EA010313B1F8D12F
:100170000020704701387047002D06BF3546033810
:10018000073815F0010F07D1013015F4807F02BF49
:10019000013015F4C03F0130F0BC0138704700BF9A
:1001A00081F0004102E000BF83F0004330B54FEA28
:1001B00041044FEA430594EA050F08BF90EA020F95
:1001C0001FBF54EA000C55EA020C7FEA645C7FEA28
:1001D000655C00F0E2804FEA5454D4EB5555B8BF4B
:1001E0006D420CDD2C4480EA020281EA030382EABC
:1001F000000083EA010180EA020281EA0303362D4E
:1002000088BF30BD11F0004F4FEA01314FF4801C20
:100210004CEA113102D0404261EB410113F0004F32
:100220004FEA03334CEA133302D0524263EB4303E9
:1002300094EA050F00F0A780A4F10104D5F1200E87
:100240000DDB02FA0EFC22FA05F2801841F10001E2
:1002500003FA0EF2801843FA05F359410EE0A5F1B6
:1002600020050EF1200E012A03FA0EFC28BF4CF0E7
:10027000020C43FA05F3C01851EBE37101F000459D
:1002800007D54FF0000EDCF1000C7EEB00006EEBAA
:100290000101B1F5801F1BD3B1F5001F0CD3490834
:1002A0005FEA30004FEA3C0C04F101044FEA44528B
:1002B00012F5800F80F09A80BCF1004F08BF5FEA12
:1002C000500C50F1000041EB045141EA050130BDF2
:1002D0005FEA4C0C404141EB0101013C28BFB1F504
:1002E000801FE9D291F0000F04BF01460020B1FA4F
:1002F00081F308BF2033A3F10B03B3F120020CDA22
:100300000C3208DD02F1140CC2F10C0201FA0CF0FF
:1003100021FA02F10CE002F11402D8BFC2F1200C64
:1003200001FA02F120FA0CFCDCBF41EA0C0190401A
:10033000E41AA2BF01EB0451294330BD6FEA040463
:100340001F3C1CDA0C340EDC04F11404C4F120024E
:1003500020FA04F001FA02F340EA030021FA04F360
:1003600045EA030130BDC4F10C04C4F1200220FAB7
:1003700002F001FA04F340EA0300294630BD21FAF5
:1003800004F0294630BD94F0000F83F4801306BFBB
:1003900081F480110134013D4EE77FEA645C18BFAF
:1003A0007FEA655C29D094EA050F08BF90EA020F46
:1003B00005D054EA000C04BF1946104630BD91EA3E
:1003C000030F1EBF0021002030BD5FEA545C05D141
:1003D0004000494128BF41F0004130BD14F5800480
:1003E0003CBF01F5801130BD01F0004545F0FE41F4
:1003F00041F470014FF0000030BD7FEA645C1ABF29
:10040000194610467FEA655C1CBF0B46024650EA5F
:10041000013406BF52EA033591EA030F41F400218B
:1004200030BD00BF90F0000F04BF0021704730B511
:100430004FF4806404F132044FF000054FF00001E6
:1004400050E700BF90F0000F04BF0021704730B5A7
:100450004FF4806404F1320410F0004548BF40427C
:100460004FF000013EE700BF42004FEAE2014FEAD1
:1004700031014FEA02701FBF12F07F4393F07F4FAC
:1004800081F06051704732F07F4208BF704793F0AF
:100490007F4F04BF41F40021704730B54FF46074C2
:1004A00001F0004521F000411CE700BF50EA0102C5
:1004B00008BF704730B54FF000050AE050EA01026E
:1004C00008BF704730B511F0004502D5404261EBDE
:1004D00041014FF4806404F132045FEA915C3FF41F
:1004E000D8AE4FF003025FEADC0C18BF03325FEABC
:1004F000DC0C18BF033202EBDC02C2F1200300FA6D
:1005000003FC20FA02F001FA03FE40EA0E0021FA91
:1005100002F11444BDE600BF70B54FF0FF0C4CF47F
:10052000E06C1CEA11541DBF1CEA135594EA0C0F31
:1005300095EA0C0F00F0DEF82C4481EA030621EA6C
:100540004C5123EA4C5350EA013518BF52EA0335A7
:1005500041F4801143F4801338D0A0FB02CE4FF059
:100560000005E1FB02E506F00042E0FB03E54FF089
:100570000006E1FB03569CF0000F18BF4EF0010E81
:10058000A4F1FF04B6F5007F64F5407404D25FEA7D
:100590004E0E6D4146EB060642EAC62141EA555130
:1005A0004FEAC52040EA5E504FEACE2EB4F1FD0C72
:1005B00088BFBCF5E06F1ED8BEF1004F08BF5FEAF0
:1005C000500E50F1000041EB045170BD06F00046A2
:1005D00046EA010140EA020081EA0301B4EB5C044F
:1005E000C2BFD4EB0C0541EA045170BD41F4801147
:1005F0004FF0000E013C00F3AB8014F1360FDEBF6C
:10060000002001F0004170BDC4F10004203C35DA47
:100610000C341BDC04F11404C4F1200500FA05F3CA
:1006200020FA04F001FA05F240EA020001F000426B
:1006300021F0004110EBD37021FA04F642EB0601E1
:100640005EEA430E08BF20EAD37070BDC4F10C040B
:10065000C4F1200500FA04F320FA05F001FA04F2CF
:1006600040EA020001F0004110EBD37041F10001BB
:100670005EEA430E08BF20EAD37070BDC4F12005C6
:1006800000FA05F24EEA020E20FA04F301FA05F22E
:1006900043EA020321FA04F001F0004121FA04F2D6
:1006A00020EA020000EBD3705EEA430E08BF20EAA6
:1006B000D37070BD94F0000F0FD101F000464000E0
:1006C00041EB010111F4801F08BF013CF7D041EA62
:1006D000060195F0000F18BF704703F00046520066
:1006E00043EB030313F4801F08BF013DF7D043EA37
:1006F0000603704794EA0C0F0CEA135518BF95EAED
:100700000C0F0CD050EA410618BF52EA4306D1D173
:1007100081EA030101F000414FF0000070BD50EA92
:10072000410606BF1046194652EA430619D094EA1C
:100730000C0F02D150EA013613D195EA0C0F05D106
:1007400052EA03361CBF104619460AD181EA03015A
:1007500001F0004141F0FE4141F470014FF0000012
:1007600070BD41F0FE4141F4780170BD70B54FF0AD
:10077000FF0C4CF4E06C1CEA11541DBF1CEA13552D
:1007800094EA0C0F95EA0C0F00F0A7F8A4EB05040F
:1007900081EA030E52EA03354FEA013100F0888006
:1007A0004FEA03334FF0805545EA131343EA1263CF
:1007B0004FEA022245EA111545EA10654FEA002684
:1007C0000EF000419D4208BF964244F1FD0404F53D
:1007D000407402D25B084FEA3202B61A65EB030599
:1007E0005B084FEA32024FF480104FF4002CB6EB56
:1007F000020E75EB030E22BFB61A754640EA0C00D6
:100800005B084FEA3202B6EB020E75EB030E22BF15
:10081000B61A754640EA5C005B084FEA3202B6EB56
:10082000020E75EB030E22BFB61A754640EA9C0015
:100830005B084FEA3202B6EB020E75EB030E22BFE5
:10084000B61A754640EADC0055EA060E18D04FEAA3
:10085000051545EA16754FEA06164FEAC30343EA43
:1008600052734FEAC2025FEA1C1CC0D111F4801F10
:100870000BD141EA00014FF000004FF0004CB6E709
:1008800011F4801F04BF01430020B4F1FD0C88BFA8
:10089000BCF5E06F3FF6AFAEB5EB030C04BFB6EBB3
:1008A000020C5FEA500C50F1000041EB045170BDA6
:1008B0000EF0004E4EEA113114EB5C04C2BFD4EBD3
:1008C0000C0541EA045170BD41F480114FF0000E57
:1008D000013C90E645EA060E8DE60CEA135594EAD3
:1008E0000C0F08BF95EA0C0F3FF43BAF94EA0C0FD6
:1008F0000AD150EA01347FF434AF95EA0C0F7FF44B
:1009000025AF104619462CE795EA0C0F06D152EA9E
:1009100003353FF4FDAE1046194622E750EA410682
:1009200018BF52EA43067FF4C5AE50EA41047FF493
:100930000DAF52EA43057FF4EBAE12E74FEA4102F6
:10094000B2F1E04324BFB3F5001CDCF1FE5C0DD92D
:1009500001F0004C4FEAC0024CEA5070B2F1004F77
:1009600040EB830008BF20F00100704711F0804F7A
:1009700021D113F13872BCBF01F00040704741F43F
:1009800080114FEA5252C2F11802C2F1200C10FA43
:100990000CF320FA02F018BF40F001004FEAC12327
:1009A0004FEAD32303FA0CFC40EA0C0023FA02F3CB
:1009B0004FEA4303CCE77FEA625307D150EA0133A1
:1009C0001EBF4FF0FE4040F44000704701F0004071
:1009D00040F0FE4040F40000704700BF53B94AB9F0
:1009E000002908BF00281CBF4FF0FF314FF0FF3037
:1009F00000F00CB8ADF1080C6DE904CE00F0CEF8B3
:100A0000DDF804E0DDE9022304B07047704700BF61
:100A10004FF0FF3C06E000BF4FF0010C02E000BFCA
:100A20004FF0010C4DF804CD4FEA410C7FEA6C5CAD
:100A30004FEA430C18BF7FEA6C5C1BD001B050EA50
:100A4000410C0CBF52EA430C91EA030F02BF90EA3B
:100A5000020F0020704710F1000F91EA030F58BFFA
:100A6000994208BF90422CBFD8176FEAE37040F05C
:100A7000010070474FEA410C7FEA6C5C02D150EAFA
:100A8000013C07D14FEA430C7FEA6C5CD6D152EAB5
:100A9000033CD3D05DF8040B704700BF844610467A
:100AA00062468C461946634600E000BF01B5FFF779
:100AB000B7FF002848BF10F1000F01BD4DF808ED49
:100AC000FFF7F4FF0CBF012000205DF808FB00BF1A
:100AD0004DF808EDFFF7EAFF34BF012000205DF874
:100AE00008FB00BF4DF808EDFFF7E0FF94BF0120C1
:100AF00000205DF808FB00BF4DF808EDFFF7CEFFC2
:100B000094BF012000205DF808FB00BF4DF808ED00
:100B1000FFF7C4FF34BF012000205DF808FB00BFD1
:100B20004FEA410C7FEA6C5C02D150EA013C0AD1E9
:100B30004FEA430C7FEA6C5C02D152EA033C02D1DB
:100B40004FF0000070474FF0010070474FEA41023C
:100B500012F5001215D211D56FF47873B3EB62520F
:100B600012D94FEAC12343F0004343EA505311F036
:100B7000004F23FA02F018BF404270474FF00000C8
:100B8000704750EA013005D111F0004008BF6FF006
:100B9000004070474FF00000704700BF2DE9F04F54
:100BA00007468C460846099E15463C461946002BCA
:100BB00040F0C6808242B2FA82F746D94FB1C7F1FF
:100BC000200E24FA0EFE00FA07F3BD404EEA030C95
:100BD000BC404FEA15481FFA85FEBCFBF8F9220C11
:100BE00008FB19C309FB0EFA42EA03439A4528D9C8
:100BF000EB1809F1FF3004D29A4502D9A9F102009D
:100C00002B44A3EB0A03A4B2B3FBF8F208FB1233A4
:100C100002FB0EFE44EA0344A64514D92C1902F146
:100C2000FF3303D2A64501D9931E2C44A4EB0E0436
:100C300043EA00401EB1FC40002334607360BDE80D
:100C4000F08F4846DDE71346F0E702B9FFDE87BBC9
:100C5000831A01214FEA154EAAB2B3FBFEFC200C09
:100C60000EFB1C330CFB02F840EA0343984563D9A2
:100C7000EB180CF1FF3004D2984502D9ACF1020018
:100C80002B44A3EB0803A4B2B3FBFEFC0EFB1C3306
:100C90000CFB02F244EA0344A2424FD92C190CF196
:100CA000FF3304D2A24202D9ACF102032C44A41AAD
:100CB000BEE7C7F1200C20FA0CF800FA07F324FA7B
:100CC0000CFCBD404CEA03024FEA154EABB2B8FB38
:100CD000FEFC110C0EFB1C800CFB03F941EA0040EA
:100CE000814504FA07F423D928180CF1FF3104D206
:100CF000814502D9ACF102012844A0EB090092B26F
:100D0000B0FBFEFC0EFB1C000CFB03F842EA0043A8
:100D100098450FD9EB180CF1FF3204D2984502D94F
:100D2000ACF102022B44A3EB080342EA014191E734
:100D30006146E2E76246F6E76046A2E76346B6E749
:100D4000834205D90EB1C6E900700021084676E756
:100D5000B3FA83F181B9834201D3BA420AD8BC1AEB
:100D600060EB030301209C46002E68D0C6E9004CCE
:100D7000002164E70846F7E7C1F1200C8B4022FA16
:100D80000CF41C4302FA01F500FA01F327FA0CF205
:100D900020FA0CFB4FEA14491343BBFBF9F81FFA86
:100DA00084FE09FB18BB1A0C08FB0EFA42EA0B4240
:100DB000924507FA01F73ED9A21808F1FF3004D294
:100DC000924502D9A8F102002244A2EB0A029BB28A
:100DD000B2FBF9F809FB182208FB0EFE43EA0242B7
:100DE00096452AD9A21808F1FF3304D2964502D9B4
:100DF000A8F10203224443EA0040A0FB0593A2EBC2
:100E00000E029A42CE46984602D306D14F4504D2EE
:100E1000B9EB050E63EB0408013886B1B7EB0E039E
:100E200062EB080707FA0CFCCB404CEA0303CF4007
:100E3000C6E900379CE74046C7E74346DBE7314653
:100E4000FDE6034613F8012B002AFBD1181A0138DE
:100E500070470000000000002DE9F84FB24C21F06F
:100E60000043A34207460E4616DD03F1404303F557
:100E70008013034307D1002900F3028290A1D1E936
:100E80000001BDE8F88F02460B46FFF78DF90246D8
:100E90000B46FFF76BFCF4E7A44CA34200F38380FE
:100EA000A34A934240F3EF8102460B46FFF734FB1F
:100EB00085A3D3E9002304460D46FFF72DFB84A349
:100EC000D3E90023FFF772F922462B46FFF724FBF4
:100ED00081A3D3E90023FFF767F922462B46FFF7EA
:100EE0001BFB7FA3D3E90023FFF760F922462B46C3
:100EF000FFF712FB7CA3D3E90023FFF755F9224645
:100F00002B46FFF709FB7AA3D3E90023FFF74EF93D
:100F100022462B46FFF700FB77A3D3E90023804648
:100F2000894620462946FFF7F7FA75A3D3E900233F
:100F3000FFF73AF922462B46FFF7EEFA72A3D3E900
:100F40000023FFF733F922462B46FFF7E5FA70A39B
:100F5000D3E90023FFF728F922462B46FFF7DCFAF6
:100F6000744B0022FFF722F902460B4640464946E1
:100F7000FFF7FCFB3A463346FFF7CEFA02460B4634
:100F800065A1D1E90001FFF70FF902460B4638468B
:100F90003146FFF709F902460B4661A1D1E900018C
:100FA000FFF702F96DE7002980F2C880614B00224B
:100FB000FFF7FCF8604B0022FFF7AEFA42A3D3E93B
:100FC000002304460D46FFF7A7FA41A3D3E9002307
:100FD000FFF7ECF822462B46FFF79EFA3EA3D3E933
:100FE0000023FFF7E1F822462B46FFF795FA3CA3D2
:100FF000D3E90023FFF7DAF822462B46FFF78CFAF5
:1010000039A3D3E90023FFF7CFF822462B46FFF799
:1010100083FA37A3D3E90023FFF7C8F822462B460B
:10102000FFF77AFA80468946204629460BF0B8FB3E
:1010300031A3D3E9002306460F4620462946FFF791
:101040006BFA2FA3D3E90023FFF7AEF822462B4615
:10105000FFF762FA2CA3D3E90023FFF7A7F8224693
:101060002B46FFF759FA2AA3D3E90023FFF79CF890
:1010700022462B46FFF750FA2E4B0022FFF796F838
:1010800002460B4640464946FFF770FB32463B4658
:10109000FFF742FA20A3D3E90023FFF785F8324691
:1010A0003B46FFF783F802460B46FFF77FF8024600
:1010B0000B4603A1D1E9000172E700BFAFF3008046
:1010C000182D4454FB21094009F7FD0DE13D023F75
:1010D00088B20175E0EF493F3B8F68B52882A43F95
:1010E0005544880E55C1C93F7D6FEB0312D6D43FDE
:1010F000555555555555C53F82922EB1C5B8B33F8C
:1011000059018D1B6C06E63FC88A599CE52A0040B0
:101110004B2D8A1C273A0340075C143326A6913CCA
:10112000182D4454FB21F93FFFFFEF3FFFFFDF3F46
:101130000000603C0000F03F0000E03F02460B462C
:1011400000206949FFF730F8684B0022FFF7E4F907
:1011500004460D460BF024FB4DA3D3E9002389463A
:10116000804629462046FFF7D7F94BA3D3E9002351
:10117000FFF71CF822462B46FFF7CEF948A3D3E928
:101180000023FFF711F822462B46FFF7C5F946A3C7
:10119000D3E90023FFF70AF822462B46FFF7BCF9F4
:1011A00043A3D3E90023FEF7FFFF22462B46FFF7B8
:1011B000B3F941A3D3E90023FEF7F8FF22462B46FB
:1011C000FFF7AAF93EA3D3E9002382468B462046C7
:1011D0002946FFF7A1F93CA3D3E90023FEF7E4FF7A
:1011E00022462B46FFF798F939A3D3E90023FEF7EF
:1011F000DDFF22462B46FFF78FF937A3D3E9002303
:10120000FEF7D2FF22462B46FFF786F9364B002227
:10121000FEF7CCFF02460B4650465946FFF7A6FAAA
:1012200042464B46FFF778F9002682468B46324607
:101230004B4630464946FFF76FF902460B462046BB
:101240002946FEF7B1FF324604460D464B4640465E
:101250004946FEF7ABFF02460B4620462946FFF7FC
:1012600085FA02460B4650465946FEF79FFF324626
:101270004B46FEF79BFF02460B46FEF797FF00E644
:1012800000200021FDE516A1D1E90001F9E500BF2C
:1012900009F7FD0DE13D023F88B20175E0EF493FDE
:1012A0003B8F68B52882A43F5544880E55C1C93F7D
:1012B0007D6FEB0312D6D43F555555555555C53F57
:1012C00082922EB1C5B8B33F59018D1B6C06E63F23
:1012D000C88A599CE52A00404B2D8A1C273A0340B6
:1012E000182D4454FB21F93F0000F03F0000E03F7F
:1012F0002DE9F04F93B0CDE90223DDE9022626F077
:10130000004555EA02030746884600F0BF847E4B3D
:1013100021F000449C428946824609DC03D178B919
:10132000A54202DD0CE09D4202DC9D420ED16AB175
:1013300004F1404404F5801454EA0A0300F0A68442
:10134000724813B0BDE8F04F0BF0D8BAB9F1000FF6
:1013500039DA6F4B9D4254DCA3F154739D4240F344
:10136000A6842B15A3F2FF33142B0FDDC3F1340336
:1013700022FA03F101FA03F3934240F0988401F05A
:101380000101C1F10203009382B15EE0002A5AD14B
:10139000C3F1140345FA03F101FA03F3AB4240F041
:1013A000838401F00101C1F102030093594B9D4276
:1013B00030D1002E80F2748456493A4643460020CC
:1013C000FFF7D4F92FE000230093002A3DD14E4BC4
:1013D0009D42EBD104F1404303F5801353EA0A0325
:1013E00000F054844C4B9C420DDD002E80F254845E
:1013F0004FF0000B4FF0000C5846614613B0BDE8AB
:10140000F08F0223E0E7002EF2DADDE902B303F108
:10141000004CF1E7B6F1804F08D13A4643463846D2
:101420004146FFF779F883468C46E5E73B4B9E4201
:101430000BD1B9F1000F08DB3846414613B0BDE8C7
:10144000F04F0BF0ADB900230093384641460DF044
:1014500012FF83468C46BAF1000F29D124B12D4BDF
:1014600029F040429A4223D1002E07DA5A466346B9
:1014700028490020FFF77AF983468C46B9F1000F1E
:10148000BADA009B04F1404404F58014234308D1E8
:101490005A46634658466146FEF786FE02460B46AC
:1014A0008EE7009B012BA7D10CF100439C46A3E7DC
:1014B0004FEAD973013B0C930C9A009B134304D160
:1014C0003A46434638464146E6E7154B9D4240F3CF
:1014D000F98003F104739D420F4B09DD9C420CDC43
:1014E000002E85DA06A3D3E900231046194698E7B3
:1014F0009C42F5DB074B9C4214DD002EF2DC77E7C3
:101500009C7500883CE4377E0000F07FD91E010006
:10151000FFFF3F430000F03FFFFFEF3F0000E03FD1
:101520000000E0416146624B00225846FEF73CFE57
:1015300055A3D3E9002304460D46FEF7EDFF54A35F
:10154000D3E9002306460F4620462946FEF7E4FF6E
:10155000584B82468B46002220462946FEF7DCFF88
:1015600002460B464CA1D1E90001FEF71DFE2246C2
:101570002B46FEF7D1FF02460B4600204E49FEF7F0
:1015800013FE22462B468046894620462946FEF712
:10159000C3FF02460B4640464946FEF7BDFF40A347
:1015A000D3E90023FEF7B8FF02460B4650465946E2
:1015B000FEF7FAFD02460B4604460D463046394614
:1015C000FEF7F4FD4FF0000A32463B4650468B468C
:1015D000FEF7EAFD02460B4620462946FEF7E4FDEB
:1015E000009B0C9A013B1343DDE902670CBF334BB0
:1015F0002F4B00260022CDE9002304460D4632463B
:101600003B46DDE90201FEF7CFFD52465B46FEF7A1
:1016100083FFDDE902238046894620462946FEF7FE
:101620007BFF02460B4640464946FEF7BFFD324669
:101630003B468046894650465946FEF76DFF0B46AD
:1016400004460D46024649464046CDE90245FEF7AE
:10165000ADFD1B4B994282460F460E4640F3EF828A
:1016600001F13F4303F5E003034300F0E9810EA3DA
:10167000D3E90023DDE90001FEF74EFF0AA3D3E919
:101680000023CEE6AFF30080000000604715F73F6F
:1016900044DF5DF80BAE543E555555555555D53F75
:1016A000FE822B654715F73F9C7500883CE4377E2A
:1016B0000000F03F0000D03F0000E03F0000F0BF1E
:1016C000FFFF8F40D44B09EA0303002243B9584679
:1016D000D24B6146FEF720FF6FF0340283460C4682
:1016E0002315A3F2FF3313440B93CD4BC4F3130420
:1016F00044F07F559C4245F4401508DDC94B9C429F
:1017000040F39C810B9B01330B93A5F580150026BC
:10171000F3000D93C44B03EBC603D3E900345846E2
:10172000CDE908341A4629462346FEF73DFDDA4640
:1017300052462B46CDE90E01DDE90801FEF736FDE4
:1017400002460B460020B949FFF710F802460B4647
:10175000CDE91001DDE90E01FEF7DEFECDE906015F
:10176000DDE90634CDE9043400230493DDE904897E
:10177000AB466D1045F0005505F5002505EB864399
:1017800000224046494614461D46FEF7C5FE024665
:101790000B46DDE90E01FEF707FDDDE908230646ED
:1017A0000F4620462946FEF7FFFC02460B465046F0
:1017B0005946FEF7F9FC42464B46FEF7ADFE02469F
:1017C0000B4630463946FEF7EFFCDDE91023FEF705
:1017D000A3FEDDE90623CDE9080110461946FEF710
:1017E0009BFE7BA3D3E9002304460D46FEF794FE3F
:1017F00079A3D3E90023FEF7D9FC22462B46FEF756
:101800008BFE77A3D3E90023FEF7D0FC22462B46BC
:10181000FEF782FE74A3D3E90023FEF7C7FC22463D
:101820002B46FEF779FE72A3D3E90023FEF7BEFC38
:1018300022462B46FEF770FE6FA3D3E90023FEF786
:10184000B5FC224606460F462B4620462946FEF7A3
:1018500063FE02460B4630463946FEF75DFE4246C1
:1018600004460D464B46DDE90601FEF79FFCDDE927
:101870000823FEF751FE22462B46FEF797FC424610
:1018800006460F464B4640464946FEF745FE684B26
:10189000002282468B46FEF789FC32463B46FEF725
:1018A00085FC00240D4622460B4640464946FEF77D
:1018B00033FE5F4B80468946002220462946FEF7CC
:1018C00073FC52465B46FEF76FFC02460B46304601
:1018D0003946FEF769FCDDE90623FEF71DFE2246C8
:1018E00006460F462B46DDE90801FEF715FE0246C7
:1018F0000B4630463946FEF759FC06460F4602466F
:101900000B4640464946FEF751FC00243CA3D3E970
:10191000002320460D46FEF7FFFD4246CDE90601B5
:101920004B4620462946FEF73FFC02460B46304612
:101930003946FEF739FC34A3D3E90023FEF7ECFD6A
:1019400033A3D3E9002306460F4620462946FEF777
:10195000E3FD02460B4630463946FEF727FC0D9A5A
:10196000344B1344D3E90023FEF720FC80460B9848
:101970008946FEF767FD0D9A2F4B1344D3E90067A4
:1019800004460D4642464B46DDE90601FEF70EFCD5
:1019900032463B46FEF70AFC22462B46FEF706FC83
:1019A0004FF0000A22462B4650468B46FEF7FCFBC2
:1019B00032463B46FEF7F8FBDDE90623FEF7F4FB73
:1019C00002460B464046494608E600BFAFF300809A
:1019D000EF4E454A287ECA3F65DBC9934A86CD3F14
:1019E00001411DA96074D13F4D268F515555D53FFA
:1019F000FFAB6FDBB66DDB3F033333333333E33F92
:101A0000000000E009C7EE3FFD033ADC09C7EE3FE6
:101A1000F5015B14E02F3EBE0000F07F0000404364
:101A20008E98030079B60B0048FC00000000F03FE0
:101A30000000084068FC000058FC0000012667E632
:101A40009DA3D3E9002340464946FEF7AFFB22465B
:101A5000CDE904012B4650463946FEF7A5FB024668
:101A60000B46DDE90401FFF751F800287FF4FFADD4
:101A7000A54A26F00043934240F303811B154FF41F
:101A8000801AA3F2FE334AFA03F33344C3F30A5233
:101A90009E4FA2F2FF321741C3F3130A002023EA3C
:101AA0000701C2F114024AF4801A4AFA02FA002E1F
:101AB00002460B4620462946B8BFCAF1000AFEF787
:101AC00073FBCDE9020142464B46DDE90201FEF718
:101AD0006DFB00247AA3D3E9002320460D46FEF7D0
:101AE0001BFDDDE9022306460F4620462946FEF788
:101AF0005BFB02460B4640464946FEF755FB72A388
:101B0000D3E90023FEF708FD71A3D3E90023804643
:101B1000894620462946FEF7FFFC02460B46404612
:101B20004946FEF743FB04460D4602460B46304647
:101B30003946FEF73BFB32463B4680468946FEF778
:101B400033FB02460B4620462946FEF72DFB424654
:101B500006460F464B4640464946FEF7DDFC5EA36F
:101B6000D3E9002304460D46FEF7D6FC5CA3D3E977
:101B70000023FEF719FB22462B46FEF7CDFC5AA3A5
:101B8000D3E90023FEF712FB22462B46FEF7C4FCE6
:101B900057A3D3E90023FEF707FB22462B46FEF7A7
:101BA000BBFC55A3D3E90023FEF700FB22462B46DE
:101BB000FEF7B2FC02460B4640464946FEF7F4FAF1
:101BC00004460D4602460B4640464946FEF7A4FC35
:101BD0000022CDE902014FF0804320462946FEF75E
:101BE000E3FA02460B46DDE90201FEF7BFFD32468D
:101BF00004460D463B4640464946FEF78DFC3246BC
:101C00003B46FEF7D3FA02460B4620462946FEF72E
:101C1000CBFA42464B46FEF7C7FA02460B46002077
:101C20003B49FEF7C1FA01EB0A54B4F5801F2BDAE9
:101C3000524600F075F8DDE90023FFF7F2BB354BA3
:101C400021F000479F427FF713AF334B0B44034310
:101C50000BD02BA3D3E90023DDE90001FEF75CFCE8
:101C600027A3D3E90023FFF7DCBB22462B46FEF770
:101C70009BFA42464B46FEF73FFF00283FF4F8AE82
:101C8000E7E74FF0000A1EE72146D4E7DFF880C0FF
:101C90004FF0000BFFF7B0BBDDE902BCFFF7ACBBB8
:101CA00038464146FFF7BFBB0092FFF77FBB0023DA
:101CB000FFF769BBAFF30080FE822B654715973CA9
:101CC00000000000432EE63FEF39FAFE422EE63FC9
:101CD000396CA80C615C20BED0A4BE726937663E28
:101CE000F16BD2C541BDBB3E2CDE25AF6A56113F1C
:101CF00093BDBE166CC1663F3E5555555555C53F03
:101D000059F3F8C21F6EA5010000E03FFFFF0F006E
:101D10000000F03FFFCB904000346F3F0000000018
:101D2000F8B5C1F30A5604460D4617460B4696B958
:101D300021F00043034339D0334B0022FEF7ECFB84
:101D4000324B9F4204460D460FDA2BA3D3E9002302
:101D5000FEF7E2FB06E040F2FF7296420AD102462D
:101D6000FEF724FA04460D4620E00B46C1F30A5163
:101D7000A1F13606B91940F2FE7291420EDD05F06E
:101D8000004444F0FC4141F45F1141F410511CA3A4
:101D9000D3E900231E4841F03C01D9E7002908DDC2
:101DA00023F0FF4323F4E00343EA0155204629468C
:101DB000F8BD11F1350F12DA4CF250339F424FEA61
:101DC000D5734FEAC374DCDC44F0D27141F4B7310F
:101DD00009A3D3E900230F4841F01F01B8E723F01E
:101DE000FF43363123F4E00343EA015520460A4B12
:101DF00029460022ACE700BF59F3F8C21F6EA501C7
:101E00009C7500883CE4377E00005043B03CFFFFE7
:101E10009C75008859F3F8C20000903C0000000057
:101E20002DE9F04390468BB01C46814600220023EA
:101E300040462146DDE91275159EFEF749FE08B1C0
:101E400004F100440022002340462146FEF736FEFE
:101E500038B130232B7000236B7028460BB0BDE8DF
:101E6000F0834DA3D3E9002340462146FEF73AFE16
:101E700060B19DF850300193013F029600974246B1
:101E80002346294648460DF056FAE6E738460BF059
:101E9000E1FA42462346FEF725FE0028E9D109ABC8
:101EA000049308AB039307ABCDE9017302230093BE
:101EB00042462346484600F073F8079A42F20F73F1
:101EC0009A4201460FD02B462F44084611F801CB09
:101ED000079AFC1ABCF1000F01D0002A07DC002190
:101EE0004FF0300C0CE028460DF0FEF9B5E7013A52
:101EF00003F801CB0792E8E703F801CB013C01218D
:101F0000002A17462ADC01B107920EB9027812B3F3
:101F1000AB4204BF302203F8012B2E221A70079A1D
:101F200019460027A2EB030C4FF0300E1CEB010FFB
:101F30001CD4002AC2F10001C8BF002101F1010C2C
:101F400063440A4407B10792421E12F8011F09B107
:101F5000002C0FDCDEB900221A707EE7002C02F1A3
:101F6000FF32C9DC0029D0D00797CEE701F801EF96
:101F70000127DBE703F8011B013CE6E702F8016BF0
:101F8000811A0029FADC002CA8BF1B19E3E71A46C6
:101F900018193026F4E700BF2D431CEBE2361A3F38
:101FA0002DE9F04F446A99B016461F46CDE9046703
:101FB000DDF89480054674B910200AF055FD0246FC
:101FC000686220B9A84BEA21A8480BF087FDC0E958
:101FD00001440460C4606B6A196851B15A684A6070
:101FE000012393408B6028460AF060FF6B6A002251
:101FF0001A603B1EB9BF23F0004305930023C8F8C5
:102000000030DDF814909A4BBCBF0122C8F80020C4
:1020100033EA090319D1249A42F20F731360C9F30A
:102020001303334300F08085269B53B9914B22E084
:10203000914B03930833269A1360039819B0BDE8B7
:10204000F08F8C4B03930333F5E7DDE90434CDE9DE
:102050000C34DDE90C0100220023FEF72FFD804641
:1020600058B1249A01231360269B002B00F0598558
:1020700082481860431E0393DFE716AB019317AB4A
:1020800000932846DDE90C230BF088F9C9F30A54C4
:102090008346002C7ED00D9BCDF84C80C3F31303F8
:1020A000DDE90C0143F07F5141F44011A4F2FF340B
:1020B000734B0022FEF778F865A3D3E90023FEF7FF
:1020C0002BFA65A3D3E90023FEF770F806462046F5
:1020D0000F46FEF7B7F962A3D3E90023FEF71CFA17
:1020E00002460B4630463946FEF760F806460F4674
:1020F000FEF72CFD00228246002330463946FEF7CB
:10210000E7FC48B15046FEF79DF932463B46FEF7E4
:10211000D5FC08B90AF1FF3ABAF1160F57D8594B56
:1021200003EBCA03D3E90023DDE90C01FEF7D0FC81
:1021300000284ED00AF1FF3A00230F93169B1C1B78
:10214000631E099345BFC4F10103069300230023D6
:102150004CBF09930693BAF1000F3CDB099BCDF805
:1021600038A05344099300230A93229B092B00F2C1
:102170008D80052BC4BF043B2293229BA3F1020355
:10218000CCBF00240124032B00F28C80DFE803F095
:102190002D4F4D5BDDE916431C4404F23243202BE6
:1021A000C3BFC3F1400304F2124009FA03F3C3F1C1
:1021B0002003C6BF26FA00F0184306FA03F0FEF724
:1021C00031F90123A1F1F871013C139370E7012368
:1021D000B3E70F90B2E7069BA3EB0A030693CAF19D
:1021E00000030A9300230E93BFE700230B93239B66
:1021F000002B5ADC4FF00109CDF820904B46CDF86A
:102200008C90686A00224260042202F114069E4209
:10221000416850D928460AF009FE039000284ED1A3
:10222000194B02464FF4D571CEE60123DEE70023B9
:102230000B93239B0AEB030909F10103012B08937C
:10224000B8BF0123DDE70123F2E700BFAFF3008051
:1022500061436F63A787D23FB3C8608B288AC63FAC
:10226000FB799F501344D33FE61D0100E91E010096
:102270000000F07FE31E0100DA1E0100E81E0100ED
:102280000000F83FB0FC00005A1E010001240023AA
:1022900022930B944FF0FF390022CDF820901223A7
:1022A0002392AEE701230B93F4E7DDF88C90CDF891
:1022B00020904B46A5E7013141605200A5E76B6ACB
:1022C000039A1A60089B0E2B00F2A880002C00F0E5
:1022D000A580BAF1000F34DD9A4A0AF00F0302EB31
:1022E000C303D3E900341AF4807FCDE910344FEAF8
:1022F0002A1416D0944BDDE90C01D3E90823FEF72C
:1023000035FACDE9040104F00F0403278E4E54B9C9
:10231000DDE91023DDE90401FEF728FACDE9040127
:1023200029E00227F2E7E10708D5DDE91001D6E947
:102330000023FEF7F1F8CDE91001013764100836EB
:10234000E5E700F0A580CAF100047E4B7E4E04F064
:102350000F0203EBC203D3E90023DDE90C01FEF712
:10236000DBF8CDE90401241100230227002C40F002
:102370008480002BD2D10F9B002B00F08B80DDE9F5
:102380000434CDE91034DDE91001704B0022FEF772
:102390009FFB00287ED0089B002B7BD0B9F1000F5B
:1023A00038DDDDE910016A4B0022FEF7B5F8CDE912
:1023B00004010AF1FF3801374C463846FEF742F86F
:1023C000DDE90423FEF7A8F8624B0022FDF7EEFEDC
:1023D000A1F15076CDE910011196002C5DD1DDE917
:1023E00004015D4B0022FDF7DFFE02460B46CDE9FE
:1023F0000423109A3346FEF789FB002840F09C82A4
:10240000DDE90401109A06F10043FEF761FB0028A4
:1024100040F09082DDE90C34CDE90434179B002BA9
:10242000C0F25281BAF10E0F00F34E81454B03EB1F
:10243000CA03D3E90034CDE90634239B002B80F294
:10244000DB80089B002B00F3D78040F07282424B68
:102450000022DDE90601FEF75FF8DDE90423FEF75F
:102460004BFB089C2646002840F04882039F3123FE
:1024700007F8013B0AF1010A44E2E20705D5D6E973
:102480000023FEF749F801370123641008366DE791
:10249000022770E7089CD0468FE70399294B214417
:1024A00012910B9903EBC403DDE9106753E9022392
:1024B000002955D029490020FEF758F93B463246FD
:1024C000FDF772FECDE91001039FDDE90401FEF77F
:1024D0003DFB0446FDF7B6FF02460B46DDE904016D
:1024E000FDF762FE303402460B46CDE9042307F8BF
:1024F000014BDDE91023FEF7EBFA002874D1DDE98A
:10250000042312490020FDF74FFEDDE91023FEF7FA
:10251000DFFA002840F0B780129B9F423FF47AAF69
:10252000DDE910010A4B0022FDF7F6FF084BCDE96B
:1025300010010022DDE90401FDF7EEFFCDE9040101
:10254000C3E700BFB0FC000088FC00000000F03FC3
:102550000000244000001C40000014400000E03F48
:1025600030463946FDF7D8FFCDE91001129B039C98
:102570001493DDE90401FEF7E9FA1590FDF762FF17
:1025800002460B46DDE90401FDF70EFE159B3033D4
:1025900004F8013B129B9C4206460F464FF0000296
:1025A00024D1A44BDDE91001FDF700FE02460B46E5
:1025B00030463946FEF7AAFA002863D1DDE9102338
:1025C0009C490020FDF7F0FD02460B463046394697
:1025D000FEF77EFA00283FF41DAF149F7B1E149374
:1025E00017F8013C302BF8D0C2463BE0924BFDF788
:1025F00093FFCDE90401BCE7DDE90489039FDDE930
:10260000062340464946FEF7B1F8FEF79FFA044616
:10261000FDF718FFDDE90623FDF77EFF04F1300624
:1026200002460B4640464946FDF7BEFD07F8016BE2
:10263000039EDDF820C0BE1BB44502460B4636D1D2
:10264000FDF7B4FDDDE9062380468946FEF75EFA14
:1026500058BBDDE9062340464946FEF72FFA08B18C
:10266000E10722D4284659460AF020FC00233B709B
:10267000249B0AF101001860269B002B3FF4DDAC7F
:102680001F60DAE427463B461F4613F8012D392A1E
:1026900007D1039A9A42F7D10399302208F1010831
:1026A0000A701A7801321A709EE7D046EBE7624B47
:1026B0000022FDF731FF0022002380468946FEF705
:1026C000FDF900289BD0CDE70B9A002A00F0D080BE
:1026D000229A012A00F3B280139A002A00F0A68001
:1026E00003F233430A9C069F069A1A440692099AFB
:1026F00001211A44284609920AF040FC0646002FA0
:102700000CDD099B002B09DDBB42069AA8BF3B46A6
:10271000D21A0692099AFF1AD31A09930A9BF3B1A7
:102720000B9B002B00F0A880002C10DD31462246C8
:1027300028460AF0E1FC5A460146064628460AF0B9
:1027400033FC5946804628460AF0B0FBC3460A9B34
:102750001A1B04D0594628460AF0CEFC83460121B4
:1027600028460AF00BFC0E9B002B044640F38680A3
:102770001A46014628460AF0BFFC229B012B04465C
:102780007FDD4FF00008236904EB830318690CF028
:102790007FFEC0F12000099B184410F01F0000F0DC
:1027A0009280C0F12003042B40F38A80C0F11C000A
:1027B000069B03440693099B034407440993069B25
:1027C000002B05DD59461A4628460AF0EFFC8346E1
:1027D000099B002B05DD21461A4628460AF0E6FC37
:1027E00004460F9B002B70D0214658460CF09DFEEE
:1027F00000286ADA002359460A2228460AF078FBA4
:102800000B9B0AF1FF3A8346002B00F0948131467E
:1028100000230A2228460AF06BFBB9F1000F064696
:1028200000F39380229B022B57DC8EE0169BC3F1B2
:10283000360357E70000E03F00002440089B5C1E81
:102840000A9BA342BFBF0A9B0A94E21A0E9BB6BF23
:102850009B181C1B0E93089BB8BF0024002BB9BF0C
:10286000069B089A069F089BBCBF9F1A00233BE764
:102870000A9C069F0B9E42E70A9A6BE7229B012B5C
:1028800019DC049BBBB9059BC3F313039BB9059BE0
:1028900023F000431B0D1B0583B1069B01330693F8
:1028A000099B013309934FF001080E9B002B7FF425
:1028B0006AAF01206FE74FF00008F6E79846F4E7AB
:1028C0003FF47DAF18461C3072E7089B002B36DCC6
:1028D000229B022B33DDDDF82090B9F1000F0DD1E2
:1028E00021464B46052228460AF002FB01460446D3
:1028F00058460CF01AFE00283FF7B8AD239B039F03
:102900006FEA030A4FF00008214628460AF0CEFA83
:10291000002E3FF4A7AEB8F1000F05D0B04503D0AC
:10292000414628460AF0C2FA314628460AF0BEFA65
:1029300098E600242646E1E7C246264696E50B9B2C
:10294000DDF82090002B00F0FD80002F05DD3146E2
:102950003A4628460AF02AFC0646B8F1000F5CD039
:10296000716828460AF062FA074628B9804B024689
:1029700040F2EA21FFF728BB32690232920006F1E9
:102980000C010C300CF09AFC0122394628460AF062
:102990000DFC039B01330893039B4B440A93049B58
:1029A00003F00103B04609930646089B2146013B0C
:1029B000584604930CF0B9FE034630330690414666
:1029C00058460B930CF0B1FD32468146214628460D
:1029D0000AF05CFCC2680B9B074602BB01465846E6
:1029E0000CF0A3FD0B9B024639462846CDE90B327D
:1029F0000AF05CFA229B0C9A089F43EA0201099BA9
:102A00000B430B9B0DD1392B29D0B9F1000F01DD00
:102A1000069B3133049A137076E73046B9E70122FA
:102A2000E2E7B9F1000F06DB229941EA09090999A9
:102A300059EA010120D1002AECDD5946012228463D
:102A400008930AF0B3FB214683460CF06EFD002884
:102A5000089B02DCDED1DA07DCD5392BD8D1049A09
:102A6000392313703B461F46013B17F8012C392AC6
:102A700050D001321A7047E7002A03DD392BEED01F
:102A80000133C7E7089A0A9902F8013C8A422AD022
:102A9000594600230A2228460AF02AFAB0458346FE
:102AA0004FF000034FF00A024146284607D10AF0D2
:102AB0001FFA80460646089B0133089375E70AF023
:102AC00017FA3146804600230A2228460AF010FAF7
:102AD0000646F0E7B9F1000F039ACCBF4F46012735
:102AE00017444FF0000859460122284608930AF07F
:102AF0005DFB214683460CF018FD0028B2DC02D1B4
:102B0000089BDB07AED43B461F4613F8012D302A45
:102B1000FAD0F9E6039A9A42A5D10AF1010A3123C3
:102B200079E7144BFFF7A7BA269B002B7FF480AA06
:102B3000114BFFF7A0BAB9F1000F03DC229B022B67
:102B40003FF7CBAE039F214658460CF0EEFD00F157
:102B5000300307F8013B039ABA1A9145BADD59468A
:102B600000230A2228460AF0C3F98346EBE700BF98
:102B70005A1E0100E71E0100DA1E01002DE9F04F88
:102B800089B050480BF072FB0CF063FB4A0142EA3B
:102B9000D06243011B1A62EB0102920042EA937277
:102BA0009B0013EB000842EB0103DB0043EA587380
:102BB000C8F3103848EA4348DB0B18F57A7843F13C
:102BC00000094FF47A7BCDF818B000231F46079315
:102BD0009A461E462DE0B346BA460CF03AFB07462D
:102BE0004E0146EAD0664001C01B66EB010293002D
:102BF00043EA90738200D21943EB0103DB0043EAFE
:102C00005273C2F310320699029107990391CDF8DD
:102C100000B0CDF804A042EA4342DB0B2A492B481E
:102C20000BF024FB059B434575EB09032FDB059E49
:102C30002F46274807F0DAFD264807F0D7FD0CF0AD
:102C400008FB4B0143EAD0634401241A63EB010300
:102C50009D0045EA9475A400241845EB0105ED009C
:102C600045EA5475C4F3103444EA4544ED0B059429
:102C7000A61B65EB07075E4577EB0A03ABDB069BFC
:102C8000B342079BBB41A8DA06960797A5E7A8EBD6
:102C9000040020EAE070C117C90341EA5041C003B3
:102CA00040F2E73400194FF47A724FF0000341F11B
:102CB0000001FDF793FE08F0BFFF18F57A7849F19F
:102CC0000009B4E778FD0000A0FD0000A8FD0000A9
:102CD000F0460020004700202DE9F84F28480BF06F
:102CE000C5FA0CF0B6FA4FF47A7B4FF0000AD946D9
:102CF000D0465446554603E0A146A8461C46154614
:102D00004FF0FF364FF0FF3732463B461D4807F085
:102D1000B1FD1D491D480BF0A9FA32463B461C483F
:102D200007F0A8FD1B4901F10A021B4809F048FF02
:102D30000CF08FFA06464A0142EAD0624001801B3D
:102D400062EB01039B0043EA90738000801943EB20
:102D50000103DB0043EA5073C0F31030DA0B40EAA2
:102D600043431C1B62EB05054C4575EB0801C3DBB7
:102D7000A3457AEB0501C1DAA346AA46BEE700BF28
:102D8000F4FD0000D04600200000002008FE0000F6
:102D9000E04600200C0000202CFE00002DE9F04F42
:102DA00085B05B480BF062FA0CF053FA4FF47A7975
:102DB000CDF808904FF0000AD346CDF80CA0554648
:102DC00091E024B200267F2E0BDC524B334403F5F6
:102DD0007E531B78FF2B06D00136F4E74FF0FF340B
:102DE000F0E74FF0FF36B4F1FF3F6BD0B6F1FF3F95
:102DF00068D0A046B44270D0A41B002C68DD01341A
:102E000000264FF0804732463B460020424909F0F9
:102E1000EFFBCDE900012046FDF714FB32463B46AF
:102E200009F0E6FB02460B46DDE90001FDF7BEF9BD
:102E300009F08AFC02460B4600203749FDF796FC54
:102E400009F0A8FBFDF77AFD0646002C42DB334C67
:102E50000A22214640460CF02FFA0A343046FDF78C
:102E600003FB2346062209F0DBFD2D4807F0BEFCDC
:102E70000CF0EFF904464A0142EAD0624001001B1F
:102E800062EB01039B0043EA90738000001943EB5F
:102E90000103DB0043EA5073C0F31030DA0B40EA61
:102EA00043435D1B62EB0B0B4D457BEB0A0116DBCD
:102EB0000299A942039971EB0B0112DA0295CDF840
:102EC0000CB00EE032462146164809F079FE90E734
:102ED000013C95E700F10046B9E70026B7E7A946AF
:102EE000DA461D4693464FF0FF324FF0FF330E484F
:102EF00007F0C0FC0D480BF0B9F900247F2C3FF718
:102F00006DAF044B1B5DFF2B3FF45BAF0134F5E766
:102F100058FE000020000020000060400C0000204F
:102F2000E0460020A0FE00000047002074FE0000E4
:102F30002DE9F84334480BF099F90CF08AF94FF475
:102F40007A790024C8462746264625464DE00131B9
:102F5000012901DD4FF0010C01335F2B09DC2B4A05
:102F600002EBC012D25C802AF1D00129F0DD0021F1
:102F7000F2E701303F2802DC00212023EDE7BCF11D
:102F8000000F2CD1224923480CF0AEF9224807F05B
:102F90002DFC0CF05EF94A0142EAD06243011B1A93
:102FA00062EB0102920042EA93729B001B1842EB13
:102FB0000102D20042EA5372C3F31033D00B43EA4A
:102FC0004243991B60EB0502414572EB070508DBA4
:102FD000894574EB020506DA8946144603E00F4979
:102FE000D1E7884617461E4605464FF0FF324FF0A0
:102FF000FF330B4807F03EFC0A480BF037F94FF05F
:10300000000C6046B6E700BFD4FE000020000020A0
:10301000CCFE000000000020D0460020D0FE0000C2
:10302000F0460020F0FE0000D0B588B0012200215B
:103030002D480CF0B8F8012200212C480CF0B3F810
:10304000012200212A480CF0AEF801220021294873
:103050000CF0A9F800260027CDE9066700240494A7
:1030600003230393029401940094234B4FF4806252
:103070002249234807F0CEF8224B1860CDE90667B5
:103080000494052303930294019400941E4B4FF47F
:1030900080621E491E4807F0BDF81E4B1860CDE93E
:1030A00006670494022303930294019400941A4B3C
:1030B0004FF4806219491A4807F0ACF8194B1860B0
:1030C000CDE90667049404230393029401940094C9
:1030D000154B4FF480621549154807F09BF8154BC6
:1030E000186008B0D0BD00BFF046002000470020A7
:1030F000D0460020E0460020312F0000C0580020BC
:1031000088420020104700207D2B0000A0540020A2
:10311000984400201C4700209D2D0000E05C00200A
:103120003843002014470020D92C00000061002003
:10313000E8430020184700202DE9F04F8DB005929C
:103140000393134602F004020192C3F3C20210F08B
:103150000303029340F0938207468A460132041D1E
:10316000002841D027B1E31B0433534500F28A8283
:10317000039B5D1EDDF808B0CDF810B0CDF818B097
:1031800000264FF00408C1460FB1039B2360531E75
:103190000793002A40F3B780059B13F0020221D069
:1031A0000120E11B8B081AB1B1F5007F80F0BF80D0
:1031B000BBF10F0F00F2CE80002F00F0E280DBB2F7
:1031C0000CAA5A4402F8103C002800F0D68063F0A4
:1031D0007F030CAA5A4402F8103C049B0133049369
:1031E0000BF1010B0434F6E001F0070A5444CAF174
:1031F000080AB7E7252B40F0ED8001264FF00408C0
:10320000C146E7E04FF00808C146E3E04FF004088C
:10321000C146DFE04FF00408C146DBE02A786C2AA3
:1032200026D0002604EB0802013AC8F100010A404A
:10323000144627B1D11B49448A45C0F02682732B1E
:1032400059D0B9F1040F00F0A880B9F1080F40F08F
:10325000AC80169B073323F0070303F10801169196
:10326000D3E900010FB1C2E9000102F10804B1E0A5
:103270001CF8022C6C2A04D000264FF00408C1462A
:10328000D0E700264FF00808C146CBE72B784C2B3F
:103290001CD0169B073323F0070303F10802169294
:1032A000D3E90001E21D22F0070247B1D31B083326
:1032B000534515D82B784C2B15D0C2E9000102F1EB
:1032C000080400264FF00808C14683E0169B073328
:1032D00023F0070303F108021692D3E90001E1E7A6
:1032E0006FF01B00C8E1C2E90001E8E700264FF0DB
:1032F0000408C14696E7169B1A1D16921B68039395
:10330000079A654640E7BB4B039A9A4204D3BA4BEF
:103310009A420AD3002300E00023002B7FF43CAF45
:10332000059B03F0020200203BE70123F5E7B34CC5
:103330004FF4F8732246B249B2480BF0A0F8B248F5
:103340000BF09DF84FF4F87120460BF091F86FF0F8
:10335000150091E1A94C40F2F5132246A849A9486D
:103360000BF08DF8A9480BF08AF840F2F5112046D1
:103370000BF07EF86FF015007EE1069B013306939B
:103380002EE708B9019B13B10AF1010A28E7039857
:10339000FDF757FD831C9A4422E7169B191D1691D1
:1033A0001B6807B11360141D14E0944C40F23123E4
:1033B0002246934993480BF062F8494694480BF033
:1033C0005EF840F2312120460BF052F86FF0150004
:1033D00052E10026654605F1010C6B78002B00F0E8
:1033E000C180002E3FF406AFA3F120015A29F0D886
:1033F00001A252F821F000BFD5330000D333000002
:10340000D3330000D5330000D3330000D3330000A2
:10341000D3330000D3330000D3330000D333000094
:1034200025320000D5330000D3330000D53300002F
:10343000D5330000D3330000D5330000D53300006E
:10344000D5330000D5330000D5330000D53300005C
:10345000D5330000D5330000D5330000D53300004C
:10346000D3330000D3330000D3330000D333000044
:10347000D3330000D3330000D33300008D3200007B
:10348000D3330000D3330000D33300008D3200006B
:103490008D3200008D320000D3330000D3330000A2
:1034A000D3330000D3330000D5330000D333000002
:1034B000D3330000D3330000D3330000D3330000F4
:1034C000D3330000D3330000D3330000D3330000E4
:1034D000D3330000D33300001D320000D33300008B
:1034E000D3330000D3330000D3330000D3330000C4
:1034F000D3330000D3330000D33300008D320000FB
:10350000D33300001D3200001D3200008D32000058
:103510008D3200008D320000D53300001D320000D6
:1035200005320000D3330000D5330000D333000050
:10353000ED3200001D320000ED320000D3330000F8
:10354000D3330000ED320000153200001D320000C0
:10355000D3330000D33300001D320000D33300000A
:103560000D320000E31BB3F5806F11D21FB30022B0
:103570003A609B083B70019B0BB3069BFB70049B5E
:10358000BB70ABBB029DDDF81090DDF80C8058E0FD
:103590001A4C40F23D23224619491A480AF06FFF9F
:1035A0001C480AF06CFF40F23D2120460AF060FF03
:1035B0006FF0150060E05344A3F108005CE0069B47
:1035C0007B70DCE704F8011B01339B45DAD90CAAB8
:1035D0001A4412F8101C12F9102C002AF4DA01F027
:1035E0007F01E21B01329245ECD26FF01B0043E0F9
:1035F000029BEAE7F0F80000481F010014FF0000FA
:10360000180601005CFF00007CFF0000A0FF000026
:10361000BCFF0000D4FF0000019BF3B1029EE31B3E
:10362000334401339A4533D30CAB2B4413F8103C8D
:1036300004F8013B3246414620460BF03FFE34443D
:103640000135AB4517D9B9F1000FE5D00CAB2B44D0
:1036500013F9103C002BDFDAF2E70CAB2B4413F824
:10366000103C57F82380002247F823204046FDF7FE
:10367000E8FB461CD3E7E01B0DB0BDE8F08F6FF010
:103680000D00F9E76FF01B00F6E76FF01B00F3E7A2
:103690006FF01B00F0E700BF38B50446436803F045
:1036A00003038160022B03D9032B02D100680EE0D3
:1036B00063B9084D45232A46074908480AF0DFFE4A
:1036C000452128460AF0D4FE002000E00020002317
:1036D000636038BDECFF0000180601005CFF0000CD
:1036E000014B1860704700BF2040002038B50446E9
:1036F0008C46838B002A14DB03F007035A1F012A30
:103700001BD9042B50D02F4C40F21B1322462E49BC
:103710002E480AF0B4FE40F21B1120460AF0A8FE23
:1037200038BDD0E900018CE803000023236063600A
:10373000012120460AF0A8FDF2E7D0E900018CE85B
:103740000300002222606260062B0FD0052B1DD1E2
:10375000002120460AF098FD20460AF0BCFD002812
:10376000DED0A38B43F02003A383D9E7DCF800303D
:103770003BB1E28B0132E283002BF9D01B68002BB6
:10378000F6D1022120460AF07FFDE5E70D4D40F21B
:1037900009132A460E490D480AF071FE40F209113C
:1037A00028460AF065FED3E700210AF06DFD2046A9
:1037B0000AF091FD0028B3D0A38B43F02003A3832C
:1037C000AEE700BF10000100180601005CFF00001A
:1037D000340001002DE9F04F83B004461646838B78
:1037E00003F0070703F008080D4631B1B8F1000FE8
:1037F00012D1002300930193AAE0DFF8E09240F297
:1038000033134A46B649B7480AF039FE40F233113D
:1038100048460AF02DFEE9E7012D13D0022D16D1FE
:10382000A38B43F02003A3831434204606F0BAFB95
:10383000002800F09C8186F31188BFF36F8F03B0DE
:10384000BDE8F08FA38B43F01003A383ECE7A34DF7
:103850004FF49E732A46A449A2480AF010FE4FF482
:103860009E7128460AF004FEDAE720460AF033FD8E
:1038700005466FE0D4F818904A4669462046FFF79F
:1038800035FF002511E0002F40F081802368002BD8
:1038900000F08B8023691D68002D00F094800621C4
:1038A00020460AF0F1FC4FF00009A38B03F0070853
:1038B000B84500F00B81A268002A00F009810122BE
:1038C00017461AB9009A002A00F0048143F0080351
:1038D000A38304F1140A504606F064FB002800F0AC
:1038E000158186F31188BFF36F8F002F40F01F8181
:1038F000009B2BB14B464246694620460AF02DFDFF
:1039000015B17A492046A8474FF02003EFF31186FE
:1039100083F31288BFF36F8F504606F033FB002805
:1039200000F00B81504606F04DFBA38B23F00803FB
:10393000A383A38B13F0100F00F00F8123F010036B
:10394000A3830125A78B07F00707002D3FF46CAF79
:10395000022D8AD0002D3FF467AF012D8AD0032DB0
:1039600091D0042D3ED0052D40F0A080012F72D1C2
:103970002368002B7DD023699D68002D00F087808F
:10398000052120460AF080FC4FF000098DE7534DD9
:103990004FF4AB732A46564952480AF070FD4FF473
:1039A000AB7128460AF064FD70E74C4D40F25713A6
:1039B0002A4650494B480AF062FD40F2571128460A
:1039C0000AF056FD66E7DFF814814FF4AD73424606
:1039D000494944480AF053FD4FF4AD7140460AF09E
:1039E00047FD5CE7022F0BD1E38BBBB923695D6810
:1039F00015B3042120460AF047FC4FF0000954E7B4
:103A0000364D40F25D132A463C4936480AF037FDF0
:103A100040F25D1128460AF02BFDE5E72F4D4FF4EB
:103A2000AF732A4636492F480AF029FD4FF4AF718B
:103A300028460AF01DFDD9E7DFF8A08040F26113A7
:103A400042462D4927480AF01AFD40F261114046CE
:103A50000AF00EFDCDE7214D4FF4B2732A462949F5
:103A600020480AF00CFD4FF4B27128460AF000FD20
:103A70007EE71A4D40F265132A461E4919480AF09E
:103A8000FEFC40F2651128460AF0F2FC73E7DFF80D
:103A90004C804FF4B4734246174912480AF0EFFCC9
:103AA0004FF4B47140460AF0E3FC69E70B4D40F275
:103AB0006B132A4614490B480AF0E1FC40F26B11E3
:103AC00028460AF0D5FC0025A946EEE60022F7E6D6
:103AD0000022F5E6002D7FF4F9AE2AE71000010080
:103AE0005C0001005CFF00006C000100A93B0000CD
:103AF000800001008C000100B0000100C80001003E
:103B0000E0000100F000010018060100DFF880B0BD
:103B1000B9235A461F4920480AF0B1FC51461F48B4
:103B20000AF0ADFCB92158460AF0A2FCD9E64A4693
:103B3000414620460AF0B0FBDAE6154D8E232A46B0
:103B4000174915480AF09BFC514616480AF097FCA5
:103B50008E2128460AF08CFCE4E613F0200F04D0F6
:103B600023F02003A3830225ECE60025EAE6084DB6
:103B7000B9232A46074908480AF081FC214607482C
:103B80000AF07DFCB92128460AF072FC53E600BF1A
:103B900008010100380101005CFF00005001010034
:103BA00068010100800101002DE9F04104460D4645
:103BB00000F114064FF02003EFF3118783F312880E
:103BC000BFF36F8F304606F0DDF950B1304606F096
:103BD000F9F9A5613A4601212046FFF7FBFDBDE852
:103BE000F081DFF820808E234246074907480AF01B
:103BF00046FC314606480AF042FC8E2140460AF057
:103C000037FCE3E708010100680101005CFF0000E8
:103C1000800101002DE9F84F044688460AF074FB44
:103C2000061E58DB04F114074FF02003EFF311894F
:103C300083F31288BFF36F8F384606F0A3F9E8B11B
:103C4000384606F0BFF9A58B05F00705E38B4FF664
:103C5000FF72934256D02E46022D1FD02DB3042D55
:103C600023D0062D21D0052D53D0012D36D16FF054
:103C700004064FF0000A534652461CE03C4D8E238A
:103C80002A463C493C480AF0FAFB39463B480AF0D0
:103C9000F6FB8E2128460AF0EBFBD1E70133E383E4
:103CA0004FF0010A00231A4605E0B5FA85F35B09D7
:103CB0004FF0000A012242B10022C8F800206268D9
:103CC00072B3C2F80080C4F8048073B34A4602217C
:103CD0002046FFF77FFD3046BDE8F88F284E40F2C2
:103CE000C9133246274924480AF0C9FB40F2C911DA
:103CF00030460AF0BDFB6FF004064FF0000A534651
:103D00005246D8E76FF00A064FF0000A5346524673
:103D1000D1E76FF085064FF0000A53465246CAE7D6
:103D2000C4F80480C4F80080CFE7384606F03AF9BA
:103D300068B189F31188BFF36F8FBAF1000FCAD051
:103D400000232A46414620460AF0F4FAC3E7DFF88A
:103D500020B0B9235A460C4907480AF090FB39466F
:103D60000A480AF08CFBB92158460AF081FBE0E7CB
:103D700008010100680101005CFF000080010100F2
:103D800010000100F00001003801010050010100A5
:103D90002DE9F04706460D461446B2F5802F22D293
:103DA000042C31D9221FEC1D24F00704154425F002
:103DB00007052D1B4FEAD508172D36D93460C4F8F6
:103DC00008800023E360B8FA88F6C6F12007C6F140
:103DD0002406B60007364FEAD60909F10103434528
:103DE00034D8002349E0384F40F2E3133A463749CC
:103DF00037480AF044FB37480AF041FB40F2E31130
:103E000038460AF035FBCBE72F4F4FF4F5733A46AF
:103E100031492F480AF033FB30480AF030FB4FF4A9
:103E2000F57138460AF024FBBCE7274F40F2F31344
:103E30003A462B4926480AF022FB28480AF01FFB85
:103E400040F2F31138460AF013FBB7E7DFF878A029
:103E50004FF40173524623491D480AF010FB1F48D6
:103E60000AF00DFB4FF4017150460AF001FBB8E770
:103E70001A1D002144F822100133BB42F8DB4FEA3F
:103E800049039BB263800022228043F001036380D8
:103E9000A8EB09084FEA480126F00706B31CE152D7
:103EA00024F8069025F00703A91C6252254424F843
:103EB00003806B8843F001036B80494620460AF07B
:103EC000B1FABDE8F08700BF980101006C02010063
:103ED0005CFF0000840201009C020100C00201009E
:103EE000DC0201000803010084460268002005E0AE
:103EF00000EB8000013203EB4000303813780449B6
:103F0000595C11F0040FF3D1CCF80020704700BFCA
:103F1000C11C010070B582B00446002303604360F9
:103F200083604B78252B02D04E1C01251FE0881C96
:103F3000E37045E1237843F004032370B5B1013603
:103F400014E0237843F008032370F7E7237843F065
:103F500010032370F2E7237843F020032370EDE78A
:103F6000237843F040032370E8E7002545B3337816
:103F7000203B102BF9D801A252F823F04D3F00004E
:103F80006B3F00006B3F0000573F00006B3F00009D
:103F90006B3F00006B3F00006B3F00006B3F000079
:103FA0006B3F00006B3F0000433F00006B3F000091
:103FB000353F00006B3F00006B3F0000613F000099
:103FC000237803F04403442B5FD00196237843F019
:103FD0008003237033782A2B5CD001A8FFF784FF7D
:103FE000019B9E420FD0237843F0800323706060D2
:103FF000DBB2C3F34003002854DB002213432278D2
:1040000063F341022270019B01931B782E2B14BF96
:1040100000230123627863F341026270002B43D0D6
:10402000019B5A1C01925B782A2B3FD001A8FFF715
:104030005BFFA0602378C3F3400300283EDB00222F
:104040001343227863F341022270019803784C3BBA
:104050002E2B00F29D80DFE803F0909B9B9B9B9BA7
:104060009B9B9B9B9B9B9B9B9B9B9B9B9B9B9B9BA0
:104070009B9B9B9B9B9B339B579B459B9B9B9B9B92
:104080009B9B899B9B9B9B9B820023786FF3861352
:1040900023709AE7637843F001036370334601337A
:1040A0000193B1E70122A9E70198CFE7637843F0D4
:1040B00004036370104601300190C7E70122BFE797
:1040C000421C4378682B06D06378022161F3C60353
:1040D000637010461EE06378012262F3C6036370CA
:1040E000023017E0421C43786C2B06D06378032122
:1040F00061F3C603637010460CE06378042262F338
:10410000C6036370023005E06378052262F3C603DC
:104110006370013010F8013BE370A3F14102372ACC
:104120007DD8DFE802F05E7C7C7C5E5E5E7C7C7C21
:104130007C7C7C7C7C7C7C7C7C7C7C7C7C4F7C7CEC
:104140007C7C7C7C7C7C5E7C4F3A5E5E5E7C3A7CD8
:104150007C7C7C654F717C7C717C4F7C7C4F637870
:10416000062262F3C60363700130D3E76378072247
:1041700062F3C60363700130CCE76378082262F310
:10418000C60363700130237843F002032370C1E754
:1041900063786FF3C6036370BCE7A278012161F313
:1041A0000202A270627802F07802402A10D0632BDB
:1041B00013D02378C3F34002154365F34103237002
:1041C00002B070BDA278022161F30202A270E9E799
:1041D000217841F001012170E9E7151E18BF012582
:1041E000E7E7A378042262F30203A3700125E0E766
:1041F000A378032262F30203A370637803F07803C9
:10420000402BD6D10125D4E7A378032262F3020321
:10421000A370637813F0780FCBD00125C9E723781A
:1042200043F001032370C4E72DE9F04F83B0044647
:104230000D4601929A460C9ED378324A13F802B08A
:104240000BF0030B6F2B0FD006D9702B0FD0782BF0
:1042500010D14FF0100923E0582B02D04FF00A097B
:104260001EE04FF010091BE04FF0080918E04FF076
:10427000100915E04FF00A0912E0D2B23032D2B282
:1042800006F8012D3A46434620462946FCF7A6FB90
:10429000BC4275F1000319D3564517D904460D46A3
:1042A0004FF000084F464A46434620462946FCF751
:1042B00095FB092AE1D9BBF1010F03D0D2B25732E5
:1042C000D2B2DDE7D2B23732D2B2D9E7019B1B7846
:1042D00013F0200F05D0B9F1080F06D0B9F1100F77
:1042E00009D0304603B0BDE8F08F019A937843F0CF
:1042F00008039370F5E7019A937843F010039370E5
:10430000EFE700BFC11C01002DE9F04F91B0064658
:104310000D4691460393002499F80000002800F010
:10432000D582252808D009F101092946B04700287F
:10433000C0F2CD820134EFE7002304930593069386
:10434000079308930993494606A8FFF7E3FD0290F7
:104350009DF8193013F0010F00F09780039B1A1D90
:1043600003921F68002FC0F288809DF8193013F067
:10437000040F00F09C80039B1A1D0392D3F800A049
:10438000BAF1000FC0F28A800023079308939DF8CA
:104390001A3003F007039DF81910C1F3C301012B74
:1043A00000F08E80022B00F0D380042B00F02481DB
:1043B000032B00F03B819DF8188018F0030B40F0B0
:1043C0003B819DF81B30253B532B00F2E681DFE853
:1043D00013F04001E401E401E401E401E401E4013B
:1043E000E401E401E401E401E401E401E401E401A5
:1043F000E401E401E401E401E401E401E401E40195
:10440000E401E401E401E401E401E401E401E40184
:10441000E401E401E401E401E401E401E401E40174
:10442000E401E401E401E401E401E401E401E40164
:10443000E401E401E401E4018101E401E401E401B7
:10444000E401E401E401E401E401E401E4015E01CA
:104450006701E401E401E401E4016701E401E4012E
:10446000E401E401BE018101A201E401E4014D0186
:10447000E4018101E401E40181019DF8183043F079
:1044800004038DF818307F426FE79DF91830002B38
:1044900002DB4FF0FF3768E7079F66E79DF81930AA
:1044A0006FF341038DF819304FF0FF3A6CE713F0CA
:1044B000020F02D0DDF820A066E74FF0FF3A63E775
:1044C000CB1E042B04D8DFE803F00B1D2935350083
:1044D000039B1A1D03921B68DA170493059206E0EA
:1044E000039B1A1D03921B68DA1704930592012996
:1044F00028D002297FF45FAFBDF91030DA1704939A
:10450000059258E7039B073323F0070303F10802E2
:104510000392D3E90023CDE90423E8E7039B0733A3
:1045200023F0070303F108020392D3E90023CDE946
:104530000423DCE7039B1A1D03921B68DA1704931C
:104540000592D4E79DF8103004930023059332E7D9
:10455000CB1E042B04D8DFE803F00B1F35414100CC
:10456000039B1A1D03921B680493002305931EE00E
:104570009DF81B30632B07D0039B1A1D03921B6809
:1045800004930023059312E0039B1A1D03921B68FA
:104590000493002305930AE0039B073323F00703EA
:1045A00003F108020392D3E90023CDE90423012992
:1045B0001CD002297FF4FFAEBDF810300493002315
:1045C0000593F8E6039B073323F0070303F1080282
:1045D0000392D3E90023CDE90423E8E7039B1A1DE6
:1045E00003921B68049300230593E0E79DF81030C5
:1045F000049300230593DEE608290BD0039B0733C1
:1046000023F0070303F108020392D3E90023CDE965
:104610000423D0E6039B073323F0070303F10802CA
:104620000392D3E90023CDE90423C4E6039B1A1DBA
:1046300003921B680493BEE6029F3B464A46294606
:10464000304609F0FBFE0028C0F241810444B9461F
:1046500062E629462520B0470028C0F2388101349F
:10466000D8460DF13E0A4FF000099BE0DDF81090AE
:10467000BAF1000F07DB514648460AF050FE09EB3D
:10468000000AD8468EE04846FCF7DBFBF7E7049BC0
:104690008DF82830D8460DF1290A0DF1280981E05E
:1046A00018F0080F05D118F0100804D04FF02008BA
:1046B00001E04FF02B08049A059B002B02DB0492CB
:1046C000059308E0524263EB4303049205934FF0D5
:1046D0002D0800E0D8460DF13E0300930AAB06AA70
:1046E000DDE90401FFF7A0FD8146BAF1000FC0F239
:1046F00088800DF13E03A3EB09039DF818206FF3AA
:1047000086128DF818209A457ED9AAEB03030793E9
:104710000DF13E0A46E0049828B9D846DFF8B4A166
:10472000AAF105093EE00DF13E0300930AAB06AA8B
:104730000021FFF779FD81469DF81A3043F0100300
:104740008DF81A3078238DF81B30D846CDE7049ABF
:104750009DF81930C3F3C303072B06D8DFE803F035
:10476000040B0D0F1115191B1460D8460DF13E0AEC
:104770004FF0000916E01470F7E71480F5E71460B5
:10478000F3E7E31714605360EFE7E3171460536037
:10479000EBE71460E9E71460E7E7D8460DF13E0A5D
:1047A0004FF00009B9F1000F00F08D80AAEB09026B
:1047B000B8F1000F00D001329DF81A1011F0100F5F
:1047C00025D00232079B134411F0400F01D0089A04
:1047D0001344002F31DDFF1A9DF8183013F0040F39
:1047E0002BD113F0400F17D0B8F1000F17D0294686
:1047F0004046B04700286ADB0134D8464FF0300B02
:104800000FE00DF13E0ACDE70DF13E0ACAE711F0C7
:10481000080FD7D00132D5E74FF0200B01E04FF061
:10482000300B3B465F1E002B07DD29465846B0473C
:1048300000284CDB01343B46F4E7B8F1000F05D00B
:1048400029464046B047002841DB01349DF81A3024
:10485000C3F30012C3F3C003134305D0294630202D
:10486000B047002833DB01349DF81A3013F0100FE5
:1048700006D029469DF81B00B047002827DB0134ED
:10488000079B03F1FF38002B07DD29463020B04796
:1048900000281CDB01344346F3E753464A462946C9
:1048A000304609F0CBFD002811DB0444002F07DD62
:1048B00029462020B047002809DB0134013FF5E7F5
:1048C000DDF8089028E5DDF8089025E5204611B0D0
:1048D000BDE8F08F3903010008B54FF02002EFF377
:1048E000118382F31288BFF36F8F01F0FFFF03483B
:1048F00009F0BCFC00F0A8FFFCE700BF3C0301008E
:10490000002950D12DE9F8430746002422E0DFF8C2
:1049100098904FF499734A462449254809F0AFFD11
:104920004FF49971484609F0A3FD1FE0DFF8789035
:1049300085234A461D491E4809F0A1FD85214846A8
:1049400009F096FD1EE058F805301B6839463046E0
:1049500098470134174B184A9B1AB4EB231F20DAEF
:104960004FEA0418144D15EB0416D0D073685B7928
:10497000002BEED03946304609F092FD0028E8D0F1
:10498000002ED3D0002FDED1DFF81C9086234A46BC
:104990000A49074809F073FD8621484609F068FD79
:1049A000D1E7BDE8F883704768030100A003010068
:1049B0005CFF0000C8FB0000A8FB0000B80301007A
:1049C000014B53F8200070473C040100F8B5204B20
:1049D000204A9B1A1E11902B0ED81F4BBFF35B8FE2
:1049E00053E8002F511C43E800100028F8D1BFF312
:1049F0005B8F5ABB002417E0184C40F27323224609
:104A00001749184809F03BFD40F27321204609F090
:104A10002FFDE2E70F4B03EB07135B6804221968D5
:104A2000284600F0D3F80134B4420FDA2746094D86
:104A300005EB04152B7B002BF5D02301054AD35839
:104A40009B69002BE6D028469847E3E7F8BD00BFF6
:104A5000C8FB0000A8FB000028470020CC03010091
:104A6000140401005CFF000038B108B5044A10606E
:104A7000084600F0C3FA002008BD6FF0150070472B
:104A80002440002008B50023044A1370044A136030
:104A90004FF400410348FFF7E7FF08BD85540020AD
:104AA00024470020A5E40000204B1B7803B1704789
:104AB0002DE9F041FFF78AFF002413E0DFF8708052
:104AC0004FF4997342461B491B4809F0D8FC4FF438
:104AD0009971404609F0CCFC0FE07B595B69304688
:104AE00098470134154B164A9B1AB4EB231F17DA6B
:104AF0002701134D15EB0416E0D073685B79002B8A
:104B0000EFD0002EE9D1DFF82880D72342460949AB
:104B1000094809F0B4FCD721404609F0A9FCDCE7BC
:104B2000024B01221A70BDE8F08100BF85540020BD
:104B300068030100A00301005CFF0000C8FB000047
:104B4000A8FB0000014B01221A707047845400201A
:104B50000D4BBFF35B8F53E8002F013243E8002178
:104B60000029F8D1BFF35B8F00B97047074BBFF343
:104B70005B8F53E8002F013A43E800210029F8D168
:104B8000BFF35B8FF1E700BF2447002020470020E0
:104B900010B50446044B1B689847A06000212046CE
:104BA000FFF7AEFE10BD00BF24400020054B064AB3
:104BB0009B1AB1EBD30F02D252F83100704700209C
:104BC000704700BFA8FB000060FB0000F8B504467A
:104BD0000E461E4D451B2D11013503681B6863B140
:104BE000EDB2CCB163681D7114B363681E60636875
:104BF00001225A71FFF7A6FFF8BD154FBB233A46B5
:104C00001449154809F03BFC144809F038FCBB2155
:104C1000384609F02DFCE3E7114FE6233A461149E7
:104C20000D4809F02CFCE621384609F021FCD9E7B3
:104C30000B4D40F217132A460A49074809F01FFC9A
:104C400040F21711284609F013FCCEE7A8FB00003C
:104C500048040100A40401005CFF0000BC04010042
:104C600068030100A00301000EB400B582B0014644
:104C700003AB53F8042B01930348FFF745FB02B045
:104C80005DF804EB03B07047D9E4000030B585B09F
:104C900011F0440F05D01A4B1C6834B9002005B040
:104CA00030BD1849FFF7E0FFF9E7174B1968B2FB71
:104CB000F1F1B1FBF4FC154AA2FB0C32D20A4FF41D
:104CC000616E0EFB12CE124BA3FB0E535B0904FB6D
:104CD0001C114FF47A7C0CFB01F1B1FBF4F505FBE0
:104CE00014110CFB01F1B1FBF4F102910195C3EB3E
:104CF0000311AEEB810100910649FFF7B5FFCEE746
:104D00002C470020E004010030470020C5B3A291E9
:104D100089888888EC04010061B108B52AB1064A87
:104D200052F8232012B9054A00E0044A0449FFF76B
:104D30009BFF08BD704700BFAC05010008050100DE
:104D40001005010011F0100F0BD108B511F0200F64
:104D500003D00449FFF788FF08BD0349FFF784FF2C
:104D6000FAE770479CFD00009C1C01002DE9F04112
:104D700005460F46164698460699FFF7E3FF0024BE
:104D8000444505DA24492846FFF76EFF0134F7E76A
:104D9000002409E020492846FFF766FF0BE01F4981
:104DA0002846FFF761FF01340F2C0CDC002C02DDDC
:104DB00014F0070FEED0B442F1D23A5D18492846FC
:104DC000FFF752FFEFE717492846FFF74DFF002492
:104DD00009E011492846FFF747FF0BE01249284632
:104DE000FFF742FF01340F2C13DC002C02DD14F01E
:104DF000070FEED0B44207D23A5D0C4BD35C13F0F0
:104E0000970FEBD12E22E9E703492846FFF72CFF45
:104E1000E8E7BDE8F08100BF380501001C0501008E
:104E2000140501002005010024050100C11C01003A
:104E30002DE9F041804616461D46BDF9187059B956
:104E40000024002F1CDB86B10123079A934013F046
:104E5000100F18D10D4E09E00D4B079A53F8222080
:104E60000C49FFF701FF0446EBE7084E3946284698
:104E7000FFF79CFE024631464046FFF7F5FE04442C
:104E80002046BDE8F081044EF0E700BF2805010090
:104E9000C005010034050100300501002DE9F04F87
:104EA00085B005460C46164603939DF8388001F000
:104EB000020B01F0010AC1F3C00909F00BFBE8B1D4
:104EC000024613492846FFF7CFFE0746BBF1000F05
:104ED00016D142465146284609F028FBCDF80480F9
:104EE000BDF9403000939DF83C3032464946284693
:104EF000FFF79EFF384405B0BDE8F08F0027E5E7D7
:104F0000039A21462846FFF7C1FE0744E1E700BFA8
:104F10003C0501002DE9F04784B006460C461746D3
:104F20008B680A88C2F3821812F4E07F37D04A688F
:104F30000978C1F3C2017AB32948121A42F3CF02A9
:104F400002920191CDF80080002239463046FFF7E9
:104F5000A5FF8146254655F8103BC3F3492353B1BD
:104F6000B8F1000F1ED11F482B4632461E4909F0EA
:104F700031F9002818DB6288C2F3CB022168C1F343
:104F800049212944FAB9B8F1000F22D1304609F07D
:104F900000FB04B0BDE8F0874FF0FF32D0E74FF0E0
:104FA0000009D7E71148DFE7DFF844A040F2B72354
:104FB00052461049104809F062FA40F2B7215046B3
:104FC00009F056FAD7E700974B46304609F0C6FA83
:104FD000D9E742463946304609F0B4FAD6E700BF71
:104FE00060FB0000F7E4000009430000D9E4000082
:104FF00040050100800501005CFF0000074B012215
:105000001A6004E04008054A13685B001360044B13
:105010009842F7D8034B1860704700BF3047002014
:1050200040420F002C4700202DE9F04F87B002AF1F
:105030008246796091469846BE6BD7F840B0BBF186
:10504000000F16D07B6CFB6000935B46FA6B10215F
:105050000020FEF771F8051E0CDA264C6723224665
:105060002549264809F00BFA6721204609F000FA85
:1050700000E000252946AB19173300246FF3000424
:105080006FF341046FF382046AF3C50469F3881473
:1050900065F3522466F3DE446FF3DF7423F00703F5
:1050A000ADEB030D02AD6B4613F118000AD0BBF156
:1050B000000F07D07B6C00935B46FA6BFEF73CF861
:1050C000002809DB434622467968284609F06EFA33
:1050D0001437BD46BDE8F08FDFF8189081234A46AB
:1050E0000549064809F0CBF98121484609F0C0F985
:1050F000E8E700BFD4050100100601005CFF0000D6
:1051000070B506460D46002406E0054B1868315D73
:1051100083685B6898470134AC42F6D3284670BD7B
:105120004C470020014B1960002070473C4700208D
:1051300010B50948094B186009F09FFF00B110BD78
:10514000074C792322460749074809F098F9792145
:10515000204609F08DF9F2E7C8F900004C4700201D
:105160001C060100540601005CFF000008B5034B5B
:1051700001221A70024809F00CFA08BD865400207A
:10518000B006010010B50C46044B1868FFF718FC78
:1051900003460F2221460248984710BD3C47002095
:1051A000B0060100034B01221A70034B034A1A6038
:1051B000704700BF875400207847002060470020D8
:1051C000014B1960002070477C47002008B518B9D2
:1051D000044B00221A7008BD41F288300AF03DF8F5
:1051E000F9E700BF8754002038B504460A4B012276
:1051F0001A700A4B1B782BB938BD651E2046FFF785
:10520000E5FF2C46002004F0C3FB0028F4D0024B3D
:105210001B78002BF1D1EFE7875400208854002041
:10522000F8B506460D46042706E03846FFF7DCFFD2
:105230009CB90D4B1B7883B12A463146002004F0FF
:1052400043FB04460028F0D1074B1B78002BEFD01E
:10525000013F3846FFF7BAFFEAE714B9024B1B7863
:1052600003B92C462046F8BD8754002008B5034BEF
:1052700001221A70024809F08CF908BD88540020F8
:10528000F006010010B50C46044B1868FFF798FBB8
:1052900003460F2221460248984710BD7C47002054
:1052A000F006010070B5404B1D7D05F01F03012283
:1052B0009A4069093D4B03EB8103D043BFF35B8FF9
:1052C00053E8001F01EA000443E80046002EF7D12E
:1052D000BFF35B8F0A4200D170BD354A05EB450331
:1052E000980002EB83033349A9B15978105C09F0A7
:1052F00060FA4FF02003EFF3118683F31288BFF3B7
:105300006F8F2D4804F03EFE58B12B4804F05AFE32
:105310002A4B1C6820E0002383F31188BFF36F8FB2
:10532000E7E7274C8E2322462649274809F0A7F8AD
:105330002149264809F0A3F88E21204609F098F863
:10534000E3E7194B1B7D03EB4303194911F82300D5
:1053500090470CB1246824B11CB1A268002AF0D196
:10536000F7E7154804F01EFE70B186F31188BFF30D
:105370006F8F0F4A05EB4505A90002EB8505002359
:1053800053506B60AB60A7E70D4CB9232246104920
:105390000D4809F074F808490E4809F070F8B92171
:1053A000204609F065F8E0E750520020A8470020A9
:1053B00098470020B3E700008C470020904700206A
:1053C00008010100680101005CFF0000800101008C
:1053D000380101005001010070B504466D4B1D7D80
:1053E0006A09BFF35B8F6C4B53F82230BFF35B8FBE
:1053F00005F01F02134113F0010F1DD005EB45030B
:10540000664A12F8233033B3B4F1FF3F39D105F0C7
:10541000C9FB4FF02003EFF3118683F31288BFF32B
:105420006F8F5F4804F0AEFD002840D05C4804F068
:10543000C9FD5C4B1C6855E00146284600F0D6F8D3
:105440000028DBD005EB4503544A02EB830307C871
:1054500083E80700D2E705F01F02012393406D099E
:105460004D4A02EB8505DB43BFF35B8F55E8002F08
:105470001A4045E800210029F8D1BFF35B8F0020D6
:1054800077E005EB4503454A02EB83039868410C3E
:10549000C003454BC018454A4FF0000341F10001DD
:1054A000FBF79CFA0121201A06F0ACFEAFE7404C56
:1054B0008E2322463F49404808F0E1FF38493F48E3
:1054C00008F0DDFF8E21204608F0D2FFAEE7314B19
:1054D0001B7D03EB4303314911F8230090470CB1C6
:1054E000246824B11CB16268002AF0D1F7E72C4887
:1054F00004F058FD00283DD086F31188BFF36F8F6C
:1055000005F01F03012199406B092D4A02EB83032B
:10551000BFF35B8F53E8002F0A4343E800200028C5
:10552000F8D1BFF35B8F274B4BB11C4B05EB45020A
:1055300003EB8201497813F8220009F02EF9FFF7F6
:10554000B1FE05F01F03012404FA03F36D09124AAA
:1055500002EB8505DB43BFF35B8F55E8002F1A4054
:1055600045E800210029F8D1BFF35B8F06F0A6F8CB
:10557000204670BD0E4CB923224613490E4808F050
:105580007EFF0749114808F07AFFB921204608F04C
:105590006FFFB1E750520020A44700209847002039
:1055A0008C470020904700203F420F0040420F00F0
:1055B00008010100680101005CFF0000800101009A
:1055C000A84700209BE700003801010050010100BE
:1055D000BFF35B8F044B53F82000BFF35B8F0038A1
:1055E00018BF0120704700BFAC4700202DE9F041F3
:1055F00082B00E4601A900F043F8441E24B207E031
:10560000B6F1FF3F32D04044B0422FD9013C24B222
:10561000002C2ADB019B04EB440203EB820513F808
:105620002200FFF7D5FF0028F0D16868410CC003C5
:10563000104FC019104A4FF0000341F10001FBF771
:10564000CDF98046AB68590CDB03D8190A4A4FF0F4
:10565000000341F10001FBF7C1F9084B1B68B3F1EE
:10566000FF3FCDD08342CBD8D0E70025284602B0FB
:10567000BDE8F0813F420F0040420F00284000206B
:1056800008B9024B0B600020704700BF04070100FF
:1056900008B5024808F008FC08BD00BF0407010077
:1056A000D0B108B54268042A05D0D2B1006804F030
:1056B000C9FF002008BD03680022BFF35B8F53E8D9
:1056C000001F012903D143E800200028F7D1BFF3D0
:1056D0005B8F04D11046EDE76FF4E040704702485D
:1056E000E8E70248E6E700BFE98FFFFFEA8FFFFF28
:1056F00020B308B54268042A02D092B911480FE0DD
:1057000003680122BFF35B8F53E8001F002903D118
:1057100043E800200028F7D1BFF35B8F0CD10020B5
:1057200008BD00684FF0FF324FF0FF3304F06AFE0F
:105730000028F5D00448F3E70348F1E76FF4E040B0
:10574000704700BFEA8FFFFFE98FFFFF10B50446E7
:1057500090B16368042B0ED0082B0CD05BB113F012
:10576000020F0ED1236800221A605A609A60DA6034
:105770001A610023636010BD054B5B6805489847BC
:10578000E7E72146044804F087FB00232360F0E7A5
:105790006C4100200C070100C847002010B50446EA
:1057A00078B16368042B0BD0082B09D00BB92368A0
:1057B00063B1206809F0F0FC636843F001036360A3
:1057C00010BD104B5B6810489847EAE74FF0FF3276
:1057D0004FF0FF3321460D4804F0E8FA08B923687A
:1057E0001BB9084B5B680A489847236800221A6077
:1057F0005A609A60DA601A61636843F0020363607A
:10580000D7E700BF6C4100200C070100C84700200B
:105810003407010008B5402314220449044809F064
:1058200067FC0449044808F09FFB08BDE8470020D6
:10583000C8470020740701006407010001491022D5
:105840000A60704710ED00E072B6404080F31188A6
:10585000BFF36F8FBFF34F8F30BF62B6BFF36F8F51
:10586000704700BF72B6494081F3118820BF80F3B2
:10587000118862B6704700BF70B586B005461E4EEF
:105880008368059343680493036803931B4B029357
:10589000002401940094234601223146204608F05A
:1058A000A2FE6B6905932B690493EB680393144B79
:1058B000029301940094234601223146204608F0C9
:1058C00092FEEB6903930F4B0293019400942346DD
:1058D00001223146204608F086FEAB6903930A4B4D
:1058E000029301940094234601223146204608F099
:1058F0007AFE06B070BD00BF88FB0000880701007B
:10590000B8070100E8070100F807010040B20028CD
:1059100007DB00F01F02400901239340014A42F8CF
:105920002030704700E100E04209054B53F8222087
:1059300000F01F00012303FA00F01040704700BF81
:1059400000E100E0F8B504464D1C072D0BD860B20D
:1059500000281BDB6D01EDB200F1604000F56140F5
:1059600080F80053F8BD0E460C4F57233A460C49B9
:105970000C4808F084FD0723224631460A4808F007
:105980007EFD5721384608F073FDE0E700F00F0078
:105990006D01EDB2054B1D54E4E700BF280801007E
:1059A000600801005CFF00007C08010014ED00E0CD
:1059B00030BFFFF7FDBF00BF08B50B4B0B4A22F00D
:1059C0007F029A60BFF34F8FBFF36F8FD3F88820A9
:1059D00022F47002C3F8882004F014F906F020FACB
:1059E00000F072FC04F06CF900ED00E00000000033
:1059F0000A4A9368C3F8A80009490968C3F8AC10BB
:105A000008494B6843F080534B60002383F31188AF
:105A1000BFF36F8F9368D3F8AC00704750520020EB
:105A20002C15010000ED00E013498A684FF03000AA
:105A30001044EFF3098C80E8F01F202080F31288D7
:105A4000BFF36F8F0D4F4FF00066CA698A603E60EA
:105A5000D2F8A8000023C2F8A83080F3118804B55A
:105A6000104600F0DBFCBDE8044002F1300090E895
:105A7000F01F8CF3098870475052002004ED00E0BD
:105A80001EF0040F0CBFEFF30880EFF3098081696B
:105A900011F8021C0229FFD001B508F0BFFD01BDBD
:105AA00010B4A2F120040E4942F8081C21F00101B3
:105AB00042F8081C42F8203C019B42F81C3C029B27
:105AC00042F8183C039B42F8143C4FF0807342F8B4
:105AD000043C04650023C0F8A83010BC704700BF28
